:020000040800F2
:100000000000022065090008AD090008617A0008B7
:10001000AD090008AD090008AD09000800000000A6
:10002000000000000000000000000000AD09000812
:10003000AD09000800000000AD090008E5790008DE
:10004000AD090008AD090008AD090008AD090008B8
:10005000AD090008AD090008AD090008AD090008A8
:10006000AD090008AD090008AD090008A165000848
:10007000AD65000809500008B9650008C5650008AD
:10008000AD740008D15A0008AD090008AD09000898
:10009000AD090008AD090008AD090008AD09000868
:1000A000AD090008AD090008AD090008AD09000858
:1000B000A1360108AD360108B9360108055B000814
:1000C000AD090008115B0008AD090008112F0108F7
:1000D0001D2F0108E17200080D730008417300082C
:1000E000AD090008AD09000800000000AD090008D6
:1000F000AD090008AD090008AD090008AD09000808
:10010000AD090008156A0008C5360108292F010845
:1001100075730008A9730008D5520008AD090008DE
:10012000BD520008C95200084D2F0108812F010857
:10013000E1740008AD090008AD090008AD09000828
:1001400000000000000000000000000000000000AF
:10015000AD090008AD090008AD090008DD7300080D
:100160001D5B0008AD090008F5790008197A000840
:10017000AD0900083D7A0008AD090008AD09000886
:10018000AD090008AD0900081174000845740008A5
:10019000352F0108412F0108AD090008AD090008FD
:1001A000AD090008AD090008AD090008AD09000857
:1001B000C1620008AD090008AD090008AD090008DA
:1001C000AD090008AD090008AD090008AD09000837
:1001D000AD090008AD090008AD090008AD09000827
:1001E000AD090008AD090008AD090008AD09000817
:1001F000AD090008AD090008AD090008AD09000807
:10020000AD090008AD090008AD090008AD090008F6
:10021000AD090008AD090008AD090008AD090008E6
:10022000AD090008AD090008AD0900080000000094
:10023000AD090008AD09000800000000AD09000884
:10024000AD090008AD090008AD090008AD090008B6
:10025000AD090008AD090008AD090008AD090008A6
:10026000AD090008AD090008AD090008AD09000896
:10027000AD090008AD09000879740008000000000D
:10028000AD090008AD090008AD0900080000000034
:0802900000000000AD090008A8
:1002980010B5054C237833B9044B13B10448AFF3B8
:1002A80000800123237010BDF0030024000000002B
:1002B800C861010808B5034B1BB103490348AFF3F4
:1002C800008008BD00000000F4030024C861010894
:1002D800034613F8012B002AFBD1181A013870477E
:1002E80081F0004102E000BF83F0004330B54FEADF
:1002F80041044FEA430594EA050F08BF90EA020F4C
:100308001FBF54EA000C55EA020C7FEA645C7FEADE
:10031800655C00F0E2804FEA5454D4EB5555B8BF01
:100328006D420CDD2C4480EA020281EA030382EA72
:10033800000083EA010180EA020281EA0303362D04
:1003480088BF30BD11F0004F4FEA01314FF4801CD7
:100358004CEA113102D0404261EB410113F0004FE9
:100368004FEA03334CEA133302D0524263EB4303A0
:1003780094EA050F00F0A780A4F10104D5F1200E3E
:100388000DDB02FA0EFC22FA05F2801841F1000199
:1003980003FA0EF2801843FA05F359410EE0A5F16D
:1003A80020050EF1200E012A03FA0EFC28BF4CF09E
:1003B800020C43FA05F3C01851EBE37101F0004554
:1003C80007D54FF0000EDCF1000C7EEB00006EEB61
:1003D8000101B1F5801F1BD3B1F5001F0CD34908EB
:1003E8005FEA30004FEA3C0C04F101044FEA445242
:1003F80012F5800F80F09A80BCF1004F08BF5FEAC9
:10040800500C50F1000041EB045141EA050130BDA8
:100418005FEA4C0C404141EB0101013C28BFB1F5BA
:10042800801FE9D291F0000F04BF01460020B1FA05
:1004380081F308BF2033A3F10B03B3F120020CDAD8
:100448000C3208DD02F1140CC2F10C0201FA0CF0B6
:1004580021FA02F10CE002F11402D8BFC2F1200C1B
:1004680001FA02F120FA0CFCDCBF41EA0C019040D1
:10047800E41AA2BF01EB0451294330BD6FEA04041A
:100488001F3C1CDA0C340EDC04F11404C4F1200205
:1004980020FA04F001FA02F340EA030021FA04F317
:1004A80045EA030130BDC4F10C04C4F1200220FA6E
:1004B80002F001FA04F340EA0300294630BD21FAAC
:1004C80004F0294630BD94F0000F83F4801306BF72
:1004D80081F480110134013D4EE77FEA645C18BF66
:1004E8007FEA655C29D094EA050F08BF90EA020FFD
:1004F80005D054EA000C04BF1946104630BD91EAF5
:10050800030F1EBF0021002030BD5FEA545C05D1F7
:100518004000494128BF41F0004130BD14F5800436
:100528003CBF01F5801130BD01F0004545F0FE41AA
:1005380041F470014FF0000030BD7FEA645C1ABFDF
:10054800194610467FEA655C1CBF0B46024650EA16
:10055800013406BF52EA033591EA030F41F4002142
:1005680030BD00BF90F0000F04BF0021704730B5C8
:100578004FF4806404F132044FF000054FF000019D
:1005880050E700BF90F0000F04BF0021704730B55E
:100598004FF4806404F1320410F0004548BF404233
:1005A8004FF000013EE700BF42004FEAE2014FEA88
:1005B80031014FEA02701FBF12F07F4393F07F4F63
:1005C80081F06051704732F07F4208BF704793F066
:1005D8007F4F04BF41F40021704730B54FF4607479
:1005E80001F0004521F000411CE700BF50EA01027C
:1005F80008BF704730B54FF000050AE050EA010225
:1006080008BF704730B511F0004502D5404261EB94
:1006180041014FF4806404F132045FEA915C3FF4D5
:10062800D8AE4FF003025FEADC0C18BF03325FEA72
:10063800DC0C18BF033202EBDC02C2F1200300FA23
:1006480003FC20FA02F001FA03FE40EA0E0021FA48
:1006580002F11444BDE600BF53B94AB9002908BFE6
:1006680000281CBF4FF0FF314FF0FF3000F074B985
:10067800ADF1080C6DE904CE00F006F8DDF804E0F1
:10068800DDE9022304B070472DE9F047089D0446D0
:100698008E46002B4DD18A42944669D9B2FA82F22D
:1006A80052B101FA02F3C2F1200120FA01F10CFA69
:1006B80002FC41EA030E94404FEA1C48210CBEFBA1
:1006C800F8F61FFA8CF708FB16E341EA034306FB2A
:1006D80007F199420AD91CEB030306F1FF3080F0B9
:1006E8001F81994240F21C81023E63445B1AA4B206
:1006F800B3FBF8F008FB103344EA034400FB07F7A8
:10070800A7420AD91CEB040400F1FF3380F00A81E8
:10071800A74240F207816444023840EA0640E41BDD
:1007280000261DB1D4400023C5E900433146BDE889
:10073800F0878B4209D9002D00F0EF800026C5E92B
:10074800000130463146BDE8F087B3FA83F6002E43
:100758004AD18B4202D3824200F2F980841A61EBBB
:10076800030301209E46002DE0D0C5E9004EDDE7D9
:1007780002B9FFDEB2FA82F2002A40F09280A1EBC1
:100788000C014FEA1C471FFA8CFE0126200CB1FB16
:10079800F7F307FB131140EA01410EFB03F088420F
:1007A80008D91CEB010103F1FF3802D2884200F29C
:1007B800CB804346091AA4B2B1FBF7F007FB10112E
:1007C80044EA01440EFB00FEA64508D91CEB0404CC
:1007D80000F1FF3102D2A64500F2BB800846A4EB27
:1007E8000E0440EA03409CE7C6F12007B34022FA12
:1007F80007FC4CEA030C20FA07F401FA06F31C4341
:10080800F9404FEA1C4900FA06F3B1FBF9F8200C4D
:100818001FFA8CFE09FB181140EA014108FB0EF093
:10082800884202FA06F20BD91CEB010108F1FF3AE3
:1008380080F08880884240F28580A8F102086144EF
:10084800091AA4B2B1FBF9F009FB101144EA0141FD
:1008580000FB0EFE8E4508D91CEB010100F1FF34A8
:100868006CD28E456AD90238614440EA0840A0FB40
:100878000294A1EB0E01A142C846A64656D353D016
:100888005DB1B3EB080261EB0E0101FA07F722FA3A
:1008980006F3F1401F43C5E9007100263146BDE863
:1008A800F087C2F12003D8400CFA02FC21FA03F3C6
:1008B800914001434FEA1C471FFA8CFEB3FBF7F047
:1008C80007FB10360B0C43EA064300FB0EF69E426C
:1008D80004FA02F408D91CEB030300F1FF382FD205
:1008E8009E422DD9023863449B1B89B2B3FBF7F6AD
:1008F80007FB163341EA034106FB0EF38B4208D986
:100908001CEB010106F1FF3816D28B4214D9023EC6
:100918006144C91A46EA004638E72E46284605E7E4
:100928000646E3E61846F8E64B45A9D2B9EB0208B5
:1009380064EB0C0E0138A3E74646EAE7204694E745
:100948004046D1E7D0467BE7023B614432E7304678
:1009580009E76444023842E7704700BF0C4D0D4C6C
:1009680003E02B682360043504340B4B9C42F8D118
:100978000A4C02E0002323600434094B9C42F9D15D
:1009880007F096FA14F066FB01F0C6FCFEE700BF1C
:10099800F861010800000024F0030024F00300249B
:1009A800B8C70024FEE780B483B000AF78607B68E6
:1009B80010221A747B6818460C37BD465DF8047B14
:1009C800704780B483B000AF78607B6801229A607A
:1009D8007B680022DA607B6801225A617B6847F6EF
:1009E80012229A617B6818460C37BD465DF8047B75
:1009F800704780B582B000AF7860786803F09EFFDA
:100A080000BF0837BD4680BD84B080B58AB000AF4E
:100A1800786007F1340080E80E0007F108031846F3
:100A2800FFF7CFFF47F612233B6201233B61002308
:100A38007B610223BB610123FB617B6BFB603B8F06
:100A48007B817B8F3B81FA6B7B685A603A6C7B6851
:100A58009A607B6858687B685A687B689B6813440F
:100A680000227A6207F12402194600F063FA7B68D3
:100A780007F108021146184606F0E4FD00BF2837C2
:100A8800BD46BDE8804004B0704780B483B000AF75
:100A980078607B6803221A607B6801225A607B6851
:100AA80000221A7200BF0C37BD465DF8047B704700
:100AB80080B582B000AF78607B681846FFF773FF97
:100AC800786800F005F87B6818460837BD4680BD91
:100AD80080B483B000AF78607B6800221A607B68BE
:100AE80002229A607B680022DA607B68074A1288D3
:100AF8009A807B68064A1288DA807B683C221A75DD
:100B080000BF0C37BD465DF8047B7047745301087D
:100B18007853010880B582B000AF786039603B68CF
:100B28001A7D7B681A717B683A681146184604F08A
:100B3800F7FF00BF0837BD4680BD80B586B002AF5D
:100B480078600B46FB700023BB81FB787B73786869
:100B58007B681B7999B207F10C024FF47A73009302
:100B6800022305F073F800BF1037BD4680BD80B57D
:100B780088B000AF78607B68184602F0E1FB7B68BC
:100B88000121184602F0BCFC786800F096F97868F4
:100B980000F04CF9786800F079F9786800F07EF890
:100BA800786800F0B1F90123BB610023FB610023E1
:100BB8007B6102233B617B68203307F10C021146FD
:100BC800184604F091FB7B68203300220221184666
:100BD80004F008FC00BF2037BD4680BD80B582B058
:100BE80000AF78607B68184602F0C6FBF0EE407AEA
:100BF800B0EE670A0837BD4680BD80B582B000AF49
:100C080078607B68184602F0BBFBF0EE407AB0EEE5
:100C1800670A0837BD4680BD80B582B000AF7860EE
:100C280039607B683968184602F0A2FB00BF0837B4
:100C3800BD4680BD80B582B000AF78607B68183350
:100C4800184604F071F900BF0837BD4680BD80B56D
:100C580084B000AF78600023FB60FB68032B0BD8DF
:100C6800FB685B0168337A681344184603F0C0FDDB
:100C7800FB680133FB60F0E700BF1037BD4680BD5D
:100C880080B582B000AF78607B684033184603F0C7
:100C980003FE00BF0837BD4680BD0000B0B598B060
:100CA80000AF7860102002F04DFB0346A7F85030E3
:100CB80007F108030222396D184603F013FF0F20CD
:100CC80002F040FB0346A7F8543007F1080312333B
:100CD8000222796D184603F005FF152002F032FB59
:100CE8000346A7F8583007F1080324330222B96DE8
:100CF800184603F0F7FE122002F024FB0346A7F87B
:100D08005C3007F1080336330222F96D184603F008
:100D1800E9FE7B6803F1180007F1080104230422A7
:100D280003F0F4FE7B6803F168047B681833002144
:100D3800184604F00FF905467868FFF75EFFF0EEF5
:100D4800407ADFED2C0A00230022B0EE670A29461C
:100D5800204603F01BFD7B6803F188047B68183389
:100D68000121184604F0F6F805467868FFF745FFB4
:100D7800F0EE407ADFED1F0A00230022B0EE670A8A
:100D88002946204603F002FD7B6803F1A8047B682E
:100D980018330221184604F0DDF805467868FFF795
:100DA8002CFFF0EE407ADFED130A00230122B0EEAB
:100DB800670A2946204603F0E9FC7B6803F1C8046A
:100DC8007B6818330321184604F0C4F80546786890
:100DD800FFF713FFF0EE407ADFED060A0023012249
:100DE800B0EE670A2946204603F0D0FC00BF603702
:100DF800BD46B0BD6F12033B80B582B000AF7860CE
:100E08007B681846FFF754FE7B6818460837BD46CE
:100E180080BD80B582B000AF78607B681846FFF768
:100E2800EBFF7B6818460837BD4680BDB0B58CB06F
:100E380004AF786007F108031846FFF7EAFF07F1E7
:100E480008031846FFF744FE7B6849F24C241C440B
:100E58006D4607F1140393E8070085E8070007F1DA
:100E680008030ECB204600F074F800BF2037BD46BB
:100E7800B0BD80B582B000AF78607B68184603F0DB
:100E880049FD7B6818460837BD4680BD80B588B0E7
:100E980002AF786007F108031846FFF7EAFF7B689E
:100EA80003F1E8007B69009307F108030ECB00F01B
:100EB80070F800BF1837BD4680BD90B587B000AF49
:100EC80078607B6803F140041B2002F03BFA03467C
:100ED800BB811A2002F036FA03463B821C2002F03E
:100EE80031FA0346BB827868FFF787FEF0EE407A56
:100EF800B0EE670A7B693A69F968204603F09CFC02
:100F080000BF1C37BD4690BD80B582B000AF786089
:100F18000748FFF7BAFD7A6849F2482313440449A1
:100F2800184605F033FD00BF0837BD4680BD00BF39
:100F38000C04002480B584B000AFF860B9607A6012
:100F48007A68B968F86800F049F800BF1037BD46FC
:100F580080BD84B0B0B586B004AF786007F11C00DE
:100F680080E80E007B6803F108056C4607F128034A
:100F780093E8070084E8070007F11C030ECB284616
:100F880000F03BF800BF0837BD46BDE8B04004B0EC
:100F9800704784B090B585B002AF786007F11C0047
:100FA80080E80E007B681C4607F11C030FCB84E821
:100FB8000F007B6803F110007B68DA6800920ECBA3
:100FC800FFF722FD7B6824331846FFF712FD00BFA8
:100FD8000C37BD46BDE8904004B0704780B584B07A
:100FE80000AFF860B9607A607A68B968F86800F0AC
:100FF8008FF800BF1037BD4680BD84B080B582B081
:1010080000AF786007F1140080E80E007B6807F1F4
:10101800140211461846FFF77DFD7B68AE2118467D
:10102800FFF78BFD7B68D5211846FFF786FD7B68A7
:1010380080211846FFF781FD7B68A8211846FFF735
:101048007CFD7B681F211846FFF777FD7B68DA2156
:101058001846FFF772FD7B6812211846FFF76DFDF1
:1010680000BF7B68D3211846FFF767FD7B68002126
:101078001846FFF762FD7B6840211846FFF75DFDC3
:101088007B68A6211846FFF758FD7B68A4211846FF
:10109800FFF753FD7B688D211846FFF74EFD7B68EF
:1010A80014211846FFF749FD7B68A1211846FFF770
:1010B80044FD7B68C8211846FFF73FFD7B68812106
:1010C8001846FFF73AFD7B688F211846FFF735FD74
:1010D8007B68D9211846FFF730FD7B682521184623
:1010E800FFF72BFD7B68DB211846FFF726FD7B68A1
:1010F80034211846FFF721FD7B68AF211846FFF71A
:101108001CFD00BF0837BD46BDE8804004B07047ED
:1011180080B487B000AFF860B9607A607B681B68FC
:101128007B61FA68BB689A4207D07B69DAB2FB68D0
:101138001A70FB680133FB60F3E700BF1C37BD463C
:101148005DF8047B704780B582B000AF87ED010A77
:1011580097ED010A13F02CFCF0EE407AB0EE670A26
:101168000837BD4680BD80B483B000AF87ED010A63
:10117800D7ED017AF0EEE77AB0EE670A0C37BD4694
:101188005DF8047B704780B582B000AF87ED010A37
:1011980097ED010A13F03CFEF0EE407AB0EE670AD4
:1011A8000837BD4680BD90B587B000AF786039601C
:1011B8003B68DB0FFB75FB7D002B02D03B685B4275
:1011C80000E03B683B610A21386901F061F9F86089
:1011D800FA7DFB68D41807F10803184613F0DAF90A
:1011E80007F108032D222146786813F09FFA07F1CA
:1011F8000803184613F0CFF9FB7D1946786813F0F9
:10120800CCFA03463A69F968184601F081F900BF3B
:1012180078681C37BD4690BD80B584B000AF87EDB7
:10122800010AD7ED017AF0EEE77A07F108031846CC
:10123800B0EE670A13F05CFD87ED030A224B7B6072
:1012480097ED017AD7ED037A67EE277AC7ED017A31
:10125800D7ED017A9FED1D7A77EEC77AC7ED017A4F
:1012680097ED017AD7ED037A67EE277AC7ED017A11
:10127800D7ED017A9FED167A77EE877AC7ED017A76
:1012880097ED017AD7ED037A67EE277AC7ED017AF1
:10129800D7ED017A9FED0F7A77EEC77AC7ED017A1D
:1012A800BB6807EE903AF8EEE77A97ED017A77EEA9
:1012B800277AC7ED017A7B6807EE903AB0EE670AA5
:1012C8001037BD4680BD00BFA8A19D3FF5CA834029
:1012D800FBB3C040E092484080B582B000AF87EDD4
:1012E800010A97ED010AFFF797FFF0EE407A9FEDAC
:1012F800047A67EE877AB0EE670A0837BD4680BD84
:101308009B209A3E80B483B000AF78607B68184613
:101318000C37BD465DF8047B704780B483B000AFDE
:1013280078607B6818460C37BD465DF8047B7047CB
:1013380080B582B000AF786087ED000A7B683A68B4
:101348001A60786800F05FF800BF0837BD4680BDB6
:1013580080B582B000AF786087ED000A7B683A6894
:101368005A60786800F0BCF800BF0837BD4680BDF9
:1013780080B582B000AF786087ED000A7B683A6874
:101388009A60786800F060F800BF0837BD4680BDF5
:1013980080B582B000AF786087ED000A7B683A6854
:1013A800DA60786800F081F800BF0837BD4680BD74
:1013B80080B582B000AF78600B46FB707B68FA7826
:1013C80083F83C207B684FF000021A61786800F0CF
:1013D80087F800BF0837BD4680BD80B582B000AF32
:1013E80078607B68D3ED057AB0EE670AFFF774FF83
:1013F800F0EE407AB3EE047A67EE877AB0EE670AC9
:101408000837BD4680BD80B483B000AF78607B6884
:10141800D3ED087AB7EE007A37EE677A7B68D3EDBA
:10142800006AB7EE006AC6EE267AF7EE006A77EE33
:10143800E67A67EE277A7B68C3ED097A00BF0C3736
:10144800BD465DF8047B704780B582B000AF786018
:101458007B68D3ED0E6A7B6893ED027AC6EE877AD5
:10146800F1EE677AB0EE670A13F0D0FBF0EE407A3F
:101478007B68C3ED0A7A7B68D3ED0D6A7B6893EDD0
:10148800027AC6EE877AF1EE677AB0EE670A13F051
:10149800BDFBF0EE407A7B68C3ED087A7868FFF709
:1014A800B2FF00BF0837BD4680BD80B582B000AF2F
:1014B80078607B68D3ED0E6A7B6893ED037AC6EE9D
:1014C800877AF1EE677AB0EE670A13F09FFBF0EEC9
:1014D800407A7B68C3ED0B7A00BF0837BD4680BDF4
:1014E80080B483B000AF78607B6893F83C30002B01
:1014F80015D07B6893ED017A7B6893ED016A7B6870
:10150800D3ED006AC6EE267A77EE677AF0EEE77AD0
:10151800B6EE007A67EE877A7B68C3ED047A00BF7F
:101528000C37BD465DF8047B704780B483B000AFCC
:1015380078607B6818460C37BD465DF8047B7047B9
:1015480080B483B000AF78607B6818460C37BD461E
:101558005DF8047B704780B483B000AF78607B6827
:1015680000221A607B6818460C37BD465DF8047B7C
:10157800704780B483B000AF78607B6800221A603F
:101588007B6818460C37BD465DF8047B704780B40D
:1015980083B000AF78607B6800221A607B681846C9
:1015A8000C37BD465DF8047B704780B483B000AF4C
:1015B80078607B6800221A607B6818460C37BD4645
:1015C8005DF8047B704780B483B000AF78607B68B7
:1015D80000221A607B6818460C37BD465DF8047B0C
:1015E800704780B483B000AF78607B6818460C37CA
:1015F800BD465DF8047B704780B483B000AF786067
:101608007B6818460C37BD465DF8047B704780B48C
:1016180083B000AF78607B6818460C37BD465DF82C
:10162800047B704780B483B000AF78607B68002289
:101638001A607B6818460C37BD465DF8047B704716
:1016480080B483B000AF78607B68802283F89520EF
:101658007B68702283F896207B687F2283F8972026
:101668007B680F2283F898207B68072283F89920EB
:101678007B6818460C37BD465DF8047B704780B41C
:1016880083B000AF78607B6818460C37BD465DF8BC
:10169800047B704780B483B000AF78607B681846DD
:1016A8000C37BD465DF8047B704780B483B000AF4B
:1016B80078607B6818460C37BD465DF8047B704738
:1016C80080B582B000AF78607B681846FFF7AAFF44
:1016D8007B6818460837BD4680BD80B483B000AF2C
:1016E80078607B6818460C37BD465DF8047B704708
:1016F80080B483B000AF78607B6818460C37BD466D
:101708005DF8047B704780B483B000AF78607B6875
:1017180018460C37BD465DF8047B704780B483B02B
:1017280000AF78607B689B7AFF2B0CBF01230023F6
:10173800DBB218460C37BD465DF8047B704780B5B0
:1017480082B000AF78607B6808331846FFF7D0FF97
:101758007B6818460837BD4680BD80B582B000AFAB
:1017680078607B6808331846FFF7CDFF7B6818461A
:101778000837BD4680BD80B483B000AF78607B6811
:101788001B79002B02D07B685B6A00E000231846B7
:101798000C37BD465DF8047B704780B582B000AF5A
:1017A80078607B6808331846FFF7B8FF0346184689
:1017B8000837BD4680BD80B483B000AF78607B68D1
:1017C80018460C37BD465DF8047B704780B483B07B
:1017D80000AF78607B6818460C37BD465DF8047B1F
:1017E800704780B582B000AF78607B681846FFF715
:1017F800E2FF7B6818460837BD4680BD80B582B0D9
:1018080000AF78607B681846FFF7E0FF7B681846F2
:101818000837BD4680BD80B483B000AF78607B6870
:101828001B6B07EE903AB0EE670A0C37BD465DF8C1
:10183800047B704780B483B000AF78607B6818463B
:101848000C37BD465DF8047B704780B483B000AFA9
:1018580078607B6818460C37BD465DF8047B704796
:1018680080B483B000AF78607B6800221A807B6800
:1018780000225A807B6800229A807B680022DA80E6
:101888007B6818460C37BD465DF8047B704780B509
:1018980082B000AF78600B467B8013463B807B6844
:1018A80000221A807B6800225A80B7F902301A4653
:1018B8000021786800F020FA03461A467B689A806F
:1018C800B7F900301A460021786800F015FA034687
:1018D8001A467B68DA807B6818460837BD4680BDA3
:1018E80080B584B000AFF860084611461A46034632
:1018F8007B810B463B811346FB80FB687A891A8003
:10190800FB683A895A80B7F906301A460021F86808
:1019180000F0F2F903461A46FB689A80B7F91830C6
:101928001A460021F86800F0E7F903461A46FB68F2
:10193800DA80FB6818461037BD4680BD80B483B096
:1019480000AF78607B68B3F9003018460C37BD46A5
:101958005DF8047B704780B483B000AF78607B6823
:10196800B3F9023018460C37BD465DF8047B704762
:1019780080B483B000AF78607B68B3F900309AB266
:101988007B68B3F904309BB213449BB21BB2184670
:101998000C37BD465DF8047B704780B483B000AF58
:1019A80078607B68B3F902309AB27B68B3F9063085
:1019B8009BB213449BB21BB218460C37BD465DF868
:1019C800047B704780B483B000AF78607B68B3F95C
:1019D80000309AB27B68B3F90430002B00DA013387
:1019E8005B101BB29BB213449BB21BB218460C3758
:1019F800BD465DF8047B704780B483B000AF786063
:101A08007B68B3F902309AB27B68B3F90630002BD1
:101A180000DA01335B101BB29BB213449BB21BB2BA
:101A280018460C37BD465DF8047B7047F0B587B0A3
:101A380002AFF860B9607A603B603B68082B00F23F
:101A4800538101A252F823F08B1C0008751A000874
:101A5800CF1A0008991A0008131B0008951B0008E4
:101A68004B1B0008ED1B0008331C00087B68B3F90A
:101A780000107B68B3F90220BB68B3F90400BB68A7
:101A8800B3F9063000930346F868FFF729FF2EE103
:101A98007868FFF76DFF03469AB2BB68B3F9043064
:101AA8009BB2D31A9BB219B27B68B3F90220BB6808
:101AB800B3F90400BB68B3F9063000930346F8682D
:101AC800FFF70EFF13E1BB68B3F900309CB27868EA
:101AD800FFF778FF03469DB2B868FFF773FF034628
:101AE8009BB2EB1A9BB223449BB219B27B68B3F941
:101AF8000220BB68B3F90400BB68B3F90630009351
:101B08000346F868FFF7ECFEF1E07B68B3F90040A4
:101B18007868FFF742FF03469AB2BB68B3F906300C
:101B28009BB2D31A9BB21AB2BB68B3F90410BB6854
:101B3800B3F9063000930B462146F868FFF7D0FE4C
:101B4800D5E07868FFF714FF03469AB2BB68B3F98B
:101B580004309BB2D31A9BB21CB27868FFF71DFF02
:101B680003469AB2BB68B3F906309BB2D31A9BB24C
:101B78001AB2BB68B3F90410BB68B3F90630009316
:101B88000B462146F868FFF7ABFEB0E0BB68B3F937
:101B980000309CB27868FFF715FF03469DB2B8681D
:101BA800FFF710FF03469BB2EB1A9BB223449BB28C
:101BB8001CB27868FFF7F1FE03469AB2BB68B3F926
:101BC80006309BB2D31A9BB21AB2BB68B3F90410A1
:101BD800BB68B3F9063000930B462146F868FFF757
:101BE8007FFE84E07B68B3F90060BB68B3F902301C
:101BF8009CB27868FFF700FF03469DB2B868FFF70C
:101C0800FBFE03469BB2EB1A9BB223449BB21AB26B
:101C1800BB68B3F90410BB68B3F9063000930B46F0
:101C28003146F868FFF75CFE61E07868FFF7A0FED0
:101C380003469AB2BB68B3F904309BB2D31A9BB27D
:101C48001EB2BB68B3F902309CB27868FFF7D4FEC5
:101C580003469DB2B868FFF7CFFE03469BB2EB1A66
:101C68009BB223449BB21AB2BB68B3F90410BB6899
:101C7800B3F9063000930B463146F868FFF730FE9B
:101C880035E0BB68B3F900309CB27868FFF79AFE7C
:101C980003469DB2B868FFF795FE03469BB2EB1A60
:101CA8009BB223449BB21EB2BB68B3F902309CB20C
:101CB8007868FFF7A1FE03469DB2B868FFF79CFE5F
:101CC80003469BB2EB1A9BB223449BB21AB2BB6881
:101CD800B3F90410BB68B3F9063000930B463146DC
:101CE800F868FFF7FDFD02E0F868FFF7B9FDF8684E
:101CF8001437BD46F0BD00BF80B483B000AF786034
:101D08000B467B8013463B80B7F90220B7F90030B9
:101D18009A4202DDB7F9023001E0B7F900301846FF
:101D28000C37BD465DF8047B7047000080B483B073
:101D380000AF7860044A7B681A607B6818460C37E5
:101D4800BD465DF8047B70471855010880B483B020
:101D580000AF7860044A7B681A607B6818460C37C5
:101D6800BD465DF8047B70471855010880B582B000
:101D780000AF78607868FFF7E9FF0821786812F00B
:101D880004FC7B6818460837BD4680BD80B582B024
:101D980000AF78600B467B8013463B807B681B68EE
:101DA8000C331B687868984703461A467B88934229
:101DB80009D37B681B680C331B687868984703460F
:101DC800013B9BB200E07B887A6893807B681B6844
:101DD80008331B687868984703461A463B8893423D
:101DE80009D37B681B6808331B68786898470346E3
:101DF800013B9BB200E03B887A68D38000BF08377C
:101E0800BD4680BD80B582B000AF78607B6818465B
:101E1800FFF7A1FB7B6814331846FFF7D4FB7B68F8
:101E280018331846FFF7E8FB7B6820331846FFF79E
:101E3800A0FB7B6824331846FFF72CFC7B68303303
:101E48001846FFF772FB7B683C331846FFF7ADFB7B
:101E58007B6818460837BD4680BD80B582B000AFA4
:101E680078607B6830331846FFF76AFB7B68243359
:101E78001846FFF71AFC7B6818331846FFF7C7FBAC
:101E88007B6814331846FFF7ACFB7B6818460837A5
:101E9800BD4680BD80B588B002AFF860B9607A6091
:101EA80000237B617A697B689A4218D200233B82BF
:101EB80040233B74BA687B6913441B787B74F868C9
:101EC800FB681B7999B207F110024FF47A730093FB
:101ED800022303F0BBFE7B6901337B61E2E700BFAD
:101EE8001837BD4680BDB0B582B000AF78607B685A
:101EF8001846FFF787FF7B6840331846FFF71FFC3B
:101F08007B68683303241D46002C05DB2846FFF751
:101F180052FC2035013CF7E77B68E833184600F0AF
:101F28005AFB7A6849F2482313441846FFF782FCA3
:101F38007A6849F24C231344184600F09BFB7B68EF
:101F480018460837BD46B0BD90B583B000AF78607D
:101F58007A6849F24C231344184600F0A3FB7A68C8
:101F680049F2482313441846FFF76FFC7B68E833AF
:101F7800184600F04CFB7B686833002B0CD07B685C
:101F8800683303F180047B6868339C4204D0203CAA
:101F98002046FFF71BFCF6E77B6840331846FFF73F
:101FA800DCFB7B681846FFF758FF7B6818460C3740
:101FB800BD4690BD80B582B000AF78607868FEF706
:101FC80046FE7868FEF75CFE00BF0837BD4680BD58
:101FD80080B59EB004AF00216F4800F086FB002258
:101FE80000216D48FFF7D2FE07F11803184612F0DA
:101FF800D1FA07F118023B466849184612F08CFCE2
:1020080007F11803184612F0C6FA3B460021184695
:1020180012F0C3FB7866624B012200920CCB796EFA
:102028005D4800F073FB5F4BD3ED007AFDEEE77A75
:1020380007F11C0317EE901A1846FFF7B4F807F1DA
:102048001C023B461146184612F07FFB07F11C03A1
:10205800184612F074FB00221E214F48FFF796FE27
:102068005148FFF79AFB034683F00103DBB24C4A61
:1020780000930CCA796E484800F048FB4B48FFF7BC
:10208800CAFBF0EE407A9FED4A7A67EE877AFDEE5A
:10209800E77A07F1340317EE901A1846FFF783F82A
:1020A80007F134023B461146184612F04EFB07F181
:1020B8003403184612F043FB082200213648FFF784
:1020C80065FE374B012200920CCB796E324800F046
:1020D8001DFB3B463749184612F0EFFB08221E212C
:1020E8002D48FFF753FE2E4B012200920CCB796E40
:1020F800294800F00BFB3048FFF78DFBF0EE407AE3
:102108009FED2B7A67EE877AFDEEE77A07F14C03AD
:1021180017EE901A1846FFF746F807F14C023B46AF
:102128001146184612F011FB07F14C03184612F03D
:1021380006FB082224211848FFF728FE184B012225
:1021480000920CCB796E144800F0E0FA1B48FFF7B8
:1021580044F9F0EE407AB0EE670AFFF704F8F0EEC3
:10216800407AFCEEE77A01230293012301932023AE
:10217800009317EE903A18220021074800F0F3FA6E
:10218800054800F046FB3B46184612F0D8FA00BF57
:102198006837BD4680BD00BF649600247C530108A3
:1021A800480200240400002458040024B4970024A2
:1021B80000007A4484530108EC97002474970024A3
:1021C80080B500AF1D48FFF7F5FE1D4802F0ECFB97
:1021D8001C4802F0E9FB1A48FFF71DFBF0EE407AB5
:1021E800B0EE670A1848FFF7C3F81648FFF713FB65
:1021F800F0EE407AB0EE670A1348FFF7C9F81348C3
:1022080002F0D2FB124802F0CFFB1248FFF7B3FAF4
:1022180007EE900AB8EEE77A0F4BD3ED007A77EE27
:10222800277A0D4BC3ED007A0B4BD3ED007AB0EE55
:10223800670A0548FFF78CF800BF80BD1804002422
:10224800B4970024EC970024749700242498002461
:102258005C980024580400240400002480B58AB047
:1022680000AFF860B9607A60FFF7AAFF00237B62CD
:102278007A6A7B689A4248D2FB681A687B6A9B0034
:1022880013441B683B62FB6804331A687B6A9B0033
:1022980013441B68FB6197ED087AD7ED077A77EE50
:1022A800277AC7ED067A97ED087AD7ED077A77EEA1
:1022B800677AC7ED057A97ED060A164812F0E4F832
:1022C80087ED060A97ED067AD7ED057A77EE277A35
:1022D800C7ED087A97ED067AD7ED057A77EE677A33
:1022E800C7ED077ABB681A687B6A9B0013443A6A91
:1022F8001A60BB6804331A687B6A9B001344FA6946
:102308001A607B6A01337B62B2E700BF2837BD469B
:1023180080BD00BF74970024B0B5A0B000AF4E4890
:10232800FEF725FC4C48FEF785FC4B4B3C4603F179
:1023380068050FCD0FC495E80F0084E80F003B46F1
:102348000022DFED460A9FED460A1946454802F08D
:10235800FBFA3B461846FFF739FA3F4B07F12004D2
:1023680003F188050FCD0FC495E80F0084E80F002E
:1023780007F120030022F6EE000A9FED390A1946FC
:10238800394802F0E1FA07F120031846FFF71EFA70
:10239800314B07F1400403F1A8050FCD0FC495E8B0
:1023A8000F0084E80F0007F140030022DFED2F0A39
:1023B8009FED2F0A19462F4802F0C6FA07F140038D
:1023C8001846FFF703FA244B07F1600403F1C80528
:1023D8000FCD0FC495E80F0084E80F0007F16003E4
:1023E8000022DFED220A9FED220A1946224802F058
:1023F800ABFA07F160031846FFF7E8F91648FEF74D
:10240800EDFBF0EE407AB0EE670A1C4811F0A0FF31
:102418009FED1B0A1948FEF7ABFFB1EE000A1748FB
:10242800FEF786FF9FED170A1448FEF7B1FF164B1B
:10243800D3ED007AB0EE670A1048FEF789FF002155
:102448000E48FEF7B5FF11490348FEF7E5FBFFF715
:10245800B7FEFFF7BDFDFAE718040024CDCCCC3D4C
:102468006F12833AB4970024EC97002400409C45EF
:1024780000409CC5249800245C980024749700248C
:102488006F12833B0AD7233C04000024652200080E
:1024980080B487B000AF7860396001237B613B6806
:1024A80003FB03F33B613A683B6902FB03F3FB6000
:1024B8003A68FB6802FB03F3BB603B687A689A42A0
:1024C80001D27B691DE07A683B699A4202D27B6936
:1024D800013316E07A68FB689A4202D27B690233BC
:1024E8000FE07A68BB689A4202D27B69033308E03E
:1024F8007A68BB68B2FBF3F37B607B6904337B616A
:10250800DBE718461C37BD465DF8047B70470000C2
:1025180080B489B000AFF860B9607A60BB68013BED
:10252800FB617B68632B25D97A68224BA3FB0213D6
:102538005B09642101FB03F3D31A5B00BB617B6871
:102548001C4AA2FB03235B097B60BB695A1CF96820
:10255800FB690B4418498A5C1A70FB69013BFA68ED
:1025680013441549BA690A4412781A70FB69023B88
:10257800FB61D6E77B68092B10D97B685B007B6120
:102588007B695A1CFB6801330B498A5C1A700A4A3A
:102598007B6913441A78FB681A7005E07B68DBB224
:1025A8003033DAB2FB681A7000BF2437BD465DF8D5
:1025B800047B70471F85EB51CC53010880B582B06E
:1025C80000AF78607B68184600F041F97B681846D0
:1025D8000837BD4680BD80B582B000AF78607B68A3
:1025E8001846FEF746FC7B6810331846FFF768F874
:1025F8007B6824331846FFF723F87B68C0331846F6
:1026080000F014F97B6818460837BD4680BD80B5D0
:1026180082B000AF78607B68C0331846FFF7CEFF02
:102628007B6824331846FFF72AF87B68103318466E
:10263800FFF753F87B6818460837BD4680BD80B55C
:1026480082B000AF78607B681846FEF7A0FF7B6811
:1026580018460837BD4680BD80B582B000AF7860A7
:102668007B681846FFF7EBFF7B6818460837BD46BE
:1026780080BD000080B582B000AF78607B681846E6
:1026880000F0F0F8064A7B681A607B680833184641
:10269800FFF7E2FF7B6818460837BD4680BD00BFDC
:1026A800A054010880B582B000AF7860054A7B6805
:1026B8001A607B68184600F0E7F87B681846083708
:1026C800BD4680BDA054010880B582B000AF7860D7
:1026D8007868FFF7E7FF4FF48871786811F055FFC5
:1026E8007B6818460837BD4680BD80B582B000AF0C
:1026F80078600B46FB707B680833FA7811461846F9
:1027080000F0E4F800BF0837BD4680BD80B586B04C
:1027180002AFF860B960394681E80C00BB681B78E5
:10272800002B1AD0F868BB6819783B7E00933B46AB
:102738000CCB00F0ECF803461A46BB681B789A42AB
:1027480014BF01230023DBB2002B02D0BB681B7827
:1027580005E0BB680133BB60E0E7BB681B7818463F
:102768001037BD4680BD80B588B002AFF860B9604B
:102778007A603B6097F82830002B1AD0BB687B61E1
:102788007A693B689A4240D87B683B613A693B6A00
:102798009A420AD897F824303A697969F86800F0BB
:1027A8004DF93B6901333B61F0E77B6901337B619C
:1027B800E6E7F86897F8243001937B6800933B6854
:1027C8007A68B96800F04DF9F86897F824300193F1
:1027D8003B6A00933B687A68396800F042F9F86808
:1027E80097F8243001933B6A0093BB683A6A3968CA
:1027F80000F037F9F86897F8243001937B68009364
:10280800BB683A6AB96800F02CF900BF1837BD46B2
:1028180080BD80B582B000AF78607B680833184609
:1028280000F081F900BF0837BD4680BD80B582B091
:1028380000AF786078687B68103340F2011219465F
:1028480000F0A2F97B6818460837BD4680BD80B401
:1028580083B000AF78607B6818460C37BD465DF8DA
:10286800047B704780B582B000AF78607B681846FB
:10287800FFF75CFA034A7B681A607B6818460837DA
:10288800BD4680BDDC54010880B582B000AF7860D9
:10289800054A7B681A607B681846FFF757FA7B6819
:1028A80018460837BD4680BDDC54010880B582B0A3
:1028B80000AF78607868FFF7E7FF0821786811F0C3
:1028C80064FE7B6818460837BD4680BD80B485B075
:1028D80000AF78600B46FB700023FB60FB68FF2BA2
:1028E8000FD8FB78002B01D0FF2100E000217A6887
:1028F800FB68134408330A461A70FB680133FB600F
:10290800ECE700BF1437BD465DF8047B704780B51F
:1029180088B000AFF8600846394681E80C000346E5
:10292800FB72FB7A1F2B02D9FB7A7E2B01D900237D
:1029380080E0FA68FB681B680C331B6810469847F0
:1029480003461A46FB689B8819463B780B449A4213
:102958000FDBFA68FB681B6808331B68104698474A
:1029680003461A46FB68DB8819467B780B449A4273
:1029780001DA012300E00023002B01D0002359E0F5
:102988000023FB617B781A46FB69934245D27A683B
:10299800FB7A203B797801FB03F31946FB690B446A
:1029A8005B0013441B887B610023BB613B781A469C
:1029B800BB6993422DD27A69BB6902FA03F303F427
:1029C8000043002B0FD0FB689B881A46BB69D118BF
:1029D800FB68DB881A46FB691A4497F82830F868C0
:1029E80000F02CF811E0FB689B881A46BB69D118E7
:1029F800FB68DB881A46FB691A4497F8283083F08D
:102A08000103DBB2F86800F019F8BB690133BB6158
:102A1800CCE7FB690133FB61B4E7F868FB689A8887
:102A28003B789BB2134499B2FB68DB881A46FFF7E0
:102A3800ADF9FB7A18462037BD4680BD80B584B015
:102A480000AFF860B9607A60FB70FB6803F10800BA
:102A5800FB787A68B96800F0B0F800BF1037BD4657
:102A680080BD80B58AB000AFF860B9607A603B601D
:102A78003A68BB68D31A002BB8BF5B423B623A6B1B
:102A88007B68D31A002BB8BF5B42FB61BA683B680E
:102A98009A4201D2012301E04FF0FF33BB617A680B
:102AA8003B6B9A4201D2012301E04FF0FF337B6177
:102AB8003A6AFB69D31A7B6297F834303A6B396803
:102AC800F868FFF7BBFFBA683B689A4203D17A6897
:102AD8003B6B9A4223D097F834307A68B968F86823
:102AE800FFF7ACFF7B6A5B003B61FB695B423A69BD
:102AF8009A4207DD7A6AFB69D31A7B62BB69BA68B6
:102B08001344BB603A693B6A9A42DCDA7A6A3B6AE8
:102B180013447B627B697A6813447B60D3E700BF08
:102B28002837BD4680BD80B584B000AF78601223D9
:102B3800BB7300BF0023FB73FB7B032B20D87A6891
:102B4800FB7B503BDBB219461046FDF7F6FF7B686E
:102B580000211846FDF7F1FF7B68BA7B114618463D
:102B6800FDF7EBFF7868FB7B9B0108337A68134419
:102B780040221946FFF78EF9FB7B0133FB73DBE735
:102B880000BF1037BD4680BD80B485B000AFF86087
:102B9800B9607A60FB68BA681A60FB687A685A603C
:102BA800FB6800229A60FB680022DA60FB6818461E
:102BB8001437BD465DF8047B704780B485B000AF1C
:102BC800F860B9607A60FB70BB683F2B3DD87B68C2
:102BD8001F2B3AD8FB78002B1AD07B68DB089901A9
:102BE800BA680A44F9680A44127A51B27A6802F05B
:102BF8000702012000FA02F252B20A4351B29A01C6
:102C0800BB681344C9B2FA6813440A461A721DE035
:102C18007B68DB089901BA680A44F9680A44127AA1
:102C280051B27A6802F00702012000FA02F252B2A9
:102C3800D24352B20A4051B29A01BB681344C9B296
:102C4800FA6813440A461A7200E000BF1437BD46FA
:102C58005DF8047B7047000080B582B000AF7860F3
:102C680039607B68012B34D13B684FF6FF72934281
:102C78002FD11A48FFF737F9194A1A49174811F09E
:102C88007FFC1948FEF73EFB154A1849164811F013
:102C980077FC1748FEF7A5FD114A1649144811F0AC
:102CA8006FFC1548FEF79DFD0D4A1249124811F0B8
:102CB80067FC1248FEF795FD094A0E490F4811F0C6
:102CC8005FFC0F48FEF78DFD054A0A490C4811F0D4
:102CD80057FC00BF0837BD4680BD00BF180400245C
:102CE80000000024511F00087497002423130008D3
:102CF800B497002405180008EC97002424980024B1
:102D08005C98002480B582B000AF78607B68083397
:102D1800184600F0BAFA03469BB218460837BD4673
:102D280080BD80B582B000AF78607B6808331846F4
:102D380000F0B6FA03469BB218460837BD4680BD78
:102D480080B598B000AFF860B9607A603B60012345
:102D580087F84C3097F84C3087F84D3097F84D305D
:102D680087F84E3097F84E3087F84F30002387F8B1
:102D78004B30FB6E002B06DABA6EFB6E1344BB6653
:102D8800FB6E5B42FB66BB6E07EE903AB8EEE77BE4
:102D98009FEDDB6B27EE066B9FEDDB5B86EE057B1D
:102DA800F7EEC77BC7ED117ABA6EFB6E134407EED8
:102DB800903AB8EEE77B9FEDD26B27EE066B9FED5E
:102DC800D25B86EE057BF7EEC77BC7ED107A97EDF1
:102DD800110AFEF7B8F9B0EE407A3B6807EE903A70
:102DE800F8EE677A67EE277AC7ED0F7A97ED110A42
:102DF800FEF7C9F9F0EE407AB1EE677A3B6807EE64
:102E0800903AF8EE677A67EE277AC7ED0E7A97ED73
:102E1800100AFEF798F9B0EE407A3B6807EE903A50
:102E2800F8EE677A67EE277AC7ED0D7A97ED100A04
:102E3800FEF7A9F9F0EE407AB1EE677A3B6807EE43
:102E4800903AF8EE677A67EE277AC7ED0C7A97ED35
:102E58000D7AD7ED0F7A37EE677AD7ED0D6AD7ED91
:102E68000F7A76EEE77A27EE277AD7ED0C6AD7ED58
:102E78000E7A76EEE76A97ED0C6AD7ED0E7A76EE63
:102E8800677A66EEA77A77EE277AB0EE007AF4EEE4
:102E9800C77AF1EE10FA06D5FB6EB42B40F3BD816C
:102EA800012387F84B303B685B42FB650023BB6519
:102EB8003B68C3F101035B007B6597F84B3083F0F7
:102EC8000103DBB2002B00F04181BB6D07EE903AA5
:102ED800F8EEE77A97ED0F7A67EE277AC7ED0B7A67
:102EE800FB6D07EE903AF8EEE77A97ED0E7A67EE0B
:102EF800277AC7ED0A7ABB6D5B4207EE903AF8EE87
:102F0800E77A97ED0F7A67EE277AC7ED097AFB6DB6
:102F18005B4207EE903AF8EEE77A97ED0E7A67EEA5
:102F2800277AC7ED087ABB6D07EE903AF8EEE77A94
:102F380097ED0D7A67EE277AC7ED077AFB6D07EEF6
:102F4800903AF8EEE77A97ED0C7A67EE277AC7EDB4
:102F5800067ABB6D5B4207EE903AF8EEE77A97ED9A
:102F68000D7A67EE277AC7ED057AFB6D5B4207EEAF
:102F7800903AF8EEE77A97ED0C7A67EE277AC7ED84
:102F8800047AFB6EB42B6CDD97ED0B7AD7ED087ADB
:102F980077EE677AF5EEC07AF1EE10FA0AD497ED7B
:102FA800077AD7ED047A77EE677AF5EEC07AF1EE14
:102FB80010FA01DD012300E0002387F84F3097ED78
:102FC8000B7AD7ED0A7A77EE677AF5EEC07AF1EEEA
:102FD80010FA0AD497ED077AD7ED067A77EE677A72
:102FE800F5EEC07AF1EE10FA01DD012300E00023CE
:102FF80087F84E3097ED097AD7ED0A7A77EE677A37
:10300800F5EEC07AF1EE10FA0AD497ED057AD7ED0D
:10301800067A77EE677AF5EEC07AF1EE10FA01DDFE
:10302800012300E0002387F84D3097ED097AD7EDAA
:10303800087A77EE677AF5EEC07AF1EE10FA0AD4DC
:1030480097ED057AD7ED047A77EE677AF5EEC07AD0
:10305800F1EE10FA01DD012300E0002387F84C307F
:1030680074E097ED0B7AD7ED087A77EE677AF5EE8C
:10307800C07AF1EE10FA0CD597ED077AD7ED047AFD
:1030880077EE677AF5EEC07AF1EE10FA01DD0123EA
:1030980000E0002387F84F3097ED0B7AD7ED0A7AD6
:1030A80077EE677AF5EEC07AF1EE10FA0CD597ED67
:1030B800077AD7ED067A77EE677AF5EEC07AF1EE01
:1030C80010FA01DD012300E0002387F84E3097ED68
:1030D800097AD7ED0A7A77EE677AF5EEC07AF1EEDB
:1030E80010FA15D597ED057AD7ED067A77EE677A57
:1030F800F5EEC07AF1EE10FA0ADD012309E000BF0F
:103108007A008BFCFA21094000000000008066402C
:10311800002387F84D3097ED097AD7ED087A77EED6
:10312800677AF5EEC07AF1EE10FA0CD597ED057ACC
:10313800D7ED047A77EE677AF5EEC07AF1EE10FAF9
:1031480001DD012300E0002387F84C3097F84F3069
:10315800002B0AD0FB6DBA68D11ABA6D7B681A4485
:1031680097F87030F868FFF769FC97F84E30002B35
:103178000AD0FA6DBB68D118BA6D7B681A4497F803
:103188007030F868FFF75AFC97F84D30002B0AD0DA
:10319800FA6DBB68D118BB6D7A68D21A97F870308F
:1031A800F868FFF74BFC97F84C30002B0AD0FB6D02
:1031B800BA68D11ABB6D7A68D21A97F87030F86875
:1031C800FFF73CFC7B6D3B653A6DBB6D9A4213DCA7
:1031D800BB6D0133BB65BB6D5B0001337A6D134476
:1031E8007B65FB6D5B42BA6D9A4205D13A6DFB6D0A
:1031F8009A4201DC00233B653A6DFB6D9A4208DD7B
:10320800FB6D0133FB65FB6D5B0001337A6D134485
:103218007B65FB6D002B01DC4FE600BF6037BD46C8
:1032280080BD00BFB0B588B002AFF860B9607A6001
:103238003B6007F110003B687A68B96800F03BF81A
:10324800F86807F11001FB6ABA6AFEF7EFFBBC6881
:10325800F868FEF773FB03469DB2F868FEF77BFB40
:1032680003469BB21A4629462046FEF78FFDB868EA
:103278003B6897F8302000920CCB7968FFF746FA44
:1032880000BFF8681837BD46B0BD80B483B000AF42
:103298007860202318460C37BD465DF8047B7047DC
:1032A80080B483B000AF7860402318460C37BD4621
:1032B8005DF8047B704780B586B000AFF860B960F0
:1032C8007A603B607968B86800F015F878613B6807
:1032D8001B789AB27B699BB212FB03F39BB219B2BB
:1032E8003B685B781BB21A46F868FEF7D0FAF868B4
:1032F8001837BD4680BD80B485B000AF78603960AE
:103308000023FB603B685A1C3A601B78002B14BFF3
:1033180001230023DBB2002B03D0FB680133FB60E1
:10332800F0E7FB6818461437BD465DF8047B704724
:1033380080B500AF4FF6FF710120FFF78DFC80BD0F
:10334800704700BF202882B009D8084B03EB400221
:1033580013F81030507843EA002002B07047012378
:103368000C2043EA002002B0704700BF4C5501080A
:10337800143001F0D7B900BF143001F0CFB900BF45
:1033880090ED0E0A704700BF10B540F203338EB0BF
:1033980000244FF60B7240F20341ADF8083009A83B
:1033A8000123ADF81020ADF824202246ADF80C100A
:1033B8000094029907940C94CDE90544CDE90A4498
:1033C80002F048F804A8012322460399009402F069
:1033D80041F809A802F024F910B901200EB010BD77
:1033E80004A802F01DF9A0420CBF022020460EB02E
:1033F80010BD00BF2DE9F04103239AB00127002436
:103408000646CDE914373B4BCDE9104340F204534F
:10341800CDE91647ADF84830FFF7B6FFB842054684
:1034280025D0022845D040F60132334B0DF12C0847
:103438001894ADF82C200B981997CDF84A3000F065
:10344800D7F810A906F13C0003F032F93020032226
:103458004FF07E5341460D930E93CDE90B02F26B6C
:1034680006F1140001F01EF91AB0BDE8F08110232E
:10347800214A06A906908DF828300DF12C081F4B1B
:10348800CDF84A2007930294CDE91804CDE9080441
:1034980002A802F045FB0823029A03A94046ADF8AA
:1034A8000C508DF80E40049505930B9400F0E0F84D
:1034B800C7E700200121104B0DF12C083A46009473
:1034C800CDF84A304FF60B730C94ADF82C302346E8
:1034D800CDE9180140F601314046ADF818100699BB
:1034E800CDE90D4401F0B6FF2146404602F0A4F8AC
:1034F800A7E700BF04020404040604030704010B41
:103508002DE9F04304462DED028B83B0002948D005
:10351800012140F2011200230091ADF804208DF83A
:103528000630304A0126304B271D304904F129085E
:10353800626040F20272A36040F60663E16004F143
:1035480025092682A4F8252084F82760A4F82930C4
:1035580084F82B6004F062FC6946054648B304F120
:1035680030008DF8066004F0B5FB072D34D104F166
:1035780014052046FFF73EFF284601F0CFF82846FD
:10358800B0EE408A01F0C6F8D0ED007AF8EE677A1E
:1035980088EE277A84ED0E7A03B0BDEC028BBDE885
:1035A800F08340F2011300918DF80610ADF8043055
:1035B800B7E704F1300004F08DFB3946204602F0ED
:1035C800F7FC484602F042F8404602F03FF804F1A2
:1035D800120000F077F9CAE73946204602F0E8FC05
:1035E800C5E700BF0508050905070506050A06061B
:1035F80010B584B003460124ADF8040003A8ADF863
:103608000C30ADF80E4002F021F8214603A802F074
:1036180007F9204604F092FA002103A802F000F905
:10362800204604F08BFA214603A802F0F9F804B00A
:1036380010BD00BF10B5C2F3002384B00C46017C56
:103648008DF80D2043EA4402FA2402238DF80C2059
:1036580003AA009402F0FAFA18B10124204604B033
:1036680010BD04460A2004F069FA204604B010BDD3
:10367800034670B543F8042B044684B007C983E8B1
:103688000700A37983B91A210B461E22FA25237451
:103698002046ADF80C20022303AA009502F0D6FAC2
:1036A80028B1012004B070BD1B210B46EDE70A20AC
:1036B80004F044FA4FF4B85200950223ADF80C20F8
:1036C800204603AA217C02F0C1FA0028E9D10A2089
:1036D80004F034FA41F2027200950223ADF80C208E
:1036E800204603AA217C02F0B1FA0028D9D10A2089
:1036F80004F024FA042200950223ADF80C20204699
:1037080003AA217C02F0A2FA0028CAD10A2004F0F8
:1037180015FA062200950223ADF80C20204603AACC
:10372800217C02F093FA0028BBD10A2004F006FAA3
:1037380041F2082200950223ADF80C20204603AA86
:10374800217C02F083FA0028ABD10A20064604F057
:10375800F5F90095022303AA217C2046ADF80C60F8
:1037680002F074FA00289CD1304604F0E7F900957D
:1037780022790C232046002A8DF80C3003AA4FF03A
:10378800020314BF622142218DF80D10217C02F042
:103798005DFA002885D1304604F0D0F92279D4E9C1
:1037A80002310B43DBB20AB943F0400362790AB134
:1037B80043F020030E22FA258DF80D30204600959F
:1037C80002238DF80C2003AA217C02F03FFA00287E
:1037D8007FF467AF0A2004F0B1F9102200950223A4
:1037E800ADF80C20204603AA217C02F02FFA00280D
:1037F8007FF457AF0A2004F0A1F9122100950223A3
:10380800ADF80C1003AA217C204602F01FFA00280C
:103818007FF447AF0A2004F091F9012209212046DC
:10382800FFF708FF003818BF01203BE7F0B5102369
:1038380087B0234C012200250126002702A9204633
:103848000195CDE902234FF48052CDE904670BF0CE
:10385800FBFA642004F088FD02A94FF48052204648
:10386800CDE9046702261027CDE902670BF0ECFAD0
:103878000322102302A92046CDE9022300230422B3
:10388800CDE904234FF480520BF0DEFA40F23223E4
:10389800042202A9019310232046CDE90223019AAC
:1038A800012305924FF4805204930BF0CDFA40F6B1
:1038B800060120460BF0E8FA284607B0F0BD00BF25
:1038C8009C9800241C4B00221C494FF0400C30B53A
:1038D800054689B00220596007219A601A620124BE
:1038E800DA620A224FF4006EDC6006922022CDE9EB
:1038F800000104200821CDE9020103201021CDE9AF
:10390800040108206946C3E904024FF4C072181D77
:10391800C3E906C24FF48052C3E909E20BF06AFA20
:1039280038B92846FFF782FF003818BF012009B0D0
:1039380030BD204609B030BD98980024404100525F
:10394800614A0021D0B513688EB00A91002B40F06F
:10395800B9805E4B01214FF683700C24116002215F
:10396800D3F8D4200026032742F48052C3F8D42089
:10397800D3F8D42002F480520092009AD3F8E020C1
:1039880042F01002C3F8E020D3F8E02002F0100261
:103998000192019AD3F8E02042F04002C3F8E020F7
:1039A800D3F8E02002F040020292029AD3F8E02015
:1039B80042F00802C3F8E020D3F8E02002F0080241
:1039C8000392039AD3F8E02042F48072C3F8E0200F
:1039D800D3F8E02002F480720492049AD3F8E0202D
:1039E80042F08002C3F8E020D3F8E02002F0800221
:1039F8000592059AD3F8E02042F02002C3F8E020AF
:103A0800D3F8E02002F020020692069AD3F8E020CC
:103A180042F00402C3F8E020D3F8E0300C9403F03D
:103A2800040307930323079A0B93CDE9080108A918
:103A3800274806F04BFC48F23712022308A925480C
:103A48000C94CDE90823CDE90A6706F03FFC4CF257
:103A58000372022308A920480C94CDE90823CDE974
:103A68000A6706F033FC40F2FF62022308A91B48EC
:103A78000C94CDE90823CDE90A6706F027FC4FF638
:103A88000C72022308A916480C94CDE90823CDE945
:103A98000A6706F01BFC4FF63F02022308A91148EB
:103AA8000C94CDE90823CDE90A6706F00FFC202223
:103AB800022308A90A480C94CDE90A67CDE908232E
:103AC80006F004FC0EB0D0BD9498002400440258BF
:103AD8000010025800180258000C02580020025822
:103AE800001C0258001402582DE9F04FDFF810842A
:103AF80006460D46144608F118002DED028B89B0D4
:103B080000AF02F0CDFED8F8183073B3D8F81C30E7
:103B1800D8F80490002B43690BBF4FF0080A4FF008
:103B2800100A4FF0020B4FF0040BB9F1000F2AD026
:103B3800A200EA46012B02F1070222F00702ADEBD0
:103B4800020D6846ADEB020D694600F03F81022B7D
:103B580000F0D680002B6FD02246C847D5462437C0
:103B6800BD46BDEC028BBDE8F08FD8F81C30002BA9
:103B7800F5D0D8F804904FF0080A4FF0020B4369CB
:103B8800B9F1000FD4D1FB61D8F80030BB61002B2C
:103B9800E5D0D54802F0F6FE6B46BBF1020F78611E
:103BA80008EE103AFB6900F083816A465146A2EBA1
:103BB800C40295466200EA46B2FBFBF2AAEBC400D7
:103BC80085460AEB8200EE46F861ADEB010DF86917
:103BD8000EEB820CC7F810C0EC46ADEB010D00EB04
:103BE8008201CCF80400CCF8081001EB8201386996
:103BF800E946CCF80C1000EB8201CCF800A001EBF0
:103C08008202C9E900E0C9E90212012B00F06483CD
:103C1800022B00F06C82002B00F08081620849467C
:103C28006046BB69984718EE103A24379D46BD4652
:103C3800BDEC028BBDE8F08F002C8DD01A46D8ED74
:103C48000C6A9FEDB27A8446331D36F922E00CF1F6
:103C5800080C07EE90EA33F922E00232F8EEE77A30
:103C6800944267EE877A67EEA67A4CED027A07EE01
:103C780090EAF8EEE77A67EE877A67EEA67A4CED77
:103C8800017AE2D8F9612246C847984ED8ED0D6A04
:103C98000020F9692B1D9FED9E7A9FED9E6ADFED4E
:103CA8009E5A22E0F4EEC67AF1EE10FAC0F2C88409
:103CB80047F6FE72D1ED017A45F8202066EEA77A24
:103CC800F4EEC77AF1EE10FA40F2F080F4EEC67A1C
:103CD800F1EE10FAC0F2D58447F6FE7243F82020C0
:103CE8000230083184427FF639AFD1ED007A66EEB2
:103CF800A77AF4EEC77AF1EE10FAD3D83246D9E7AC
:103D0800002C3FF429AFD8ED0C6A84469FED787AF1
:103D18000022331D8E4656F822100CF1080C07EECF
:103D2800901A53F822100232F8EEE77A944267EEBE
:103D3800877A67EEA67A4CED027A07EE901AF8EECB
:103D4800E77A67EE877A67EEA67A4CED017AE2D8D1
:103D580071462246C7F81CE0C847664ED8ED0D6A82
:103D68000020F9692B1D9FED6A7A9FED6A6ADFF8DA
:103D780094C120E0F4EEC67AF1EE10FAC0F279842C
:103D88003246D1ED017A45F8202066EEA77AF4EEA6
:103D9800C77AF1EE10FA40F28780F4EEC67AF1EEB7
:103DA80010FAC0F25E84324643F82020023008310F
:103DB80084427FF6D3AED1ED007A66EEA77AF4EEB0
:103DC800C77AF1EE10FAD5D86246DAE7002C3FF44C
:103DD800C3AED8ED0C6A86469FED477A4FF0000CCB
:103DE800331D56F82C200EF1080E82F40002A2F5BD
:103DF800000207EE902A53F82C200CF1020CF8EE82
:103E0800E77A82F400026445A2F5000267EE877A39
:103E180067EEA67A4EED027A07EE902AF8EEE77A78
:103E280067EE877A67EEA67A4EED017AD9D8F961FE
:103E38002246C847314ED8ED0D6A0020F9692B1D7E
:103E48009FED337A9FED336ADFF8BCC01FE0F4EED4
:103E5800C67AF1EE10FAC0F2FC833246D1ED017A4F
:103E680045F8202066EEA77AF4EEC77AF1EE10FA4C
:103E780018D9F4EEC67AF1EE10FAC0F2DA833246B7
:103E880043F820200230083184427FF667AED1ED36
:103E9800007A66EEA77AF4EEC77AF1EE10FAD6D871
:103EA8006246DBE76246EBE762467DE7324615E7A6
:103EB800A100D6466208073121F00701ADEB010DDC
:103EC800EA46ADEB010D6946ADEB0E0D0AEB82003B
:103ED800EC46ADEB0E0D01EB8202F861E946CCE948
:103EE80000A0C9E9001290E6EC9800240280FFFFC8
:103EF800000000300082FF7F0000003482FF7F0056
:103F0800D0980024007E00807E0080FF00000038EA
:103F180004FF7FBF04FF7F3F00FEFF46002C00F038
:103F2800C982BBF1020FD8F8242000F0FA8279691F
:103F3800C7F8049002EB810E5FED0C5A8A00DCF89A
:103F480008100EF104007A611A46DCF80C303B6167
:103F5800331DD7F810903D61FD69C7E902CB8C4647
:103F6800834636F92210D8ED0C7A06EE101A33F98A
:103F7800221006EE901A3EF92210B8EEC66A07EE35
:103F8800101AF8EEE66A3BF92210B8EEC77A26EE68
:103F9800256A66EEA56A27EE257A26EE276A66EE7A
:103FA800A76A27EE277A07EE901A51080232F8EE30
:103FB800E77A0AEB8100944280ED006A05EB810004
:103FC80067EEA57AC0ED006A0CEB810009EB810170
:103FD80080ED007A98ED0C7A67EE877AC1ED007A69
:103FE800BFD8D7F804903D69D7E902CB604662088C
:103FF800BB6949469847D8F82C307A69D8ED0D6ADC
:104008001A441FED3D7A1FED3D6A2B1D904602F1C3
:10401800040A5FED3F5A0022A84ED9E900EC51E0AE
:10402800F4EEC67AF1EE10FAC0F2C78247F6FE70D7
:1040380045F822000CEB0100D0ED007A66EEA77A75
:10404800F4EEC77AF1EE10FA4BD9F4EEC67AF1EE37
:1040580010FAC0F2BA8247F6FE70BBF1020F43F8BD
:1040680022002BD0D9F808000844D0ED007A66EE7B
:10407800A77AF4EEC77AF1EE10FA36D9F4EEC67ADA
:10408800F1EE10FAC0F2CD8247F6FE7048F8220031
:10409800D9F80C000144D1ED007A66EEA77AF4EE67
:1040A800C77AF1EE10FA1ED9F4EEC67AF1EE10FADC
:1040B800C0F2AF8247F6FE714AF8221002329442EB
:1040C8007FF6B1AD51080EEB81008900D0ED007A82
:1040D80066EEA77AF4EEC77AF1EE10FAA0D8304669
:1040E800A6E73046B9E73146E6E73046CEE7002C8A
:1040F80000F0E081BBF1020FD8F8243000F0E18134
:104108007A69DCF8081003EB820EC7F80490930074
:10411800DFED6B5A0EF1040000227B61DCF80C30F5
:104128003B61331DD7F810903D61FD69C7E902CBAB
:104138008C46834656F82210D8ED0C7A07EE101AF2
:1041480053F82210B8EEC76A07EE101A5EF822106C
:10415800F8EEC76A07EE101A26EE256A5BF82210F9
:10416800B8EEC77A66EEA56A26EE276A27EE257AA4
:1041780066EEA76A27EE277A07EE901A51080232F0
:10418800F8EEE77A0AEB8100944280ED006A05EBCD
:10419800810067EEA57AC0ED006A0CEB810009EB9F
:1041A800810180ED007A98ED0C7A67EE877AC1ED8F
:1041B800007ABFD8D7F804903D69D7E902CB6046AA
:1041C8006208BB6949469847D8F82C307A69D8ED17
:1041D8000D6A1A449FED3E7A9FED3E6A131D924682
:1041E800DFF8E4C00022FB612B1D364ED9E9008EB2
:1041F8004EE0F4EEC67AF1EE10FAC0F2FC813046D9
:1042080045F822000EEB0100D0ED007A66EEA77AA1
:10421800F4EEC77AF1EE10FA49D9F4EEC67AF1EE67
:1042280010FAC0F2EF813046BBF1020F43F82200CA
:104238002AD0D9F808000844D0ED007A66EEA77AAB
:10424800F4EEC77AF1EE10FA35D9F4EEC67AF1EE4B
:1042580010FAC0F2C98130464AF82200D9F80C0099
:104268000144D1ED007A66EEA77AF4EEC77AF1EE52
:1042780010FA1ED9F4EEC67AF1EE10FAC0F2AD814A
:104288003146F86940F82210023294427FF6CBACEE
:10429800510808EB81008900D0ED007A66EEA77A14
:1042A800F4EEC77AF1EE10FAA3D86046A8E76046A4
:1042B800BAE76146E5E76046CEE700BF0280FFFF48
:1042C800000000300082FF7F007E00800000003484
:1042D80004FF7FBF04FF7F3F002C00F0EB807A696A
:1042E8000021D8F82430C7F8109003EB820ED7F8D5
:1042F8001C909300FD610EF104021FED0C6A7B61B6
:10430800331D154656F821204808D8ED0C6ABBF134
:10431800020F82F40002A2F5000207EE902A53F879
:10432800212082F40002B8EEE77AA2F5000227EE17
:10433800067A07EE902A0AEB8002F8EEE77A27EE73
:10434800267A67EE867A82ED007A09EB80024FEAD8
:10435800800067EEA67AC2ED007A27D05EF82120A9
:1043680082F40002A2F5000207EE902A55F82120F7
:1043780082F40002B8EEE77AA2F5000227EE067A88
:1043880007EE902ADCF80820F8EEE77A024427EED8
:10439800267A67EE867A82ED007A98ED0C7ADCF858
:1043A8000C2067EE877A0244C2ED007A02318C4213
:1043B800A8D8D7F8109060466208BB694946FD69DD
:1043C8009847D8F82C307A69D8ED0D6A1A441FED51
:1043D800407A1FED406A131D9246DFF8C4C20022DE
:1043E800FB612B1DAB4ED9E9008E4EE0F4EEC67A88
:1043F800F1EE10FAC0F2C580304645F822000EEB07
:104408000100D0ED007A66EEA77AF4EEC77AF1EEF5
:1044180010FA49D9F4EEC67AF1EE10FAC0F2BF806C
:104428003046BBF1020F43F822002AD0D9F8080021
:104438000844D0ED007A66EEA77AF4EEC77AF1EE7A
:1044480010FA35D9F4EEC67AF1EE10FAC0F2AE8061
:1044580030464AF82200D9F80C000144D1ED007A20
:1044680066EEA77AF4EEC77AF1EE10FA1ED9F4EEEA
:10447800C67AF1EE10FAC0F28B803146F86940F83E
:104488002210023294427FF6CEAB510808EB81002D
:104498008900D0ED007A66EEA77AF4EEC77AF1EEDD
:1044A80010FAA3D86046A8E76046BAE76146E5E790
:1044B8006046CEE7224649466046BB699847FFF703
:1044C800B2BBC7F810B0002298ED0C6A331DDFEDBF
:1044D800726AD7F81CB0786956F8221007EE901A5D
:1044E80053F82210B8EEE77A07EE901A5108023214
:1044F800F8EEE77A27EE267A0AEB810E94420BEB68
:10450800810167EEA67A27EE067A67EE867A8EED47
:10451800007AC1ED007ADFD88300D7F810B07B614C
:104528004DE61A46C7F810B098ED0C6A331DDFED5A
:104538005B6AD7F81CB0786936F9221007EE101AB2
:1045480033F9221007EE901AB8EEC77A51080232F2
:10455800F8EEE77A27EE267A0AEB810E94420BEB07
:10456800810167EEA67A27EE067A67EE867A8EEDE7
:10457800007AC1ED007ADFD88300D7F810B07B61EC
:1045880034E5F0EE675AFEEEE45A15EE900A34E789
:10459800F0EE675AFEEEE45A15EE901A6EE7F0EE6A
:1045A800675AFEEEE45A15EE900A3AE7F0EE675ABB
:1045B800FEEEE45A15EE900A4BE767EEA57AFDEE9B
:1045C800E77A17EE900A00B232E567EEA57AFDEEBB
:1045D800E77A17EE900A00B23FE5F0EE675AFEEE72
:1045E800E05A15EE901A4CE6F0EE675AFEEEE05AE5
:1045F80015EE900A30E6F0EE675AFEEEE05A15EE38
:10460800900AFDE5F0EE675AFEEEE05A15EE900AC4
:104618000AE667EEA57AFDEEE77A17EE901A09B278
:104628004AE567EEA57AFDEEE77A17EE900A00B242
:104638002CE5F0EE675AFEEEE45A15EE902A1FE4D8
:1046480067EEA57AFDEEE77A17EE902A12B2FFF729
:1046580031BBF0EE675AFEEEE45A15EE902AFFF7EA
:10466800FDBBF0EE675AFEEEE05A15EE902AFFF712
:104678009BBBF0EE675AFEEEE05A15EE902AFFF764
:1046880080BB67EEA57AFDEEE77A17EE902A12B2A4
:10469800FFF724BB82FF7F000000003000000038D5
:1046A8007E0080FF30B5184C154685B0046004F1D3
:1046B800080EEC460FC98EE80F00D4ED047AF5EE2B
:1046C800C07A8CE80F00F1EE10FA1ADDB7EE006A36
:1046D80094ED057A27EE277AC6EE276A84ED0D7ADF
:1046E800C4ED0C6A6DB1204640F8185F02F0D8F8A6
:1046F800064903690020064A2162A262E36005B008
:1047080030BD012005B030BDD09800240020003015
:104718000000003000680830704700BF006818309B
:1047280002F01EB930B5046883B00D46E3694BB199
:10473800A3680020E26A616A9B00009004F11C00F3
:1047480002F0B0F8A3680748A26A9B00216A0090AB
:1047580004F1180002F0A6F80020C4E9005003B0E4
:1047680030BD00BFF13A000810B4074B4FF07E513E
:1047780030240022032019619C60D8605DF8044B46
:104788005961C3E906227047D0980024F6EE007AF2
:104798009FED166A20EE207A0160F7EE006A80ED40
:1047A800036A80ED020A27EE277AC6EE877AF4EECE
:1047B800E67AF1EE10FA11DDF0EE667A4FF07E51EE
:1047C8004FF0000C02760022C0ED017AC0F814C048
:1047D800016143768276C0ED070A7047F4EEC67A27
:1047E800F1EE10FAEAD5F0EE467AE7E700000000AD
:1047F8000268037E128807EE902AFBEEC87A1BB186
:10480800B7EE007A77EE677AD0ED056A90ED047A14
:1048180077EEE67A437E67EE877A0BB1F1EE677A38
:1048280090ED030A90ED017A77EEC07AA7EE270A99
:1048380080ED030A704700BF30B585B004460025F7
:10484800ADF80C10ADF80820ADF8043003F074F999
:10485800BDF80C204FF48073206004F11800228307
:10486800BDF808206383E383A283257100F0EEFE80
:1048780004F11C0000F0EAFE9FED060A019904F11C
:10488800080000F0E7F84FF6FF736562238405B06F
:1048980030BD00BF00000000F8B5044603F04CF935
:1048A800002623682671834205D104F10800BDE87B
:1048B800F84000F0E9B8012794F82050206004F18E
:1048C8001800BD40277100F09DFF6DB2284394F891
:1048D8002150BD4084F8200004F11C0000F092FF34
:1048E80094F820306DB2666203F003032843022B6C
:1048F800C0B284F8210009D000F003000228D4D106
:10490800002BD2D14FF0FF336362CEE78307CCD1BF
:104918006762CAE7074A118830B481800024064DCF
:1049280091884FF4807285600460C180C26030BC99
:10493800704700BF885301080040003000220A2356
:1049480002700371704700BFDFED167A8C46B4EE33
:10495800670A10B504468646F1EE10FA2DED028B73
:1049680080ED080A48BFB0EE670AC0ED090AB0EE4C
:10497800608A80F83420BCE80F00AEE80F009CE89D
:104988000F008EE80F0010F0DDF9F0EE407AB0EE7F
:10499800480AC4ED0A7A10F0D5F984ED0B0ABDEC8B
:1049A800028B10BD95BFD63390F8343010B504464D
:1049B800032B4BD8DFE803F03B2A1502FFF718FF5B
:1049C80060EE006AD4ED087A94ED097A26EE800A42
:1049D80037EE677AE0EE077AC4ED0C7AB0EE670A34
:1049E80010BDFFF705FF94ED0A7AD4ED0B7A77EE48
:1049F800C77AA0EE277AB0EE470A10F007F9F0EE72
:104A0800407A84ED0C0AB0EE670A10BDFFF7F0FE9D
:104A1800D4ED087A94ED097A20EE000A37EE677A29
:104A2800E0EE077AB0EE670AC4ED0C7A10BDFFF726
:104A3800DFFED4ED087A94ED097A37EE677AE0EE76
:104A4800077AB0EE670AC4ED0C7A10BDD0ED0C7A87
:104A5800C4E700BF70B5044682B0C1F30726CDB2E3
:104A6800ADF8041003F068F84FF480724FF001239A
:104A78002060A01DA571A280E671A36002B0BDE808
:104A8800704000F0E3BD00BF38B5044603F054F8A9
:104A9800002223682271834210D00122A57AE37A8A
:104AA800954020602271A01D6DB243B900F0AAFEA6
:104AB80040B22843C0B27F28A0720AD038BD00F0A7
:104AC800A1FEB0FA80F040092843C0B27F28A07246
:104AD800F4D103F031F807EE900AF8EE677AC4EDE6
:104AE800037A38BD00B583B04FF0000E4FF0030CC9
:104AF8004274ADF80410BDF8043080F810E0A0F856
:104B080002C0038003B05DF804FB00BF2DE9F04F3D
:104B1800DFF81C8300258DB0C04C037008F14003FA
:104B28004260074601920E46202229464046C4F8B4
:104B38006831C4F86481CDE90255CDE90455CDE961
:104B48000655CDE90855CDE90A5510F0DFFA2022BF
:104B5800294604F5A170C4F83151C4F83551C4F898
:104B68003951C4F83D5110F0D1FA019B84F84852EC
:104B780084F830317A68002A6AD02B4604F5987197
:104B8800454606F1100A9E46F01856F803B0E2189A
:104B98000EF1010ED0F80CC0D0F80490D0F80880BF
:104BA80044F803B0C2F80CC04FF0000CC2F80490EF
:104BB800C2F80880008A25F802CB10821AF8032070
:104BC80001F8012F002A70D07A684FF001001233E3
:104BD800724584F84802D7D84FF4802290489DF84F
:104BE800043008214FF000084FF00009C4F8843160
:104BF8000023C4E95B020122C4F8743184F88031CF
:104C0800C4E95E2194F84812C4E96489A9B3C4F8D8
:104C18009821002284F8813184F888313B78C4E9EE
:104C28006722002B38D0012200200121013B84F8A3
:104C3800A421C4E96C01082B30D8DFE813F0BD00CB
:104C4800C200C700CC00D100D600DB00E100E800BC
:104C58009DF804300121C4F87421C4F884314FF45C
:104C6800802384F880216E4AC4E95B23082300224C
:104C7800C4E95E130023C4E964230123002284F8F5
:104C88008131002384F888310323C4F898313B78B4
:104C9800C4E96722002BC6D184F8A431614803F027
:104CA8009BFF034638B1FFBEFEE77A6812337245B0
:104CB8003FF66AAF90E702A95A48029304F0EAF86F
:104CC8008246002876D1042240F2FF710A90CDE98D
:104CD800081294F83021002A00F0F3804FF00608FB
:104CE8000AEBCA034FEACA0904EB43035B7C072BB0
:104CF80007D8DFE803F0595C5653504D4A040723A0
:104D080007930FFA8AF6D14406EBC60604EB490965
:104D180004EB46077500384600F098FC99F8103007
:104D2800042B00F3AA80022B00F3BD8000F0B980A9
:104D380004EB0A03002283F8202114F81630002B14
:104D480078D0022B00F08A80012B40F0B2807B786B
:104D5800012B00F0B080002B334B18BF002305A9AE
:104D68003048CDE9053803F063FB002840F0AC80FB
:104D78000AF1010A94F830315FFA8AFA534540F291
:104D8800A0802A4B53F82A80AAE706230793B8E79E
:104D980005230793B5E704230793B2E70323079393
:104DA800AFE702230793ACE700230793A9E70123A2
:104DB8000793A6E7FFBEFEE703224023C4E96A2360
:104DC8006CE707226023C4E96A2367E70F22802380
:104DD800C4E96A2362E71F22A023C4E96A235DE7C6
:104DE8003F22C023C4E96A2358E77F22E023C4E9AD
:104DF8006A2353E7FF224FF48073C4E96A234DE71F
:104E080040F2FF124FF49073C4E96A2346E740F278
:104E1800FF324FF4A073C4E96A233FE708990024DE
:104E280000200240749A00240002B0259055010821
:104E3800004100307B78062B37D0072B3DD0022B62
:104E48004AD0032B4AD0002B4CD0012B48D0042B3E
:104E58004AD0052B254B18BF002380E77B78042B0D
:104E680025D0052B2BD08BB3012B31D0022B31D081
:104E7800032B1F4B18BF002371E70323043504EBF2
:104E88000A0B4FF0000925448BF82031284609F118
:104E9800010900F0DBFB9BF8203104354B45F5DCBC
:104EA8004BE70123EAE70223E8E7124B57E7124BE7
:104EB80055E7002353E7114B51E7114B4FE7114BCF
:104EC8004DE70DB0BDE8F08FFFBEFEE70E4B46E79D
:104ED8000E4B44E70E4B42E70E4B40E70E4B3EE7C6
:104EE8000E4B3CE70E4B3AE70E4B38E70000B84F45
:104EF800002090360800900C1000C0102000F0141C
:104F08008000501D000180210004002A0008302E76
:104F1800001060320040C03A0080F03E0000524766
:104F2800000021430000844B38B5094C40F2FF7261
:104F38004FF0011104F5B675284603F059FF94F8AF
:104F48003021D4F864112846BDE8384003F0C4BCC9
:104F580008990024034B0F29D3F8640198BF00EB8C
:104F68004100704708990024214B02689A4200D0FA
:104F78007047204A00232048D2F8D81030B51F4C7B
:104F880041F0200183B0C4F8D001092004F5E87588
:104F9800C4E975034FF48060C2F8D810D2F8D8205D
:104FA8004FF40061C4E9773094F8480202F0200217
:104FB800C4F8E4114FF40051984201922846C4F80D
:104FC800E811C4E97C33019B14BF00234FF48073BC
:104FD800C4F8EC3104F0B0FA08B1FFBEFEE704F5FE
:104FE800B673C4F8B851C4F8083203B030BD00BF76
:104FF8000020024000440258400002400899002462
:10500800014804F011BE00BFD89A002402682DE9B7
:10501800F84F4B4B9A4201D0BDE8F88F494D95F8AF
:105028004832002BF8D095F83031002B77D0002487
:1050380005F10C0905F5A17605F59877A04613E06A
:1050480003F0010117F811BCA9F1080000F0E8FB12
:10505800BBF1010F25D895F83031013409F1120957
:105068000236A2B293422BD917F8012F002AF4D0A6
:10507800D5F864310021327833F81400D5F8683156
:1050880003EB041323F81200338801339BB23380F7
:105098005FFA83FA3A789A42D2D88A46A6F800800C
:1050A800D0E7CAF34001A9F1040000F0B9FBBBF155
:1050B800020FCAF38001CED0484600F0B1FBCAE720
:1050C800002395F84802204909229842C5F8D831AA
:1050D8004FF48060C5F8D011C5F8D4214FF40061B1
:1050E8004FF40052C5F8DC3108BF4FF48073C5F89F
:1050F800E821C5E9780100221448C5E97B32C5F8E2
:10510800F42104F019FA08B1FFBEFEE795F8302142
:10511800D5F864110E48BDE8F84F03F0DDBB0A4925
:1051280009224FF48060C5F8D831C5E974124FF4EC
:1051380000614FF40052C5E97730C5E97912DAE722
:10514800002002400899002440000240D89A002418
:10515800749A0024704700BF4F4B02689A4200D0EF
:1051680070474E4BD3F8E81030B541F000514C4C25
:1051780085B0D4F84821C3F8E810D3F8E81001F056
:10518800005101910199D3F8E01041F00101C3F8F1
:10519800E010D3F8E03003F001030293029B32F0F1
:1051A80002033DD0013A012A6BD9D4F84C31012BC6
:1051B8000AD000223620114603F0E0FE362005B062
:1051C800BDE8304003F018BFD4F8483133F002028C
:1051D80034D0013B012BECD8442240233149324DD5
:1051E800C4F88C1000212846C4F8B010C4E9242360
:1051F80000224FF48063C4E926234FF400624FF481
:105208000053C4E928234FF480724FF48033C4E973
:105218002A2304F091F980B9E560C4F8C440C8E7CE
:105228004FF48062032303A8ADF80C208DF80E30EC
:1052380000F00CFAD4F84821B4E7FEE71B4BA26350
:105248004322636140231A4DC4E9062300224FF428
:1052580080632846C4E908234FF400624FF40053E2
:10526800C4E90A234FF480724FF48033C4E90C2355
:1052780004F062F920B9D4F84831A560E464A8E7DD
:10528800FEE74FF4A062032303A8ADF80C208DF8C5
:105298000E3000F0DBF988E7007400400044025843
:1052A800589B002428040240E49B00241004024078
:1052B8006C9B0024014804F0B7BC00BF6C9B002421
:1052C800014804F0B1BC00BFE49B002410B5054CB4
:1052D800204603F07DFF04F58270BDE8104009F018
:1052E80081BF00BF589B002430B58C463A4C3B4DDB
:1052F8008DB0046004F5A27EBCE80F00AEE80F0094
:10530800DCF8003020462560CEF8003003F002FFBC
:105318000023D4F84C510393C5B11622012D0492F1
:1053280017D00022D4F85411D4F848319142CDE96D
:10533800062218BF0222059233F0020235D0013B43
:10534800012B3CD9002528460DB030BD022304931B
:10535800E7E7234A0093C4F80C31C4F81431C4F8C1
:105368000421C4F81C31CDE9013302F055FDD4F80D
:1053780044314BF68032C4F80851002B08BF13465D
:10538800B0FBF3F304F58270C4F8103109F094FD12
:105398000028D8D120230290694604F58270009332
:1053A80009F0D8FF0028BCD0CDE703A90A4803F0CC
:1053B80043FF78B9D4F84831013B012BC2D81022F9
:1053C80003A9054803F038FF051E18BF0125284624
:1053D8000DB030BD0125B6E7589B0024007400408D
:1053E800001000402DE9F0410668D6F84C5105BB85
:1053F800D6F850310C461746002B0CBF4FF0080862
:105408004FF0000831F0020305D0013C012C14D9FB
:105418002846BDE8F0811346294642463046013CFD
:1054280003F0BCFE2946304603F08AFE012CEFD873
:1054380003E001252846BDE8F0813B46424610219D
:10544800304603F0ABFE1021304603F079FE2846C3
:10545800BDE8F08110B592B0ADF804100180C9B272
:10546800149C0B29C460C0E901233FD090F801C007
:10547800BCF10F0F3AD8022A3FD0032A02D0012AE2
:1054880000D000220E92012B02D0022B18BF00235D
:10549800022C0F932CD0032C2AD0012C28D00023C7
:1054A8000A29109327D85C4A02EB812202610A2953
:1054B80014D8DFE801F0A39587796B5D4F41332558
:1054C8000600564BD3F8E01041F48061C3F8E010B1
:1054D800D3F8E03003F480630C930C9B01230DA9EF
:1054E800104603FA0CF30D9304F0F0FE12B010BD51
:1054F8000A291094D7D90022D8E711220E92C2E7C0
:10550800464BD3F8E01041F40071C3F8E010D3F82B
:10551800E03003F400730B930B9BDFE73F4BD3F8AA
:10552800E01041F48071C3F8E010D3F8E03003F4E0
:1055380080730A930A9BD1E7384BD3F8E01041F007
:105548008001C3F8E010D3F8E03003F0800309933A
:10555800099BC3E7314BD3F8E01041F04001C3F891
:10556800E010D3F8E03003F040030893089BB5E758
:105578002A4BD3F8E01041F02001C3F8E010D3F82B
:10558800E03003F020030793079BA7E7234BD3F8EA
:10559800E01041F01001C3F8E010D3F8E03003F058
:1055A80010030693069B99E71C4BD3F8E01041F0D3
:1055B8000801C3F8E010D3F8E03003F008030593BE
:1055C800059B8BE7154BD3F8E01041F00401C3F8B5
:1055D800E010D3F8E03003F004030493049B7DE764
:1055E8000E4BD3F8E01041F00201C3F8E010D3F8F5
:1055F800E03003F002030393039B6FE7074BD3F8F4
:10560800E01041F00101C3F8E010D3F8E03003F0F6
:1056180001030293029B61E700000258004402580C
:1056280008B5012143780069994089B205F056F818
:10563800003818BF012008BD01230A4641780069D7
:1056480003FA01F189B205F04FB800BF8378022B45
:1056580030B504468FB037D0032B33D0012B31D06F
:1056680000230A93E378012B2AD0022B28D00023A9
:105678000B93002320460C9302F054FD0546204668
:1056880002F058FD23780990082B13D8DFE803F0BF
:105698001F3245586B7E91A40500594BD3F8E02082
:1056A80042F48072C3F8E020D3F8E03003F480734A
:1056B8000893089B09A9284604F008FE0FB030BDDE
:1056C8000B93D6E70A93CDE711230A93CAE74C4B0D
:1056D80009A92846D3F8E02042F00102C3F8E020E7
:1056E800D3F8E03003F001030093009B04F0EEFDD3
:1056F8000FB030BD424B09A92846D3F8E02042F04C
:105708000202C3F8E020D3F8E03003F0020301936B
:10571800019B04F0DBFD0FB030BD394B09A92846C9
:10572800D3F8E02042F00402C3F8E020D3F8E030D8
:1057380003F004030293029B04F0C8FD0FB030BDD0
:105748002F4B09A92846D3F8E02042F00802C3F8F5
:10575800E020D3F8E03003F008030393039B04F040
:10576800B5FD0FB030BD264B09A92846D3F8E02077
:1057780042F01002C3F8E020D3F8E03003F0100341
:105788000493049B04F0A2FD0FB030BD1C4B09A983
:105798002846D3F8E02042F02002C3F8E020D3F8EE
:1057A800E03003F020030593059B04F08FFD0FB054
:1057B80030BD134B09A92846D3F8E02042F0400237
:1057C800C3F8E020D3F8E03003F040030693069BCB
:1057D80004F07CFD0FB030BD094B09A92846D3F869
:1057E800E02042F08002C3F8E020D3F8E03003F074
:1057F80080030793079B04F069FD0FB030BD00BF1D
:105808000044025838B5054602F08CFC0446284688
:1058180002F090FC01462046BDE8384004F05EBF27
:1058280070B506460D4602F07DFC0446304602F08F
:1058380081FC2A1E0146204618BF0122BDE870409F
:1058480004F052BF0023122270B586B0CDE90223BE
:1058580004930368032B01D804230593061D841DB4
:10586800304602F05FFC0546304602F063FC034612
:1058780001A92846019304F029FD204602F052FCB4
:10588800034620461C4602F055FC01A90346204663
:10589800019304F01BFD06B070BD00BF634A0368A6
:1058A800934210B58CB028D0614A934258D0614ACF
:1058B800934200F09480604A934201D00CB010BD2E
:1058C8005E4C5F48D4F8E03043F00203C4F8E0309F
:1058D800D4F8E03003F002030A930A9BFFF7B2FF03
:1058E800D4F8F43043F08003C4F8F430D4F8F4303A
:1058F80003F080030B930B9BE0E7504C5148D4F81E
:10590800E03043F00203C4F8E030D4F8E03003F0AC
:1059180002030193019BFFF795FFD4F8E8300022BA
:105928001F2043F400131146C4F8E830D4F8E830D7
:1059380003F400130293029BD4F8D83043F0010318
:10594800C4F8D830D4F8D83003F001030393039B8C
:1059580003F014FB1F200CB0BDE8104003F04CBB53
:10596800364C3948D4F8E03043F08003C4F8E030CE
:10597800D4F8E03003F080030493049BD4F8E030BB
:1059880043F00203C4F8E030D4F8E03003F0020337
:105998000593059BFFF756FFD4F8E8300022212035
:1059A80043F480031146C4F8E830D4F8E83003F42F
:1059B80080030693069BD4F8D83043F00103C4F85B
:1059C800D830D4F8D83003F001030793079B03F0CD
:1059D800D5FA21200CB0BDE8104003F00DBB1B48E0
:1059E800FFF730FF154B00224820D3F8E840114656
:1059F80044F40004C3F8E840D3F8E84004F4000491
:105A08000894089CD3F8D84044F00104C3F8D8405F
:105A1800D3F8D83003F001030993099B03F0AEFAD9
:105A280048200CB0BDE8104003F0E6BA005400402E
:105A380000580040005C0040001C00580044025818
:105A48004C9F0024C49C00249C9D0024749E002428
:105A58002DE9F0431A4B87B000254FF010099E46F8
:105A6800EC46184BFF22E04667461A700EF11806FE
:105A78000EF13004CDE90055CDE90255ADF800909E
:105A8800BCE80F00CDE90455AEE80F009CE8030020
:105A98000095ADF800908EE80300B8E80F000FC637
:105AA8009CE803000095ADF8009086E803000FCF4E
:105AB8000FC49CE8030084E8030007B0BDE8F08346
:105AC80008000024C09C002410B5EFF3108472B6BF
