:020000040800F2
:100000000000022065090008AD0900085D8A0008AB
:10001000AD090008AD090008AD09000800000000A6
:10002000000000000000000000000000AD09000812
:10003000AD09000800000000AD090008E1890008D2
:10004000AD090008AD090008AD090008AD090008B8
:10005000AD090008AD090008AD090008AD090008A8
:10006000AD090008AD090008AD09000819720008C3
:10007000257200087D5C0008317200083D7200089E
:10008000AD84000845670008AD090008AD09000807
:10009000AD090008AD090008AD090008AD09000868
:1000A000AD090008AD090008AD090008AD09000858
:1000B000BD780008C9780008D5780008796700087D
:1000C000AD09000885670008AD090008253F010853
:1000D000313F0108E18200080D83000841830008D8
:1000E000AD090008AD09000800000000AD090008D6
:1000F000AD090008AD090008AD090008AD09000808
:10010000AD0900088D760008E17800083D3F010840
:1001100075830008A9830008495F0008AD0900083D
:10012000315F00083D5F0008613F0108953F01080D
:10013000E1840008AD090008AD090008AD09000818
:1001400000000000000000000000000000000000AF
:10015000AD090008AD090008AD090008DD830008FD
:1001600091670008AD090008F1890008158A0008A8
:10017000AD090008398A0008AD090008AD0900087A
:10018000AD090008AD090008118400084584000885
:10019000493F0108553F0108AD090008AD090008B5
:1001A000AD090008AD090008AD090008AD09000857
:1001B000396F0008AD090008AD090008AD09000855
:1001C000AD090008AD090008AD090008AD09000837
:1001D000AD090008AD090008AD090008AD09000827
:1001E000AD090008AD090008AD090008AD09000817
:1001F000AD090008AD090008AD090008AD09000807
:10020000AD090008AD090008AD090008AD090008F6
:10021000AD090008AD090008AD090008AD090008E6
:10022000AD090008AD090008AD0900080000000094
:10023000AD090008AD09000800000000AD09000884
:10024000AD090008AD090008AD090008AD090008B6
:10025000AD090008AD090008AD090008AD090008A6
:10026000AD090008AD090008AD090008AD09000896
:10027000AD090008AD0900087984000800000000FD
:10028000AD090008AD090008AD0900080000000034
:0802900000000000AD090008A8
:1002980010B5054C237833B9044B13B10448AFF3B8
:1002A80000800123237010BDF80300240000000023
:1002B800C878010808B5034B1BB103490348AFF3DD
:1002C800008008BD00000000FC030024C878010875
:1002D800034613F8012B002AFBD1181A013870477E
:1002E80081F0004102E000BF83F0004330B54FEADF
:1002F80041044FEA430594EA050F08BF90EA020F4C
:100308001FBF54EA000C55EA020C7FEA645C7FEADE
:10031800655C00F0E2804FEA5454D4EB5555B8BF01
:100328006D420CDD2C4480EA020281EA030382EA72
:10033800000083EA010180EA020281EA0303362D04
:1003480088BF30BD11F0004F4FEA01314FF4801CD7
:100358004CEA113102D0404261EB410113F0004FE9
:100368004FEA03334CEA133302D0524263EB4303A0
:1003780094EA050F00F0A780A4F10104D5F1200E3E
:100388000DDB02FA0EFC22FA05F2801841F1000199
:1003980003FA0EF2801843FA05F359410EE0A5F16D
:1003A80020050EF1200E012A03FA0EFC28BF4CF09E
:1003B800020C43FA05F3C01851EBE37101F0004554
:1003C80007D54FF0000EDCF1000C7EEB00006EEB61
:1003D8000101B1F5801F1BD3B1F5001F0CD34908EB
:1003E8005FEA30004FEA3C0C04F101044FEA445242
:1003F80012F5800F80F09A80BCF1004F08BF5FEAC9
:10040800500C50F1000041EB045141EA050130BDA8
:100418005FEA4C0C404141EB0101013C28BFB1F5BA
:10042800801FE9D291F0000F04BF01460020B1FA05
:1004380081F308BF2033A3F10B03B3F120020CDAD8
:100448000C3208DD02F1140CC2F10C0201FA0CF0B6
:1004580021FA02F10CE002F11402D8BFC2F1200C1B
:1004680001FA02F120FA0CFCDCBF41EA0C019040D1
:10047800E41AA2BF01EB0451294330BD6FEA04041A
:100488001F3C1CDA0C340EDC04F11404C4F1200205
:1004980020FA04F001FA02F340EA030021FA04F317
:1004A80045EA030130BDC4F10C04C4F1200220FA6E
:1004B80002F001FA04F340EA0300294630BD21FAAC
:1004C80004F0294630BD94F0000F83F4801306BF72
:1004D80081F480110134013D4EE77FEA645C18BF66
:1004E8007FEA655C29D094EA050F08BF90EA020FFD
:1004F80005D054EA000C04BF1946104630BD91EAF5
:10050800030F1EBF0021002030BD5FEA545C05D1F7
:100518004000494128BF41F0004130BD14F5800436
:100528003CBF01F5801130BD01F0004545F0FE41AA
:1005380041F470014FF0000030BD7FEA645C1ABFDF
:10054800194610467FEA655C1CBF0B46024650EA16
:10055800013406BF52EA033591EA030F41F4002142
:1005680030BD00BF90F0000F04BF0021704730B5C8
:100578004FF4806404F132044FF000054FF000019D
:1005880050E700BF90F0000F04BF0021704730B55E
:100598004FF4806404F1320410F0004548BF404233
:1005A8004FF000013EE700BF42004FEAE2014FEA88
:1005B80031014FEA02701FBF12F07F4393F07F4F63
:1005C80081F06051704732F07F4208BF704793F066
:1005D8007F4F04BF41F40021704730B54FF4607479
:1005E80001F0004521F000411CE700BF50EA01027C
:1005F80008BF704730B54FF000050AE050EA010225
:1006080008BF704730B511F0004502D5404261EB94
:1006180041014FF4806404F132045FEA915C3FF4D5
:10062800D8AE4FF003025FEADC0C18BF03325FEA72
:10063800DC0C18BF033202EBDC02C2F1200300FA23
:1006480003FC20FA02F001FA03FE40EA0E0021FA48
:1006580002F11444BDE600BF53B94AB9002908BFE6
:1006680000281CBF4FF0FF314FF0FF3000F074B985
:10067800ADF1080C6DE904CE00F006F8DDF804E0F1
:10068800DDE9022304B070472DE9F047089D0446D0
:100698008E46002B4DD18A42944669D9B2FA82F22D
:1006A80052B101FA02F3C2F1200120FA01F10CFA69
:1006B80002FC41EA030E94404FEA1C48210CBEFBA1
:1006C800F8F61FFA8CF708FB16E341EA034306FB2A
:1006D80007F199420AD91CEB030306F1FF3080F0B9
:1006E8001F81994240F21C81023E63445B1AA4B206
:1006F800B3FBF8F008FB103344EA034400FB07F7A8
:10070800A7420AD91CEB040400F1FF3380F00A81E8
:10071800A74240F207816444023840EA0640E41BDD
:1007280000261DB1D4400023C5E900433146BDE889
:10073800F0878B4209D9002D00F0EF800026C5E92B
:10074800000130463146BDE8F087B3FA83F6002E43
:100758004AD18B4202D3824200F2F980841A61EBBB
:10076800030301209E46002DE0D0C5E9004EDDE7D9
:1007780002B9FFDEB2FA82F2002A40F09280A1EBC1
:100788000C014FEA1C471FFA8CFE0126200CB1FB16
:10079800F7F307FB131140EA01410EFB03F088420F
:1007A80008D91CEB010103F1FF3802D2884200F29C
:1007B800CB804346091AA4B2B1FBF7F007FB10112E
:1007C80044EA01440EFB00FEA64508D91CEB0404CC
:1007D80000F1FF3102D2A64500F2BB800846A4EB27
:1007E8000E0440EA03409CE7C6F12007B34022FA12
:1007F80007FC4CEA030C20FA07F401FA06F31C4341
:10080800F9404FEA1C4900FA06F3B1FBF9F8200C4D
:100818001FFA8CFE09FB181140EA014108FB0EF093
:10082800884202FA06F20BD91CEB010108F1FF3AE3
:1008380080F08880884240F28580A8F102086144EF
:10084800091AA4B2B1FBF9F009FB101144EA0141FD
:1008580000FB0EFE8E4508D91CEB010100F1FF34A8
:100868006CD28E456AD90238614440EA0840A0FB40
:100878000294A1EB0E01A142C846A64656D353D016
:100888005DB1B3EB080261EB0E0101FA07F722FA3A
:1008980006F3F1401F43C5E9007100263146BDE863
:1008A800F087C2F12003D8400CFA02FC21FA03F3C6
:1008B800914001434FEA1C471FFA8CFEB3FBF7F047
:1008C80007FB10360B0C43EA064300FB0EF69E426C
:1008D80004FA02F408D91CEB030300F1FF382FD205
:1008E8009E422DD9023863449B1B89B2B3FBF7F6AD
:1008F80007FB163341EA034106FB0EF38B4208D986
:100908001CEB010106F1FF3816D28B4214D9023EC6
:100918006144C91A46EA004638E72E46284605E7E4
:100928000646E3E61846F8E64B45A9D2B9EB0208B5
:1009380064EB0C0E0138A3E74646EAE7204694E745
:100948004046D1E7D0467BE7023B614432E7304678
:1009580009E76444023842E7704700BF0C4D0D4C6C
:1009680003E02B682360043504340B4B9C42F8D118
:100978000A4C02E0002323600434094B9C42F9D15D
:1009880008F0A0FA15F062FE01F070FFFEE700BF64
:10099800F878010800000024F8030024F803002474
:1009A800D01F0724FEE780B483B000AF78607B686F
:1009B80010221A747B6818460C37BD465DF8047B14
:1009C800704780B483B000AF78607B6801229A607A
:1009D8007B680022DA607B6801225A617B6847F6EF
:1009E80012229A617B6818460C37BD465DF8047B75
:1009F800704780B582B000AF7860786804F0D8FDA1
:100A080000BF0837BD4680BD84B080B58AB000AF4E
:100A1800786007F1340080E80E0007F108031846F3
:100A2800FFF7CFFF47F612233B6201233B61002308
:100A38007B610223BB610123FB617B6BFB603B8F06
:100A48007B817B8F3B81FA6B7B685A603A6C7B6851
:100A58009A607B6858687B685A687B689B6813440F
:100A680000227A6207F12402194600F071FA7B68C5
:100A780007F108021146184607F0E4FD00BF2837C1
:100A8800BD46BDE8804004B0704780B483B000AF75
:100A980078607B6803221A607B6801225A607B6851
:100AA80000221A7200BF0C37BD465DF8047B704700
:100AB80080B582B000AF78607B681846FFF773FF97
:100AC800786800F005F87B6818460837BD4680BD91
:100AD80080B483B000AF78607B6800221A607B68BE
:100AE80002229A607B680022DA607B68074A1288D3
:100AF8009A807B68064A1288DA807B683C221A75DD
:100B080000BF0C37BD465DF8047B70476C6901086F
:100B18007069010880B582B000AF786039603B68C1
:100B28001A7D7B681A717B683A681146184605F089
:100B380031FE00BF0837BD4680BD80B586B002AF24
:100B480078600B46FB700023BB81FB787B73786869
:100B58007B681B7999B207F10C024FF47A73009302
:100B6800022305F0ADFE00BF1037BD4680BD80B53D
:100B780088B000AF78607B68184603F0F1F97B68AD
:100B88000121184603F0E8FA786800F0A4F97868BB
:100B980000F05AF9786800F087F9786800F08CF866
:100BA800786800F0BFF90123BB610023FB610023D3
:100BB8007B6102233B617B68203307F10C021146FD
:100BC800184605F0CBF97B6820330022022118462D
:100BD80005F042FA00BF2037BD4680BD80B582B01F
:100BE80000AF78607B68184603F0D6F9F0EE407ADB
:100BF800B0EE670A0837BD4680BD80B582B000AF49
:100C0800786039607B683968184603F0C9F900BF15
:100C18000837BD4680BD80B582B000AF78607B687C
:100C2800184603F0D9F9F0EE407AB0EE670A0837B3
:100C3800BD4680BD80B582B000AF786039607B6802
:100C48003968184603F0A4F900BF0837BD4680BDCF
:100C580080B582B000AF78607B681833184604F01E
:100C68009DFF00BF0837BD4680BD80B584B000AF8A
:100C780078600023FB60FB68032B0BD8FB685B01E3
:100C880068337A681344184604F0ECFBFB680133B8
:100C9800FB60F0E700BF1037BD4680BD80B582B06D
:100CA80000AF78607B684033184604F02FFC00BF23
:100CB8000837BD4680BD0000B0B598B000AF786079
:100CC800102003F04FF90346A7F8503007F1080346
:100CD8000222396D184604F03FFD0F2003F042F957
:100CE8000346A7F8543007F1080312330222796D3E
:100CF800184604F031FD152003F034F90346A7F82F
:100D0800583007F1080324330222B96D184604F05D
:100D180023FD122003F026F90346A7F85C3007F1FB
:100D2800080336330222F96D184604F015FD7B6876
:100D380003F1180007F108010423042204F020FD40
:100D48007B6803F168047B6818330021184604F0B7
:100D58003BFF05467868FFF75EFFF0EE407ADFED6F
:100D68002C0A00230022B0EE670A2946204604F028
:100D780047FB7B6803F188047B6818330121184618
:100D880004F022FF05467868FFF745FFF0EE407A49
:100D9800DFED1F0A00230022B0EE670A294620462D
:100DA80004F02EFB7B6803F1A8047B68183302214A
:100DB800184604F009FF05467868FFF72CFFF0EEA7
:100DC800407ADFED130A00230122B0EE670A2946B4
:100DD800204604F015FB7B6803F1C8047B681833D0
:100DE8000321184604F0F0FE05467868FFF713FF64
:100DF800F0EE407ADFED060A00230122B0EE670A22
:100E08002946204604F0FCFA00BF6037BD46B0BD55
:100E18006F12033B80B582B000AF78607B681846DC
:100E2800FFF746FE7B6818460837BD4680BD80B58B
:100E380082B000AF78607B681846FFF7EBFF7B68ED
:100E480018460837BD4680BDB0B58CB004AF786091
:100E580007F108031846FFF7EAFF07F108031846E9
:100E6800FFF736FE7B6849F24C241C446D4607F1B7
:100E7800140393E8070085E8070007F108030ECB81
:100E8800204600F074F800BF2037BD46B0BD80B5DD
:100E980082B000AF78607B68184604F075FB7B6809
:100EA80018460837BD4680BD80B588B002AF786067
:100EB80007F108031846FFF7EAFF7B6803F1E8002B
:100EC8007B69009307F108030ECB00F070F800BFB0
:100ED8001837BD4680BD90B587B000AF78607B6895
:100EE80003F140041B2003F03DF80346BB811A20A0
:100EF80003F038F803463B821C2003F033F803461E
:100F0800BB827868FFF787FEF0EE407AB0EE670A9A
:100F18007B693A69F968204604F0C8FA00BF1C37B3
:100F2800BD4690BD80B582B000AF78600748FFF736
:100F3800ACFD7A6849F2482313440449184606F080
:100F480061FB00BF0837BD4680BD00BF1404002404
:100F580080B584B000AFF860B9607A607A68B96823
:100F6800F86800F049F800BF1037BD4680BD84B06E
:100F7800B0B586B004AF786007F11C0080E80E00B9
:100F88007B6803F108056C4607F1280393E807001E
:100F980084E8070007F11C030ECB284600F03BF855
:100FA80000BF0837BD46BDE8B04004B0704784B004
:100FB80090B585B002AF786007F11C0080E80E009C
:100FC8007B681C4607F11C030FCB84E80F007B6885
:100FD80003F110007B68DA6800920ECBFFF714FD6E
:100FE8007B6824331846FFF704FD00BF0C37BD4665
:100FF800BDE8904004B0704780B584B000AFF86099
:10100800B9607A607A68B968F86800F08FF800BF4C
:101018001037BD4680BD84B080B582B000AF78601F
:1010280007F1140080E80E007B6807F114021146EE
:101038001846FFF76FFD7B68AE211846FFF77DFD68
:101048007B68D5211846FFF778FD7B688021184614
:10105800FFF773FD7B68A8211846FFF76EFD7B68D4
:101068001F211846FFF769FD7B68DA211846FFF74C
:1010780064FD7B6812211846FFF75FFD00BF7B689F
:10108800D3211846FFF759FD7B6800211846FFF762
:1010980054FD7B6840211846FFF74FFD7B68A62169
:1010A8001846FFF74AFD7B68A4211846FFF745FD5F
:1010B8007B688D211846FFF740FD7B681421184690
:1010C800FFF73BFD7B68A1211846FFF736FD7B68DB
:1010D800C8211846FFF731FD7B6881211846FFF7C4
:1010E8002CFD7B688F211846FFF727FD7B68D921E7
:1010F8001846FFF722FD7B6825211846FFF71DFDDE
:101108007B68DB211846FFF718FD7B6834211846F9
:10111800FFF713FD7B68AF211846FFF70EFD00BFF0
:101128000837BD46BDE8804004B0704780B487B03A
:1011380000AFF860B9607A607B681B687B61FA6809
:10114800BB689A4207D07B69DAB2FB681A70FB6801
:101158000133FB60F3E700BF1C37BD465DF8047B35
:10116800704780B483B000AF87ED010AD7ED017AEC
:10117800F0EEE77AB0EE670A0C37BD465DF8047BFF
:10118800704780B582B000AF87ED010A97ED010A7C
:1011980014F00AFFF0EE407AB0EE670A0837BD4651
:1011A80080BD80B582B000AF87ED010A97ED010AD6
:1011B80015F0FEF8F0EE407AB0EE670A0837BD4643
:1011C80080BD80B483B000AF87ED010AD7ED017A06
:1011D800F8FE677AB0EE670A0C37BD465DF8047B07
:1011E800704780B582B000AF78607868FFF770F814
:1011F800034618460837BD4680BD90B587B000AF96
:10120800786039603B68DB0FFB75FB7D002B02D0F3
:101218003B685B4200E03B683B610A21386901F0AA
:1012280067FCF860FA7DFB68D41807F108031846D4
:1012380014F034FC07F108032D222146786814F0D5
:1012480002FD07F10803184614F02AFCFB7D194635
:10125800786814F063FD03463A69F968184601F0A6
:1012680087FC00BF78681C37BD4690BD80B582B04A
:1012780000AF78607B681833184601F0CFFC7B68B4
:1012880018460837BD4680BD80B582B000AF78608B
:101298007B681833184601F0CCFC7B681846083781
:1012A800BD4680BDB0B582B000AF78607B680124D0
:1012B8001D46002C08DB2846FFF7D8FF42F2A4534E
:1012C8002B441D46013CF4E77B6818460837BD46A9
:1012D800B0BD000090B583B000AF78607B68002B8C
:1012E8000DD07B6844F648341C447B689C4206D089
:1012F800054B23441C462046FFF7C6FFF5E77B68ED
:1013080018460C37BD4690BD5CDAFFFF80B483B049
:1013180000AF78607B6818460C37BD465DF8047BE3
:10132800704780B483B000AF78607B6818460C378C
:10133800BD465DF8047B704780B483B000AF786029
:1013480039603B681A687B681A6000BF0C37BD4675
:101358005DF8047B704780B483B000AF7860396073
:101368003B681A687B685A6000BF0C37BD465DF859
:10137800047B704780B483B000AF78607B6800223C
:101388001A607B6800225A607B684FF0FF329A60CF
:101398007B6800221A737B6818460C37BD465DF8D7
:1013A800047B704780B483B000AF78607B6800220C
:1013B8001A607B6818460C37BD465DF8047B704799
:1013C80080B483B000AF78607B6818460C37BD46A0
:1013D8005DF8047B704780B483B000AF78607B68A9
:1013E80018460C37BD465DF8047B704780B483B05F
:1013F80000AF78607B6818460C37BD465DF8047B03
:10140800704780B483B000AF78607B6800221A60B0
:101418007B6818460C37BD465DF8047B704780B47E
:1014280083B000AF78607B6800221A607B6818463A
:101438000C37BD465DF8047B704780B483B000AFBD
:1014480078607B6800221A607B6818460C37BD46B6
:101458005DF8047B704780B483B000AF78607B6828
:1014680000221A607B6818460C37BD465DF8047B7D
:10147800704780B483B000AF78607B6800221A6040
:101488007B6818460C37BD465DF8047B704780B40E
:1014980083B000AF78607B6818460C37BD465DF8AE
:1014A800047B704780B483B000AF78607B681846CF
:1014B8000C37BD465DF8047B704780B483B000AF3D
:1014C80078607B6818460C37BD465DF8047B70472A
:1014D80080B483B000AF78607B6800221A607B68B4
:1014E80018460C37BD465DF8047B704780B483B05E
:1014F80000AF78607B68802283F895207B68702233
:1015080083F896207B687F2283F897207B680F22D8
:1015180083F898207B68072283F899207B6818460F
:101528000C37BD465DF8047B704780B483B000AFCC
:1015380078607B6818460C37BD465DF8047B7047B9
:1015480080B483B000AF78607B6818460C37BD461E
:101558005DF8047B704780B483B000AF78607B6827
:1015680018460C37BD465DF8047B704780B582B0DD
:1015780000AF78607B681846FFF7AAFF7B681846BB
:101588000837BD4680BD80B483B000AF78607B6803
:1015980018460C37BD465DF8047B704780B483B0AD
:1015A80000AF78607B6818460C37BD465DF8047B51
:1015B800704780B483B000AF78607B6818460C37FA
:1015C800BD465DF8047B704780B582B000AF786097
:1015D8007B6808331846FFF7E1FF7B681846083731
:1015E800BD4680BD80B582B000AF78607B680833A7
:1015F8001846FFF7DEFF7B6818460837BD4680BDF2
:1016080080B483B000AF78607B681B79002B02D070
:101618007B685B6A00E0002318460C37BD465DF81E
:10162800047B704780B483B000AF78607B6818464D
:101638000C37BD465DF8047B704780B483B000AFBB
:1016480078607B6818460C37BD465DF8047B7047A8
:1016580080B582B000AF78607B681846FFF7E2FF7C
:101668007B6818460837BD4680BD80B582B000AF9C
:1016780078607B681846FFF7E0FF7B6818460837F4
:10168800BD4680BD80B483B000AF78607B681B6BBB
:1016980007EE903AB0EE670A0C37BD465DF8047B5A
:1016A800704780B483B000AF78607B6818460C3709
:1016B800BD465DF8047B704780B483B000AF7860A6
:1016C8007B6818460C37BD465DF8047B704780B4CC
:1016D80083B000AF78607B6800221A807B680022A4
:1016E8005A807B6800229A807B680022DA807B68B7
:1016F80018460C37BD465DF8047B704780B582B04C
:1017080000AF78600B467B8013463B807B680022E5
:101718001A807B6800225A80B7F902301A460021E5
:10172800786800F021FA03461A467B689A80B7F970
:1017380000301A460021786800F016FA03461A4667
:101748007B68DA807B6818460837BD4680BD80B55F
:1017580084B000AFF860084611461A4603467B81FC
:101768000B463B811346FB80FB687A891A80FB682D
:101778003A895A80B7F906301A460021F86800F00D
:10178800F3F903461A46FB689A80B7F918301A46E7
:101798000021F86800F0E8F903461A46FB68DA8089
:1017A800FB6818461037BD4680BD80B483B000AFD3
:1017B80078607B68B3F9003018460C37BD465DF891
:1017C800047B704780B483B000AF78607B68B3F95E
:1017D800023018460C37BD465DF8047B704780B46C
:1017E80083B000AF78607B68B3F900309AB27B6849
:1017F800B3F904309BB213449BB21BB218460C37A2
:10180800BD465DF8047B704780B483B000AF786054
:101818007B68B3F902309AB27B68B3F906309BB2A1
:1018280013449BB21BB218460C37BD465DF8047BC7
:10183800704780B483B000AF78607B68B3F900303C
:101848009AB27B68B3F90430002B00DA01335B10DD
:101858001BB29BB213449BB21BB218460C37BD4651
:101868005DF8047B704780B483B000AF78607B6814
:10187800B3F902309AB27B68B3F90630002B00DA6C
:1018880001335B101BB29BB213449BB21BB21846C8
:101898000C37BD465DF8047B70470000F0B587B093
:1018A80002AFF860B9607A603B603B68082B00F2D1
:1018B800538101A252F823F0FB1A0008E51800082A
:1018C8003F1900080919000883190008051A0008BB
:1018D800BB1900085D1A0008A31A00087B68B3F951
:1018E80000107B68B3F90220BB68B3F90400BB6839
:1018F800B3F9063000930346F868FFF728FF2EE196
:101908007868FFF76CFF03469AB2BB68B3F90430F6
:101918009BB2D31A9BB219B27B68B3F90220BB6899
:10192800B3F90400BB68B3F9063000930346F868BE
:10193800FFF70DFF13E1BB68B3F900309CB278687C
:10194800FFF777FF03469DB2B868FFF772FF0346BB
:101958009BB2EB1A9BB223449BB219B27B68B3F9D2
:101968000220BB68B3F90400BB68B3F906300093E2
:101978000346F868FFF7EBFEF1E07B68B3F9004037
:101988007868FFF741FF03469AB2BB68B3F906309F
:101998009BB2D31A9BB21AB2BB68B3F90410BB68E6
:1019A800B3F9063000930B462146F868FFF7CFFEDF
:1019B800D5E07868FFF713FF03469AB2BB68B3F91E
:1019C80004309BB2D31A9BB21CB27868FFF71CFF95
:1019D80003469AB2BB68B3F906309BB2D31A9BB2DE
:1019E8001AB2BB68B3F90410BB68B3F906300093A8
:1019F8000B462146F868FFF7AAFEB0E0BB68B3F9CA
:101A080000309CB27868FFF714FF03469DB2B868AF
:101A1800FFF70FFF03469BB2EB1A9BB223449BB21E
:101A28001CB27868FFF7F0FE03469AB2BB68B3F9B8
:101A380006309BB2D31A9BB21AB2BB68B3F9041032
:101A4800BB68B3F9063000930B462146F868FFF7E8
:101A58007EFE84E07B68B3F90060BB68B3F90230AE
:101A68009CB27868FFF7FFFE03469DB2B868FFF79F
:101A7800FAFE03469BB2EB1A9BB223449BB21AB2FE
:101A8800BB68B3F90410BB68B3F9063000930B4682
:101A98003146F868FFF75BFE61E07868FFF79FFE64
:101AA80003469AB2BB68B3F904309BB2D31A9BB20F
:101AB8001EB2BB68B3F902309CB27868FFF7D3FE58
:101AC80003469DB2B868FFF7CEFE03469BB2EB1AF9
:101AD8009BB223449BB21AB2BB68B3F90410BB682B
:101AE800B3F9063000930B463146F868FFF72FFE2E
:101AF80035E0BB68B3F900309CB27868FFF799FE0F
:101B080003469DB2B868FFF794FE03469BB2EB1AF2
:101B18009BB223449BB21EB2BB68B3F902309CB29D
:101B28007868FFF7A0FE03469DB2B868FFF79BFEF2
:101B380003469BB2EB1A9BB223449BB21AB2BB6812
:101B4800B3F90410BB68B3F9063000930B4631466D
:101B5800F868FFF7FCFD02E0F868FFF7B8FDF868E1
:101B68001437BD46F0BD00BF80B483B000AF7860C5
:101B78000B467B8013463B80B7F90220B7F900304B
:101B88009A4202DDB7F9023001E0B7F90030184691
:101B98000C37BD465DF8047B7047000080B483B005
:101BA80000AF7860044A7B681A607B6818460C3777
:101BB800BD465DF8047B7047846B010880B483B030
:101BC80000AF7860044A7B681A607B6818460C3757
:101BD800BD465DF8047B7047846B010880B582B010
:101BE80000AF78607868FFF7E9FF0821786813F09C
:101BF80050FF7B6818460837BD4680BD80B582B067
:101C080000AF78600B467B8013463B807B681B687F
:101C18000C331B687868984703461A467B889342BA
:101C280009D37B681B680C331B68786898470346A0
:101C3800013B9BB200E07B887A6893807B681B68D5
:101C480008331B687868984703461A463B889342CE
:101C580009D37B681B6808331B6878689847034674
:101C6800013B9BB200E03B887A68D38000BF08370D
:101C7800BD4680BD80B483B000AF78607B681846ED
:101C88000C37BD465DF8047B7047000080B588B00E
:101C980000AFF86087ED020A7960C7ED000A7B683B
:101CA80007EE903AF8EEE76A97ED027AC6EE877A81
:101CB800C7ED077A07F0B4F807EE900AF8EE677AEE
:101CC800C7ED067A97ED067AD7ED077A27EE277AD9
:101CD800F7EE006AC6EE877AFB68C3ED017A7B6887
:101CE80007EE903AB8EEE77AD7ED026AC6EE877A41
:101CF800C7ED057AD7ED007A77EEA77A9FED0E7AD1
:101D080067EE876A97ED057AC6EE877AC7ED047A9B
:101D1800D7ED047AB7EE007A37EE877AD7ED046A02
:101D2800C6EE877AFB68C3ED067AF86800F084F897
:101D380000BF2037BD4680BDDB0F494080B582B06B
:101D480000AF786006F0F8FE02467B689A6000BF34
:101D58000837BD4680BD80B586B000AF786006F014
:101D6800EBFE78617B689B687A69D31A3B613B69B3
:101D780007EE903AB8EE677A7B68D3ED017A67EEA2
:101D8800277AC7ED037A7B681B78002B0ED07B6817
:101D9800FA685A617B685A697B68DA607B68DA6836
:101DA8007B681A617B6800221A7031E07B68D3ED8A
:101DB800047A97ED037AB4EEE77AF1EE10FA02DDD1
:101DC8007B68FA681A617B68D3ED037A97ED037A2A
:101DD800B4EEE77AF1EE10FA02D57B68FA68DA60B9
:101DE8007B6893ED067AD7ED037A27EE277A7B682E
:101DF800D3ED067AF7EE006A76EEE76A7B68D3EDF4
:101E0800057A66EEA77A77EE277A7B68C3ED057ABE
:101E180000BF1837BD4680BD80B483B000AF78607E
:101E28007B685B6907EE903AB0EE670A0C37BD46EF
:101E38005DF8047B7047000080B483B000AF786021
:101E48007B6801221A707B68074ADA607B68DA6867
:101E58007B681A617B681A697B685A6100BF0C3716
:101E6800BD465DF8047B70470000C07F80B582B036
:101E780000AF78607B681846FFF7C3FA7B681433B5
:101E88001846FFF7F6FA7B6818331846FFF70AFB7F
:101E98007B6820331846FFF7C2FA7B68243318465C
:101EA800FFF74EFB7B6830331846FFF794FA7B68E0
:101EB8003C331846FFF7CFFA7B6818460837BD460B
:101EC80080BD80B582B000AF78607B68303318463B
:101ED800FFF78CFA7B6824331846FFF73CFB7B68D6
:101EE80018331846FFF7E9FA7B6814331846FFF7EA
:101EF800CEFA7B6818460837BD4680BD80B588B0E5
:101F080002AFF860B9607A6000237B617A697B6808
:101F18009A4218D200233B8240233B74BA687B69FB
:101F280013441B787B74F868FB681B7999B207F136
:101F380010024FF47A730093022304F0C1FC7B690A
:101F480001337B61E2E700BF1837BD4680BDB0B5FD
:101F580082B000AF78607B681846FFF787FF7B6820
:101F680040331846FFF730FB7B68683303241D466F
:101F7800002C05DB2846FFF755FB2035013CF7E729
:101F88007B68E833184600F06CFE7A6849F248230B
:101F980013441846FFF785FB7A6849F24C2313442B
:101FA800184600F0ADFE7B6818460837BD46B0BD40
:101FB80090B583B000AF78607A6849F24C23134437
:101FC800184600F0B5FE7A6849F2482313441846CB
:101FD800FFF772FB7B68E833184600F05EFE7B680B
:101FE8006833002B0CD07B68683303F180047B686E
:101FF80068339C4204D0203C2046FFF71EFBF6E7DE
:102008007B6840331846FFF7EDFA7B681846FFF700
:1020180058FF7B6818460C37BD4690BD80B582B026
:1020280000AF78607868FEF720FE7868FEF736FE25
:1020380000BF0837BD4680BD90B5A9B002AF0021EA
:10204800884800F0A3FE002200218648FFF7D6FD4D
:10205800854BD3ED007AFDEEE77A3B1D17EE901A1B
:102068001846FFF7CAF83B1D0021184613F056FE24
:10207800C7F894007D4B012200920CCBD7F894103E
:10208800784800F094FE002216217648FFF7B6FD46
:102098003B1D7749184613F0D2FE744B012200927B
:1020A8000CCBD7F894106F4800F081FE714B1B6879
:1020B80083EAE372A2EBE37207F11C0311461846A8
:1020C800FFF79BF807F11C023B1D1146184613F059
:1020D800C9FD07F11C03184613F0BEFD654B1B68CC
:1020E8000024002B0EDA07F134033A1D6249184622
:1020F80000F08AFE012407F134023B1D1146184600
:1021080013F0B0FD002C04D007F13403184613F087
:10211800A3FD082200215348FFF770FD534B01220D
:1021280000920CCBD7F894104E4800F040FE0822DD
:1021380016214C48FFF762FD3B1D5049184613F025
:102148007EFE4A4B012200920CCBD7F894104548EA
:1021580000F02DFE102200214248FFF74FFD484BAA
:10216800D3ED007AB2EE047A67EE877AFDEEE77A6D
:1021780007F14C0317EE901A1846FFF73EF807F1DF
:102188004C023B1D1146184613F06CFD07F14C0339
:10219800184613F061FD354B012200920CCBD7F89D
:1021A8009410304800F003FE182200212D48FFF754
:1021B80025FD3448FFF730FEF0EE407A9FED327A85
:1021C80067EE877AFDEEE77A07F1640317EE901A57
:1021D8001846FFF712F807F164023B1D114618462E
:1021E80013F040FD07F16403184613F035FD1F4B4B
:1021F800012200920CCBD7F894101A4800F0D7FDB2
:1022080018223A211748FFF7F9FC204B1A6807F102
:102218007C0311461846FEF7F0FF07F17C023B1DD0
:102228001146184613F01EFD07F17C03184613F0FB
:1022380013FD174B1B7883F00103DBB20B4A0093A5
:102248000CCAD7F89410074800F0B1FD054800F013
:102258001BFE3B1D184613F0FFFC00BF9C37BD4614
:1022680090BD00BF6C9600242CEF06244C0200247D
:102278007469010808000024786901087C6901086C
:1022880068EF062428EE06240000C84260EF062402
:102298005CEF062480B582B000AF3B4B00221A7079
:1022A8004FF000037B60394805F096FB0346384A37
:1022B8001360374B1A68374B1B68D31A07EE903AEE
:1022C800B8EE677ADFED346AC7EE267A334BC3ED92
:1022D800007A2F4B1B682F4A1360304BD3ED007ADE
:1022E800B2EE007A27EE877A2D4B1B685A1C2C49D0
:1022F8000A60DFED2C6AC6EE877A2B4A9B001344EE
:10230800C3ED007A264B1B68032B02D1244B002215
:102318001A6000233B603B68022B0FDC224A3B68B3
:102328009B001344D3ED007A97ED017A77EE277A74
:10233800C7ED017A3B6801333B60ECE7D7ED017AE2
:10234800F0EE086A87EEA67AB0EE470AFEF739FF84
:10235800F0EE407A154BC3ED007A144B93ED007AFA
:10236800134BD3ED007AB4EE677AF1EE10FA06D08B
:102378000E4B1B680E4A1360034B01221A7000BFF4
:102388000837BD4680BD00BF34EF062458EF062449
:1023980050EF06244CEF06240060EA4854EF062468
:1023A80044EF062400606A4738EF06242CEF062421
:1023B80030EF062480B586B000AF9B48FFF72EFEAD
:1023C8009A4803F02BF99A4803F028F9994803F042
:1023D80025F9994803F022F99648FFF753F9F0EEEA
:1023E800407A9FED967AF4EEC77AF1EE10FA05DDA1
:1023F800934B1B78002B01D1012300E00023002B15
:1024080000F08D808E4B01221A708E4B1B680133B1
:102418008C4A13608B4B1B68042B02DD894B01220D
:102428001A60894B1B7883F00103DBB2002B18D0AC
:10243800854B01221A70834B1B68012B11D1002395
:102448007B617B69022B0CDC7B69804A02FB03F30E
:102458007F4A1344184600F024FD7B6901337B61F1
:10246800EFE7FFF717FF7B4B1B78002B03D17A4B65
:102478001B78002B53D0794BD3ED007A9FED787AF7
:1024880027EE877A774B1B68774A9B001344D3ED76
:10249800007A67EE276A754B93ED007AC6EE877A65
:1024A800734BC3ED007A00233B613B69022B0CDCC4
:1024B8003B69664A02FB03F3654A1344184600F079
:1024C800F0FC3B6901333B61EFE76A4B1B68684AE4
:1024D800D2ED007AB0EE670A184600F0EFFC654BC3
:1024E8005B68634AD2ED007A77EEA77AB0EE670AA6
:1024F800184600F0E3FC5F4B9B685D4AD2ED007A1A
:10250800B0EE087A67EE877AB0EE670A184600F0F0
:10251800D5FC504B00221A704F4B00221A704548C8
:10252800FFF7B0F8F0EE407A9FED447AF4EEC77A00
:10253800F1EE10FA05D5424B1B78012B01D101238E
:1025480000E00023002B02D03D4B00221A704A48BD
:10255800FFF756F80346002B14BF01230023DBB214
:10256800002B08D04448FFF74BF80246434B1B6842
:102578001344424A13602D48FFF784F887ED030A95
:102588003F4B93ED007AD7ED037A77EE677AB0EE9A
:10259800670AFEF7E6FDF0EE407A9FED3A7AF4EE30
:1025A800C77AF1EE10FACCBF01230023DBB2002B6F
:1025B80006D0334AFB68136031493348FEF7BCFE46
:1025C8001B48FFF75FF887ED020A304B93ED007A5E
:1025D800D7ED027A77EE677AB0EE670AFEF7C1FDAB
:1025E800F0EE407A9FED277AF4EEC77AF1EE10FA12
:1025F800CCBF01230023DBB2002B10D0234ABB68D9
:102608001360224BD3ED007A9FED217A67EE877A2B
:10261800C7ED017A3B1D19461B48FEF79CFE00BF1B
:102628001837BD4680BD00BF2004002444EE0624B0
:102638007CEE0624B4EE0624ECEE06240000FA43F1
:1026480048EF062460EF06245CEF06240CB80B0064
:10265800000000C034EF0624A8F0062464EF062426
:102668000000704204000024046A01082CEF0624CC
:10267800A4F006247C9700246004002408000024A9
:1026880024EF06240AD7233C8897002428EF062441
:1026980000401C4680B52DED028B8AB002AFF86071
:1026A800B9607A606B48FFF749FBFFF783FE6A4B16
:1026B8004FF000021A600023FB61FA697B689A42B6
:1026C80080F0B280654B1B68654A1268114618464F
:1026D80000F01CFCB0EE408A604B5B68604A1268F0
:1026E8001146184600F012FCF0EE407A38EE278AC0
:1026F8005A4B9B685A4A12681146184600F006FC65
:10270800F0EE407ABB681A68FB699B00134478EEC8
:10271800277AC3ED007AFB6804331A68FB699B00CB
:102728001344D3ED007AB6EE087A67EE877AB0EEF6
:10273800670A4C4812F020FDFB6804331A68FB69ED
:102748009B001344D3ED007AB6EE007A27EE878A11
:10275800444812F049FEF0EE407AB6EE007A67EE91
:10276800877A78EE277AC7ED057A4FF00003BB61C8
:1027780007F1100307F1180207F114010020009077
:10278800394813F011F8BB6804331A68FB699B00D9
:1027980013443A691A60FB681A68FB699B00134482
:1027A80093ED007A2C4BD3ED007A77EE277A2A4BFB
:1027B800C3ED007A294B1968FB681A68FB699B000E
:1027C8001344D3ED007AB6EE087A67EE877AB0EE56
:1027D800670A084600F0E6FB204B5968FB681A6850
:1027E800FB699B001344D3ED007AB6EE087A67EED6
:1027F800877AB0EE670A084600F0D4FB174B996851
:10280800FB681A68FB699B001344D3ED007AB6EEA7
:10281800087A67EE877AB0EE670A084600F0C2FBCE
:10282800FB690133FB6148E70A48FFF794FA0A4B52
:10283800D3ED006A7B6807EE903AB8EE677AC6EE89
:10284800877A054BC3ED007A00BF2037BD46BDEC43
:10285800028B80BD28EE062468EF06247C970024AE
:1028680008000024CCA2062488970024B0B5A8B09C
:1028780000AF8748FEF77BF98548FEF7E9F93B4644
:102888001846FEF777FD00233B6000237B603B463C
:102898001946804805F026F87E4805F08BF87C48F4
:1028A800FEF79CF9F0EE407A7B4BC3ED007A784B4B
:1028B80007F1100403F168050FCD0FC495E80F0068
:1028C80084E80F0007F110030122F7EE000A9FEDDC
:1028D800730A1946724802F071FE07F11003184690
:1028E800FEF7ABFE6A4B07F1300403F188050FCD04
:1028F8000FC495E80F0084E80F0007F130030022A9
:10290800F7EE000A9FED650A1946664802F056FE82
:1029180007F130031846FEF790FE5D4B07F15004AF
:1029280003F1A8050FCD0FC495E80F0084E80F0048
:1029380007F150030022DFED5C0A9FED5C0A19469F
:102948005B4802F03BFE07F150031846FEF775FEA0
:102958004F4B07F1700403F1C8050FCD0FC495E87C
:102968000F0084E80F0007F170030022DFED4E0A24
:102978009FED4E0A19464F4802F020FE07F17003FA
:102988001846FEF75AFE0023C7F89C30D7F89C304B
:10299800022B1BDCD7F89C30474A02FB03F3474A5B
:1029A8001344184600F028FBD7F89C30424A02FB33
:1029B80003F3424A1A444249D7F89C3041F823208D
:1029C800D7F89C300133C7F89C30DFE70023C7F8FD
:1029D8009830D7F89830022B0DDC3A4AD7F898305F
:1029E8009B0013444FF000021A60D7F89830013367
:1029F800C7F89830EDE79FED340A344812F014FE1A
:102A0800334BC7F8903007F1900319462F48FEF76B
:102A180093FC304BC7F8943007F1940319462B48C0
:102A2800FEF799FC1C4BD3ED007AB0EE670A2A48F2
:102A380012F0D8FADFED290A9FED290A264812F08C
:102A4800F9FCF7EE000AB7EE000A234812F0D2FCB0
:102A5800DFED240AB6EE080A1F4812F029FD0E4BD6
:102A6800D3ED007AF7EE000A3021B0EE670A1E486F
:102A7800FFF70CF930210648FEF7BFF81B49044858
:102A8800FEF7D8F8FFF796FCFFF7D6FAFAE700BF8B
:102A98002004002458EF062464EF06246F12833ABA
:102AA80044EE06247CEE062400409C4500409CC56C
:102AB800B4EE0624ECEE06240CB80B00000000C0AF
:102AC8007C97002438EF062400803B478897002431
:102AD8009A99593F00A08C46CCA20624CDCC4C3EF6
:102AE800C3F5A83E6666663F28EE06249D260008C4
:102AF80080B487B000AF7860396001237B613B68A0
:102B080003FB03F33B613A683B6902FB03F3FB6099
:102B18003A68FB6802FB03F3BB603B687A689A4239
:102B280001D27B691DE07A683B699A4202D27B69CF
:102B3800013316E07A68FB689A4202D27B69023355
:102B48000FE07A68BB689A4202D27B69033308E0D7
:102B58007A68BB68B2FBF3F37B607B6904337B6103
:102B6800DBE718461C37BD465DF8047B704700005C
:102B780080B489B000AFF860B9607A60BB68013B87
:102B8800FB617B68632B25D97A68224BA3FB021370
:102B98005B09642101FB03F3D31A5B00BB617B680B
:102BA8001C4AA2FB03235B097B60BB695A1CF968BA
:102BB800FB690B4418498A5C1A70FB69013BFA6887
:102BC80013441549BA690A4412781A70FB69023B22
:102BD800FB61D6E77B68092B10D97B685B007B61BA
:102BE8007B695A1CFB6801330B498A5C1A700A4AD4
:102BF8007B6913441A78FB681A7005E07B68DBB2BE
:102C08003033DAB2FB681A7000BF2437BD465DF86E
:102C1800047B70471F85EB51386A010880B483B084
:102C280000AF78607B6818460C37BD465DF8047BBA
:102C3800704780B483B000AF78607B6818460C3763
:102C4800BD465DF8047B704780B582B000AF786000
:102C58007B68184600F0ECF97B6818460837BD46D3
:102C680080BD80B582B000AF78607B681846FEF7FB
:102C78000EF97B6810331846FEF778FC7B6824331E
:102C88001846FEF733FC7B68C033184600F0BFF9DE
:102C98007B6818460837BD4680BD80B582B000AF56
:102CA80078607B68C0331846FFF7CEFF7B68243313
:102CB8001846FEF73AFC7B6810331846FEF763FCAB
:102CC8007B6818460837BD4680BD80B582B000AF26
:102CD80078607B681846FEF7B0FB7B6818460837B3
:102CE800BD4680BD80B582B000AF78607B6818466D
:102CF800FFF7EBFF7B6818460837BD4680BD00002C
:102D080080B582B000AF78607B68184600F09CF907
:102D1800064A7B681A607B6808331846FFF7E2FFAB
:102D28007B6818460837BD4680BD00BF0C6B01089C
:102D380080B582B000AF7860054A7B681A607B680E
:102D4800184600F093F97B6818460837BD4680BDE1
:102D58000C6B010880B582B000AF78607868FFF727
:102D6800E7FF4FF48871786812F093FE7B68184685
:102D78000837BD4680BD80B483B000AF78607B68FB
:102D880018460C37BD465DF8047B704780B582B0A5
:102D980000AF78600B46FB707B680833FA78114601
:102DA800184600F085F900BF0837BD4680BD80B5DC
:102DB80086B002AFF860B960394681E80C00BB689C
:102DC8001B78002B1AD0F868BB6819783B7E0093F3
:102DD8003B460CCB00F08DF903461A46BB681B78BE
:102DE8009A4214BF01230023DBB2002B02D0BB6838
:102DF8001B7805E0BB680133BB60E0E7BB681B7864
:102E080018461037BD4680BD80B588B000AFF86061
:102E1800B9607A60B868FEF7E4F9F86107F1180359
:102E28007968184613F048F807F1140307F11802F7
:102E38001146184600F0F4F907F114031946F8682A
:102E480012F0FAFE07F11403184612F029FE07F1F2
:102E58001803184612F024FE786812F02BFF024679
:102E6800FB6913441946F86812F026FFFA69B96835
:102E7800F86813F011F87968F86813F006F800BFDD
:102E8800F8682037BD4680BD80B582B000AF786055
:102E98007B680833184600F0D1F900BF0837BD46F3
:102EA80080BD80B483B000AF78607B6800225A6030
:102EB80000BF0C37BD465DF8047B704780B485B011
:102EC80000AF786087ED000AD7ED007AFDEEE77A6B
:102ED80017EE903AFB60FB6807EE903AF8EEE77A57
:102EE80097ED007A77EE677A7B68C3ED007AFB6826
:102EF800054A9A4228BF1A467B689A6000BF143771
:102F0800BD465DF8047B7047FFED020080B485B0D4
:102F180000AF786039607B685A683B68D21A7B6872
:102F28009B681A441D4BA3FB02131B0B1C4901FB96
:102F380003F3D31A7A6802339B00134404331B68E3
:102F4800FB607B685A683B68D21A7B689B681344AD
:102F58005A1C124BA3FB02131B0B114901FB03F371
:102F6800D31A7A6802339B00134404331B68BB608E
:102F780097ED027AD7ED037A37EE677A7B68D3ED5F
:102F8800007A27EE277AD7ED037A77EE277AB0EE24
:102F9800670A1437BD465DF8047B7047F11976055A
:102FA80000EE020080B483B000AF786087ED000ABD
:102FB8007B685B687A6802339B00134404333A6881
:102FC8001A607B685A68094B1344094AA2FB03122A
:102FD800120B084901FB02F29A1A7B685A6000BF7B
:102FE8000C37BD465DF8047B704700BFFFED02005B
:102FF800F119760500EE020080B582B000AF786066
:10300800786800F04DF900BF0837BD4680BD80B52F
:1030180082B000AF786078687B68103340F20112A4
:10302800194600F063F97B6818460837BD4680BD2D
:1030380080B483B000AF78607B6818460C37BD4613
:103048005DF8047B7047000080B582B000AF7860FF
:103058007B681846FEF7A2FD034A7B681A607B6806
:1030680018460837BD4680BD486B010880B582B058
:1030780000AF7860054A7B681A607B681846FEF7DF
:103088009DFD7B6818460837BD4680BD486B010822
:1030980080B582B000AF78607868FFF7E7FF082155
:1030A800786812F0F6FC7B6818460837BD4680BD84
:1030B80080B485B000AF78600B46FB700023FB60DE
:1030C800FB68FF2B0FD8FB78002B01D0FF2100E015
:1030D80000217A68FB68134408330A461A70FB68B3
:1030E8000133FB60ECE700BF1437BD465DF8047B95
:1030F800704780B588B000AFF8600846394681E867
:103108000C000346FB72FB7A1F2B02D9FB7A7E2B3D
:1031180001D9002380E0FA68FB681B680C331B6840
:103128001046984703461A46FB689B8819463B7821
:103138000B449A420FDBFA68FB681B6808331B686C
:103148001046984703461A46FB68DB8819467B7881
:103158000B449A4201DA012300E00023002B01D03E
:10316800002359E00023FB617B781A46FB699342F0
:1031780045D27A68FB7A203B797801FB03F319463C
:10318800FB690B445B0013441B887B610023BB6114
:103198003B781A46BB6993422DD27A69BB6902FA19
:1031A80003F303F40043002B0FD0FB689B881A46F7
:1031B800BB69D118FB68DB881A46FB691A4497F883
:1031C8002830F86800F0ABF811E0FB689B881A46D5
:1031D800BB69D118FB68DB881A46FB691A4497F863
:1031E800283083F00103DBB2F86800F098F8BB6977
:1031F8000133BB61CCE7FB690133FB61B4E7F868D5
:10320800FB689A883B789BB2134499B2FB68DB88C9
:103218001A46FEF7F3FCFB7A18462037BD4680BDF8
:1032280080B582B000AF786039607B68396818462D
:1032380000F088F878680837BD4680BD80B584B04E
:1032480000AF78601223BB7300BF0023FB73FB7BC6
:10325800032B20D87A68FB7B503BDBB2194610461B
:10326800FDF76BFC7B6800211846FDF766FC7B6860
:10327800BA7B11461846FDF760FC7868FB7B9B011A
:1032880008337A68134440221946FEF737FEFB7B61
:103298000133FB73DBE700BF1037BD4680BD00007C
:1032A80080B485B000AF78600023FB60FB680E4AED
:1032B80093420CD87A68FB6802339B0013440433AA
:1032C8004FF000021A60FB680133FB60EEE77B6891
:1032D80000225A607B6801229A6000BF1437BD46FD
:1032E8005DF8047B704700BFFFED020080B485B035
:1032F80000AFF860B9607A60FB68BA681A60FB686A
:103308007A685A60FB6800229A60FB680022DA60DB
:10331800FB6818461437BD465DF8047B704780B5D6
:1033280084B000AFF860B9607A60FB70FB6803F1A5
:103338000800FB787A68B96800F011F800BF103708
:10334800BD4680BD80B582B000AF7860396039680D
:10335800786812F0A4FB78680837BD4680BD80B451
:1033680085B000AFF860B9607A60FB70BB683F2B2E
:103378003DD87B681F2B3AD8FB78002B1AD07B6886
:10338800DB089901BA680A44F9680A44127A51B20A
:103398007A6802F00702012000FA02F252B20A43E8
:1033A80051B29A01BB681344C9B2FA6813440A4679
:1033B8001A721DE07B68DB089901BA680A44F9684B
:1033C8000A44127A51B27A6802F00702012000FA20
:1033D80002F252B2D24352B20A4051B29A01BB68C9
:1033E8001344C9B2FA6813440A461A7200E000BFCF
:1033F8001437BD465DF8047B7047000090B583B074
:1034080000AF7860064C074B9C4206D0064B23441D
:103418001C46204600F03DFDF5E70C37BD4690BD43
:10342800242823C0000000C0F447F4FF90B583B0FF
:1034380000AF7860054C064B9C4204D0183C2046EF
:1034480012F00AFCF7E70C37BD4690BDA4F006243D
:103458006CEF0624B0B590B000AF786039607B6837
:10346800012B40F04E813B684FF6FF72934240F0CB
:103478004881A648FEF76BFDA54AA649A34812F065
:1034880003FBA54B02241D46002C07DB2846FFF74B
:1034980072FCA24B2B441D46013CF5E79C4AA0490F
:1034A800002012F0F1FA9F48FDF730FF984A9E4934
:1034B8009C4812F0E9FA9D48FDF7F4FE944A9C49AD
:1034C8009A4812F0E1FA9B48FEF7D4FB9A48FEF7B7
:1034D800BFF88F4A9949984812F0D6FA9848FEF7EB
:1034E800B7F88B4A9549964812F0CEFA9548FEF7F8
:1034F800AFF8874A9149934812F0C6FA9248FEF706
:10350800A7F8834A8D49904812F0BEFA8F4B1B6882
:103518008F4A13608F48FDF745FF7D4A8E498D48D5
:1035280012F0B2FA8D4C07F10C03184612F0B6FAF5
:1035380007F10C031A468A49204612F0E9FC07F104
:103548000C03184612F0ACFA183407F110031846A9
:1035580012F0A4FA07F110031A468249204612F025
:10356800D7FC07F11003184612F09AFA183407F13D
:103578001403184612F092FA07F114031A467A490E
:10358800204612F0C5FC07F11403184612F088FA19
:10359800183407F11803184612F080FA07F11803D7
:1035A8001A467249204612F0B3FC07F11803184670
:1035B80012F076FA183407F11C03184612F06EFA66
:1035C80007F11C031A466A49204612F0A1FC07F1CC
:1035D8001C03184612F064FA183407F12003184641
:1035E80012F05CFA07F120031A466249204612F0ED
:1035F8008FFC07F12003184612F052FA183407F12D
:103608002403184612F04AFA07F124031A465A49C5
:10361800204612F07DFC07F12403184612F040FA08
:10362800183407F12803184612F038FA07F128036E
:103638001A465249204612F06BFC07F12803184637
:1036480012F02EFA183407F12C03184612F026FA55
:1036580007F12C031A464A49204612F059FC07F193
:103668002C03184612F01CFA183407F130031846D8
:1036780012F014FA07F130031A464249204612F0B4
:1036880047FC07F13003184612F00AFA183407F11C
:103698003403184612F002FA07F134031A463A497D
:1036A800204612F035FC07F13403184612F0F8F9F9
:1036B800183407F13803184612F0F0F907F1380307
:1036C8001A463249204612F023FC07F138031846FF
:1036D80012F0E6F9183407F13C03184612F0DEF947
:1036E80007F13C031A462A49204612F011FC07F15B
:1036F8003C03184612F0D4F9054A2649002012F076
:10370800C3F900BF4037BD46B0BD00BF2004002448
:1037180000000024B91F0008000000C00CB80B000E
:1037280005340008889700242B130008CCA206242F
:10373800DD12000828EE062444EE0624731600085D
:103748007CEE0624B4EE0624ECEE06242CEF0624C8
:1037580030EF062458EF0624C91300086CEF06243E
:103768008869010890690108946901089869010845
:103778009C690108A0690108A4690108A8690108F1
:10378800AC690108B0690108B4690108B8690108A1
:10379800BC6901083534000880B582B000AF786094
:1037A8007B680833184600F07FFB03469BB2184637
:1037B8000837BD4680BD80B582B000AF78607B68B1
:1037C8000833184600F07BFB03469BB218460837BF
:1037D800BD4680BD80B58AB000AFF860B9607A6038
:1037E8003B603A68BB68D31A002BB8BF5B423B62A8
:1037F8003A6B7B68D31A002BB8BF5B42FB61BA688F
:103808003B689A4201D2012301E04FF0FF33BB61CC
:103818007A683B6B9A4201D2012301E04FF0FF33F3
:103828007B613A6AFB69D31A7B6297F834303A6B4A
:103838003968F868FFF773FDBA683B689A4203D1A4
:103848007A683B6B9A4223D097F834307A68B96823
:10385800F868FFF764FD7B6A5B003B61FB695B42CC
:103868003A699A4207DD7A6AFB69D31A7B62BB69B7
:10387800BA681344BB603A693B6A9A42DCDA7A6AEE
:103888003B6A13447B627B697A6813447B60D3E7A5
:1038980000BF2837BD4680BD80B588B002AFF8604C
:1038A800B9607A603B6097F82830002B1AD0BB6863
:1038B8007B617A693B689A4240D87B683B613A6988
:1038C8003B6A9A420AD897F824303A697969F868C5
:1038D800FFF725FD3B6901333B61F0E77B69013365
:1038E8007B61E6E7F86897F8243001937B680093DA
:1038F8003B687A68B968FFF76DFFF86897F8243075
:1039080001933B6A00933B687A683968FFF762FF66
:10391800F86897F8243001933B6A0093BB683A6AC9
:103928003968FFF757FFF86897F8243001937B68E8
:103938000093BB683A6AB968FFF74CFF00BF1837B5
:10394800BD4680BD0000000080B598B000AFF860AB
:10395800B9607A603B60012387F84C3097F84C30A7
:1039680087F84D3097F84D3087F84E3097F84E303D
:1039780087F84F30002387F84B30FB6E002B06DAB0
:10398800BA6EFB6E1344BB66FB6E5B42FB66BB6E96
:1039980007EE903AB8EEE77B9FEDDB6B27EE066B00
:1039A8009FEDDB5B86EE057BF7EEC77BC7ED117AF3
:1039B800BA6EFB6E134407EE903AB8EEE77B9FEDC4
:1039C800D26B27EE066B9FEDD25B86EE057BF7EE9A
:1039D800C77BC7ED107A97ED110AFDF7D2FBB0EE61
:1039E800407A3B6807EE903AF8EE677A67EE277AF6
:1039F800C7ED0F7A97ED110AFDF7D3FBF0EE407A89
:103A0800B1EE677A3B6807EE903AF8EE677A67EEB0
:103A1800277AC7ED0E7A97ED100AFDF7B2FBB0EEE4
:103A2800407A3B6807EE903AF8EE677A67EE277AB5
:103A3800C7ED0D7A97ED100AFDF7B3FBF0EE407A6B
:103A4800B1EE677A3B6807EE903AF8EE677A67EE70
:103A5800277AC7ED0C7A97ED0D7AD7ED0F7A37EE06
:103A6800677AD7ED0D6AD7ED0F7A76EEE77A27EE0B
:103A7800277AD7ED0C6AD7ED0E7A76EEE76A97EDDE
:103A88000C6AD7ED0E7A76EE677A66EEA77A77EE4D
:103A9800277AB0EE007AF4EEC77AF1EE10FA06D57E
:103AA800FB6EB42B40F3BD81012387F84B303B6894
:103AB8005B42FB650023BB653B68C3F101035B0008
:103AC8007B6597F84B3083F00103DBB2002B00F0E5
:103AD8004181BB6D07EE903AF8EEE77A97ED0F7AE1
:103AE80067EE277AC7ED0B7AFB6D07EE903AF8EE92
:103AF800E77A97ED0E7A67EE277AC7ED0A7ABB6DFB
:103B08005B4207EE903AF8EEE77A97ED0F7A67EEA8
:103B1800277AC7ED097AFB6D5B4207EE903AF8EE1B
:103B2800E77A97ED0E7A67EE277AC7ED087ABB6DCC
:103B380007EE903AF8EEE77A97ED0D7A67EE277A76
:103B4800C7ED077AFB6D07EE903AF8EEE77A97ED46
:103B58000C7A67EE277AC7ED067ABB6D5B4207EEF3
:103B6800903AF8EEE77A97ED0D7A67EE277AC7ED87
:103B7800057AFB6D5B4207EE903AF8EEE77A97ED2F
:103B88000C7A67EE277AC7ED047AFB6EB42B6CDDEE
:103B980097ED0B7AD7ED087A77EE677AF5EEC07A6B
:103BA800F1EE10FA0AD497ED077AD7ED047A77EE9A
:103BB800677AF5EEC07AF1EE10FA01DD012300E034
:103BC800002387F84F3097ED0B7AD7ED0A7A77EE16
:103BD800677AF5EEC07AF1EE10FA0AD497ED077A13
:103BE800D7ED067A77EE677AF5EEC07AF1EE10FA3D
:103BF80001DD012300E0002387F84E3097ED097AB4
:103C0800D7ED0A7A77EE677AF5EEC07AF1EE10FA18
:103C18000AD497ED057AD7ED067A77EE677AF5EE4E
:103C2800C07AF1EE10FA01DD012300E0002387F8E5
:103C38004D3097ED097AD7ED087A77EE677AF5EE89
:103C4800C07AF1EE10FA0AD497ED057AD7ED047A26
:103C580077EE677AF5EEC07AF1EE10FA01DD01230E
:103C680000E0002387F84C3074E097ED0B7AD7ED2D
:103C7800087A77EE677AF5EEC07AF1EE10FA0CD58D
:103C880097ED077AD7ED047A77EE677AF5EEC07A82
:103C9800F1EE10FA01DD012300E0002387F84F3030
:103CA80097ED0B7AD7ED0A7A77EE677AF5EEC07A58
:103CB800F1EE10FA0CD597ED077AD7ED067A77EE84
:103CC800677AF5EEC07AF1EE10FA01DD012300E023
:103CD800002387F84E3097ED097AD7ED0A7A77EE08
:103CE800677AF5EEC07AF1EE10FA15D597ED057AF8
:103CF800D7ED067A77EE677AF5EEC07AF1EE10FA2C
:103D08000ADD012309E000BF7A008BFCFA21094093
:103D18000000000000806640002387F84D3097EDD2
:103D2800097AD7ED087A77EE677AF5EEC07AF1EE80
:103D380010FA0CD597ED057AD7ED047A77EE677A05
:103D4800F5EEC07AF1EE10FA01DD012300E0002360
:103D580087F84C3097F84F30002B0AD0FB6DBA68C3
:103D6800D11ABA6D7B681A4497F87030F868FFF773
:103D7800D6FA97F84E30002B0AD0FA6DBB68D118E6
:103D8800BA6D7B681A4497F87030F868FFF7C7FA7D
:103D980097F84D30002B0AD0FA6DBB68D118BB6D6F
:103DA8007A68D21A97F87030F868FFF7B8FA97F877
:103DB8004C30002B0AD0FB6DBA68D11ABB6D7A68FB
:103DC800D21A97F87030F868FFF7A9FA7B6D3B654F
:103DD8003A6DBB6D9A4213DCBB6D0133BB65BB6D9D
:103DE8005B0001337A6D13447B65FB6D5B42BA6DF2
:103DF8009A4205D13A6DFB6D9A4201DC00233B657E
:103E08003A6DFB6D9A4208DDFB6D0133FB65FB6D76
:103E18005B0001337A6D13447B65FB6D002B01DC7D
:103E28004FE600BF6037BD4680BD00BFB0B588B063
:103E380002AFF860B9607A603B6007F110003B6838
:103E48007A68B96800F046F8F86807F11001FB6A6B
:103E5800BA6AFDF723FDBC68F868FDF7A6FC0346BF
:103E68009DB2F868FDF7AEFC03469BB21A46294698
:103E78002046FDF7C3FEB8683B6897F830200092EB
:103E88000CCB7968FEF793FF00BFF8681837BD467A
:103E9800B0BD80B483B000AF78607B6818460C373B
:103EA800BD465DF8047B704780B483B000AF78608E
:103EB800202318460C37BD465DF8047B704780B454
:103EC80083B000AF7860402318460C37BD465DF8D4
:103ED800047B704780B586B000AFF860B9607A603F
:103EE8003B607968B86800F015F878613B681B7822
:103EF8009AB27B699BB212FB03F39BB219B23B687F
:103F08005B781BB21A46F868FDF7F8FBF8681837B3
:103F1800BD4680BD80B485B000AF786039600023AD
:103F2800FB603B685A1C3A601B78002B14BF0123C6
:103F38000023DBB2002B03D0FB680133FB60F0E702
:103F4800FB6818461437BD465DF8047B704780B59A
:103F580000AF4FF6FF710120FFF77CFA80BD00002B
:103F6800704700BF202882B009D8084B03EB4002F5
:103F780013F81030507843EA002002B0704701234C
:103F88000C2043EA002002B0704700BFB86B01085C
:103F9800143001F001BA00BF143001F0F9B900BFC4
:103FA80038B500F1140504462DED028B284601F0C2
:103FB800E1F9284601F0ECF92846B0EE408A01F014
:103FC800D5F9D0ED007AF8EE677A88EE277ABDEC5D
:103FD800028B84ED0E7A38BD90ED0E0A704700BF53
:103FE80010B540F203338EB000244FF60B7240F246
:103FF8000341ADF8083009A80123ADF81020ADF849
:1040080024202246ADF80C100094029907940C94D1
:10401800CDE90544CDE90A4402F056F804A8012385
:1040280022460399009402F04FF809A802F032F9E9
:1040380010B901200EB010BD04A802F02BF9A0425F
:104048000CBF022020460EB010BD00BF2DE9F04184
:1040580003239AB0012700240646CDE914373B4BC9
:10406800CDE9104340F20453CDE91647ADF8483086
:10407800FFF7B6FFB842054625D0022845D040F6DE
:104088000132334B0DF12C081894ADF82C200B9805
:104098001997CDF84A3000F0D7F810A906F13C007E
:1040A80003F042F9302003224FF07E5341460D932E
:1040B8000E93CDE90B02F26B06F1140001F01EF924
:1040C8001AB0BDE8F0811023214A06A906908DF8A0
:1040D80028300DF12C081F4BCDF84A200793029485
:1040E800CDE91804CDE9080402A802F053FB08231F
:1040F800029A03A94046ADF80C508DF80E4004957D
:1041080005930B9400F0E0F8C7E700200121104B5D
:104118000DF12C083A460094CDF84A304FF60B734F
:104128000C94ADF82C302346CDE9180140F6013146
:104138004046ADF818100699CDE90D4401F0C4FFCA
:104148002146404602F0B2F8A7E700BF0402040483
:10415800040604030704010B2DE9F04304462DED82
:10416800028B83B0002948D0012140F201120023BC
:104178000091ADF804208DF80630304A0126304B06
:10418800271D304904F12908626040F20272A360D9
:1041980040F60663E16004F125092682A4F825208B
:1041A80084F82760A4F8293084F82B6004F040FED6
:1041B8006946054648B304F130008DF8066004F0FE
:1041C8008DFD072D34D104F114052046FFF73EFF7D
:1041D800284601F0DDF82846B0EE408A01F0C6F81E
:1041E800D0ED007AF8EE677A88EE277A84ED0E7AB9
:1041F80003B0BDEC028BBDE8F08340F201130091DF
:104208008DF80610ADF80430B7E704F1300004F07B
:1042180065FD3946204602F007FD484602F050F891
:10422800404602F04DF804F1120000F077F9CAE7B1
:104238003946204602F0F8FCC5E700BF0508050925
:1042480005070506050A060610B584B003460124CD
:10425800ADF8040003A8ADF80C30ADF80E4002F03C
:104268002FF8214603A802F015F9204604F06AFC4D
:10427800002103A802F00EF9204604F063FC214651
:1042880003A802F007F904B010BD00BF10B5C2F3CF
:10429800002384B00C46017C8DF80D2043EA4402CB
:1042A800FA2402238DF80C2003AA009402F008FBDC
:1042B80018B10124204604B010BD04460A2004F0B9
:1042C80041FC204604B010BD034670B543F8042BEA
:1042D800044684B007C983E80700A37983B91A2183
:1042E8000B461E22FA2523742046ADF80C20022323
:1042F80003AA009502F0E4FA28B1012004B070BDC9
:104308001B210B46EDE70A2004F01CFC4FF4B852C1
:1043180000950223ADF80C20204603AA217C02F068
:10432800CFFA0028E9D10A2004F00CFC41F202720D
:1043380000950223ADF80C20204603AA217C02F048
:10434800BFFA0028D9D10A2004F0FCFB042200950A
:104358000223ADF80C20204603AA217C02F0B0FA13
:104368000028CAD10A2004F0EDFB0622009502239A
:10437800ADF80C20204603AA217C02F0A1FA0028FF
:10438800BBD10A2004F0DEFB41F20822009502238B
:10439800ADF80C20204603AA217C02F091FA0028EF
:1043A800ABD10A20064604F0CDFB0095022303AAF0
:1043B800217C2046ADF80C6002F082FA00289CD1DE
:1043C800304604F0BFFB009522790C232046002AD2
:1043D8008DF80C3003AA4FF0020314BF622142216A
:1043E8008DF80D10217C02F06BFA002885D130463B
:1043F80004F0A8FB2279D4E902310B43DBB20AB9F5
:1044080043F0400362790AB143F020030E22FA25F3
:104418008DF80D302046009502238DF80C2003AA54
:10442800217C02F04DFA00287FF467AF0A2004F0DF
:1044380089FB102200950223ADF80C20204603AA20
:10444800217C02F03DFA00287FF457AF0A2004F0DF
:1044580079FB122100950223ADF80C1003AA217CE8
:10446800204602F02DFA00287FF447AF0A2004F016
:1044780069FB012209212046FFF708FF003818BF11
:1044880001203BE7F0B5102387B0234C012200251B
:104498000126002702A920460195CDE902234FF401
:1044A8008052CDE904670BF0D9FC642004F066FF64
:1044B80002A94FF480522046CDE90467022610274E
:1044C800CDE902670BF0CAFC0322102302A920469B
:1044D800CDE9022300230422CDE904234FF48052BE
:1044E8000BF0BCFC40F23223042202A901931023F2
:1044F8002046CDE90223019A012305924FF4805208
:1045080004930BF0ABFC40F6060120460BF0C6FC0A
:10451800284607B0F0BD00BFB4F006241C4B0022AB
:104528001C494FF0400C30B5054689B0022059604F
:1045380007219A601A620124DA620A224FF4006E97
:10454800DC6006922022CDE9000104200821CDE993
:10455800020103201021CDE9040108206946C3E9BE
:1045680004024FF4C072181DC3E906C24FF480520A
:10457800C3E909E20BF048FC38B92846FFF782FF87
:10458800003818BF012009B030BD204609B030BD41
:10459800B0F0062440410052614A0021D0B51368AA
:1045A8008EB00A91002B40F0B9805E4B01214FF686
:1045B80083700C2411600221D3F8D420002603272D
:1045C80042F48052C3F8D420D3F8D42002F48052A5
:1045D8000092009AD3F8E02042F01002C3F8E020DD
:1045E800D3F8E02002F010020192019AD3F8E020FB
:1045F80042F04002C3F8E020D3F8E02002F0400285
:104608000292029AD3F8E02042F00802C3F8E020B0
:10461800D3F8E02002F008020392039AD3F8E020CE
:1046280042F48072C3F8E020D3F8E02002F48072EC
:104638000492049AD3F8E02042F08002C3F8E02004
:10464800D3F8E02002F080020592059AD3F8E02022
:1046580042F02002C3F8E020D3F8E02002F0200264
:104668000692069AD3F8E02042F00402C3F8E0204C
:10467800D3F8E0300C9403F0040307930323079A5C
:104688000B93CDE9080108A9274806F029FE48F24E
:104698003712022308A925480C94CDE90823CDE94F
:1046A8000A6706F01DFE4CF20372022308A920488F
:1046B8000C94CDE90823CDE90A6706F011FE40F213
:1046C800FF62022308A91B480C94CDE90823CDE911
:1046D8000A6706F005FE4FF60C72022308A9164871
:1046E8000C94CDE90823CDE90A6706F0F9FD4FF6E9
:1046F8003F02022308A911480C94CDE90823CDE90B
:104708000A6706F0EDFD2022022308A90A480C9446
:10471800CDE90A67CDE9082306F0E2FD0EB0D0BD69
:10472800ACF0062400440258001002580018025841
:10473800000C025800200258001C025800140258AD
:104748002DE9F04FDFF8108406460D46144608F1AF
:1047580018002DED028B89B000AF02F0DDFED8F80D
:10476800183073B3D8F81C30D8F80490002B43697C
:104778000BBF4FF0080A4FF0100A4FF0020B4FF032
:10478800040BB9F1000F2AD0A200EA46012B02F16E
:10479800070222F00702ADEB020D6846ADEB020DF1
:1047A800694600F03F81022B00F0D680002B6FD0C5
:1047B8002246C847D5462437BD46BDEC028BBDE826
:1047C800F08FD8F81C30002BF5D0D8F804904FF0B3
:1047D800080A4FF0020B4369B9F1000FD4D1FB610D
:1047E800D8F80030BB61002BE5D0D54802F006FFB1
:1047F8006B46BBF1020F786108EE103AFB6900F0D6
:1048080083816A465146A2EBC40295466200EA4695
:10481800B2FBFBF2AAEBC40085460AEB8200EE4627
:10482800F861ADEB010DF8690EEB820CC7F810C00A
:10483800EC46ADEB010D00EB8201CCF80400CCF89E
:10484800081001EB82013869E946CCF80C1000EB3E
:104858008201CCF800A001EB8202C9E900E0C9E9B5
:104868000212012B00F06483022B00F06C82002BF3
:1048780000F08081620849466046BB69984718EE97
:10488800103A24379D46BD46BDEC028BBDE8F08F3B
:10489800002C8DD01A46D8ED0C6A9FEDB27A84466A
:1048A800331D36F922E00CF1080C07EE90EA33F9D3
:1048B80022E00232F8EEE77A944267EE877A67EEF2
:1048C800A67A4CED027A07EE90EAF8EEE77A67EE00
:1048D800877A67EEA67A4CED017AE2D8F96122462A
:1048E800C847984ED8ED0D6A0020F9692B1D9FED39
:1048F8009E7A9FED9E6ADFED9E5A22E0F4EEC67A1C
:10490800F1EE10FAC0F2C88447F6FE72D1ED017AD2
:1049180045F8202066EEA77AF4EEC77AF1EE10FA91
:1049280040F2F080F4EEC67AF1EE10FAC0F2D584C7
:1049380047F6FE7243F820200230083184427FF6A1
:1049480039AFD1ED007A66EEA77AF4EEC77AF1EEC8
:1049580010FAD3D83246D9E7002C3FF429AFD8ED66
:104968000C6A84469FED787A0022331D8E4656F8ED
:1049780022100CF1080C07EE901A53F8221002329C
:10498800F8EEE77A944267EE877A67EEA67A4CEDFE
:10499800027A07EE901AF8EEE77A67EE877A67EE02
:1049A800A67A4CED017AE2D871462246C7F81CE097
:1049B800C847664ED8ED0D6A0020F9692B1D9FED9A
:1049C8006A7A9FED6A6ADFF894C120E0F4EEC67A4D
:1049D800F1EE10FAC0F279843246D1ED017A45F849
:1049E800202066EEA77AF4EEC77AF1EE10FA40F2CC
:1049F8008780F4EEC67AF1EE10FAC0F25E84324691
:104A080043F820200230083184427FF6D3AED1ED3E
:104A1800007A66EEA77AF4EEC77AF1EE10FAD5D8E6
:104A28006246DAE7002C3FF4C3AED8ED0C6A86463E
:104A38009FED477A4FF0000C331D56F82C200EF1ED
:104A4800080E82F40002A2F5000207EE902A53F83D
:104A58002C200CF1020CF8EEE77A82F4000264458F
:104A6800A2F5000267EE877A67EEA67A4EED027A23
:104A780007EE902AF8EEE77A67EE877A67EEA67A6D
:104A88004EED017AD9D8F9612246C847314ED8EDA2
:104A98000D6A0020F9692B1D9FED337A9FED336A6B
:104AA800DFF8BCC01FE0F4EEC67AF1EE10FAC0F2EF
:104AB800FC833246D1ED017A45F8202066EEA77ACC
:104AC800F4EEC77AF1EE10FA18D9F4EEC67AF1EEE0
:104AD80010FAC0F2DA83324643F820200230083157
:104AE80084427FF667AED1ED007A66EEA77AF4EEDF
:104AF800C77AF1EE10FAD6D86246DBE76246EBE7F2
:104B080062467DE7324615E7A100D64662080731BE
:104B180021F00701ADEB010DEA46ADEB010D694649
:104B2800ADEB0E0D0AEB8200EC46ADEB0E0D01EB82
:104B38008202F861E946CCE900A0C9E9001290E6D2
:104B480004F106240280FFFF000000300082FF7F8E
:104B58000000003482FF7F00E8F00624007E008019
:104B68007E0080FF0000003804FF7FBF04FF7F3F06
:104B780000FEFF46002C00F0C982BBF1020FD8F8F6
:104B8800242000F0FA827969C7F8049002EB810EBC
:104B98005FED0C5A8A00DCF808100EF104007A6107
:104BA8001A46DCF80C303B61331DD7F810903D6194
:104BB800FD69C7E902CB8C46834636F92210D8ED49
:104BC8000C7A06EE101A33F9221006EE901A3EF906
:104BD8002210B8EEC66A07EE101AF8EEE66A3BF93C
:104BE8002210B8EEC77A26EE256A66EEA56A27EE89
:104BF800257A26EE276A66EEA76A27EE277A07EE59
:104C0800901A51080232F8EEE77A0AEB81009442D2
:104C180080ED006A05EB810067EEA57AC0ED006AB9
:104C28000CEB810009EB810180ED007A98ED0C7A9C
:104C380067EE877AC1ED007ABFD8D7F804903D694E
:104C4800D7E902CB60466208BB6949469847D8F85D
:104C58002C307A69D8ED0D6A1A441FED3D7A1FEDA4
:104C68003D6A2B1D904602F1040A5FED3F5A00226F
:104C7800A84ED9E900EC51E0F4EEC67AF1EE10FA4C
:104C8800C0F2C78247F6FE7045F822000CEB01001F
:104C9800D0ED007A66EEA77AF4EEC77AF1EE10FA54
:104CA8004BD9F4EEC67AF1EE10FAC0F2BA8247F6A2
:104CB800FE70BBF1020F43F822002BD0D9F8080090
:104CC8000844D0ED007A66EEA77AF4EEC77AF1EEE2
:104CD80010FA36D9F4EEC67AF1EE10FAC0F2CD82A7
:104CE80047F6FE7048F82200D9F80C000144D1EDCF
:104CF800007A66EEA77AF4EEC77AF1EE10FA1ED9BA
:104D0800F4EEC67AF1EE10FAC0F2AF8247F6FE7101
:104D18004AF82210023294427FF6B1AD51080EEBE8
:104D280081008900D0ED007A66EEA77AF4EEC77AA2
:104D3800F1EE10FAA0D83046A6E73046B9E731467A
:104D4800E6E73046CEE7002C00F0E081BBF1020F29
:104D5800D8F8243000F0E1817A69DCF8081003EB18
:104D6800820EC7F804909300DFED6B5A0EF1040031
:104D780000227B61DCF80C303B61331DD7F81090C2
:104D88003D61FD69C7E902CB8C46834656F822107F
:104D9800D8ED0C7A07EE101A53F82210B8EEC76A4D
:104DA80007EE101A5EF82210F8EEC76A07EE101A1E
:104DB80026EE256A5BF82210B8EEC77A66EEA56A79
:104DC80026EE276A27EE257A66EEA76A27EE277A67
:104DD80007EE901A51080232F8EEE77A0AEB8100E2
:104DE800944280ED006A05EB810067EEA57AC0ED7C
:104DF800006A0CEB810009EB810180ED007A98EDE7
:104E08000C7A67EE877AC1ED007ABFD8D7F804909C
:104E18003D69D7E902CB60466208BB6949469847B5
:104E2800D8F82C307A69D8ED0D6A1A449FED3E7A8D
:104E38009FED3E6A131D9246DFF8E4C00022FB6135
:104E48002B1D364ED9E9008E4EE0F4EEC67AF1EE0F
:104E580010FAC0F2FC81304645F822000EEB010042
:104E6800D0ED007A66EEA77AF4EEC77AF1EE10FA82
:104E780049D9F4EEC67AF1EE10FAC0F2EF81304665
:104E8800BBF1020F43F822002AD0D9F808000844E1
:104E9800D0ED007A66EEA77AF4EEC77AF1EE10FA52
:104EA80035D9F4EEC67AF1EE10FAC0F2C98130466F
:104EB8004AF82200D9F80C000144D1ED007A66EED8
:104EC800A77AF4EEC77AF1EE10FA1ED9F4EEC67A94
:104ED800F1EE10FAC0F2AD813146F86940F82210BF
:104EE800023294427FF6CBAC510808EB810089006E
:104EF800D0ED007A66EEA77AF4EEC77AF1EE10FAF2
:104F0800A3D86046A8E76046BAE76146E5E7604689
:104F1800CEE700BF0280FFFF000000300082FF7F65
:104F2800007E00800000003404FF7FBF04FF7F3F45
:104F3800002C00F0EB807A690021D8F82430C7F8FB
:104F4800109003EB820ED7F81C909300FD610EF1D0
:104F580004021FED0C6A7B61331D154656F82120AB
:104F68004808D8ED0C6ABBF1020F82F40002A2F5E2
:104F7800000207EE902A53F8212082F40002B8EECE
:104F8800E77AA2F5000227EE067A07EE902A0AEBE6
:104F98008002F8EEE77A27EE267A67EE867A82EDC7
:104FA800007A09EB80024FEA800067EEA67AC2ED2C
:104FB800007A27D05EF8212082F40002A2F50002D0
:104FC80007EE902A55F8212082F40002B8EEE77A1D
:104FD800A2F5000227EE067A07EE902ADCF80820F0
:104FE800F8EEE77A024427EE267A67EE867A82EDB3
:104FF800007A98ED0C7ADCF80C2067EE877A024488
:10500800C2ED007A02318C42A8D8D7F810906046D9
:105018006208BB694946FD699847D8F82C307A6917
:10502800D8ED0D6A1A441FED407A1FED406A131D32
:105038009246DFF8C4C20022FB612B1DAB4ED9E9B2
:10504800008E4EE0F4EEC67AF1EE10FAC0F2C5809A
:10505800304645F822000EEB0100D0ED007A66EEEE
:10506800A77AF4EEC77AF1EE10FA49D9F4EEC67AC7
:10507800F1EE10FAC0F2BF803046BBF1020F43F8E0
:1050880022002AD0D9F808000844D0ED007A66EE4C
:10509800A77AF4EEC77AF1EE10FA35D9F4EEC67AAB
:1050A800F1EE10FAC0F2AE8030464AF82200D9F884
:1050B8000C000144D1ED007A66EEA77AF4EEC77AC7
:1050C800F1EE10FA1ED9F4EEC67AF1EE10FAC0F23B
:1050D8008B803146F86940F82210023294427FF6FC
:1050E800CEAB510808EB81008900D0ED007A66EE5E
:1050F800A77AF4EEC77AF1EE10FAA3D86046A8E7CB
:105108006046BAE76146E5E76046CEE7224649468B
:105118006046BB699847FFF7B2BBC7F810B00022DA
:1051280098ED0C6A331DDFED726AD7F81CB0786908
:1051380056F8221007EE901A53F82210B8EEE77AC4
:1051480007EE901A51080232F8EEE77A27EE267A2F
:105158000AEB810E94420BEB810167EEA67A27EEEB
:10516800067A67EE867A8EED007AC1ED007ADFD88E
:105178008300D7F810B07B614DE61A46C7F810B027
:1051880098ED0C6A331DDFED5B6AD7F81CB07869BF
:1051980036F9221007EE101A33F9221007EE901A8A
:1051A800B8EEC77A51080232F8EEE77A27EE267A87
:1051B8000AEB810E94420BEB810167EEA67A27EE8B
:1051C800067A67EE867A8EED007AC1ED007ADFD82E
:1051D8008300D7F810B07B6134E5F0EE675AFEEE35
:1051E800E45A15EE900A34E7F0EE675AFEEEE45AF8
:1051F80015EE901A6EE7F0EE675AFEEEE45A15EED9
:10520800900A3AE7F0EE675AFEEEE45A15EE900A75
:105218004BE767EEA57AFDEEE77A17EE900A00B243
:1052280032E567EEA57AFDEEE77A17EE900A00B24E
:105238003FE5F0EE675AFEEEE05A15EE901A4CE69E
:10524800F0EE675AFEEEE05A15EE900A30E6F0EE00
:10525800675AFEEEE05A15EE900AFDE5F0EE675A41
:10526800FEEEE05A15EE900A0AE667EEA57AFDEE24
:10527800E77A17EE901A09B24AE567EEA57AFDEECD
:10528800E77A17EE900A00B22CE5F0EE675AFEEEC8
:10529800E45A15EE902A1FE467EEA57AFDEEE77A48
:1052A80017EE902A12B2FFF731BBF0EE675AFEEE06
:1052B800E45A15EE902AFFF7FDBBF0EE675AFEEEB2
:1052C800E05A15EE902AFFF79BBBF0EE675AFEEE08
:1052D800E05A15EE902AFFF780BB67EEA57AFDEE3F
:1052E800E77A17EE902A12B2FFF724BB82FF7F00FD
:1052F80000000030000000387E0080FF30B5184CF8
:10530800154685B0046004F1080EEC460FC98EE816
:105318000F00D4ED047AF5EEC07A8CE80F00F1EEB8
:1053280010FA1ADDB7EE006A94ED057A27EE277AAF
:10533800C6EE276A84ED0D7AC4ED0C6A6DB120467D
:1053480040F8185F02F0E8F8064903690020064AA9
:105358002162A262E36005B030BD012005B030BD16
:10536800E8F0062400200030000000300068083013
:10537800704700BFB1F5807F03680A4628BF4FF425
:105388008072B1F5807F9A6094BF00200120704739
:105398000068183002F020B930B5046883B00D46B3
:1053A800E3694BB1A3680020E26A616A9B00009040
:1053B80004F11C0002F0B2F8A3680748A26A9B0037
:1053C800216A009004F1180002F0A8F80020C4E94E
:1053D800005003B030BD00BF4947000810B4074B68
:1053E8004FF07E5130240022032019619C60D86060
:1053F8005DF8044B5961C3E906227047E8F00624BA
:10540800F6EE007A9FED166A20EE207A0160F7EE3C
:10541800006A80ED036A80ED020A27EE277AC6EE5D
:10542800877AF4EEE67AF1EE10FA11DDF0EE667A9C
:105438004FF07E514FF0000C02760022C0ED017A49
:10544800C0F814C0016143768276C0ED070A704740
:10545800F4EEC67AF1EE10FAEAD5F0EE467AE7E70E
:10546800000000000268037E128807EE902AFBEE17
:10547800C87A1BB1B7EE007A77EE677AD0ED056A85
:1054880090ED047A77EEE67A437E67EE877A0BB181
:10549800F1EE677A90ED030A90ED017A77EEC07A23
:1054A800A7EE270A80ED030A704700BF30B585B024
:1054B80004460025ADF80C10ADF80820ADF804300E
:1054C80003F038FBBDF80C204FF48073206004F122
:1054D80018002283BDF808206383E383A283257123
:1054E80000F0EEFE04F11C0000F0EAFE9FED060A53
:1054F800019904F1080000F0E7F84FF6FF736562C0
:10550800238405B030BD00BF00000000F8B5044694
:1055180003F010FB002623682671834205D104F1AD
:105528000800BDE8F84000F0E9B8012794F82050D9
:10553800206004F11800BD40277100F09DFF6DB296
:10554800284394F82150BD4084F8200004F11C0041
:1055580000F092FF94F820306DB2666203F0030306
:105568002843022BC0B284F8210009D000F00300C0
:105578000228D4D1002BD2D14FF0FF336362CEE79B
:105588008307CCD16762CAE7074A118830B48180A3
:105598000024064D91884FF4807285600460C180B4
:1055A800C26030BC704700BFC069010800400030CD
:1055B80000220A2302700371704700BFDFED167ADC
:1055C8008C46B4EE670A10B504468646F1EE10FA2A
:1055D8002DED028B80ED080A48BFB0EE670AC0EDDA
:1055E800090AB0EE608A80F83420BCE80F00AEE803
:1055F8000F009CE80F008EE80F0010F075FEF0EE2B
:10560800407AB0EE480AC4ED0A7A10F06DFE84EDD7
:105618000B0ABDEC028B10BD95BFD63390F8343021
:1056280010B50446032B4BD8DFE803F03B2A1502DC
:10563800FFF718FF60EE006AD4ED087A94ED097A56
:1056480026EE800A37EE677AE0EE077AC4ED0C7A28
:10565800B0EE670A10BDFFF705FF94ED0A7AD4EDA6
:105668000B7A77EEC77AA0EE277AB0EE470A10F0E9
:10567800C9FDF0EE407A84ED0C0AB0EE670A10BD61
:10568800FFF7F0FED4ED087A94ED097A20EE000ACF
:1056980037EE677AE0EE077AB0EE670AC4ED0C7A67
:1056A80010BDFFF7DFFED4ED087A94ED097A37EEE6
:1056B800677AE0EE077AB0EE670AC4ED0C7A10BD9F
:1056C800D0ED0C7AC4E700BF70B5044682B0C1F3D0
:1056D8000726CDB2ADF8041003F02CFA4FF480720F
:1056E8004FF001232060A01DA571A280E671A36080
:1056F80002B0BDE8704000F0E3BD00BF38B5044615
:1057080003F018FA002223682271834210D0012284
:10571800A57AE37A954020602271A01D6DB243B945
:1057280000F0AAFE40B22843C0B27F28A0720AD077
:1057380038BD00F0A1FEB0FA80F040092843C0B29D
:105748007F28A072F4D103F0F5F907EE900AF8EE7D
:10575800677AC4ED037A38BD00B583B04FF0000E08
:105768004FF0030C4274ADF80410BDF8043080F813
:1057780010E0A0F802C0038003B05DF804FB00BF8E
:105788002DE9F04FDFF81C8300258DB0C04C037065
:1057980008F140034260074601920E46202229463E
:1057A8004046C4F86831C4F86481CDE90255CDE9B2
:1057B8000455CDE90655CDE90855CDE90A5510F04F
:1057C800A1FF2022294604F5A170C4F83151C4F87C
:1057D8003551C4F83951C4F83D5110F093FF019B7D
:1057E80084F8485284F830317A68002A6AD02B4607
:1057F80004F59871454606F1100A9E46F01856F8C9
:1058080003B0E2180EF1010ED0F80CC0D0F80490E5
:10581800D0F8088044F803B0C2F80CC04FF0000C70
:10582800C2F80490C2F80880008A25F802CB1082DA
:105838001AF8032001F8012F002A70D07A684FF077
:1058480001001233724584F84802D7D84FF48022F9
:1058580090489DF8043008214FF000084FF00009E7
:10586800C4F884310023C4E95B020122C4F874310E
:1058780084F88031C4E95E2194F84812C4E9648947
:10588800A9B3C4F89821002284F8813184F88831BA
:105898003B78C4E96722002B38D00122002001217F
:1058A800013B84F8A421C4E96C01082B30D8DFE857
:1058B80013F0BD00C200C700CC00D100D600DB0049
:1058C800E100E8009DF804300121C4F87421C4F80F
:1058D80084314FF4802384F880216E4AC4E95B2325
:1058E80008230022C4E95E130023C4E964230123CA
:1058F800002284F88131002384F888310323C4F816
:1059080098313B78C4E96722002BC6D184F8A431CA
:10591800614804F06BF9034638B1FFBEFEE77A68C8
:10592800123372453FF66AAF90E702A95A480293CC
:1059380004F0BAFA8246002876D1042240F2FF71B8
:105948000A90CDE9081294F83021002A00F0F3807B
:105958004FF006080AEBCA034FEACA0904EB4303EF
:105968005B7C072B07D8DFE803F0595C5653504D92
:105978004A04072307930FFA8AF6D14406EBC606B2
:1059880004EB490904EB46077500384600F098FC1B
:1059980099F81030042B00F3AA80022B00F3BD8085
:1059A80000F0B98004EB0A03002283F8202114F8E0
:1059B8001630002B78D0022B00F08A80012B40F0A3
:1059C800B2807B78012B00F0B080002B334B18BFDE
:1059D800002305A93048CDE9053803F033FD002838
:1059E80040F0AC800AF1010A94F830315FFA8AFA83
:1059F800534540F2A0802A4B53F82A80AAE7062391
:105A08000793B8E705230793B5E704230793B2E79D
:105A180003230793AFE702230793ACE70023079319
:105A2800A9E701230793A6E7FFBEFEE70322402369
:105A3800C4E96A236CE707226023C4E96A2367E79D
:105A48000F228023C4E96A2362E71F22A023C4E946
:105A58006A235DE73F22C023C4E96A2358E77F220F
:105A6800E023C4E96A2353E7FF224FF48073C4E9B3
:105A78006A234DE740F2FF124FF49073C4E96A239A
:105A880046E740F2FF324FF4A073C4E96A233FE7C8
:105A980020F10624002002408CF206240002B025E2
:105AA800FC6B0108004100307B78062B37D0072BB0
:105AB8003DD0022B4AD0032B4AD0002B4CD0012BCF
:105AC80048D0042B4AD0052B254B18BF002380E76C
