:020000040800F2
:10000000000002206909000865090008517700080E
:10001000650900086509000865090008000000007E
:10002000000000000000000000000000650900085A
:10003000650900080000000065090008D576000881
:1000400065090008650900086509000865090008D8
:1000500065090008650900086509000865090008C8
:10006000650900086509000865090008095F0008BE
:10007000155F000871490008215F00082D5F000826
:100080009D710008395400086509000865090008D9
:100090006509000865090008650900086509000888
:1000A0006509000865090008650900086509000878
:1000B000AD650008B9650008C56500086D54000805
:1000C000650900087954000865090008192C010821
:1000D000252C0108D16F0008FD6F00083170000861
:1000E00065090008650900080000000065090008AE
:1000F0006509000865090008650900086509000828
:10010000650900087D630008D1650008312C0108ED
:1001100065700008997000083D4C000865090008EA
:10012000254C0008314C0008552C0108892C010889
:10013000D171000865090008650900086509000813
:1001400000000000000000000000000000000000AF
:10015000650900086509000865090008CD700008F8
:100160008554000865090008E5760008097700084D
:10017000650900082D770008650900086509000871
:10018000650900086509000801710008357100085B
:100190003D2C0108492C0108650900086509000883
:1001A0006509000865090008650900086509000877
:1001B000295C000865090008650900086509000850
:1001C0006509000865090008650900086509000857
:1001D0006509000865090008650900086509000847
:1001E0006509000865090008650900086509000837
:1001F0006509000865090008650900086509000827
:100200006509000865090008650900086509000816
:100210006509000865090008650900086509000806
:10022000650900086509000865090008000000006C
:10023000650900086509000800000000650900085C
:1002400065090008650900086509000865090008D6
:1002500065090008650900086509000865090008C6
:1002600065090008650900086509000865090008B6
:1002700065090008650900086971000800000000B0
:10028000650900086509000865090008000000000C
:080290000000000065090008F0
:1002980010B5054C237833B9044B13B10448AFF3B8
:1002A80000800123237010BD00040024000000001A
:1002B800A85A010808B5034B1BB103490348AFF31B
:1002C800008008BD0000000004040024A85A0108AA
:1002D800034613F8012B002AFBD1181A013870477E
:1002E80081F0004102E000BF83F0004330B54FEADF
:1002F80041044FEA430594EA050F08BF90EA020F4C
:100308001FBF54EA000C55EA020C7FEA645C7FEADE
:10031800655C00F0E2804FEA5454D4EB5555B8BF01
:100328006D420CDD2C4480EA020281EA030382EA72
:10033800000083EA010180EA020281EA0303362D04
:1003480088BF30BD11F0004F4FEA01314FF4801CD7
:100358004CEA113102D0404261EB410113F0004FE9
:100368004FEA03334CEA133302D0524263EB4303A0
:1003780094EA050F00F0A780A4F10104D5F1200E3E
:100388000DDB02FA0EFC22FA05F2801841F1000199
:1003980003FA0EF2801843FA05F359410EE0A5F16D
:1003A80020050EF1200E012A03FA0EFC28BF4CF09E
:1003B800020C43FA05F3C01851EBE37101F0004554
:1003C80007D54FF0000EDCF1000C7EEB00006EEB61
:1003D8000101B1F5801F1BD3B1F5001F0CD34908EB
:1003E8005FEA30004FEA3C0C04F101044FEA445242
:1003F80012F5800F80F09A80BCF1004F08BF5FEAC9
:10040800500C50F1000041EB045141EA050130BDA8
:100418005FEA4C0C404141EB0101013C28BFB1F5BA
:10042800801FE9D291F0000F04BF01460020B1FA05
:1004380081F308BF2033A3F10B03B3F120020CDAD8
:100448000C3208DD02F1140CC2F10C0201FA0CF0B6
:1004580021FA02F10CE002F11402D8BFC2F1200C1B
:1004680001FA02F120FA0CFCDCBF41EA0C019040D1
:10047800E41AA2BF01EB0451294330BD6FEA04041A
:100488001F3C1CDA0C340EDC04F11404C4F1200205
:1004980020FA04F001FA02F340EA030021FA04F317
:1004A80045EA030130BDC4F10C04C4F1200220FA6E
:1004B80002F001FA04F340EA0300294630BD21FAAC
:1004C80004F0294630BD94F0000F83F4801306BF72
:1004D80081F480110134013D4EE77FEA645C18BF66
:1004E8007FEA655C29D094EA050F08BF90EA020FFD
:1004F80005D054EA000C04BF1946104630BD91EAF5
:10050800030F1EBF0021002030BD5FEA545C05D1F7
:100518004000494128BF41F0004130BD14F5800436
:100528003CBF01F5801130BD01F0004545F0FE41AA
:1005380041F470014FF0000030BD7FEA645C1ABFDF
:10054800194610467FEA655C1CBF0B46024650EA16
:10055800013406BF52EA033591EA030F41F4002142
:1005680030BD00BF90F0000F04BF0021704730B5C8
:100578004FF4806404F132044FF000054FF000019D
:1005880050E700BF90F0000F04BF0021704730B55E
:100598004FF4806404F1320410F0004548BF404233
:1005A8004FF000013EE700BF42004FEAE2014FEA88
:1005B80031014FEA02701FBF12F07F4393F07F4F63
:1005C80081F06051704732F07F4208BF704793F066
:1005D8007F4F04BF41F40021704730B54FF4607479
:1005E80001F0004521F000411CE700BF50EA01027C
:1005F80008BF704730B54FF000050AE050EA010225
:1006080008BF704730B511F0004502D5404261EB94
:1006180041014FF4806404F132045FEA915C3FF4D5
:10062800D8AE4FF003025FEADC0C18BF03325FEA72
:10063800DC0C18BF033202EBDC02C2F1200300FA23
:1006480003FC20FA02F001FA03FE40EA0E0021FA48
:1006580002F11444BDE600BF53B94AB9002908BFE6
:1006680000281CBF4FF0FF314FF0FF3000F074B985
:10067800ADF1080C6DE904CE00F006F8DDF804E0F1
:10068800DDE9022304B070472DE9F047089D0446D0
:100698008E46002B4DD18A42944669D9B2FA82F22D
:1006A80052B101FA02F3C2F1200120FA01F10CFA69
:1006B80002FC41EA030E94404FEA1C48210CBEFBA1
:1006C800F8F61FFA8CF708FB16E341EA034306FB2A
:1006D80007F199420AD91CEB030306F1FF3080F0B9
:1006E8001F81994240F21C81023E63445B1AA4B206
:1006F800B3FBF8F008FB103344EA034400FB07F7A8
:10070800A7420AD91CEB040400F1FF3380F00A81E8
:10071800A74240F207816444023840EA0640E41BDD
:1007280000261DB1D4400023C5E900433146BDE889
:10073800F0878B4209D9002D00F0EF800026C5E92B
:10074800000130463146BDE8F087B3FA83F6002E43
:100758004AD18B4202D3824200F2F980841A61EBBB
:10076800030301209E46002DE0D0C5E9004EDDE7D9
:1007780002B9FFDEB2FA82F2002A40F09280A1EBC1
:100788000C014FEA1C471FFA8CFE0126200CB1FB16
:10079800F7F307FB131140EA01410EFB03F088420F
:1007A80008D91CEB010103F1FF3802D2884200F29C
:1007B800CB804346091AA4B2B1FBF7F007FB10112E
:1007C80044EA01440EFB00FEA64508D91CEB0404CC
:1007D80000F1FF3102D2A64500F2BB800846A4EB27
:1007E8000E0440EA03409CE7C6F12007B34022FA12
:1007F80007FC4CEA030C20FA07F401FA06F31C4341
:10080800F9404FEA1C4900FA06F3B1FBF9F8200C4D
:100818001FFA8CFE09FB181140EA014108FB0EF093
:10082800884202FA06F20BD91CEB010108F1FF3AE3
:1008380080F08880884240F28580A8F102086144EF
:10084800091AA4B2B1FBF9F009FB101144EA0141FD
:1008580000FB0EFE8E4508D91CEB010100F1FF34A8
:100868006CD28E456AD90238614440EA0840A0FB40
:100878000294A1EB0E01A142C846A64656D353D016
:100888005DB1B3EB080261EB0E0101FA07F722FA3A
:1008980006F3F1401F43C5E9007100263146BDE863
:1008A800F087C2F12003D8400CFA02FC21FA03F3C6
:1008B800914001434FEA1C471FFA8CFEB3FBF7F047
:1008C80007FB10360B0C43EA064300FB0EF69E426C
:1008D80004FA02F408D91CEB030300F1FF382FD205
:1008E8009E422DD9023863449B1B89B2B3FBF7F6AD
:1008F80007FB163341EA034106FB0EF38B4208D986
:100908001CEB010106F1FF3816D28B4214D9023EC6
:100918006144C91A46EA004638E72E46284605E7E4
:100928000646E3E61846F8E64B45A9D2B9EB0208B5
:1009380064EB0C0E0138A3E74646EAE7204694E745
:100948004046D1E7D0467BE7023B614432E7304678
:1009580009E76444023842E7704700BFFEE7000039
:1009680009480A4A0A49121A13F0B8FF09480A4AFC
:100978000021121A13F0DAFF07F01EF913F07AFFBC
:1009880001F0AEFCFEE700BF00000024FC030024D9
:10099800D85A01080004002408CA04241FB50023FB
:1009A8008DF80D1003AA01798DF80C304FF47A7385
:1009B8000093022304F0FEFD05B05DF804FB02F08D
:1009C8008FB9183003F064BF10B50446683003F0DF
:1009D800C3FB04F1880003F0BFFB04F1A80003F097
:1009E800BBFB04F1C800BDE8104003F0B5BB4030C4
:1009F80003F006BC30B599B00446102002F05AF94D
:100A0800ADF808000299022206A804F1180503F0BF
:100A18001DFD0F2002F04EF9ADF80C0003990222DB
:100A28000DF12A0003F012FD152002F043F9ADF88C
:100A38001000049902220FA803F008FD122002F00A
:100A480039F9ADF8140005990DF14E00022203F0B2
:100A5800FDFC042306A928461A4603F00BFD0021D5
:100A6800284603F02BFF0090204602F03DF90023B2
:100A7800DFED1F0A04F168001A460099CDED010A5E
:100A880003F038FB0121284603F018FF00902046A8
:100A980002F02AF90023DDED010A04F188001A4664
:100AA800009903F027FB0221284603F007FF009076
:100AB800204602F019F9DDED010A00230122009910
:100AC80004F1A80003F016FB0321284603F0F6FE04
:100AD8000090204602F008F9DDED010A002301220A
:100AE800009904F1C80003F005FB19B030BD00BF40
:100AF8006F12033B70B594B0044601AD05AE2846AD
:100B080003F0BCFB95E80F0004F1E80586E80F0048
:100B180009AE85E80F0086E80F000123002105468D
:100B280012930E95CDE90F3147F612231393022342
:100B38001193BDF82830D4E93C02ADF83630BDF841
:100B48002A30C4E93F02ADF8343013F0EFFE0DA9A6
:100B580004F1F80006F0EEFB04F5867003F0A2FB42
:100B680014B070BD1FB504461B2002F0A3F8ADF801
:100B780004001A2002F09EF8ADF808001C2002F0CC
:100B880099F8ADF80C00204602F0AEF8019904F18E
:100B98004000DDE9022304B0BDE8104003F000BBCB
:100BA80005490123032200F51240C1E9002300236F
:100BB80048300B7205F09EBB1C04002484B038B585
:100BC80005AD044685E80E009DF8283029460371D6
:100BD80004F05AFC2046AE21FFF7E0FE2046D5215E
:100BE800FFF7DCFE20468021FFF7D8FE2046A8212B
:100BF800FFF7D4FE20461F21FFF7D0FE2046DA215A
:100C0800FFF7CCFE20461221FFF7C8FE2046D3216D
:100C1800FFF7C4FE20460021FFF7C0FE2046402112
:100C2800FFF7BCFE2046A621FFF7B8FE2046A42108
:100C3800FFF7B4FE20468D21FFF7B0FE20461421B1
:100C4800FFF7ACFE2046A121FFF7A8FE2046C821E9
:100C5800FFF7A4FE20468121FFF7A0FE20468F2142
:100C6800FFF79CFE2046D921FFF798FE2046252154
:100C7800FFF794FE2046DB21FFF790FE2046342143
:100C8800FFF78CFE2046AF21FFF788FEBDE838400D
:100C980004B0704770B5002390B0114A064604AD01
:100CA8000AACCDE904320222CDE9062310230893C9
:100CB8003C238DF824300FCD0FC495E8030010AB0A
:100CC80084E8030013E907000AAB8DE8070006F57E
:100CD80012400ECB5430FFF771FF10B070BD00BF4B
:100CE8000108010970B5044686B001F0E1FF012151
:100CF8002046002502F0B8F82046FFF733FF2046CB
:100D0800FFF7C8FF2046FFF7F5FE2046FFF772FE03
:100D180020462034FFF744FF0226012301A920467C
:100D280003950296CDE9043503F092FF2A46314631
:100D3800204604F00BF806B070BD70477047704746
:100D480070477047704700F1100300F588704A42F9
:100D580003F8012B8342FAD17047704710B5054C50
:100D680004F1180013F09EF82046BDE8104013F077
:100D780099B800BF2804002410B50C24044B18208F
:100D880000FB043013F08EF8013CF7D210BD00BF11
:100D9800580400242020704740207047704710B541
:100DA80004464FF4887112F09CFF204610BD0000E5
:100DB80000F1080373B504460D460360D9B108462F
:100DC800FFF786FA0F2805EB0006019007D90022E5
:100DD80001A9204613F044F8019B2060A360324625
:100DE8002946206813F0D4F8019B2268002163602B
:100DF800D15402B070BD014812F078FFD84B0108F9
:100E0800F8B50B460C460546006853F8081B62689F
:100E180099420CD10AB113F073F8636800212A686B
:100E28006B60D1540023226863601370F8BD05F12C
:100E38000807B842C5E9001208BF0020A26818BF19
:100E4800AE68AA6010B12060A660EBE72360E9E70E
:100E580070470000F8B581EAE1740746CE0F012516
:100E6800A4EBE1742346092B02D9632B1FD8013563
:100E780007F1080371192D2238463B6013F069F811
:100E88003A6891190D44632C22D96423B4FBF3F01A
:100E980003FB10430446164800EB430C10F81330CC
:100EA8009CF801C005F801CC05F8023DEBE7B3F565
:100EB8007A7F01D20235DBE742F20F72934201D802
:100EC8000335D5E742F210720435B3FBF2F3CAE7F3
:100ED800092C89BF064B303403EB440013F8143057
:100EE80092BF945540784870384688BF9355F8BDEE
:100EF800944C0108036870B50E46DB680446154635
:100F08009847B04205D823682046DB6898470138DF
:100F180086B223682046A6809B689847A84205D8D1
:100F2800236820469B689847013885B2E58070BDE4
:100F3800D0ED017AB6EE000A90ED007AD0ED026AA3
:100F480037EE800AC0ED007A96EEA77A80ED017A36
:100F5800704700002DE9F84306461746984689462B
:100F68002DED088B90ED0D8A90ED0EAAD0ED0CAA10
:100F7800D0ED0A9A90ED0BBA90ED0F9AD0ED108A49
:100F8800B8F1000F00F0BE8133685A1E49BF03F55F
:100F9800FF4332607F333360D6E90045E30640F013
:100FA800A68106F10800FFF7C3FF06F11800F0EE6E
:100FB80040BAFFF7BDFF04F1950399ED006AD7ED3C
:100FC800007AC4F30E02C3F30E039FEDD27A76EED5
:100FD800277A08F1FF3835F9133006EE903AA7EE74
:100FE8008B7ADFEDCD7AF8EEE66A66EEA76AA8EEB0
:100FF800267AF0EE475AE8EE476AFEEEE85A15EE12
:10100800903A03F30F0325F8123004F5B673C3F3CF
:101018000E0335F9133007EE103A04F19703B8EED2
:10102800C77AC3F30E0327EE277AE8EE076AF0EED5
:10103800665AA8EE667AFEEEE85A15EE902A02F392
:101048000F0225F8132004F52B73C3F30E0335F9AB
:10105800133006EE903A04F5B773F8EEE66AC3F378
:101068000E0366EEA76AA8EE267AF0EE475AE8EE77
:10107800476AFEEEE85A15EE902A02F30F0225F8A9
:10108800132004F2BC43C3F30E0335F9133007EE03
:10109800103A04F2AE23B8EEC77AC3F30E0327EE74
:1010A800277AE8EE076AF0EE665AA8EE667ADFED70
:1010B8009B6AFEEEE85A15EE902ADFED995A02F384
:1010C8000F02E0EE265A25F8132043F6D232FDEE41
:1010D800E56A16EE903AB8EEE65A234435EEC55A5C
:1010E800991803F56F531333C1F30E01C3F30E03BD
:1010F80035F9111035F9133006EE901A05EE903ACD
:10110800F8EEE66A04F64353F8EEE55AC3F30E0325
:1011180065EEA75A35F91330E6EEE75A65EE255A1B
:10112800E6EEA75AF0EE476AEAEEA56A76EEC96AD5
:10113800AAEE269A06EE903A04F2BE43F8EEE66A64
:10114800C3F30E0366EEA76AF0EE495AE8EE665A54
:10115800B0EE655AE8EE256ABEEEE85A15EE101AAA
:1011680001F30F0125F8131004F5BE530633C3F33A
:101178000E0335F9133005EE903A04F64553F8EEB0
:10118800E55AC3F30E0365EEA75AE8EE256AE8EEC2
:10119800665AB0EE665ABEEEE85AF0EE656A15EE8B
:1011A800101AB0EE005A01F30F01FEEEE86A25F8B6
:1011B800131041F2C87316EE900AF0EE466AE11871
:1011C80000F30F00D5EE856AC1F30E0125F8110072
:1011D800A6EEA96ADFED536AA9EC016A9FED526A8F
:1011E800ABEEA66AFDEEC66A16EE900AF8EEE65A6F
:1011F800204476EE655A034400F5BE50C3F30E034F
:10120800093035F91330C0F30E0006EE903A35F97F
:10121800103006EE103AF8EEE66A04F54C53B8EED4
:10122800C66A3A3326EE276AC3F30E0335F913303C
:10123800A6EEE76A25EE866AA6EEA76AAAEE867A81
:1012480037EE687AEAEE078A07EE103A04F5255376
:10125800B8EEC77A1E3327EE277AC3F30E03F0EEF3
:10126800686AE8EE076AB0EE666AA8EE667ABEEECD
:10127800E86A16EE101A01F30F0125F8131004F5A9
:101288006F531033C3F30E0335F9133006EE903A5B
:1012980004F54C531444F8EEE66A3C33C4F30E04E8
:1012A800C3F30E0366EEA77AA8EE677AE8EE077A2C
:1012B800F0EE476AFEEEE86AB0EE677A16EE901A2C
:1012C80001F30F01BEEEE87A25F8131017EE103A75
:1012D80097ED007A03F30F03F0EE476A25F8143010
:1012E800D7EE856AA6EEA97AA7EC017A48E6F6EE6B
:1012F800007AD6ED02BA96ED060A7BEEA7BA30EE72
:10130800270A58E686ED0F9AC6ED108ABDEC088BC1
:10131800BDE8F883000000000000003800004842E3
:1013280000A8C3450000204200608B452DE9F0412C
:101338000646904601F108072DED088B90ED0D8AC1
:1013480090ED0EAAD0ED0CAAD0ED0A9A90ED0BBA4A
:1013580090ED0F9AD0ED108AB8F1000F00F0DB8104
:1013680033685A1E49BF03F57F5332603F333360F9
:10137800D6E90045E30640F0C38106F10800FFF70F
:10138800D7FD06F11800F0EE40BAFFF7D1FDB2EE36
:10139800047ADFEDE57A57ED025A08F1FF3808378D
:1013A800ABEEA77AFDEEC77A17EE903AF8EEE76A49
:1013B800DFEDDE7A234477EE666AC3F30D0201336C
:1013C800C3F30D0335F9122035F9133006EE102A50
:1013D80007EE103AB8EEC66A04F16403B8EEC77AAD
:1013E800C3F30D0327EE277AA6EE677A26EE877AEF
:1013F800DFEDCF6AA6EE277A37EE267AB0EE476A97
:10140800BEEECA6A16EE102A17ED036A02F30F023F
:1014180035EE865A25F8132004F17003C4F30D0243
:1014280025EE0B5AC3F30D0335F91330A7EE265AF0
:1014380006EE903AF8EEE66AB0EE457A66EEA76AEE
:10144800A8EE267AB0EE475AE8EE476ABEEECA5AC8
:1014580015EE103A03F30F0325F8123004F21313B4
:10146800C3F30D0335F9133007EE103A04F1720394
:10147800B8EEC77AC3F30D0327EE277AE8EE076ABA
:10148800B0EE665AA8EE667ABEEECA5A15EE102A73
:1014980002F30F0225F8132004F20523C3F30D030A
:1014A80035F9133006EE903A04F21513F8EEE66AB1
:1014B800C3F30D0366EEA76AA8EE267AB0EE475A84
:1014C800E8EE476ABEEECA5A15EE102A02F30F027A
:1014D80025F8132004F29533C3F30D0335F91330BF
:1014E80007EE103A04F20723B8EEC77AC3F30D03E8
:1014F80027EE277AE8EE076AB0EE665AA8EE667A13
:10150800DFED8C6ABEEECA5A15EE102A9FED8A5A94
:1015180002F30F02A0EE265A25F8132042F6525283
:10152800FDEEC56A16EE903AF8EEE64A234475EEEB
:10153800644A991803F535531333C1F30D01C3F306
:101548000D0335F9111035F9133006EE901A05EE32
:10155800103AF8EEE66A04F60B23B8EEC55AC3F360
:101568000D0325EE275A35F91330A6EEE75A24EE77
:10157800855AA6EEA75AF0EE476AEAEE856A76EE35
:10158800C96AAAEE269A06EE903A04F29733F8EE64
:10159800E66AC3F30D0366EEA76AB0EE495AA8EEF1
:1015A800665AF0EE454AE8EE056AFEEECA4A14EEBF
:1015B800901A01F30F0125F8131004F59053023324
:1015C800C3F30D0335F9133005EE103A04F60D2375
:1015D800B8EEC55AC3F30D0325EE275AE8EE056A9F
:1015E800A8EE665AF0EE664AFEEECA4AF0EE456A82
:1015F80014EE901AF0EE004A01F30F0125F81310CB
:1016080004F59053FEEECA6A0433C3F30D0316EED5
:10161800901AF0EE656A01F30F0125F8131004F52E
:10162800FA53D5EE246A1633C3F30D0335F9133094
:10163800E6EEA95A06EE903A04F51B53F8EEE66A70
:101648001033C3F30D0366EEA76A47ED045A35F964
:101658001330AAEEA67A37EE687AEAEE078A07EE22
:10166800103A04F5FA53B8EEC77A183327EE277AFA
:10167800C3F30D03F0EE686AE8EE076AF0EE665A07
:10168800A8EE667AFEEECA5A15EE901A01F30F011B
:1016980025F8131004F535531033C3F30D0335F94A
:1016A800133006EE903A04F51B531444F8EEE66A3C
:1016B8001233C4F30D04C3F30D0366EEA77AA8EE44
:1016C800677AE8EE077AF0EE476AFEEECA6AB0EE8D
:1016D800677A16EE901A01F30F01BEEECA7A25F862
:1016E800131017EE103AB0EE467A03F30F0325F8FD
:1016F800143097EEA47AA7EE296A07ED036A2BE661
:10170800B6EE000AD6ED02BAD6ED067A7BEE80BABE
:1017180037EE800A3BE686ED0F9AC6ED108ABDECDF
:10172800088BBDE8F08100BF0000704200008039DE
:10173800000000000000C842004092452DE9F04139
:101748007D4C2DED028B2046FFF73EF92046FFF732
:101758004EF97A4802F0DCFD794802F0D9FD94F898
:101768004C3078483BB194F8522003787F2A04BF64
:1017780083F00103037094F8443003B1636E724A36
:1017880000781168714D002800F0B88007EE903A93
:101798009FED6F7AF8EEE77A67EE877A052912D817
:1017A800DFE801F0030C889EA0A263B1694A1368C0
:1017B800002BCCBF00230123136004E0664A1168A4
:1017C8000B440C2BF8D95D4B644E1A6B644B3046B6
:1017D8009FED648A1A605A4B1B6BAB6102F098FD4F
:1017E800614802F095FDD6ED0C7AF4EEC87AF1EE78
:1017F80010FA40F391805D4F97F80080B8F1000F20
:1018080040F08A805A4C04F1280084F8088004F0DB
:101818005BFFE369DFED576AC31AA269206207EE2E
:10182800903A04EB8201531CE061F8EE677A022AD1
:1018380008BF434687EEA67ADFED4F6AA361F2EE52
:10184800007A84ED097A27EE277AC6EE877A9FED2B
:101858004B7AF0EE086AC1ED037AD4ED037A77EE9D
:10186800877A94ED047A77EE877A94ED057A77EEA5
:10187800877A87EEA67AF8FE477A94ED017AC4ED66
:10188800007AF4EE477AF1EE10FA40D00123C4ED65
:10189800017A2372304BDFED3A6A1A68394B03EB51
:1018A800820393ED007A27EE267AC7EE276AC5ED04
:1018B800086A2FE0344B93ED007A77EE877AB7EE1B
:1018C800007AF4EEC77AF1EE10FA7FF57CAFF5EE08
:1018D800C07AF1EE10FAFFF676AFC3ED007A72E740
:1018E8002A4BE8E72A4BE6E7EA691344012B01D8BB
:1018F800EB6168E7CCBF00230123F9E70B44052B14
:101908007FF65AAF01DD10605DE7052354E7237ABF
:10191800002BBFD101233B70D6ED0C7AF4EEC87AC8
:10192800F1EE10FA04D5114B1A780AB100221A7098
:10193800BDEC028BBDE8F08194050024209A0224B6
:10194800589A02241C990024DC9A0424F899022449
:10195800CDCCCC3DD89A04240C00002488990224CC
:10196800900500240000FA43C09902241C9A02241E
:10197800F09800240060EA4800606A470000000010
:1019880000C82F4A604D01081400002410000024EC
:101998000800002470B5044610460A46002112F0DB
:1019A800F5FB04F108020346226053F8081B99422C
:1019B80010D1194600F1180551F8046BA94242F8F4
:1019C800046BF9D1426803600023626043600372CC
:1019D800204670BD82682160A260F3E7B5EE006A18
:1019E800F6EE006A30EE460AB5EEC00AF1EE10FADD
:1019F80018D5B1EE400AF3EE007A20EE277AC0ED52
:101A0800016AF0EE005AF7EE007AE0EE657A67EECA
:101A1800277AC0ED027A67EE867AC0ED037AC0EDC8
:101A2800007A7047B4EEE60AF1EE10FA02DD30EE05
:101A3800660AE0E7FBEE007ADFE7F0B5044685B01A
:101A4800C71DB02529462046FEF7A8FF3E460021BF
:101A58002046FEF7A3FF12212046FEF79FFF4023F2
:101A680003AA217920468DF80C3016F8013F8DF82D
:101A78000D304FF47A730093022303F09BFD07F1B6
:101A880040039E42EBD10135EDB2B42D01D105B032
:101A9800F0BD3746D6E7083008B5FFF7CEFF08BDDA
:101AA800D0E901320C49134490ED007AB3FBF1F20E
:101AB80001FB1232013300EB820292ED030AB3FB01
:101AC800F1F201FB123300EB8303D3ED037A77EED7
:101AD800C07AA7EE870A704700530700FDEEC07A68
:101AE800064BB8EEE77A17EE902A9A4294BF8260C6
:101AF800836030EE470A80ED000A7047FF52070006
:101B0800436800EB830203F5EA2382ED030A03F23C
:101B1800FF23034AB3FBF2F102FB11334360704722
:101B2800005307002DE9F04F9B4D00260F468146D4
:101B38002DED048B87B0019205F078FEA860FFF7C1
:101B4800FDFD019B9E4200F0EA80D9F800304FF07D
:101B58007E5CD9F804204FEA860A03EB8603DFF897
:101B6800648202EB86028D481B6892ED009A04930A
:101B78000593C8F80030C8F80430894B894C1968B7
:101B8800894B8A4A1B680163C2628363216304A983
:101B9800E26205AAA3630123C0F828C0C4F828C0DC
:101BA800FFF7D8F92046824C01224146FFF7BEFBD9
:101BB8002068FFF775FFE068B0EE408AFFF770FF16
:101BC800D4F81CB0F0EE408ABBF1000F0BD0BBF18B
:101BD800010F38D0774B1B68002B66D0012B00F023
:101BE80083800136ADE721465A4651F8040B94ED3F
:101BF800080A03920291FFF771FF039A02990132D2
:101C0800032AF2D16C4A52F8040B0BF1010B94ED44
:101C1800080A0292FFF762FFBBF1030F029AF2D1A2
:101C2800B0EE490AD4ED067A2068A8EE270AFFF735
:101C380067FFB0EE490AD4ED067AA8EEA70AE06875
:101C4800FFF75EFFC6E72246002394ED080A52F824
:101C5800040B30EE000A03930292FFF73FFF039B49
:101C6800029A0133032BF0D1534A002394ED080A5A
:101C780052F8040B30EE000A03930292FFF72EFF8E
:101C8800039B029A0133032BF0D1B0EE490AD4ED3D
:101C9800067A2068A8EEA70AFFF732FFB0EE490AD5
:101CA800D4ED067AA8EE270AC9E74449444A91EDDB
:101CB800000A98ED007A28EE008AD2ED007A3B6897
:101CC800A7EE278A534483ED008A91ED000A7B68CA
:101CD80068EE808A98ED017A5344D2ED007AE7EEF7
:101CE800278AC3ED008A7CE73449354A91ED000A1A
:101CF800D2ED007A28EE008A9DED047A3B68A7EEC3
:101D0800278A534483ED008A7B6891ED000A534487
:101D1800D2ED007A68EE808A9DED057ADFE705F05E
:101D280085FDAB6895ED017AC31A07EE903A2B78DA
:101D3800F8EE677A67EE877A63B10023C5ED057A16
:101D4800C5ED037AC5ED047A2B7007B0BDEC048BA2
:101D5800BDE8F08F95ED047AD5ED066AF4EEC77A02
:101D680095ED037A95ED056AF1EE10FAF4EEC77A6F
:101D7800B7EE007AC8BFC5ED047AF1EE10FA37EE77
:101D8800667A48BFC5ED037A27EE067AA7EEA67AEB
:101D980085ED057AD9E700BF6C990224949A02244C
:101DA800900500242899002408000024CDCC4C3F3D
:101DB800F8990224D89A0424049A022410000024D2
:101DC80014000024209900243F2910B510D81F2A98
:101DD8000ED8D40802F0070201EB8411012408444C
:101DE80004FA02F290F9081052B213B111430172C9
:101DF80010BD21EA0201FAE7083008B5FFF7E4FF51
:101E080008BD2DE9F04F0E4685B0044604A9A6F199
:101E180020059DF838B001E90C00EBB25E2B04D91F
:101E28000026304605B0BDE8F08F03689DF80870BD
:101E3800DB689DF809A09847A3883B449842EFDBEC
:101E4800236820469B689847E38853449842E7DB19
:101E58000AFB05F54FF000096D00CA451DD9039B23
:101E68004FF000085B5B01934745A188E28810D9D1
:101E7800019B41444A4404F1080003FA08F308F1BD
:101E880001081B044CBF5B468BF00103FFF79CFF66
:101E9800EAE709F101090235DFE7A1882046E2886F
:101EA800394489B2FFF726F8BBE7F0B585B0064696
:101EB8004C1E02AD9DF8287085E80C0014F8011F2F
:101EC80041B10097304695E80C00FFF79AFF21785A
:101ED8008842F3D0084605B0F0BD00002DE9F04176
:101EE800354D4FF48072002134482DED028B94B0AB
:101EF80012F01CFD2A68032A70DD043A2021D20062
:101F080092B26EE02E4980E10F2B089307D9002288
:101F180008A90EA811F0A4FF089B0E901093324652
:101F280029460E9812F02FF8089B0E9A00210F935D
:101F3800D1540F9A234BD34202D1234811F0D9FE32
:101F4800012222490EA8012512F030F90EA902A893
:101F5800FEF756FF0EA811F0A5FF394600951C485C
:101F680094E80C00FFF7A1FF18222E211848FEF76D
:101F7800C1FF184B0EA8D3ED007AFDEEE77A17EEF5
:101F8800901AFEF767FF0EA902A8FEF739FF0EA800
:101F980011F088FF394600950D4894E80C00FFF7CA
:101FA80084FF0D48FFF749FD02A811F07BFF14B02C
:101FB800BDEC028BBDE8F081DC9A0424F097002484
:101FC800144C0108010000C0194C01082E4C0108EE
:101FD800E0970024F0980024E8970024D20000211C
:101FE80092B2AB484FF00108FEF784FFA94902A856
:101FF800A94CFEF7DDFE029FCDF80080B2EE048A00
:102008003946A348A54E94E80C00FFF74EFF00227E
:102018002B689F489342326014BF11460721FEF790
:1020280069FF9F4B182102A81A689E4B01FB0231D9
:1020380011F0B3FF33682A68394695489A4202BFBF
:10204800994B93F8008088F0010894E80C00CDF8CB
:1020580000804FF00108FFF728FF2B6808228C4802
:102068004345C6F800800CBF07210021FEF742FF58
:102078008E4B182102A81A688D4B01FB023111F012
:102088008CFF33682A68394681489A4202BF864BDA
:1020980093F8008088F0010894E80C00CDF80080DF
:1020A800FFF703FF02231022794833602B68022BC5
:1020B8000CBF07210021FEF71DFF7E4B08A8D3EDBA
:1020C800007A67EE887AFDEEE77A17EE901AFEF747
:1020D800C1FE08AA78490EA8FFF75CFC0EA902A861
:1020E800FEF78EFE0EA811F0DDFE08A811F0DAFE4C
:1020F80033682A68394666489A4209BF6A4B012301
:102108001B7883F00103009394E80C00FFF7CDFEE1
:10211800032318225E4833602B68032B0CBF07216A
:102128000021FEF7E7FE654B08A8D3ED007A67EEBD
:10213800887AFDEEE77A17EE901AFEF78BFE08AA6A
:102148005F490EA8FFF726FC0EA902A8FEF758FE65
:102158000EA811F0A7FE08A811F0A4FE33682A689B
:1021680039464B489A4209BF4F4B01231B7883F0ED
:102178000103009394E80C00FFF797FE0423002264
:10218800434833602B68042B0CBF27212021FEF71E
:10219800B1FE4C4B08A8D3ED007A67EE887AFDEEC5
:1021A800E77A17EE901AFEF755FE08AA46490EA8D8
:1021B800FFF7F0FB0EA902A8FEF722FE0EA811F009
:1021C80071FE08A811F06EFE33682A683946304857
:1021D8009A4209BF344B01231B7883F00103009313
:1021E80094E80C00FFF761FE0523082228483360B5
:1021F8002B68052B0CBF27212021FEF77BFE334BD4
:10220800DB69002B7FF47EAE31490EA8FEF7D0FDC6
:102218000EA902A8FEF7F4FD0EA811F043FE3368DC
:102228002A6839461A489A4209BF1F4B01231B786E
:1022380083F00103009394E80C00FFF736FE1022A8
:102248002E211348FEF756FE224B9FED237A0EA847
:10225800D3ED057A67EE877AFDEEE77A17EE901AE6
:10226800FEF7F8FD0EA902A8FEF7CAFD0EA811F0A8
:1022780019FE10AB0E93DDE90253EE18002D7FF422
:1022880043AE002E3FF440AE144811F02FFD00BFBE
:10229800E0970024024C010858020024909A022476
:1022A800D89A0424280400241C9900240C00002433
:1022B8005804002414000024044C010810000024D1
:1022C800084C0108080000240C4C0108F899022465
:1022D800104C01086C9902240000C842D84B010830
:1022E80080B5784888B0784CFEF7FCFC75486D4698
:1022F800FEF767FBF7EE000A9FED740A6F460FCCF6
:102308000FC594E80F0004F1100685E80F000022BD
:1023180069466F4801F0CCFFF7EE000A9FED6D0AA1
:102328000FCE0FC796E80F0004F130066F46503401
:1023380085E80F0000226946674801F0B9FFDFED24
:10234800670A9FED670A0FCE0FC796E80F0085E86A
:102358000F000022694663486E4601F0A9FFDFEDD1
:102368005F0A9FED5F0A604F0FCC0FC694E80F001D
:1023780085E80F00002269465C48002401F098FFB8
:102388005B4D5C484FF4803200215B4E686012F070
:10239800CDFA28469FED590A40F8084BFFF71EFB77
:1023A8009FED570A05F11800FFF718FB3368AF6374
:1023B8004FF400426B632146524D5348686012F057
:1023C800B5FA28469FED510A40F8084BFFF706FB7F
:1023D8009FED4F0A05F11800FFF700FB3368AF6364
:1023E80069464C4F6B634FF0FF334B483E464B4DAD
:1023F80002938DF80C40CDE9004404F0EBF8464810
:1024080004F050F9464A05F10C00002112F08EFA4A
:102418000122002347F8045B1444C5E90132032C68
:1024280005F5EA1505F60C45ECD13E4C1D46DFF8DE
:102438000C81012704F10C00394A002112F076FAC8
:102448003D44002348F8044B032DC4E9013704F543
:10245800EA1404F60C44ECD131680022324B0A60CD
:102468008B6071680A608B60B1680A608B60F16884
:102478000A608B6031690A608B6071690A608B60E1
:1024880005F048FB07EE900A9FED127AF7EE006A16
:10249800F8EE677A254B264A264967EE877A9A61CD
:1024A800254A084886EEA77A1F70DA601A615A61D1
:1024B80083ED017AFEF783FAFFF740F9FFF70EFD87
:1024C800FAE700BF94050024FC050024ACC52737B3
:1024D800209A02246F12833A589A022400409C459D
:1024E80000409CC5889902243333333FC0990224A5
:1024F800949A0224D89A0224040000243EC3AE39D8
:1025080018B75139289900246C9900246F12033A9E
:1025180052499D39F89902241899002424E457C097
:10252800004C1D00000000C0FF5207006C990224F7
:10253800149ACC3B2D1B00080000C07F049A02248B
:102548002DE9F043914685B00446984608464B4627
:10255800DDE90C52A3EB090C13F8011B0029F9D192
:1025680098F8006098F8011016FB0CF60F4636B282
:1025780026EAE676082A76D8DFE802F06B05270B0C
:1025880035453C536100B5F90020B5F90230228089
:1025980053E02B88A988B5F902200B4462809B1B65
:1025A8002380A680E780628821880390FEF7A2FC3A
:1025B8009DF8383049460398009398E80C00FFF7D7
:1025C80074FC204605B0BDE8F083B5F90430B5F9D0
:1025D800021003EBD3722B88618003EB6203A3EB39
:1025E80066032380DDE76B88B5F90020ED882B446E
:1025F8005B1ACCE76B88EA8813445B1A2A88A98897
:102608000A44921BC3E76B88EA8813445B1AB5F93E
:10261800042002EBD2712A8802EB6102A2EB660267
:10262800B5E7B5F90630B5F9001003EBD3726B883E
:10263800218003EB6203A3EB57036380B1E7B5F98D
:10264800063003EBD3726B8803EB6203A3EB5103F1
:10265800D4E7B5F9063003EBD3726B8803EB62035A
:10266800A3EB5103D3E7002323806380A380E38097
:1026780099E70000000000002DE9F04F2DED068BD2
:1026880087B01C4603929DF86030DDE916289FED5F
:10269800B64BB8F1000F0493BCBF4244C8F1000820
:1026A80007EE902A02EB0803B8EEE76B07EE103A44
:1026B8009FEDAF5B26EE046BB8EEC77BCDE9010159
:1026C80086EE050B27EE047BF7EEC08B87EE050B35
:1026D800F7EEC09BB0EE680A11F0A6FD07EE904A2F
:1026E800B8EE67AA2AEE008AB0EE680A11F0A0FFD9
:1026F80060EE4A8AB0EE690A11F096FD2AEE009A59
:10270800B0EE690A11F094FF20EE4AAA39EE487A31
:10271800049B7AEE687A67EEA77AE7EE077AB0EE5E
:10272800007AF4EEC77AF1EE10FA08D5B8F1B40FD2
:1027380000F3CA8007B0BDEC068BBDE8F08F00221D
:1027480001276542C4F101040026BB46BA4664006D
:10275800B9460492049A002A6ED107EE906A724232
:10276800B8F1B40FF8EEE76A07EE905AB8EEE77AD8
:1027780007EE902AC5F1000266EE884AF8EEE77A7D
:1027880006EE102A27EE285A66EE896AB8EEC66A5F
:1027980067EE885A27EE0A7A66EE283A67EE897A53
:1027A80026EE0A6A34EEE34A74EEC54A35EEC55A97
:1027B800B5EEC04A75EEE35A40F39180F1EE10FA97
:1027C80000F1848036EEC64AB5EEC04AF1EE10FA42
:1027D800CCBF4FF001094FF00009F5EEC04AF1EE09
:1027E80010FA76D476EEC76AF5EEC06AF1EE10FA02
:1027F800CCBF4FF0010A4FF0000AB5EEC05AF1EE17
:1028080010FA69D437EEC77AB5EEC07AF1EE10FA4D
:10281800CCBF4FF0010B4FF0000BF5EEC05AF1EEB4
:1028280010FA00F19B8077EEC67AF5EEC07AF1EEE9
:1028380010FACCBF01270027B9F1000F09D0039A7D
:1028480002990198B218491B05930830FFF7BCFAA2
:10285800059BBAF1000F09D0039A02990198B218A2
:10286800691805930830FFF7AFFA059BBBF1000F15
:1028780009D0039A02990198921B691805930830A8
:10288800FFF7A2FA059B4FB1039A02990198921B90
:10289800491B05930830FFF797FA059BA6425FDBB3
:1028A800013604EB4602EE4202F1010202D1A542D2
:1028B80002DB0024A54255DA013502EB4502541C1F
:1028C800002D7FF747AF35E7012239E74FF00109BF
:1028D80083E74FF0010A90E74FF0010B9DE7F1EE17
:1028E80010FA32D536EEC64AB5EEC04AF1EE10FA05
:1028F800CCBF4FF001094FF00009F5EEC04AF1EEE8
:1029080010FA25D576EEC76AF5EEC06AF1EE10FA30
:10291800CCBF4FF0010A4FF0000AB5EEC05AF1EEF5
:1029280010FA18D537EEC77AB5EEC07AF1EE10FA7C
:10293800CCBF4FF0010B4FF0000BF5EEC05AF1EE93
:1029480010FA3FF570AF002776E7DDF81090D4E76E
:102958004FF0000AE1E74FF0000BEEE701276BE7C5
:102968002246A7E71446ABE77A008BFCFA21094018
:1029780000000000008066402DE9F04F1F4685B03A
:1029880014460830DDF838A0A7EB01089DF83C3064
:102998000D46AAEB0209B8F1000F0393B8BFC8F1BE
:1029A8000008B9F1000F0290B8BFC9F100099245BB
:1029B8008CBF01224FF0FF328F428CBF4FF0010BCA
:1029C8004FF0FF3B394601925246FFF7FDF9A8EB5D
:1029D8000906DDE90203BD4201D1544516D0294656
:1029E800224603930290FFF7EFF9C9F10001720044
:1029F800B1EB460FBCBFA6EB09065D449045DDE987
:102A08000203E8DD019A46441444E4E705B0BDE852
:102A1800F08F2DE9F3479DF830C005460C46164661
:102A28001F46DDF828809DF82C90BCF1000F10D0CF
:102A3800A7422AD3B246D04509D352464B4621462F
:102A480005F108000AF1010AFFF7BEF9F3E70134BE
:102A5800EEE7CDE90029FFF78FFF3B4632463946BE
:102A68002846CDE90089FFF787FF234642463946C5
:102A78002846CDE90089FFF77FFF234642462146D5
:102A88002846CDE90069FFF777FF02B0BDE8F08777
:102A980070B500245F4D604E2C6005F1E8006C6154
:102AA8002C62EC6301F0EAFB5C4B5D4A2846C5F8F2
:102AB800A03140F20F73C5F8F840A5F8A43105F528
:102AC800DC73C5F8B441C5F8A83140F20113554983
:102AD800C5E96B3405F51043534DC3F84C22324613
:102AE800C3F8544211F0F8F832465049504811F0F2
:102AF800F3F832464F49504811F0EEF84F4800239A
:102B080001224F4903604360027232460462436205
:102B18008462C0E9064411F0DFF84FF07D5349485C
:102B2800324649498361C46111F0D6F832464749B3
:102B3800204611F0D1F832464549204611F0CCF82C
:102B480032464449444811F0C7F83246414943489F
:102B580011F0C2F832463F49414811F0BDF83246FB
:102B68003C49404811F0B8F828463F49FEF720F99B
:102B780005F118003D493E4DFEF71AF932463D4928
:102B8800204611F0A9F828463B49FEF711F905F14E
:102B980018003A49FEF70CF905F130003849FEF7FC
:102BA80007F905F148003749FEF702F905F1600019
:102BB8003549FEF7FDF805F178003449FEF7F8F8D5
:102BC80005F190003249FEF7F3F805F1A800314904
:102BD800FEF7EEF805F1C0002F49FEF7E9F805F118
:102BE800D8002E49FEF7E4F805F1F0002C49FEF76D
:102BF800DFF805F584702B49FEF7DAF805F59070D3
:102C08002949FEF7D5F8324620462849BDE87040E4
:102C180011F062B894050024000000240080707F41
:102C2800604C0108450D000828040024470D0008E1
:102C3800949A0224490D000828990024F098002449
:102C48004B0D0008F8990224A50D0008630D000833
:102C5800590E0008430D0008209A0224589A0224AD
:102C680088990224C0990224304C0108344C010888
:102C780058040024650D0008384C01083D4C010833
:102C8800414C0108454C0108494C01084D4C0108CC
:102C9800474C01084F4C0108434C01083F4C0108C0
:102CA8003A4C0108514C0108544C0108810D0008A8
:102CB800704700BF202882B009D8084B03EB4002B8
:102CC80013F81030507843EA002002B0704701230F
:102CD8000C2043EA002002B0704700BF944D010861
:102CE800143001F0D3B900BF90ED0E0A704700BF51
:102CF80010B540F203338EB000244FF60B7240F249
:102D08000341ADF8083009A80123ADF81020ADF84B
:102D180024202246ADF80C100094029907940C94D4
:102D2800CDE90544CDE90A4402F048F804A8012396
:102D380022460399009402F041F809A802F024F908
:102D480010B901200EB010BD04A802F01DF9A04270
:102D58000CBF022020460EB010BD00BF2DE9F04187
:102D680003239AB0012700240646CDE914373B4BCC
:102D7800CDE9104340F20453CDE91647ADF8483089
:102D8800FFF7B6FFB842054625D0022845D040F6E1
:102D98000132334B0DF12C081894ADF82C200B9808
:102DA8001997CDF84A3000F0D7F810A906F13C0081
:102DB80003F032F9302003224FF07E5341460D9341
:102DC8000E93CDE90B02F26B06F1140001F01EF927
:102DD8001AB0BDE8F0811023214A06A906908DF8A3
:102DE80028300DF12C081F4BCDF84A200793029488
:102DF800CDE91804CDE9080402A802F045FB082330
:102E0800029A03A94046ADF80C508DF80E4004957F
:102E180005930B9400F0E0F8C7E700200121104B60
:102E28000DF12C083A460094CDF84A304FF60B7352
:102E38000C94ADF82C302346CDE9180140F6013149
:102E48004046ADF818100699CDE90D4401F0B6FFDB
:102E58002146404602F0A4F8A7E700BF0402040494
:102E6800040604030704010B2DE9F04304462DED85
:102E7800028B83B0002948D0012140F201120023BF
:102E88000091ADF804208DF80630304A0126304B09
:102E9800271D304904F12908626040F20272A360DC
:102EA80040F60663E16004F125092682A4F825208E
:102EB80084F82760A4F8293084F82B6004F032FEE7
:102EC8006946054648B304F130008DF8066004F001
:102ED8007FFD072D34D104F114052046FFF73EFF8E
:102EE800284601F0CFF82846B0EE408A01F0C6F82F
:102EF800D0ED007AF8EE677A88EE277A84ED0E7ABC
:102F080003B0BDEC028BBDE8F08340F201130091E1
:102F18008DF80610ADF80430B7E704F1300004F07E
:102F280057FD3946204602F0F7FC484602F042F8C1
:102F3800404602F03FF804F1120000F077F9CAE7C2
:102F48003946204602F0E8FCC5E700BF0508050938
:102F580005070506050A060610B584B003460124D0
:102F6800ADF8040003A8ADF80C30ADF80E4002F03F
:102F780021F8214603A802F007F9204604F05CFC7A
:102F8800002103A802F000F9204604F055FC214670
:102F980003A802F0F9F804B010BD00BF10B5C2F3E1
:102FA800002384B00C46017C8DF80D2043EA4402CE
:102FB800FA2402238DF80C2003AA009402F0FAFAEE
:102FC80018B10124204604B010BD04460A2004F0BC
:102FD80033FC204604B010BD034670B543F8042BFB
:102FE800044684B007C983E80700A37983B91A2186
:102FF8000B461E22FA2523742046ADF80C20022326
:1030080003AA009502F0D6FA28B1012004B070BDD9
:103018001B210B46EDE70A2004F00EFC4FF4B852D2
:1030280000950223ADF80C20204603AA217C02F06B
:10303800C1FA0028E9D10A2004F0FEFB41F202722D
:1030480000950223ADF80C20204603AA217C02F04B
:10305800B1FA0028D9D10A2004F0EEFB0422009529
:103068000223ADF80C20204603AA217C02F0A2FA24
:103078000028CAD10A2004F0DFFB062200950223AB
:10308800ADF80C20204603AA217C02F093FA002810
:10309800BBD10A2004F0D0FB41F20822009502239C
:1030A800ADF80C20204603AA217C02F083FA002800
:1030B800ABD10A20064604F0BFFB0095022303AA01
:1030C800217C2046ADF80C6002F074FA00289CD1EF
:1030D800304604F0B1FB009522790C232046002AE3
:1030E8008DF80C3003AA4FF0020314BF622142216D
:1030F8008DF80D10217C02F05DFA002885D130464C
:1031080004F09AFB2279D4E902310B43DBB20AB905
:1031180043F0400362790AB143F020030E22FA25F6
:103128008DF80D302046009502238DF80C2003AA57
:10313800217C02F03FFA00287FF467AF0A2004F0F0
:103148007BFB102200950223ADF80C20204603AA31
:10315800217C02F02FFA00287FF457AF0A2004F0F0
:103168006BFB122100950223ADF80C1003AA217CF9
:10317800204602F01FFA00287FF447AF0A2004F027
:103188005BFB012209212046FFF708FF003818BF22
:1031980001203BE7F0B5102387B0234C012200251E
:1031A8000126002702A920460195CDE902234FF404
:1031B8008052CDE904670BF0CBFC642004F058FF83
:1031C80002A94FF480522046CDE904670226102751
:1031D800CDE902670BF0BCFC0322102302A92046AC
:1031E800CDE9022300230422CDE904234FF48052C1
:1031F8000BF0AEFC40F23223042202A90193102303
:103208002046CDE90223019A012305924FF480520A
:1032180004930BF09DFC40F6060120460BF0B8FC29
:10322800284607B0F0BD00BFE89A04241C4B0022D2
:103238001C494FF0400C30B5054689B00220596052
:1032480007219A601A620124DA620A224FF4006E9A
:10325800DC6006922022CDE9000104200821CDE996
:10326800020103201021CDE9040108206946C3E9C1
:1032780004024FF4C072181DC3E906C24FF480520D
:10328800C3E909E20BF03AFC38B92846FFF782FF98
:10329800003818BF012009B030BD204609B030BD44
:1032A800E49A042440410052614A0021D0B51368D1
:1032B8008EB00A91002B40F0B9805E4B01214FF689
:1032C80083700C2411600221D3F8D4200026032730
:1032D80042F48052C3F8D420D3F8D42002F48052A8
:1032E8000092009AD3F8E02042F01002C3F8E020E0
:1032F800D3F8E02002F010020192019AD3F8E020FE
:1033080042F04002C3F8E020D3F8E02002F0400287
:103318000292029AD3F8E02042F00802C3F8E020B3
:10332800D3F8E02002F008020392039AD3F8E020D1
:1033380042F48072C3F8E020D3F8E02002F48072EF
:103348000492049AD3F8E02042F08002C3F8E02007
:10335800D3F8E02002F080020592059AD3F8E02025
:1033680042F02002C3F8E020D3F8E02002F0200267
:103378000692069AD3F8E02042F00402C3F8E0204F
:10338800D3F8E0300C9403F0040307930323079A5F
:103398000B93CDE9080108A9274806F01BFE48F25F
:1033A8003712022308A925480C94CDE90823CDE952
:1033B8000A6706F00FFE4CF20372022308A92048A0
:1033C8000C94CDE90823CDE90A6706F003FE40F224
:1033D800FF62022308A91B480C94CDE90823CDE914
:1033E8000A6706F0F7FD4FF60C72022308A9164883
:1033F8000C94CDE90823CDE90A6706F0EBFD4FF6FA
:103408003F02022308A911480C94CDE90823CDE90D
:103418000A6706F0DFFD2022022308A90A480C9457
:10342800CDE90A67CDE9082306F0D4FD0EB0D0BD7A
:10343800E09A042400440258001002580018025868
:10344800000C025800200258001C025800140258B0
:103458002DE9F04FDFF8108406460D46144608F1B2
:1034680018002DED028B89B000AF02F0CDFED8F820
:10347800183073B3D8F81C30D8F80490002B43697F
:103488000BBF4FF0080A4FF0100A4FF0020B4FF035
:10349800040BB9F1000F2AD0A200EA46012B02F171
:1034A800070222F00702ADEB020D6846ADEB020DF4
:1034B800694600F03F81022B00F0D680002B6FD0C8
:1034C8002246C847D5462437BD46BDEC028BBDE829
:1034D800F08FD8F81C30002BF5D0D8F804904FF0B6
:1034E800080A4FF0020B4369B9F1000FD4D1FB6110
:1034F800D8F80030BB61002BE5D0D54802F0F6FEC5
:103508006B46BBF1020F786108EE103AFB6900F0D8
:1035180083816A465146A2EBC40295466200EA4698
:10352800B2FBFBF2AAEBC40085460AEB8200EE462A
:10353800F861ADEB010DF8690EEB820CC7F810C00D
:10354800EC46ADEB010D00EB8201CCF80400CCF8A1
:10355800081001EB82013869E946CCF80C1000EB41
:103568008201CCF800A001EB8202C9E900E0C9E9B8
:103578000212012B00F06483022B00F06C82002BF6
:1035880000F08081620849466046BB69984718EE9A
:10359800103A24379D46BD46BDEC028BBDE8F08F3E
:1035A800002C8DD01A46D8ED0C6A9FEDB27A84466D
:1035B800331D36F922E00CF1080C07EE90EA33F9D6
:1035C80022E00232F8EEE77A944267EE877A67EEF5
:1035D800A67A4CED027A07EE90EAF8EEE77A67EE03
:1035E800877A67EEA67A4CED017AE2D8F96122462D
:1035F800C847984ED8ED0D6A0020F9692B1D9FED3C
:103608009E7A9FED9E6ADFED9E5A22E0F4EEC67A1E
:10361800F1EE10FAC0F2C88447F6FE72D1ED017AD5
:1036280045F8202066EEA77AF4EEC77AF1EE10FA94
:1036380040F2F080F4EEC67AF1EE10FAC0F2D584CA
:1036480047F6FE7243F820200230083184427FF6A4
:1036580039AFD1ED007A66EEA77AF4EEC77AF1EECB
:1036680010FAD3D83246D9E7002C3FF429AFD8ED69
:103678000C6A84469FED787A0022331D8E4656F8F0
:1036880022100CF1080C07EE901A53F8221002329F
:10369800F8EEE77A944267EE877A67EEA67A4CED01
:1036A800027A07EE901AF8EEE77A67EE877A67EE05
:1036B800A67A4CED017AE2D871462246C7F81CE09A
:1036C800C847664ED8ED0D6A0020F9692B1D9FED9D
:1036D8006A7A9FED6A6ADFF894C120E0F4EEC67A50
:1036E800F1EE10FAC0F279843246D1ED017A45F84C
:1036F800202066EEA77AF4EEC77AF1EE10FA40F2CF
:103708008780F4EEC67AF1EE10FAC0F25E84324693
:1037180043F820200230083184427FF6D3AED1ED41
:10372800007A66EEA77AF4EEC77AF1EE10FAD5D8E9
:103738006246DAE7002C3FF4C3AED8ED0C6A864641
:103748009FED477A4FF0000C331D56F82C200EF1F0
:10375800080E82F40002A2F5000207EE902A53F840
:103768002C200CF1020CF8EEE77A82F40002644592
:10377800A2F5000267EE877A67EEA67A4EED027A26
:1037880007EE902AF8EEE77A67EE877A67EEA67A70
:103798004EED017AD9D8F9612246C847314ED8EDA5
:1037A8000D6A0020F9692B1D9FED337A9FED336A6E
:1037B800DFF8BCC01FE0F4EEC67AF1EE10FAC0F2F2
:1037C800FC833246D1ED017A45F8202066EEA77ACF
:1037D800F4EEC77AF1EE10FA18D9F4EEC67AF1EEE3
:1037E80010FAC0F2DA83324643F82020023008315A
:1037F80084427FF667AED1ED007A66EEA77AF4EEE2
:10380800C77AF1EE10FAD6D86246DBE76246EBE7F4
:1038180062467DE7324615E7A100D64662080731C1
:1038280021F00701ADEB010DEA46ADEB010D69464C
:10383800ADEB0E0D0AEB8200EC46ADEB0E0D01EB85
:103848008202F861E946CCE900A0C9E9001290E6D5
:10385800389B04240280FFFF000000300082FF7FB5
:103868000000003482FF7F001C9B0424007E00803F
:103878007E0080FF0000003804FF7FBF04FF7F3F09
:1038880000FEFF46002C00F0C982BBF1020FD8F8F9
:10389800242000F0FA827969C7F8049002EB810EBF
:1038A8005FED0C5A8A00DCF808100EF104007A610A
:1038B8001A46DCF80C303B61331DD7F810903D6197
:1038C800FD69C7E902CB8C46834636F92210D8ED4C
:1038D8000C7A06EE101A33F9221006EE901A3EF909
:1038E8002210B8EEC66A07EE101AF8EEE66A3BF93F
:1038F8002210B8EEC77A26EE256A66EEA56A27EE8C
:10390800257A26EE276A66EEA76A27EE277A07EE5B
:10391800901A51080232F8EEE77A0AEB81009442D5
:1039280080ED006A05EB810067EEA57AC0ED006ABC
:103938000CEB810009EB810180ED007A98ED0C7A9F
:1039480067EE877AC1ED007ABFD8D7F804903D6951
:10395800D7E902CB60466208BB6949469847D8F860
:103968002C307A69D8ED0D6A1A441FED3D7A1FEDA7
:103978003D6A2B1D904602F1040A5FED3F5A002272
:10398800A84ED9E900EC51E0F4EEC67AF1EE10FA4F
:10399800C0F2C78247F6FE7045F822000CEB010022
:1039A800D0ED007A66EEA77AF4EEC77AF1EE10FA57
:1039B8004BD9F4EEC67AF1EE10FAC0F2BA8247F6A5
:1039C800FE70BBF1020F43F822002BD0D9F8080093
:1039D8000844D0ED007A66EEA77AF4EEC77AF1EEE5
:1039E80010FA36D9F4EEC67AF1EE10FAC0F2CD82AA
:1039F80047F6FE7048F82200D9F80C000144D1EDD2
:103A0800007A66EEA77AF4EEC77AF1EE10FA1ED9BC
:103A1800F4EEC67AF1EE10FAC0F2AF8247F6FE7104
:103A28004AF82210023294427FF6B1AD51080EEBEB
:103A380081008900D0ED007A66EEA77AF4EEC77AA5
:103A4800F1EE10FAA0D83046A6E73046B9E731467D
:103A5800E6E73046CEE7002C00F0E081BBF1020F2C
:103A6800D8F8243000F0E1817A69DCF8081003EB1B
:103A7800820EC7F804909300DFED6B5A0EF1040034
:103A880000227B61DCF80C303B61331DD7F81090C5
:103A98003D61FD69C7E902CB8C46834656F8221082
:103AA800D8ED0C7A07EE101A53F82210B8EEC76A50
:103AB80007EE101A5EF82210F8EEC76A07EE101A21
:103AC80026EE256A5BF82210B8EEC77A66EEA56A7C
:103AD80026EE276A27EE257A66EEA76A27EE277A6A
:103AE80007EE901A51080232F8EEE77A0AEB8100E5
:103AF800944280ED006A05EB810067EEA57AC0ED7F
:103B0800006A0CEB810009EB810180ED007A98EDE9
:103B18000C7A67EE877AC1ED007ABFD8D7F804909F
:103B28003D69D7E902CB60466208BB6949469847B8
:103B3800D8F82C307A69D8ED0D6A1A449FED3E7A90
:103B48009FED3E6A131D9246DFF8E4C00022FB6138
:103B58002B1D364ED9E9008E4EE0F4EEC67AF1EE12
:103B680010FAC0F2FC81304645F822000EEB010045
:103B7800D0ED007A66EEA77AF4EEC77AF1EE10FA85
:103B880049D9F4EEC67AF1EE10FAC0F2EF81304668
:103B9800BBF1020F43F822002AD0D9F808000844E4
:103BA800D0ED007A66EEA77AF4EEC77AF1EE10FA55
:103BB80035D9F4EEC67AF1EE10FAC0F2C981304672
:103BC8004AF82200D9F80C000144D1ED007A66EEDB
:103BD800A77AF4EEC77AF1EE10FA1ED9F4EEC67A97
:103BE800F1EE10FAC0F2AD813146F86940F82210C2
:103BF800023294427FF6CBAC510808EB8100890071
:103C0800D0ED007A66EEA77AF4EEC77AF1EE10FAF4
:103C1800A3D86046A8E76046BAE76146E5E760468C
:103C2800CEE700BF0280FFFF000000300082FF7F68
:103C3800007E00800000003404FF7FBF04FF7F3F48
:103C4800002C00F0EB807A690021D8F82430C7F8FE
:103C5800109003EB820ED7F81C909300FD610EF1D3
:103C680004021FED0C6A7B61331D154656F82120AE
:103C78004808D8ED0C6ABBF1020F82F40002A2F5E5
:103C8800000207EE902A53F8212082F40002B8EED1
:103C9800E77AA2F5000227EE067A07EE902A0AEBE9
:103CA8008002F8EEE77A27EE267A67EE867A82EDCA
:103CB800007A09EB80024FEA800067EEA67AC2ED2F
:103CC800007A27D05EF8212082F40002A2F50002D3
:103CD80007EE902A55F8212082F40002B8EEE77A20
:103CE800A2F5000227EE067A07EE902ADCF80820F3
:103CF800F8EEE77A024427EE267A67EE867A82EDB6
:103D0800007A98ED0C7ADCF80C2067EE877A02448A
:103D1800C2ED007A02318C42A8D8D7F810906046DC
:103D28006208BB694946FD699847D8F82C307A691A
:103D3800D8ED0D6A1A441FED407A1FED406A131D35
:103D48009246DFF8C4C20022FB612B1DAB4ED9E9B5
:103D5800008E4EE0F4EEC67AF1EE10FAC0F2C5809D
:103D6800304645F822000EEB0100D0ED007A66EEF1
:103D7800A77AF4EEC77AF1EE10FA49D9F4EEC67ACA
:103D8800F1EE10FAC0F2BF803046BBF1020F43F8E3
:103D980022002AD0D9F808000844D0ED007A66EE4F
:103DA800A77AF4EEC77AF1EE10FA35D9F4EEC67AAE
:103DB800F1EE10FAC0F2AE8030464AF82200D9F887
:103DC8000C000144D1ED007A66EEA77AF4EEC77ACA
:103DD800F1EE10FA1ED9F4EEC67AF1EE10FAC0F23E
:103DE8008B803146F86940F82210023294427FF6FF
:103DF800CEAB510808EB81008900D0ED007A66EE61
:103E0800A77AF4EEC77AF1EE10FAA3D86046A8E7CD
:103E18006046BAE76146E5E76046CEE7224649468E
:103E28006046BB699847FFF7B2BBC7F810B00022DD
:103E380098ED0C6A331DDFED726AD7F81CB078690B
:103E480056F8221007EE901A53F82210B8EEE77AC7
:103E580007EE901A51080232F8EEE77A27EE267A32
:103E68000AEB810E94420BEB810167EEA67A27EEEE
:103E7800067A67EE867A8EED007AC1ED007ADFD891
:103E88008300D7F810B07B614DE61A46C7F810B02A
:103E980098ED0C6A331DDFED5B6AD7F81CB07869C2
:103EA80036F9221007EE101A33F9221007EE901A8D
:103EB800B8EEC77A51080232F8EEE77A27EE267A8A
:103EC8000AEB810E94420BEB810167EEA67A27EE8E
:103ED800067A67EE867A8EED007AC1ED007ADFD831
:103EE8008300D7F810B07B6134E5F0EE675AFEEE38
:103EF800E45A15EE900A34E7F0EE675AFEEEE45AFB
:103F080015EE901A6EE7F0EE675AFEEEE45A15EEDB
:103F1800900A3AE7F0EE675AFEEEE45A15EE900A78
:103F28004BE767EEA57AFDEEE77A17EE900A00B246
:103F380032E567EEA57AFDEEE77A17EE900A00B251
:103F48003FE5F0EE675AFEEEE05A15EE901A4CE6A1
:103F5800F0EE675AFEEEE05A15EE900A30E6F0EE03
:103F6800675AFEEEE05A15EE900AFDE5F0EE675A44
:103F7800FEEEE05A15EE900A0AE667EEA57AFDEE27
:103F8800E77A17EE901A09B24AE567EEA57AFDEED0
:103F9800E77A17EE900A00B22CE5F0EE675AFEEECB
:103FA800E45A15EE902A1FE467EEA57AFDEEE77A4B
:103FB80017EE902A12B2FFF731BBF0EE675AFEEE09
:103FC800E45A15EE902AFFF7FDBBF0EE675AFEEEB5
:103FD800E05A15EE902AFFF79BBBF0EE675AFEEE0B
:103FE800E05A15EE902AFFF780BB67EEA57AFDEE42
:103FF800E77A17EE902A12B2FFF724BB82FF7F0000
:1040080000000030000000387E0080FF30B5184CFA
:10401800154685B0046004F1080EEC460FC98EE819
:104028000F00D4ED047AF5EEC07A8CE80F00F1EEBB
:1040380010FA1ADDB7EE006A94ED057A27EE277AB2
:10404800C6EE276A84ED0D7AC4ED0C6A6DB1204680
:1040580040F8185F02F0D8F8064903690020064ABC
:104068002162A262E36005B030BD012005B030BD19
:104078001C9B042400200030000000300068083039
:10408800704700BF0068183002F01EB930B50468E8
:1040980083B00D46E3694BB1A3680020E26A616A08
:1040A8009B00009004F11C0002F0B0F8A3680748D8
:1040B800A26A9B00216A009004F1180002F0A6F899
:1040C8000020C4E9005003B030BD00BF59340008D7
:1040D80010B4074B4FF07E513024002203201961A1
:1040E8009C60D8605DF8044B5961C3E906227047AB
:1040F8001C9B0424F6EE007A9FED166A20EE207AC7
:104108000160F7EE006A80ED036A80ED020A27EE8F
:10411800277AC6EE877AF4EEE67AF1EE10FA11DD28
:10412800F0EE667A4FF07E514FF0000C02760022D6
:10413800C0ED017AC0F814C0016143768276C0ED03
:10414800070A7047F4EEC67AF1EE10FAEAD5F0EEF7
:10415800467AE7E7000000000268037E128807EE4F
:10416800902AFBEEC87A1BB1B7EE007A77EE677A31
:10417800D0ED056A90ED047A77EEE67A437E67EE35
:10418800877A0BB1F1EE677A90ED030A90ED017A28
:1041980077EEC07AA7EE270A80ED030A704700BFC2
:1041A80030B585B004460025ADF80C10ADF80820F0
:1041B800ADF8043003F038FBBDF80C204FF48073E1
:1041C800206004F118002283BDF808206383E3838C
:1041D800A283257100F0EEFE04F11C0000F0EAFE57
:1041E8009FED060A019904F1080000F0E7F84FF680
:1041F800FF736562238405B030BD00BF0000000076
:10420800F8B5044603F010FB0026236826718342A4
:1042180005D104F10800BDE8F84000F0E9B801272D
:1042280094F82050206004F11800BD40277100F078
:104238009DFF6DB2284394F82150BD4084F82000BA
:1042480004F11C0000F092FF94F820306DB2666211
:1042580003F003032843022BC0B284F8210009D0DD
:1042680000F003000228D4D1002BD2D14FF0FF3345
:104278006362CEE78307CCD16762CAE7074A118831
:1042880030B481800024064D91884FF48072856097
:104298000460C180C26030BC704700BF944B010805
:1042A8000040003000220A2302700371704700BFEB
:1042B800DFED167A8C46B4EE670A10B504468646DA
:1042C800F1EE10FA2DED028B80ED080A48BFB0EE32
:1042D800670AC0ED090AB0EE608A80F83420BCE8AD
:1042E8000F00AEE80F009CE80F008EE80F0010F0FA
:1042F8003BF9F0EE407AB0EE480AC4ED0A7A10F0C5
:1043080033F984ED0B0ABDEC028B10BD95BFD63393
:1043180090F8343010B50446032B4BD8DFE803F08F
:104328003B2A1502FFF718FF60EE006AD4ED087A01
:1043380094ED097A26EE800A37EE677AE0EE077A7E
:10434800C4ED0C7AB0EE670A10BDFFF705FF94EDD7
:104358000A7AD4ED0B7A77EEC77AA0EE277AB0EE18
:10436800470A10F08FF8F0EE407A84ED0C0AB0EEB0
:10437800670A10BDFFF7F0FED4ED087A94ED097ACC
:1043880020EE000A37EE677AE0EE077AB0EE670AA9
:10439800C4ED0C7A10BDFFF7DFFED4ED087A94ED7A
:1043A800097A37EE677AE0EE077AB0EE670AC4ED6D
:1043B8000C7A10BDD0ED0C7AC4E700BF70B5044686
:1043C80082B0C1F30726CDB2ADF8041003F02CFA81
:1043D8004FF480724FF001232060A01DA571A280C8
:1043E800E671A36002B0BDE8704000F0E3BD00BF15
:1043F80038B5044603F018FA002223682271834274
:1044080010D00122A57AE37A954020602271A01D80
:104418006DB243B900F0AAFE40B22843C0B27F286B
:10442800A0720AD038BD00F0A1FEB0FA80F04009B1
:104438002843C0B27F28A072F4D103F0F5F907EE43
:10444800900AF8EE677AC4ED037A38BD00B583B0F8
:104458004FF0000E4FF0030C4274ADF80410BDF895
:10446800043080F810E0A0F802C0038003B05DF8C3
:1044780004FB00BF2DE9F04FDFF81C8300258DB049
:10448800C04C037008F140034260074601920E4693
:10449800202229464046C4F86831C4F86481CDE931
:1044A8000255CDE90455CDE90655CDE90855CDE9C4
:1044B8000A5510F03BFA2022294604F5A170C4F8E9
:1044C8003151C4F83551C4F83951C4F83D5110F090
:1044D8002DFA019B84F8485284F830317A68002A12
:1044E8006AD02B4604F59871454606F1100A9E4697
:1044F800F01856F803B0E2180EF1010ED0F80CC00F
:10450800D0F80490D0F8088044F803B0C2F80CC082
:104518004FF0000CC2F80490C2F80880008A25F811
:1045280002CB10821AF8032001F8012F002A70D05C
:104538007A684FF001001233724584F84802D7D8E0
:104548004FF4802290489DF8043008214FF000086D
:104558004FF00009C4F884310023C4E95B0201224A
:10456800C4F8743184F88031C4E95E2194F84812A3
:10457800C4E96489A9B3C4F89821002284F8813178
:1045880084F888313B78C4E96722002B38D00122AF
:1045980000200121013B84F8A421C4E96C01082B07
:1045A80030D8DFE813F0BD00C200C700CC00D1004E
:1045B800D600DB00E100E8009DF804300121C4F8D2
:1045C8007421C4F884314FF4802384F880216E4A22
:1045D800C4E95B2308230022C4E95E130023C4E96D
:1045E80064230123002284F88131002384F8883170
:1045F8000323C4F898313B78C4E96722002BC6D15D
:1046080084F8A431614804F06BF9034638B1FFBE61
:10461800FEE77A68123372453FF66AAF90E702A95F
:104628005A48029304F0BAFA8246002876D1042246
:1046380040F2FF710A90CDE9081294F83021002A5F
:1046480000F0F3804FF006080AEBCA034FEACA09E4
:1046580004EB43035B7C072B07D8DFE803F0595CC6
:104668005653504D4A04072307930FFA8AF6D1444C
:1046780006EBC60604EB490904EB46077500384605
:1046880000F098FC99F81030042B00F3AA80022B54
:1046980000F3BD8000F0B98004EB0A03002283F820
:1046A800202114F81630002B78D0022B00F08A80D5
:1046B800012B40F0B2807B78012B00F0B080002BFA
:1046C800334B18BF002305A93048CDE9053803F05E
:1046D80033FD002840F0AC800AF1010A94F830312B
:1046E8005FFA8AFA534540F2A0802A4B53F82A8091
:1046F800AAE706230793B8E705230793B5E704233A
:104708000793B2E703230793AFE702230793ACE7C6
:1047180000230793A9E701230793A6E7FFBEFEE757
:1047280003224023C4E96A236CE707226023C4E913
:104738006A2367E70F228023C4E96A2362E71F22FE
:10474800A023C4E96A235DE73F22C023C4E96A23A2
:1047580058E77F22E023C4E96A2353E7FF224FF496
:104768008073C4E96A234DE740F2FF124FF4907357
:10477800C4E96A2346E740F2FF324FF4A073C4E964
:104788006A233FE7589B042400200240C49C042469
:104798000002B025D84D0108004100307B78062B77
:1047A80037D0072B3DD0022B4AD0032B4AD0002B01
:1047B8004CD0012B48D0042B4AD0052B254B18BFD1
:1047C800002380E77B78042B25D0052B2BD08BB3D7
:1047D800012B31D0022B31D0032B1F4B18BF0023E4
:1047E80071E70323043504EB0A0B4FF00009254455
:1047F8008BF82031284609F1010900F0DBFB9BF812
:10480800203104354B45F5DC4BE70123EAE7022369
:10481800E8E7124B57E7124B55E7002353E7114BD4
:1048280051E7114B4FE7114B4DE70DB0BDE8F08F45
:10483800FFBEFEE70E4B46E70E4B44E70E4B42E742
:104848000E4B40E70E4B3EE70E4B3CE70E4B3AE76C
:104858000E4B38E70000B84F002090360800900C47
:104868001000C0102000F0148000501D00018021AD
:104878000004002A0008302E001060320040C03AC0
:104888000080F03E00005247000021430000844BA6
:1048980038B5094C40F2FF724FF0011104F5B675B6
:1048A800284604F029F994F83021D4F864112846F0
:1048B800BDE8384003F094BE589B0424034B0F29ED
:1048C800D3F8640198BF00EB41007047589B04245B
:1048D800214B02689A4200D07047204A00232048A2
:1048E800D2F8D81030B51F4C41F0200183B0C4F87D
:1048F800D001092004F5E875C4E975034FF4806018
:10490800C2F8D810D2F8D8204FF40061C4E9773043
:1049180094F8480202F02002C4F8E4114FF4005160
:10492800984201922846C4F8E811C4E97C33019BF7
:1049380014BF00234FF48073C4F8EC3104F080FCFA
:1049480008B1FFBEFEE704F5B673C4F8B851C4F861
:10495800083203B030BD00BF0020024000440258B6
:1049680040000240589B0424014804F0E1BF00BF06
:10497800289D042402682DE9F84F4B4B9A4201D038
:10498800BDE8F88F494D95F84832002BF8D095F8D6
:104998003031002B77D0002405F10C0905F5A176FC
:1049A80005F59877A04613E003F0010117F811BC4C
:1049B800A9F1080000F0E8FBBBF1010F25D895F834
:1049C8003031013409F112090236A2B293422BD9CF
:1049D80017F8012F002AF4D0D5F864310021327875
:1049E80033F81400D5F8683103EB041323F81200E8
:1049F800338801339BB233805FFA83FA3A789A425C
:104A0800D2D88A46A6F80080D0E7CAF34001A9F1B7
:104A1800040000F0B9FBBBF1020FCAF38001CED04D
:104A2800484600F0B1FBCAE7002395F84802204940
:104A380009229842C5F8D8314FF48060C5F8D011E2
:104A4800C5F8D4214FF400614FF40052C5F8DC31A9
:104A580008BF4FF48073C5F8E821C5E97801002242
:104A68001448C5E97B32C5F8F42104F0E9FB08B124
:104A7800FFBEFEE795F83021D5F864110E48BDE871
:104A8800F84F03F0ADBD0A4909224FF48060C5F81C
:104A9800D831C5E974124FF400614FF40052C5E9EA
:104AA8007730C5E97912DAE700200240589B0424E0
:104AB80040000240289D0424C49C0424704700BF81
:104AC8004F4B02689A4200D070474E4BD3F8E8101B
:104AD80030B541F000514C4C85B0D4F84821C3F8AA
:104AE800E810D3F8E81001F0005101910199D3F8CA
:104AF800E01041F00101C3F8E010D3F8E03003F012
:104B080001030293029B32F002033DD0013A012ACD
:104B18006BD9D4F84C31012B0AD00022362011462B
:104B280004F0B0F8362005B0BDE8304004F0E8B82D
:104B3800D4F8483133F0020234D0013B012BECD8D1
:104B4800442240233149324DC4F88C1000212846B4
:104B5800C4F8B010C4E9242300224FF48063C4E9E8
:104B680026234FF400624FF40053C4E928234FF47E
:104B780080724FF48033C4E92A2304F061FB80B9C2
:104B8800E560C4F8C440C8E74FF48062032303A873
:104B9800ADF80C208DF80E3000F00CFAD4F848214E
:104BA800B4E7FEE71B4BA2634322636140231A4D1F
:104BB800C4E9062300224FF480632846C4E9082389
:104BC8004FF400624FF40053C4E90A234FF4807293
:104BD8004FF48033C4E90C2304F032FB20B9D4F835
:104BE8004831A560E464A8E7FEE74FF4A062032318
:104BF80003A8ADF80C208DF80E3000F0DBF988E73B
:104C08000074004000440258A89D0424280402406F
:104C1800349E042410040240BC9D0424014804F07E
:104C280087BE00BFBC9D0424014804F081BE00BFBC
:104C3800349E042410B5054C204604F04DF904F5C3
:104C48008270BDE810400AF051B900BFA89D042445
:104C580030B58C463A4C3B4D8DB0046004F5A27ECD
:104C6800BCE80F00AEE80F00DCF8003020462560F5
:104C7800CEF8003004F0D2F80023D4F84C51039356
:104C8800C5B11622012D049217D00022D4F8541170
:104C9800D4F848319142CDE9062218BF0222059284
:104CA80033F0020235D0013B012B3CD900252846C0
:104CB8000DB030BD02230493E7E7234A0093C4F8FC
:104CC8000C31C4F81431C4F80421C4F81C31CDE9FE
:104CD800013302F025FFD4F844314BF68032C4F892
:104CE8000851002B08BF1346B0FBF3F304F582709C
:104CF800C4F8103109F064FF0028D8D120230290AD
:104D0800694604F5827000930AF0A8F90028BCD01F
:104D1800CDE703A90A4804F013F978B9D4F8483163
:104D2800013B012BC2D8102203A9054804F008F959
:104D3800051E18BF012528460DB030BD0125B6E770
:104D4800A89D042400740040001000402DE9F041A3
:104D58000668D6F84C5105BBD6F850310C461746B4
:104D6800002B0CBF4FF008084FF0000831F0020389
:104D780005D0013C012C14D92846BDE8F081134622
:104D8800294642463046013C04F08CF82946304614
:104D980004F05AF8012CEFD803E001252846BDE8B5
:104DA800F0813B4642461021304604F07BF8102142
:104DB800304604F049F82846BDE8F08110B592B0B5
:104DC800ADF804100180C9B2149C0B29C460C0E975
:104DD80001233FD090F801C0BCF10F0F3AD8022A46
:104DE8003FD0032A02D0012A00D000220E92012BC4
:104DF80002D0022B18BF0023022C0F932CD0032CB7
:104E08002AD0012C28D000230A29109327D85C4ADD
:104E180002EB812202610A2914D8DFE801F0A39588
:104E280087796B5D4F4133250600564BD3F8E01068
:104E380041F48061C3F8E010D3F8E03003F48063F4
:104E48000C930C9B01230DA9104603FA0CF30D9348
:104E580005F0C0F812B010BD0A291094D7D9002265
:104E6800D8E711220E92C2E7464BD3F8E01041F47E
:104E78000071C3F8E010D3F8E03003F400730B932B
:104E88000B9BDFE73F4BD3F8E01041F48071C3F888
:104E9800E010D3F8E03003F480730A930A9BD1E75B
:104EA800384BD3F8E01041F08001C3F8E010D3F894
:104EB800E03003F080030993099BC3E7314BD3F833
:104EC800E01041F04001C3F8E010D3F8E03003F0FF
:104ED80040030893089BB5E72A4BD3F8E01041F04C
:104EE8002001C3F8E010D3F8E03003F02003079363
:104EF800079BA7E7234BD3F8E01041F01001C3F854
:104F0800E010D3F8E03003F010030693069B99E70E
:104F18001C4BD3F8E01041F00801C3F8E010D3F8B7
:104F2800E03003F008030593059B8BE7154BD3F896
:104F3800E01041F00401C3F8E010D3F8E03003F0CA
:104F480004030493049B7DE70E4BD3F8E01041F073
:104F58000201C3F8E010D3F8E03003F00203039332
:104F6800039B6FE7074BD3F8E01041F00101C3F84A
:104F7800E010D3F8E03003F001030293029B61E7ED
:104F8800000002580044025808B50121437800691E
:104F9800994089B205F026FA003818BF012008BDEB
:104FA80001230A464178006903FA01F189B205F044
:104FB8001FBA00BF8378022B30B504468FB037D0B4
:104FC800032B33D0012B31D000230A93E378012B34
:104FD8002AD0022B28D000230B93002320460C93C1
:104FE80002F024FF0546204602F028FF23780990A6
:104FF800082B13D8DFE803F01F3245586B7E91A4C5
:105008000500594BD3F8E02042F48072C3F8E02041
:10501800D3F8E03003F480730893089B09A9284665
:1050280004F0D8FF0FB030BD0B93D6E70A93CDE755
:1050380011230A93CAE74C4B09A92846D3F8E02064
:1050480042F00102C3F8E020D3F8E03003F0010396
:105058000093009B04F0BEFF0FB030BD424B09A97E
:105068002846D3F8E02042F00202C3F8E020D3F843
:10507800E03003F002030193019B04F0ABFF0FB093
:1050880030BD394B09A92846D3F8E02042F0040284
:10509800C3F8E020D3F8E03003F004030293029B46
:1050A80004F098FF0FB030BD2F4B09A92846D3F85C
:1050B800E02042F00802C3F8E020D3F8E03003F023
:1050C80008030393039B04F085FF0FB030BD264B04
:1050D80009A92846D3F8E02042F01002C3F8E020DE
:1050E800D3F8E03003F010030493049B04F072FF3C
:1050F8000FB030BD1C4B09A92846D3F8E02042F078
:105108002002C3F8E020D3F8E03003F02003059331
:10511800059B04F05FFF0FB030BD134B09A928466B
:10512800D3F8E02042F04002C3F8E020D3F8E030A2
:1051380003F040030693069B04F04CFF0FB030BD0C
:10514800094B09A92846D3F8E02042F08002C3F8A9
:10515800E020D3F8E03003F080030793079B04F0C6
:1051680039FF0FB030BD00BF0044025838B50546BE
:1051780002F05CFE0446284602F060FE0146204626
:10518800BDE8384005F02EB970B506460D4602F068
:105198004DFE0446304602F051FE2A1E01462046C6
:1051A80018BF0122BDE8704005F022B90023122281
:1051B80070B586B0CDE9022304930368032B01D8A8
:1051C80004230593061D841D304602F02FFE054674
:1051D800304602F033FE034601A92846019304F045
:1051E800F9FE204602F022FE034620461C4602F045
:1051F80025FE01A903462046019304F0EBFE06B004
:1052080070BD00BF634A0368934210B58CB028D0C4
:10521800614A934258D0614A934200F09480604AB0
:10522800934201D00CB010BD5E4C5F48D4F8E0301A
:1052380043F00203C4F8E030D4F8E03003F002038E
:105248000A930A9BFFF7B2FFD4F8F43043F08003C7
:10525800C4F8F430D4F8F43003F080030B930B9BBC
:10526800E0E7504C5148D4F8E03043F00203C4F86A
:10527800E030D4F8E03003F002030193019BFFF71C
:1052880095FFD4F8E83000221F2043F4001311469C
:10529800C4F8E830D4F8E83003F400130293029B12
:1052A800D4F8D83043F00103C4F8D830D4F8D83053
:1052B80003F001030393039B03F0E4FC1F200CB0ED
:1052C800BDE8104003F01CBD364C3948D4F8E03036
:1052D80043F08003C4F8E030D4F8E03003F08003F2
:1052E8000493049BD4F8E03043F00203C4F8E030A0
:1052F800D4F8E03003F002030593059BFFF756FF4F
:10530800D4F8E8300022212043F480031146C4F881
:10531800E830D4F8E83003F480030693069BD4F809
:10532800D83043F00103C4F8D830D4F8D83003F0AB
:1053380001030793079B03F0A5FC21200CB0BDE8EF
:10534800104003F0DDBC1B48FFF730FF154B00226F
:105358004820D3F8E840114644F40004C3F8E84074
:10536800D3F8E84004F400040894089CD3F8D84023
:1053780044F00104C3F8D840D3F8D83003F001034F
:105388000993099B03F07EFC48200CB0BDE810404F
:1053980003F0B6BC0054004000580040005C0040D8
:1053A800001C0058004402589CA10424149F0424A3
:1053B800EC9F0424C4A004242DE9F0431A4B87B0C1
:1053C80000254FF010099E46EC46184BFF22E04698
:1053D80067461A700EF118060EF13004CDE9005533
:1053E800CDE90255ADF80090BCE80F00CDE90455B1
:1053F800AEE80F009CE803000095ADF800908EE839
:105408000300B8E80F000FC69CE803000095ADF84C
:10541800009086E803000FCF0FC49CE8030084E8DF
:10542800030007B0BDE8F08318000024109F04248F
:1054380010B5EFF3108472B6084B1A78120602D52D
:1054480004B962B610BD1B78D82205485BB202FBCE
:105458000300143004F06CFAF2E700BF109F042434
:10546800149F0424014805F05BBE00BFA09F0424DC
:10547800014805F055BE00BF78A00424014805F096
:105488004FBE00BF50A104242DE9F0430F68D82473
:105498003F4D85B007FB04F4032F05EB04030360BD
:1054A80040DCCB680E46012B3CD84DD04FF0D808D5
:1054B800B646DFF8FC9008FB0758BEE80F00C44664
:1054C800ACE80F00DEF800300DF1100ECCF800301B
:1054D800D8F808C099E80F000EE90F000EEB870313
:1054E800BCF1010F53F8103CC8F88C3031D0BCF136
:1054F800020F42D0BCF1000F35D0317C8C34D82358
:10550800002201202C4403FB07534900C3E926026B
:10551800C3F894102046C3E92822C3E92A2205F0DB
:10552800F1FB18B1012005B0BDE8F0830146204623
:1055380005F002FE0028F5D10146204605F026FEBA
:10554800003818BF0120EEE70B7C103B672BADD964
:10555800E8E702F0DDFA0F4B98420CBF0E4B0F4BF9
:10556800C8F89030C9E702F0D3FA0A4B98420CBF4A
:105578000B4B0C4BC8F89030BFE702F0C9FA054B4B
:1055880098420CBF084B094BC8F89030B5E700BFEC
:10559800149F0424000E27072D0FB0303211D0209D
:1055A8005F4390608A62E030200BA0101A098010D7
:1055B8009C4B01082DE9F041D0F8008082B00D46DF
:1055C80017461E4608F18C04204605F0B1FD202838
:1055D800FAD1D8F80C3073B96D002046089C3346D0
:1055E8003A46A9B2009405F0E3FB003818BF012041
:1055F80002B0BDE8F081089B32463946204605F0E6
:10560800ABFCF2E7044B10221A7483F8E82083F805
:10561800C02183F898227047149F042430B50023D2
:1056280095B04FF48071062204460B9306921393AB
:10563800CDE90C13CDE90E33CDE9113302F072FA3E
:1056480007282BD004F1100541F2883206A9284614
:1056580006F0AEFB28B10123184684F85C3015B07B
:1056680030BD0222022306A92846CDE900231022D4
:105678000123CDE9022300224FF48003CDE904235E
:1056880005224FF0807306926A460F9341F28833E1
:1056980006F0FAFC0028DED115B030BD0323012046
:1056A80084F85C3015B030BD70B50023A4B04FF05D
:1056B80080724FF480750446ADF806300D93CDE93D
:1056C80010320122CDE90E53CDE91223CDE914336E
:1056D800002943D0F02300F1100508AEADF80630DC
:1056E800C02341F2883231462846089306F060FB11
:1056F80028B10123184684F85C3024B070BD41F20B
:1057080088320DF10601284606F0BCFB0346002846
:10571800EFD105224FF480711E93284616924FF060
:1057280080721B9321931F9202AA9FED1F7BCDE9E4
:105738001C13CDE922338DED027B9FED1D7B41F2D9
:10574800883316A98DED047B9FED1B7B8DED067BC1
:1057580006F09AFC0028CCD124B070BD00F11005E9
:1057680008AE612341F2883231462846089306F094
:105778001FFB0028BDD141F288320DF106012846F1
:1057880006F0FEFB0028B4D1BDF80630204623F011
:10579800780343F04003ADF80630FFF73FFF0028D9
:1057A8009ED0A6E7AFF300800000000001000000D3
:1057B8001000000001000000000000000000400090
:1057C8002DE9F04F00234FF4807501264FF08078C3
:1057D80004462DED028BABB08DF80730139321935F
:1057E800299314950E96CDF85C80CDE91533CDE953
:1057F8001863CDE91A33CDE92253CDE92433CDE935
:10580800273306231C9302F08DF9072808D004F1EA
:10581800100741F288321CA9384606F0C9FA40B18F
:105828000123184684F85C302BB0BDEC028BBDE830
:10583800F08F4FF0020A4FF0020B4FF0050941F2CA
:10584800883308AA1CA93846CDF89480CDF8709002
:105858009FED2D8BCDE908AB4FF0000A4FF4800B7C
:105868008DED0A8BCDE90CAB06F00EFC0028D7D1E4
:1058780041F2883238460EA906F09AFA0028CFD1AC
:10588800402341F288320DF1070138468DF8073080
:1058980006F0F8FA0028C3D141F288330EA902AA0B
:1058A8003846CDF83890CDF85C809FED197B8DEDAA
:1058B800048BCDE906AB8DED027B06F0E5FB0346D4
:1058C8000028ADD1CDF870904FF00109CDF8948043
:1058D8004FF00008219308AA29931CA9384622955D
:1058E800CDE92333CDE9273341F288338DED0A8B97
:1058F800CDE90CABCDE9088906F0C6FB002893D0AA
:10590800304684F85C608FE710000000010000005A
:1059180040000000400000002DE9F043624CA3B0B5
:105928000D46046002F0FEF8072800F0A9802868F8
:1059380023466968AA6807C31E46AB8926F8043B54
:105948003046257B677B06F015FAE0B9574B012DE9
:105958004FF00108E061236114BF4FF480134FF446
:105968000003C4E9058893FAA3F3B3FA83F34FF469
:105978008079013BC4F82490C4E90B0030462362C7
:1059880006F08CF938B10122134684F85C201846D9
:1059980023B0BDE8F08366230B90139041F2883260
:1059A80006A90693CDE90C90CDE90E00CDE91100CA
:1059B800304606F0FDF90028E5D1992341F28832F6
:1059C80006A93046069306F0F3F90028DBD1052333
:1059D8001C9019906A4614934FF08073219014A973
:1059E8001D9341F288339FED2A7BCDE91A90CDE9CA
:1059F8001F008DED007B9FED287B30468DED027BEF
:105A08009FED277B8DED047B06F03EFB0028BAD185
:105A180029462046FFF748FE0028B4D12046FFF764
:105A2800CFFE03460028AED1002FB0D118933046E0
:105A38000027002606AA14A9CDF86890CDE91F33DF
:105A4800EB2314934FF440631B934FF400531793C5
:105A58004FF440431C93A0231693062319934FF049
:105A6800805321934FF04073CDE906671D9306F0EC
:105A780083FB034600288AD0434684F85C8086E787
:105A880001230322184684F85C2023B0BDE8F08384
:105A980000000000010000001000000001000000EC
:105AA800000000000000400074A2042400500052CE
:105AB8002DE9F04F8FB0414B0024026800AF9A42A5
:105AC8007C63C7E90944C7E90B4403D03C37BD46AA
