:020000040800F2
:100000000000022069090008650900085978000805
:10001000650900086509000865090008000000007E
:10002000000000000000000000000000650900085A
:10003000650900080000000065090008DD77000878
:1000400065090008650900086509000865090008D8
:1000500065090008650900086509000865090008C8
:1000600065090008650900086509000811600008B5
:100070001D600008754A0008296000083560000806
:10008000A57200083D5500086509000865090008CB
:100090006509000865090008650900086509000888
:1000A0006509000865090008650900086509000878
:1000B000B5660008C1660008CD66000871550008E5
:1000C000650900087D55000865090008212D010813
:1000D0002D2D0108D970000805710008397100083C
:1000E00065090008650900080000000065090008AE
:1000F0006509000865090008650900086509000828
:100100006509000885640008D9660008392D0108D2
:100110006D710008A1710008414D000865090008D3
:10012000294D0008354D00085D2D0108912D01086D
:10013000D97200086509000865090008650900080A
:1001400000000000000000000000000000000000AF
:10015000650900086509000865090008D5710008EF
:100160008955000865090008ED7700081178000836
:100170006509000835780008650900086509000868
:100180006509000865090008097200083D72000849
:10019000452D0108512D0108650900086509000871
:1001A0006509000865090008650900086509000877
:1001B000315D000865090008650900086509000847
:1001C0006509000865090008650900086509000857
:1001D0006509000865090008650900086509000847
:1001E0006509000865090008650900086509000837
:1001F0006509000865090008650900086509000827
:100200006509000865090008650900086509000816
:100210006509000865090008650900086509000806
:10022000650900086509000865090008000000006C
:10023000650900086509000800000000650900085C
:1002400065090008650900086509000865090008D6
:1002500065090008650900086509000865090008C6
:1002600065090008650900086509000865090008B6
:1002700065090008650900087172000800000000A7
:10028000650900086509000865090008000000000C
:080290000000000065090008F0
:1002980010B5054C237833B9044B13B10448AFF3B8
:1002A80000800123237010BD00040024000000001A
:1002B800185E010808B5034B1BB103490348AFF3A7
:1002C800008008BD0000000004040024185E010836
:1002D800034613F8012B002AFBD1181A013870477E
:1002E80081F0004102E000BF83F0004330B54FEADF
:1002F80041044FEA430594EA050F08BF90EA020F4C
:100308001FBF54EA000C55EA020C7FEA645C7FEADE
:10031800655C00F0E2804FEA5454D4EB5555B8BF01
:100328006D420CDD2C4480EA020281EA030382EA72
:10033800000083EA010180EA020281EA0303362D04
:1003480088BF30BD11F0004F4FEA01314FF4801CD7
:100358004CEA113102D0404261EB410113F0004FE9
:100368004FEA03334CEA133302D0524263EB4303A0
:1003780094EA050F00F0A780A4F10104D5F1200E3E
:100388000DDB02FA0EFC22FA05F2801841F1000199
:1003980003FA0EF2801843FA05F359410EE0A5F16D
:1003A80020050EF1200E012A03FA0EFC28BF4CF09E
:1003B800020C43FA05F3C01851EBE37101F0004554
:1003C80007D54FF0000EDCF1000C7EEB00006EEB61
:1003D8000101B1F5801F1BD3B1F5001F0CD34908EB
:1003E8005FEA30004FEA3C0C04F101044FEA445242
:1003F80012F5800F80F09A80BCF1004F08BF5FEAC9
:10040800500C50F1000041EB045141EA050130BDA8
:100418005FEA4C0C404141EB0101013C28BFB1F5BA
:10042800801FE9D291F0000F04BF01460020B1FA05
:1004380081F308BF2033A3F10B03B3F120020CDAD8
:100448000C3208DD02F1140CC2F10C0201FA0CF0B6
:1004580021FA02F10CE002F11402D8BFC2F1200C1B
:1004680001FA02F120FA0CFCDCBF41EA0C019040D1
:10047800E41AA2BF01EB0451294330BD6FEA04041A
:100488001F3C1CDA0C340EDC04F11404C4F1200205
:1004980020FA04F001FA02F340EA030021FA04F317
:1004A80045EA030130BDC4F10C04C4F1200220FA6E
:1004B80002F001FA04F340EA0300294630BD21FAAC
:1004C80004F0294630BD94F0000F83F4801306BF72
:1004D80081F480110134013D4EE77FEA645C18BF66
:1004E8007FEA655C29D094EA050F08BF90EA020FFD
:1004F80005D054EA000C04BF1946104630BD91EAF5
:10050800030F1EBF0021002030BD5FEA545C05D1F7
:100518004000494128BF41F0004130BD14F5800436
:100528003CBF01F5801130BD01F0004545F0FE41AA
:1005380041F470014FF0000030BD7FEA645C1ABFDF
:10054800194610467FEA655C1CBF0B46024650EA16
:10055800013406BF52EA033591EA030F41F4002142
:1005680030BD00BF90F0000F04BF0021704730B5C8
:100578004FF4806404F132044FF000054FF000019D
:1005880050E700BF90F0000F04BF0021704730B55E
:100598004FF4806404F1320410F0004548BF404233
:1005A8004FF000013EE700BF42004FEAE2014FEA88
:1005B80031014FEA02701FBF12F07F4393F07F4F63
:1005C80081F06051704732F07F4208BF704793F066
:1005D8007F4F04BF41F40021704730B54FF4607479
:1005E80001F0004521F000411CE700BF50EA01027C
:1005F80008BF704730B54FF000050AE050EA010225
:1006080008BF704730B511F0004502D5404261EB94
:1006180041014FF4806404F132045FEA915C3FF4D5
:10062800D8AE4FF003025FEADC0C18BF03325FEA72
:10063800DC0C18BF033202EBDC02C2F1200300FA23
:1006480003FC20FA02F001FA03FE40EA0E0021FA48
:1006580002F11444BDE600BF53B94AB9002908BFE6
:1006680000281CBF4FF0FF314FF0FF3000F074B985
:10067800ADF1080C6DE904CE00F006F8DDF804E0F1
:10068800DDE9022304B070472DE9F047089D0446D0
:100698008E46002B4DD18A42944669D9B2FA82F22D
:1006A80052B101FA02F3C2F1200120FA01F10CFA69
:1006B80002FC41EA030E94404FEA1C48210CBEFBA1
:1006C800F8F61FFA8CF708FB16E341EA034306FB2A
:1006D80007F199420AD91CEB030306F1FF3080F0B9
:1006E8001F81994240F21C81023E63445B1AA4B206
:1006F800B3FBF8F008FB103344EA034400FB07F7A8
:10070800A7420AD91CEB040400F1FF3380F00A81E8
:10071800A74240F207816444023840EA0640E41BDD
:1007280000261DB1D4400023C5E900433146BDE889
:10073800F0878B4209D9002D00F0EF800026C5E92B
:10074800000130463146BDE8F087B3FA83F6002E43
:100758004AD18B4202D3824200F2F980841A61EBBB
:10076800030301209E46002DE0D0C5E9004EDDE7D9
:1007780002B9FFDEB2FA82F2002A40F09280A1EBC1
:100788000C014FEA1C471FFA8CFE0126200CB1FB16
:10079800F7F307FB131140EA01410EFB03F088420F
:1007A80008D91CEB010103F1FF3802D2884200F29C
:1007B800CB804346091AA4B2B1FBF7F007FB10112E
:1007C80044EA01440EFB00FEA64508D91CEB0404CC
:1007D80000F1FF3102D2A64500F2BB800846A4EB27
:1007E8000E0440EA03409CE7C6F12007B34022FA12
:1007F80007FC4CEA030C20FA07F401FA06F31C4341
:10080800F9404FEA1C4900FA06F3B1FBF9F8200C4D
:100818001FFA8CFE09FB181140EA014108FB0EF093
:10082800884202FA06F20BD91CEB010108F1FF3AE3
:1008380080F08880884240F28580A8F102086144EF
:10084800091AA4B2B1FBF9F009FB101144EA0141FD
:1008580000FB0EFE8E4508D91CEB010100F1FF34A8
:100868006CD28E456AD90238614440EA0840A0FB40
:100878000294A1EB0E01A142C846A64656D353D016
:100888005DB1B3EB080261EB0E0101FA07F722FA3A
:1008980006F3F1401F43C5E9007100263146BDE863
:1008A800F087C2F12003D8400CFA02FC21FA03F3C6
:1008B800914001434FEA1C471FFA8CFEB3FBF7F047
:1008C80007FB10360B0C43EA064300FB0EF69E426C
:1008D80004FA02F408D91CEB030300F1FF382FD205
:1008E8009E422DD9023863449B1B89B2B3FBF7F6AD
:1008F80007FB163341EA034106FB0EF38B4208D986
:100908001CEB010106F1FF3816D28B4214D9023EC6
:100918006144C91A46EA004638E72E46284605E7E4
:100928000646E3E61846F8E64B45A9D2B9EB0208B5
:1009380064EB0C0E0138A3E74646EAE7204694E745
:100948004046D1E7D0467BE7023B614432E7304678
:1009580009E76444023842E7704700BFFEE7000039
:1009680009480A4A0A49121A14F070F909480A4A49
:100978000021121A14F092F907F0A2F914F032F9D2
:1009880001F014FDFEE700BF00000024000400246D
:10099800485E01080004002440CA04241FB500234F
:1009A8008DF80D1003AA01798DF80C304FF47A7385
:1009B8000093022304F080FE05B05DF804FB02F00A
:1009C80011BA183003F0E6BF10B50446683003F0DA
:1009D80045FC04F1880003F041FC04F1A80003F091
:1009E8003DFC04F1C800BDE8104003F037BC4030BE
:1009F80003F088BC30B599B00446102002F0DCF949
:100A0800ADF808000299022206A804F1180503F0BF
:100A18009FFD0F2002F0D0F9ADF80C0003990222D7
:100A28000DF12A0003F094FD152002F0C5F9ADF888
:100A38001000049902220FA803F08AFD122002F088
:100A4800BBF9ADF8140005990DF14E00022203F030
:100A58007FFD042306A928461A4603F08DFD0021D0
:100A6800284603F0ADFF0090204602F0BFF90023AE
:100A7800DFED1F0A04F168001A460099CDED010A5E
:100A880003F0BAFB0121284603F09AFF00902046A4
:100A980002F0ACF90023DDED010A04F188001A46E2
:100AA800009903F0A9FB0221284603F089FF009072
:100AB800204602F09BF9DDED010A0023012200998E
:100AC80004F1A80003F098FB0321284603F078FFFF
:100AD8000090204602F08AF9DDED010A0023012288
:100AE800009904F1C80003F087FB19B030BD00BFBE
:100AF8006F12033B70B594B0044601AD05AE2846AD
:100B080003F03EFC95E80F0004F1E80586E80F00C5
:100B180009AE85E80F0086E80F000123002105468D
:100B280012930E95CDE90F3147F612231393022342
:100B38001193BDF82830D4E93C02ADF83630BDF841
:100B48002A30C4E93F02ADF8343014F0A7F80DA9F3
:100B580004F1F80006F072FC04F5867003F024FC3A
:100B680014B070BD1FB504461B2002F025F9ADF87E
:100B780004001A2002F020F9ADF808001C2002F049
:100B88001BF9ADF80C00204602F030F9019904F188
:100B98004000DDE9022304B0BDE8104003F082BB49
:100BA80005490123032200F51240C1E9002300236F
:100BB80048300B7205F022BC1C04002484B038B500
:100BC80005AD044685E80E009DF8283029460371D6
:100BD80004F0DCFC2046AE21FFF7E0FE2046D521DC
:100BE800FFF7DCFE20468021FFF7D8FE2046A8212B
:100BF800FFF7D4FE20461F21FFF7D0FE2046DA215A
:100C0800FFF7CCFE20461221FFF7C8FE2046D3216D
:100C1800FFF7C4FE20460021FFF7C0FE2046402112
:100C2800FFF7BCFE2046A621FFF7B8FE2046A42108
:100C3800FFF7B4FE20468D21FFF7B0FE20461421B1
:100C4800FFF7ACFE2046A121FFF7A8FE2046C821E9
:100C5800FFF7A4FE20468121FFF7A0FE20468F2142
:100C6800FFF79CFE2046D921FFF798FE2046252154
:100C7800FFF794FE2046DB21FFF790FE2046342143
:100C8800FFF78CFE2046AF21FFF788FEBDE838400D
:100C980004B0704770B5002390B0114A064604AD01
:100CA8000AACCDE904320222CDE9062310230893C9
:100CB8003C238DF824300FCD0FC495E8030010AB0A
:100CC80084E8030013E907000AAB8DE8070006F57E
:100CD80012400ECB5430FFF771FF10B070BD00BF4B
:100CE8000108010970B5044686B002F063F80121D5
:100CF8002046002502F03AF92046FFF733FF204648
:100D0800FFF7C8FF2046FFF7F5FE2046FFF772FE03
:100D180020462034FFF744FF0226012301A920467C
:100D280003950296CDE9043504F014F82A463146B5
:100D3800204604F08DF806B070BD704770477047C4
:100D4800704770477047704700F1100300F58870CE
:100D58004A4203F8012B8342FAD1704770470000DA
:100D680010B5054C04F1180013F052FA2046BDE8FE
:100D7800104013F04DBA00BF2804002410B50C240D
:100D8800044B182000FB043013F042FA013CF7D260
:100D980010BD00BF58040024202070474020704731
:100DA800704710B504464FF4887113F050F9204687
:100DB80010BD000000F1080373B504460D4603603A
:100DC800D9B10846FFF784FA0F2805EB0006019011
:100DD80007D9002201A9204613F0F8F9019B2060E9
:100DE800A36032462946206813F088FA019B2268DE
:100DF80000216360D15402B070BD014813F02CF992
:100E0800484F0108F8B50B460C460546006853F8EC
:100E1800081B626899420CD10AB113F027FA63687B
:100E280000212A686B60D154002322686360137024
:100E3800F8BD05F10807B842C5E9001208BF00204F
:100E4800A26818BFAE68AA6010B12060A660EBE780
:100E58002360E9E770470000F8B581EAE1740746C6
:100E6800CE0F0125A4EBE1742346092B02D9632B8D
:100E78001FD8013507F1080371192D2238463B6048
:100E880013F01DFA3A6891190D44632C22D9642392
:100E9800B4FBF3F003FB10430446164800EB430C85
:100EA80010F813309CF801C005F801CC05F8023D94
:100EB800EBE7B3F57A7F01D20235DBE742F20F7236
:100EC800934201D80335D5E742F210720435B3FBDB
:100ED800F2F3CAE7092C89BF064B303403EB440010
:100EE80013F8143092BF945540784870384688BF3C
:100EF8009355F8BD04500108036870B50E46DB68C9
:100F0800044615469847B04205D823682046DB6852
:100F18009847013886B223682046A6809B68984780
:100F2800A84205D8236820469B689847013885B2AF
:100F3800E58070BDD0ED017AB6EE000A90ED007A3A
:100F4800D0ED026A37EE800AC0ED007A96EEA77AF5
:100F580080ED017A704700002DE9F84306461746F0
:100F6800984689462DED088B90ED0D8A90ED0EAAD6
:100F7800D0ED0CAAD0ED0A9A90ED0BBA90ED0F9A2D
:100F8800D0ED108AB8F1000F00F0BE8133685A1E08
:100F980049BF03F5FF4332607F333360D6E900452C
:100FA800E30640F0A68106F10800FFF7C3FF06F14B
:100FB8001800F0EE40BAFFF7BDFF04F1950399ED74
:100FC800006AD7ED007AC4F30E02C3F30E039FED57
:100FD800D27A76EE277A08F1FF3835F9133006EE23
:100FE800903AA7EE8B7ADFEDCD7AF8EEE66A66EEF8
:100FF800A76AA8EE267AF0EE475AE8EE476AFEEEB0
:10100800E85A15EE903A03F30F0325F8123004F569
:10101800B673C3F30E0335F9133007EE103A04F133
:101028009703B8EEC77AC3F30E0327EE277AE8EEE4
:10103800076AF0EE665AA8EE667AFEEEE85A15EEF2
:10104800902A02F30F0225F8132004F52B73C3F33B
:101058000E0335F9133006EE903A04F5B773F8EE3F
:10106800E66AC3F30E0366EEA76AA8EE267AF0EEE8
:10107800475AE8EE476AFEEEE85A15EE902A02F360
:101088000F0225F8132004F2BC43C3F30E0335F90D
:10109800133007EE103A04F2AE23B8EEC77AC3F362
:1010A8000E0327EE277AE8EE076AF0EE665AA8EEF6
:1010B800667ADFED9B6AFEEEE85A15EE902ADFEDC0
:1010C800995A02F30F02E0EE265A25F8132043F648
:1010D800D232FDEEE56A16EE903AB8EEE65A2344AF
:1010E80035EEC55A991803F56F531333C1F30E0142
:1010F800C3F30E0335F9111035F9133006EE901AC3
:1011080005EE903AF8EEE66A04F64353F8EEE55A2F
:10111800C3F30E0365EEA75A35F91330E6EEE75A26
:1011280065EE255AE6EEA75AF0EE476AEAEEA56A9A
:1011380076EEC96AAAEE269A06EE903A04F2BE4303
:10114800F8EEE66AC3F30E0366EEA76AF0EE495AB4
:10115800E8EE665AB0EE655AE8EE256ABEEEE85A41
:1011680015EE101A01F30F0125F8131004F5BE53FC
:101178000633C3F30E0335F9133005EE903A04F63F
:101188004553F8EEE55AC3F30E0365EEA75AE8EEA9
:10119800256AE8EE665AB0EE665ABEEEE85AF0EEF8
:1011A800656A15EE101AB0EE005A01F30F01FEEE53
:1011B800E86A25F8131041F2C87316EE900AF0EEAB
:1011C800466AE11800F30F00D5EE856AC1F30E01F7
:1011D80025F81100A6EEA96ADFED536AA9EC016AA9
:1011E8009FED526AABEEA66AFDEEC66A16EE900A4D
:1011F800F8EEE65A204476EE655A034400F5BE50F0
:10120800C3F30E03093035F91330C0F30E0006EEB0
:10121800903A35F9103006EE103AF8EEE66A04F521
:101228004C53B8EEC66A3A3326EE276AC3F30E0368
:1012380035F91330A6EEE76A25EE866AA6EEA76AA8
:10124800AAEE867A37EE687AEAEE078A07EE103A4F
:1012580004F52553B8EEC77A1E3327EE277AC3F371
:101268000E03F0EE686AE8EE076AB0EE666AA8EE6A
:10127800667ABEEEE86A16EE101A01F30F0125F839
:10128800131004F56F531033C3F30E0335F91330FD
:1012980006EE903A04F54C531444F8EEE66A3C33F3
:1012A800C4F30E04C3F30E0366EEA77AA8EE677ABA
:1012B800E8EE077AF0EE476AFEEEE86AB0EE677A83
:1012C80016EE901A01F30F01BEEEE87A25F8131016
:1012D80017EE103A97ED007A03F30F03F0EE476A22
:1012E80025F81430D7EE856AA6EEA97AA7EC017A1C
:1012F80048E6F6EE007AD6ED02BA96ED060A7BEEDF
:10130800A7BA30EE270A58E686ED0F9AC6ED108A7E
:10131800BDEC088BBDE8F883000000000000003831
:101328000000484200A8C3450000204200608B45E9
:101338002DE9F0410646904601F108072DED088B8E
:1013480090ED0D8A90ED0EAAD0ED0CAAD0ED0A9A78
:1013580090ED0BBA90ED0F9AD0ED108AB8F1000F0E
:1013680000F0DB8133685A1E49BF03F57F533260B2
:101378003F333360D6E90045E30640F0C38106F108
:101388000800FFF7D7FD06F11800F0EE40BAFFF7A6
:10139800D1FDB2EE047ADFEDE57A57ED025A08F195
:1013A800FF380837ABEEA77AFDEEC77A17EE903A0A
:1013B800F8EEE76ADFEDDE7A234477EE666AC3F378
:1013C8000D020133C3F30D0335F9122035F913303B
:1013D80006EE102A07EE103AB8EEC66A04F1640366
:1013E800B8EEC77AC3F30D0327EE277AA6EE677A1D
:1013F80026EE877ADFEDCF6AA6EE277A37EE267AD1
:10140800B0EE476ABEEECA6A16EE102A17ED036AF6
:1014180002F30F0235EE865A25F8132004F1700303
:10142800C4F30D0225EE0B5AC3F30D0335F913303F
:10143800A7EE265A06EE903AF8EEE66AB0EE457A3E
:1014480066EEA76AA8EE267AB0EE475AE8EE476A33
:10145800BEEECA5A15EE103A03F30F0325F8123000
:1014680004F21313C3F30D0335F9133007EE103AE2
:1014780004F17203B8EEC77AC3F30D0327EE277A97
:10148800E8EE076AB0EE665AA8EE667ABEEECA5A69
:1014980015EE102A02F30F0225F8132004F2052393
:1014A800C3F30D0335F9133006EE903A04F2151321
:1014B800F8EEE66AC3F30D0366EEA76AA8EE267A8D
:1014C800B0EE475AE8EE476ABEEECA5A15EE102A41
:1014D80002F30F0225F8132004F29533C3F30D032A
:1014E80035F9133007EE103A04F20723B8EEC77A3D
:1014F800C3F30D0327EE277AE8EE076AB0EE665AC3
:10150800A8EE667ADFED8C6ABEEECA5A15EE102A8E
:101518009FED8A5A02F30F02A0EE265A25F81320EF
:1015280042F65252FDEEC56A16EE903AF8EEE64AD9
:10153800234475EE644A991803F535531333C1F300
:101548000D01C3F30D0335F9111035F9133006EE0B
:10155800901A05EE103AF8EEE66A04F60B23B8EE98
:10156800C55AC3F30D0325EE275A35F91330A6EEF5
:10157800E75A24EE855AA6EEA75AF0EE476AEAEE35
:10158800856A76EEC96AAAEE269A06EE903A04F2C1
:101598009733F8EEE66AC3F30D0366EEA76AB0EE7A
:1015A800495AA8EE665AF0EE454AE8EE056AFEEE9C
:1015B800CA4A14EE901A01F30F0125F8131004F526
:1015C80090530233C3F30D0335F9133005EE103A87
:1015D80004F60D23B8EEC55AC3F30D0325EE275ABA
:1015E800E8EE056AA8EE665AF0EE664AFEEECA4ACA
:1015F800F0EE456A14EE901AF0EE004A01F30F017E
:1016080025F8131004F59053FEEECA6A0433C3F3A9
:101618000D0316EE901AF0EE656A01F30F0125F836
:10162800131004F5FA53D5EE246A1633C3F30D03E9
:1016380035F91330E6EEA95A06EE903A04F51B5335
:10164800F8EEE66A1033C3F30D0366EEA76A47EDBA
:10165800045A35F91330AAEEA67A37EE687AEAEE1C
:10166800078A07EE103A04F5FA53B8EEC77A18332A
:1016780027EE277AC3F30D03F0EE686AE8EE076AEF
:10168800F0EE665AA8EE667AFEEECA5A15EE901A81
:1016980001F30F0125F8131004F535531033C3F384
:1016A8000D0335F9133006EE903A04F51B53144434
:1016B800F8EEE66A1233C4F30D04C3F30D0366EEC5
:1016C800A77AA8EE677AE8EE077AF0EE476AFEEEA8
:1016D800CA6AB0EE677A16EE901A01F30F01BEEEF1
:1016E800CA7A25F8131017EE103AB0EE467A03F3CB
:1016F8000F0325F8143097EEA47AA7EE296A07EDB0
:10170800036A2BE6B6EE000AD6ED02BAD6ED067AE3
:101718007BEE80BA37EE800A3BE686ED0F9AC6ED7F
:10172800108ABDEC088BBDE8F08100BF0000704254
:1017380000008039000000000000C84200409245C7
:101748002DE9F843844C2DED028B2046FFF73CF938
:101758002046FFF74CF9814802F05CFE804802F011
:1017680059FE94F84C307F483BB194F852200378E6
:101778007F2A04BF83F00103037094F844300022E9
:10178800C3B1636E784E00783270784A784D11682C
:10179800002800F0BE8007EE903A9FED767AF8EECA
:1017A800E77A67EE877A052917D8DFE801F0050E92
:1017B8008EA4A6A81346E5E77BB16F4A1368002BF1
:1017C800CCBF00230123136007E06C4A11680B4467
:1017D8000C2B02D8136001233370604B684F1A6BCF
:1017E800684B38469FED688A1A605D4B1B6BAB618E
:1017F80002F010FE654802F00DFED7ED0C7AF4EE0B
:10180800C87AF1EE10FA40F39680DFF8A88198F8CC
:101818000090B9F1000F40F08E805D4C04F1280073
:1018280084F8089004F0D4FFE369DFED5A6AC31A1C
:10183800A269206207EE903A04EB8201531CE06132
:10184800F8EE677A022A08BF4B4687EEA67ADFEDE4
:10185800526AA361F2EE007A84ED097A27EE277ABC
:10186800C6EE877A9FED4D7AF0EE086AC1ED037AED
:10187800D4ED037A77EE877A94ED047A77EE877A57
:1018880094ED057A77EE877A87EEA67AF8FE477A9E
:1018980094ED017AC4ED007AF4EE477AF1EE10FA8D
:1018A80040D00123C4ED017A2372344BDFED3C6A4A
:1018B8001A683C4B03EB820393ED007A27EE267AF5
:1018C800C7EE276AC5ED086A32E0374B93ED007A18
:1018D80077EE877AB7EE007AF4EEC77AF1EE10FA6F
:1018E8007FF57BAFF5EEC07AF1EE10FAFFF675AF33
:1018F800C3ED007A71E72D4BE8E72D4BE6E7EA697F
:101908001344012B01D8EB6167E7CCBF0023012307
:10191800F9E70B44052B7FF656AF01DD10605CE755
:10192800052350E7237A002BBFD13378002BBCD195
:10193800012388F80030D7ED0C7AF4EEC87AF1EE7E
:1019480010FA04D51B4B1A780AB100221A70BDECA4
:10195800028BBDE8F88300BF94050024589A02243E
:10196800909A022454990024549A0224149B042423
:10197800309A0224CDCCCC3D109B04240C000024CA
:10198800C0990224900500240000FA43F899022423
:10199800289900240060EA4800606A4700000000B7
:1019A80000C82F4AD0500108180000241000002455
:1019B80008000024559A022470B5044610460A46C9
:1019C800002112F099FD04F108020346226053F841
:1019D800081B994210D1194600F1180551F8046BFB
:1019E800A94242F8046BF9D142680360002362609F
:1019F80043600372204670BD82682160A260F3E7ED
:101A0800B5EE006AF6EE006A30EE460AB5EEC00A98
:101A1800F1EE10FA18D5B1EE400AF3EE007A20EE96
:101A2800277AC0ED016AF0EE005AF7EE007AE0EE90
:101A3800657A67EE277AC0ED027A67EE867AC0ED9E
:101A4800037AC0ED007A7047B4EEE60AF1EE10FAB8
:101A580002DD30EE660AE0E7FBEE007ADFE7F0B57C
:101A6800044685B0C71DB02529462046FEF796FFD7
:101A78003E4600212046FEF791FF12212046FEF740
:101A88008DFF402303AA217920468DF80C3016F8E3
:101A9800013F8DF80D304FF47A730093022303F061
:101AA8000BFE07F140039E42EBD10135EDB2B42D98
:101AB80001D105B0F0BD3746D6E7083008B5FFF7C5
:101AC800CEFF08BDFDEEC07A064BB8EEE77A17EEFA
:101AD800902A9A4294BF8260836030EE470A80ED74
:101AE800000A7047FF4B1D00436800EB830203F5B3
:101AF800EA1382ED030A03F6FF33034AB3FBF2F15C
:101B080002FB113343607047004C1D002DE9F04182
:101B1800164602680D4604465548E76992ED007A74
:101B2800012FD2E901312DED028B0B44B3FBF0F10B
:101B380000FB113103F1010302EB8101D1ED038AAE
:101B4800B3FBF0F100FB113302EB8303E268D3ED42
:101B5800037A18BF002377EEE87AD2E90101E7EEAD
:101B6800878A04BFD4ED087AB6EE007A084408BF25
:101B780067EE877A92ED007A04BFFCEEE77A17EEFB
:101B8800903A03443A48B3FBF0F100FB11310133BA
:101B980002EB810191ED038AB3FBF0F100FB1133F5
:101BA80002EB8303D3ED037A77EEC87AA7EE878A30
:101BB8004FB1012F31D0C5ED008A86ED008ABDEC0A
:101BC800028BBDE8F081271F04F1080857F8040FBD
:101BD80094ED080AFFF776FF4745F7D104F10C07A3
:101BE80004F1180857F8040B94ED080AFFF76AFF88
:101BF800B845F7D1D4ED067A95ED000A2068A7EE2E
:101C0800A80AFFF771FFD4ED067A96ED000AA7EE51
:101C1800880AE068FFF768FFCDE7271F04F1080886
:101C280094ED080A57F8040F30EE000AFFF74AFF50
:101C38004745F5D104F10C0704F1180894ED080A9A
:101C480057F8040B30EE000AFFF73CFFB845F5D112
:101C5800D4ED067A95ED000A2068A7EE880AFFF70A
:101C680043FFD4ED067A95ED000AA7EEA80AD0E75F
:101C7800004C1D002DE9F04FDFF810B281460E46EA
:101C8800774C2DED028B87B0019205F053FE9BF83F
:101C98000030A0601BB1734B012283F8342000256B
:101CA800FFF74EFD019B9D4200F09C809BF80030A1
:101CB80023B16C4812F0ACF8F0EE408AD9F8003045
:101CC800F7EE006A68484FEA850A03EB8503DFF8F8
:101CD800C08136EEE88A654AD3ED007AD9F8043037
:101CE80068EE277A624F03EB850393ED007A614B28
:101CF80028EE077AC26219685F4B01631B68C8F84F
:101D0800301002A98363C8F82C2003AAC8F8383019
:101D18000123C0ED0A6ACDED027ACDED037AC7ED55
:101D2800007AC7ED017A8DED047A8DED057AC8ED5C
:101D38000A6AFFF711F9012239464046FFF7F8FA17
:101D480005AA04A94D48FFF7E1FE4D4B1B681BB1DE
:101D5800012B28D00135A5E74A49DDED047A91ED3C
:101D6800007A494A67EE877AD7ED006A92ED007AE1
:101D78003368E6EE877A534468EE277AC3ED007A33
:101D8800DDED057A91ED007AD7ED016A67EE877A85
:101D980092ED007AE6EE877A7368534428EE278A34
:101DA80083ED008AD6E73749DDED047A91ED007AB4
:101DB800354A67EE877ADDED026A92ED007A33687C
:101DC800E6EE877A534468EE277AC3ED007ADDEDB4
:101DD800057A91ED007ADDED036A67EE877A92ED78
:101DE800007AD7E700258BF8005005F0A3FDA3681B
:101DF80094ED017AC31A07EE903A2378F8EE677AE1
:101E080067EE877A5BB1C4ED057AC4ED037AC4ED59
:101E1800047A257007B0BDEC028BBDE8F08F94ED15
:101E2800047AD4ED066AF4EEC77A94ED037A94ED59
:101E3800056AF1EE10FAF4EEC77AB7EE007AC8BF79
:101E4800C4ED047AF1EE10FA37EE667A48BFC4EDB5
:101E5800037A27EE067AA7EEA67A84ED057AD9E703
:101E6800A4990224F0980024CC9A0224CDCC4C3FAB
:101E7800589900249005002408000024309A022470
:101E8800109B0424100000241800002414000024CF
:101E9800609900243F2910B510D81F2A0ED8D408FD
:101EA80002F0070201EB84110124084404FA02F24B
:101EB80090F9081052B213B11143017210BD21EA12
:101EC8000201FAE7083008B5FFF7E4FF08BD2DE97D
:101ED800F04F0E4685B0044604A9A6F120059DF8EA
:101EE80038B001E90C00EBB25E2B04D9002630466D
:101EF80005B0BDE8F08F03689DF80870DB689DF8B1
:101F080009A09847A3883B449842EFDB2368204602
:101F18009B689847E38853449842E7DB0AFB05F53A
:101F28004FF000096D00CA451DD9039B4FF000080A
:101F38005B5B01934745A188E28810D9019B414426
:101F48004A4404F1080003FA08F308F101081B04E5
:101F58004CBF5B468BF00103FFF79CFFEAE709F1F2
:101F680001090235DFE7A1882046E288394489B2B1
:101F7800FEF7C2FFBBE7F0B585B006464C1E02ADC2
:101F88009DF8287085E80C0014F8011F41B10097EE
:101F9800304695E80C00FFF79AFF21788842F3D085
:101FA800084605B0F0BD00002DE9F041354D4FF46D
:101FB8008072002134482DED028B94B012F06EFE31
:101FC8002A68032A70DD043A2021D20092B26EE01A
:101FD8002E4980E10F2B089307D9002208A90EA8E3
:101FE80012F0F4F8089B0E901093324629460E988A
:101FF80012F07FF9089B0E9A00210F93D1540F9A83
:10200800234BD34202D1234812F029F80122224956
:102018000EA8012512F080FA0EA902A8FEF7F2FE1A
:102028000EA812F0F5F8394600951C4894E80C0003
:10203800FFF7A1FF18222E211848FEF75DFF184B65
:102048000EA8D3ED007AFDEEE77A17EE901AFEF7A8
:1020580003FF0EA902A8FEF7D5FE0EA812F0D8F8C5
:10206800394600950D4894E80C00FFF784FF0D48A9
:10207800FFF7F5FC02A812F0CBF814B0BDEC028B08
:10208800BDE8F081149B0424F0970024844F0108D4
:10209800010000C0894F01089E4F0108E097002405
:1020A80028990024E8970024D200002192B2AB4876
:1020B8004FF00108FEF720FFA94902A8A94CFEF736
:1020C80079FE029FCDF80080B2EE048A3946A34813
:1020D800A54E94E80C00FFF74EFF00222B689F489E
:1020E8009342326014BF11460721FEF705FF9F4B4C
:1020F800182102A81A689E4B01FB023112F003F95D
:1021080033682A68394695489A4202BF994B93F832
:10211800008088F0010894E80C00CDF800804FF0AA
:102128000108FFF728FF2B6808228C484345C6F8AA
:1021380000800CBF07210021FEF7DEFE8E4B182120
:1021480002A81A688D4B01FB023112F0DCF83368E3
:102158002A68394681489A4202BF864B93F8008024
:1021680088F0010894E80C00CDF80080FFF703FF21
:1021780002231022794833602B68022B0CBF0721F9
:102188000021FEF7B9FE7E4B08A8D3ED007A67EE72
:10219800887AFDEEE77A17EE901AFEF75DFE08AA38
:1021A80078490EA8FFF708FC0EA902A8FEF72AFE38
:1021B8000EA812F02DF808A812F02AF833682A6839
:1021C800394666489A4209BF6A4B01231B7883F057
:1021D8000103009394E80C00FFF7CDFE03231822B7
:1021E8005E4833602B68032B0CBF07210021FEF7E4
:1021F80083FE654B08A8D3ED007A67EE887AFDEE7A
:10220800E77A17EE901AFEF727FE08AA5F490EA88C
:10221800FFF7D2FB0EA902A8FEF7F4FD0EA811F0F5
:10222800F7FF08A811F0F4FF33682A6839464B48CD
:102238009A4209BF4F4B01231B7883F00103009397
:1022480094E80C00FFF797FE04230022434833600C
:102258002B68042B0CBF27212021FEF74DFE4C4B89
:1022680008A8D3ED007A67EE887AFDEEE77A17EED4
:10227800901AFEF7F1FD08AA46490EA8FFF79CFB45
:102288000EA902A8FEF7BEFD0EA811F0C1FF08A80E
:1022980011F0BEFF33682A68394630489A4209BFB0
:1022A800344B01231B7883F00103009394E80C005E
:1022B800FFF761FE05230822284833602B68052BA9
:1022C8000CBF27212021FEF717FE334BDB69002BBB
:1022D8007FF47EAE31490EA8FEF76CFD0EA902A868
:1022E800FEF790FD0EA811F093FF33682A6839466F
:1022F8001A489A4209BF1F4B01231B7883F0010338
:10230800009394E80C00FFF736FE10222E211348A4
:10231800FEF7F2FD224B9FED237A0EA8D3ED057A46
:1023280067EE877AFDEEE77A17EE901AFEF794FDCE
:102338000EA902A8FEF766FD0EA811F069FF10AB02
:102348000E93DDE90253EE18002D7FF443AE002E04
:102358003FF440AE144811F07FFE00BFE097002420
:10236800724F01085C020024C89A0224109B0424BE
:1023780028040024549900240C0000245804002444
:1023880018000024744F010810000024784F010839
:10239800080000247C4F0108309A0224804F01086D
:1023A800A49902240000C842484F010880B57D481E
:1023B80088B07D4CFEF796FC7A486D46FEF701FB27
:1023C800F7EE000A9FED790A6F460FCC0FC594E827
:1023D8000F0004F1100685E80F00002269467448D2
:1023E80001F0E8FFF7EE000A9FED720A0FCE0FC763
:1023F80096E80F0004F130066F46503485E80F0068
:10240800002269466C4801F0D5FFDFED6C0A9FEDAC
:102418006C0A0FCE0FC796E80F0085E80F00002260
:10242800694668486E4601F0C5FFDFED640A9FED16
:10243800640A654F0FCC0FC694E80F0085E80F00BB
:10244800002269466148002401F0B4FF604D6148EC
:102458004FF480320021604E686012F01FFC28465D
:102468009FED5E0A40F8084BFFF7CAFA9FED5C0A39
:1024780005F11800FFF7C4FA3368AF634FF4004260
:102488006B632146574D5848686012F007FC284690
:102498009FED560A40F8084BFFF7B2FA9FED540A31
:1024A80005F11800FFF7ACFA3368AF636946514F7E
:1024B8006B634FF0FF3350483D46504E02938DF802
:1024C8000C40CDE9004404F009F94B4804F06EF9DA
:1024D8004B4A06F10C000021DFF84C8112F0DEFBBC
:1024E8000122002347F8046B1444032CC6E9013287
:1024F8004644EDD1434E1C46DFF83091012706F1E2
:102508000C003F4A00213C4412F0C8FB002349F864
:10251800046B032CC6E901374644EFD12A6800242E
:10252800394BB7EE008A146093606A689360146050
:10253800AA6893601460EA68936014602A699360DB
:1025480014606A69314D9360146005F067FB07EE0B
:10255800900A9FED187A2846F8EE677A2C4B2D4A98
:102568009FED2D0A67EE877A9A612C4A1F7088EED4
:10257800277ADA601A615A6183ED017A11F030FC2A
:102588004FF0804326490748AB60EB60254B6C61F0
:1025980085ED068A2B62FEF712FAFFF7D1F8FFF7EE
:1025A80003FDFAE794050024FC050024ACC5273791
:1025B800589A02246F12833A909A022400409C454C
:1025C80000409CC5C09902243333333FF899022454
:1025D800CC9A0224109B0224040000243EC3AE3986
:1025E80018B7513960990024A49900246F12033A4E
:1025F80052499D39309A02245099002424905FC191
:1026080000307500000000C0FF4B1D00F09800244A
:10261800A4990224149ACC3B00803B470000C07F59
:102628007D1C00080000C8420C3075003C9A02244A
:102638002DE9F043914685B00446984608464B4636
:10264800DDE90C52A3EB090C13F8011B0029F9D1A1
:1026580098F8006098F8011016FB0CF60F4636B291
:1026680026EAE676082A76D8DFE802F06B05270B1B
:1026780035453C536100B5F90020B5F90230228098
:1026880053E02B88A988B5F902200B4462809B1B74
:102698002380A680E780628821880390FEF72CFCBF
:1026A8009DF8383049460398009398E80C00FFF7E6
:1026B80062FC204605B0BDE8F083B5F90430B5F9F1
:1026C800021003EBD3722B88618003EB6203A3EB48
:1026D80066032380DDE76B88B5F90020ED882B447D
:1026E8005B1ACCE76B88EA8813445B1A2A88A988A6
:1026F8000A44921BC3E76B88EA8813445B1AB5F94E
:10270800042002EBD2712A8802EB6102A2EB660276
:10271800B5E7B5F90630B5F9001003EBD3726B884D
:10272800218003EB6203A3EB57036380B1E7B5F99C
:10273800063003EBD3726B8803EB6203A3EB510300
:10274800D4E7B5F9063003EBD3726B8803EB620369
:10275800A3EB5103D3E7002323806380A380E380A6
:1027680099E70000000000002DE9F04F2DED068BE1
:1027780087B01C4603929DF86030DDE916289FED6E
:10278800B64BB8F1000F0493BCBF4244C8F100082F
:1027980007EE902A02EB0803B8EEE76B07EE103A53
:1027A8009FEDAF5B26EE046BB8EEC77BCDE9010168
:1027B80086EE050B27EE047BF7EEC08B87EE050B44
:1027C800F7EEC09BB0EE680A11F0E6FE07EE904AFD
:1027D800B8EE67AA2AEE008AB0EE680A12F0E0F8AE
:1027E80060EE4A8AB0EE690A11F0D6FE2AEE009A27
:1027F800B0EE690A12F0D4F820EE4AAA39EE487A07
:10280800049B7AEE687A67EEA77AE7EE077AB0EE6D
:10281800007AF4EEC77AF1EE10FA08D5B8F1B40FE1
:1028280000F3CA8007B0BDEC068BBDE8F08F00222C
:1028380001276542C4F101040026BB46BA4664007C
:10284800B9460492049A002A6ED107EE906A724241
:10285800B8F1B40FF8EEE76A07EE905AB8EEE77AE7
:1028680007EE902AC5F1000266EE884AF8EEE77A8C
:1028780006EE102A27EE285A66EE896AB8EEC66A6E
:1028880067EE885A27EE0A7A66EE283A67EE897A62
:1028980026EE0A6A34EEE34A74EEC54A35EEC55AA6
:1028A800B5EEC04A75EEE35A40F39180F1EE10FAA6
:1028B80000F1848036EEC64AB5EEC04AF1EE10FA51
:1028C800CCBF4FF001094FF00009F5EEC04AF1EE18
:1028D80010FA76D476EEC76AF5EEC06AF1EE10FA11
:1028E800CCBF4FF0010A4FF0000AB5EEC05AF1EE26
:1028F80010FA69D437EEC77AB5EEC07AF1EE10FA5D
:10290800CCBF4FF0010B4FF0000BF5EEC05AF1EEC3
:1029180010FA00F19B8077EEC67AF5EEC07AF1EEF8
:1029280010FACCBF01270027B9F1000F09D0039A8C
:1029380002990198B218491B05930830FFF7AAFAC3
:10294800059BBAF1000F09D0039A02990198B218B1
:10295800691805930830FFF79DFA059BBBF1000F36
:1029680009D0039A02990198921B691805930830B7
:10297800FFF790FA059B4FB1039A02990198921BB1
:10298800491B05930830FFF785FA059BA6425FDBD4
:10299800013604EB4602EE4202F1010202D1A542E1
:1029A80002DB0024A54255DA013502EB4502541C2E
:1029B800002D7FF747AF35E7012239E74FF00109CE
:1029C80083E74FF0010A90E74FF0010B9DE7F1EE26
:1029D80010FA32D536EEC64AB5EEC04AF1EE10FA14
:1029E800CCBF4FF001094FF00009F5EEC04AF1EEF7
:1029F80010FA25D576EEC76AF5EEC06AF1EE10FA40
:102A0800CCBF4FF0010A4FF0000AB5EEC05AF1EE04
:102A180010FA18D537EEC77AB5EEC07AF1EE10FA8B
:102A2800CCBF4FF0010B4FF0000BF5EEC05AF1EEA2
:102A380010FA3FF570AF002776E7DDF81090D4E77D
:102A48004FF0000AE1E74FF0000BEEE701276BE7D4
:102A58002246A7E71446ABE77A008BFCFA21094027
:102A680000000000008066402DE9F04F1F4685B049
:102A780014460830DDF838A0A7EB01089DF83C3073
:102A88000D46AAEB0209B8F1000F0393B8BFC8F1CD
:102A98000008B9F1000F0290B8BFC9F100099245CA
:102AA8008CBF01224FF0FF328F428CBF4FF0010BD9
:102AB8004FF0FF3B394601925246FFF7EBF9A8EB7E
:102AC8000906DDE90203BD4201D1544516D0294665
:102AD800224603930290FFF7DDF9C9F10001720065
:102AE800B1EB460FBCBFA6EB09065D449045DDE996
:102AF8000203E8DD019A46441444E4E705B0BDE862
:102B0800F08F2DE9F3479DF830C005460C46164670
:102B18001F46DDF828809DF82C90BCF1000F10D0DE
:102B2800A7422AD3B246D04509D352464B4621463E
:102B380005F108000AF1010AFFF7ACF9F3E70134DF
:102B4800EEE7CDE90029FFF78FFF3B4632463946CD
:102B58002846CDE90089FFF787FF234642463946D4
:102B68002846CDE90089FFF77FFF234642462146E4
:102B78002846CDE90069FFF777FF02B0BDE8F08786
:102B880070B50024624D634E2C6005F1E8006C615D
:102B98002C62EC6301F0F4FB5F4B604A2846C5F8F1
:102BA800A03140F20F73C5F8F840A5F8A43105F537
:102BB800DC73C5F8B441C5F8A83140F2011358498F
:102BC800C5E96B3405F51043564DC3F84C2232461F
:102BD800C3F8544211F036FA32465349534811F0BB
:102BE80031FA32465249534811F02CFA32465249CA
:102BF800524811F027FA32464F49514811F022FA4B
:102C080032464D494F4811F01DFA32464A494E485E
:102C180011F018FA32464D494D4811F013FA4D4853
:102C2800002301224C490360436002723246046269
:102C380043628462C0E9064411F004FA4FF07D5300
:102C48004648324646498361C46111F0FBF9324671
:102C58004449204611F0F6F932464349204611F01E
:102C6800F1F928464149FEF7A5F805F11800404951
:102C7800404DFEF79FF832463F49204611F0E2F9F1
:102C880028463E49FEF796F805F118003C49FEF73C
:102C980091F805F130003B49FEF78CF805F1480042
:102CA8003949FEF787F805F160003849FEF782F8E0
:102CB80005F178003649FEF77DF805F190003549B1
:102CC800FEF778F805F1A8003349FEF773F805F127
:102CD800C0003249FEF76EF805F1D8003049FEF71A
:102CE80069F805F1F0002F49FEF764F805F58470DE
:102CF8002D49FEF75FF805F590702C49FEF75AF854
:102D0800324620462A49BDE8704011F09BB900BF01
:102D180094050024000000240080707FD04F010833
:102D2800470D000828040024490D0008CC9A022405
:102D38004B0D000860990024450D0008589A02249C
:102D4800909A0224C0990224F8990224430D00089D
:102D5800F0980024289900244D0D0008309A022488
:102D6800A90D0008650D00085D0E0008A04F0108B8
:102D7800A44F010858040024690D0008A84F010851
:102D8800AD4F0108B14F0108B54F0108B94F01080F
:102D9800BD4F0108B74F0108BF4F0108B34F0108E5
:102DA800AF4F0108AA4F0108C14F0108C44F0108DD
:102DB800850D0008704700BF202882B009D8084B4D
:102DC80003EB400213F81030507843EA002002B0B9
:102DD800704701230C2043EA002002B0704700BF6F
:102DE80004510108143001F0D3B900BF90ED0E0A68
:102DF800704700BF10B540F203338EB000244FF681
:102E08000B7240F20341ADF8083009A80123ADF870
:102E18001020ADF824202246ADF80C100094029939
:102E280007940C94CDE90544CDE90A4402F048F82A
:102E380004A8012322460399009402F041F809A846
:102E480002F024F910B901200EB010BD04A802F058
:102E58001DF9A0420CBF022020460EB010BD00BFD5
:102E68002DE9F04103239AB0012700240646CDE955
:102E780014373B4BCDE9104340F20453CDE91647D4
:102E8800ADF84830FFF7B6FFB842054625D002280E
:102E980045D040F60132334B0DF12C081894ADF8AB
:102EA8002C200B981997CDF84A3000F0D7F810A9C4
:102EB80006F13C0003F034F9302003224FF07E5332
:102EC80041460D930E93CDE90B02F26B06F1140007
:102ED80001F01EF91AB0BDE8F0811023214A06A9B5
:102EE80006908DF828300DF12C081F4BCDF84A209C
:102EF80007930294CDE91804CDE9080402A802F06A
:102F080045FB0823029A03A94046ADF80C508DF8FA
:102F18000E40049505930B9400F0E0F8C7E70020F5
:102F28000121104B0DF12C083A460094CDF84A3097
:102F38004FF60B730C94ADF82C302346CDE91801ED
:102F480040F601314046ADF818100699CDE90D4418
:102F580001F0B6FF2146404602F0A4F8A7E700BFFB
:102F680004020404040604030704010B2DE9F043DA
:102F780004462DED028B83B0002948D0012140F290
:102F8800011200230091ADF804208DF80630304A74
:102F98000126304B271D304904F12908626040F2B0
:102FA8000272A36040F60663E16004F125092682F7
:102FB800A4F8252084F82760A4F8293084F82B6029
:102FC80004F034FE6946054648B304F130008DF834
:102FD800066004F081FD072D34D104F11405204664
:102FE800FFF73EFF284601F0CFF82846B0EE408AAA
:102FF80001F0C6F8D0ED007AF8EE677A88EE277A05
:1030080084ED0E7A03B0BDEC028BBDE8F08340F28C
:10301800011300918DF80610ADF80430B7E704F1FC
:10302800300004F059FD3946204602F0F9FC4846C4
:1030380002F042F8404602F03FF804F1120000F0B6
:1030480077F9CAE73946204602F0EAFCC5E700BF2F
:103058000508050905070506050A060610B584B022
:1030680003460124ADF8040003A8ADF80C30ADF810
:103078000E4002F021F8214603A802F007F9204685
:1030880004F05EFC002103A802F000F9204604F0D9
:1030980057FC214603A802F0F9F804B010BD00BFA0
:1030A80010B5C2F3002384B00C46017C8DF80D20C6
:1030B80043EA4402FA2402238DF80C2003AA009460
:1030C80002F0FAFA18B10124204604B010BD0446F3
:1030D8000A2004F035FC204604B010BD034670B544
:1030E80043F8042B044684B007C983E80700A37992
:1030F80083B91A210B461E22FA2523742046ADF8FF
:103108000C20022303AA009502F0D6FA28B1012068
:1031180004B070BD1B210B46EDE70A2004F010FC3B
:103128004FF4B85200950223ADF80C20204603AAAC
:10313800217C02F0C1FA0028E9D10A2004F000FC41
:1031480041F2027200950223ADF80C20204603AA32
:10315800217C02F0B1FA0028D9D10A2004F0F0FB52
:10316800042200950223ADF80C20204603AA217CF6
:1031780002F0A2FA0028CAD10A2004F0E1FB0622D4
:1031880000950223ADF80C20204603AA217C02F00A
:1031980093FA0028BBD10A2004F0D2FB41F208229E
:1031A80000950223ADF80C20204603AA217C02F0EA
:1031B80083FA0028ABD10A20064604F0C1FB00952B
:1031C800022303AA217C2046ADF80C6002F074FAB1
:1031D80000289CD1304604F0B3FB009522790C23DB
:1031E8002046002A8DF80C3003AA4FF0020314BFC2
:1031F800622142218DF80D10217C02F05DFA002831
:1032080085D1304604F09CFB2279D4E902310B4386
:10321800DBB20AB943F0400362790AB143F02003F4
:103228000E22FA258DF80D302046009502238DF8E0
:103238000C2003AA217C02F03FFA00287FF467AF34
:103248000A2004F07DFB102200950223ADF80C2023
:10325800204603AA217C02F02FFA00287FF457AFFA
:103268000A2004F06DFB122100950223ADF80C1022
:1032780003AA217C204602F01FFA00287FF447AFFA
:103288000A2004F05DFB012209212046FFF708FF10
:10329800003818BF01203BE7F0B5102387B0234C56
:1032A800012200250126002702A920460195CDE923
:1032B80002234FF48052CDE904670BF0CDFC642063
:1032C80004F05AFF02A94FF480522046CDE9046762
:1032D80002261027CDE902670BF0BEFC032210235B
:1032E80002A92046CDE9022300230422CDE90423C4
:1032F8004FF480520BF0B0FC40F23223042202A9B2
:10330800019310232046CDE90223019A0123059257
:103318004FF4805204930BF09FFC40F606012046C0
:103328000BF0BAFC284607B0F0BD00BF209B042470
:103338001C4B00221C494FF0400C30B5054689B0A3
:103348000220596007219A601A620124DA620A226F
:103358004FF4006EDC6006922022CDE900010420C3
:103368000821CDE9020103201021CDE9040108203C
:103378006946C3E904024FF4C072181DC3E906C2C6
:103388004FF48052C3E909E20BF03CFC38B92846F7
:10339800FFF782FF003818BF012009B030BD204672
:1033A80009B030BD1C9B042440410052614A0021F1
:1033B800D0B513688EB00A91002B40F0B9805E4BEF
:1033C80001214FF683700C2411600221D3F8D42018
:1033D8000026032742F48052C3F8D420D3F8D4201F
:1033E80002F480520092009AD3F8E02042F01002D2
:1033F800C3F8E020D3F8E02002F010020192019A0D
:10340800D3F8E02042F04002C3F8E020D3F8E020EF
:1034180002F040020292029AD3F8E02042F0080239
:10342800C3F8E020D3F8E02002F008020392039AE0
:10343800D3F8E02042F48072C3F8E020D3F8E0200B
:1034480002F480720492049AD3F8E02042F08002D9
:10345800C3F8E020D3F8E02002F080020592059A34
:10346800D3F8E02042F02002C3F8E020D3F8E020AF
:1034780002F020020692069AD3F8E02042F00402F5
:10348800C3F8E020D3F8E0300C9403F0040307936A
:103498000323079A0B93CDE9080108A9274806F0EA
:1034A8001DFE48F23712022308A925480C94CDE9DD
:1034B8000823CDE90A6706F011FE4CF203720223D5
:1034C80008A920480C94CDE90823CDE90A6706F03D
:1034D80005FE40F2FF62022308A91B480C94CDE9BF
:1034E8000823CDE90A6706F0F9FD4FF60C720223AE
:1034F80008A916480C94CDE90823CDE90A6706F017
:10350800EDFD4FF63F02022308A911480C94CDE9BE
:103518000823CDE90A6706F0E1FD2022022308A965
:103528000A480C94CDE90A67CDE9082306F0D6FDD0
:103538000EB0D0BD189B0424004402580010025855
:1035480000180258000C025800200258001C0258AB
:10355800001402582DE9F04FDFF8108406460D4696
:10356800144608F118002DED028B89B000AF02F067
:10357800CFFED8F8183073B3D8F81C30D8F80490B8
:10358800002B43690BBF4FF0080A4FF0100A4FF0A9
:10359800020B4FF0040BB9F1000F2AD0A200EA4643
:1035A800012B02F1070222F00702ADEB020D68467B
:1035B800ADEB020D694600F03F81022B00F0D6808A
:1035C800002B6FD02246C847D5462437BD46BDECF0
:1035D800028BBDE8F08FD8F81C30002BF5D0D8F856
:1035E80004904FF0080A4FF0020B4369B9F1000F3D
:1035F800D4D1FB61D8F80030BB61002BE5D0D548A9
:1036080002F0F8FE6B46BBF1020F786108EE103A43
:10361800FB6900F083816A465146A2EBC4029546D5
:103628006200EA46B2FBFBF2AAEBC40085460AEB4D
:103638008200EE46F861ADEB010DF8690EEB820CE5
:10364800C7F810C0EC46ADEB010D00EB8201CCF8D9
:103658000400CCF8081001EB82013869E946CCF87F
:103668000C1000EB8201CCF800A001EB8202C9E942
:1036780000E0C9E90212012B00F06483022B00F07C
:103688006C82002B00F08081620849466046BB6965
:10369800984718EE103A24379D46BD46BDEC028B7C
:1036A800BDE8F08F002C8DD01A46D8ED0C6A9FED3E
:1036B800B27A8446331D36F922E00CF1080C07EE85
:1036C80090EA33F922E00232F8EEE77A944267EEA4
:1036D800877A67EEA67A4CED027A07EE90EAF8EE62
:1036E800E77A67EE877A67EEA67A4CED017AE2D838
:1036F800F9612246C847984ED8ED0D6A0020F9694D
:103708002B1D9FED9E7A9FED9E6ADFED9E5A22E06B
:10371800F4EEC67AF1EE10FAC0F2C88447F6FE72EB
:10372800D1ED017A45F8202066EEA77AF4EEC77A43
:10373800F1EE10FA40F2F080F4EEC67AF1EE10FAEB
:10374800C0F2D58447F6FE7243F8202002300831D3
:1037580084427FF639AFD1ED007A66EEA77AF4EEAF
:10376800C77AF1EE10FAD3D83246D9E7002C3FF4E5
:1037780029AFD8ED0C6A84469FED787A0022331D74
:103788008E4656F822100CF1080C07EE901A53F8E2
:1037980022100232F8EEE77A944267EE877A67EEF3
:1037A800A67A4CED027A07EE901AF8EEE77A67EE01
:1037B800877A67EEA67A4CED017AE2D871462246FE
:1037C800C7F81CE0C847664ED8ED0D6A0020F969B5
:1037D8002B1D9FED6A7A9FED6A6ADFF894C120E09D
:1037E800F4EEC67AF1EE10FAC0F279843246D1EDE1
:1037F800017A45F8202066EEA77AF4EEC77AF1EE52
:1038080010FA40F28780F4EEC67AF1EE10FAC0F2B0
:103818005E84324643F820200230083184427FF625
:10382800D3AED1ED007A66EEA77AF4EEC77AF1EE60
:1038380010FAD5D86246DAE7002C3FF4C3AED8EDCB
:103848000C6A86469FED477A4FF0000C331D56F8F8
:103858002C200EF1080E82F40002A2F5000207EEF9
:10386800902A53F82C200CF1020CF8EEE77A82F437
:1038780000026445A2F5000267EE877A67EEA67A31
:103888004EED027A07EE902AF8EEE77A67EE877A2D
:1038980067EEA67A4EED017AD9D8F9612246C84773
:1038A800314ED8ED0D6A0020F9692B1D9FED337A52
:1038B8009FED336ADFF8BCC01FE0F4EEC67AF1EE84
:1038C80010FAC0F2FC833246D1ED017A45F8202087
:1038D80066EEA77AF4EEC77AF1EE10FA18D9F4EE8C
:1038E800C67AF1EE10FAC0F2DA83324643F82020A5
:1038F8000230083184427FF667AED1ED007A66EE79
:10390800A77AF4EEC77AF1EE10FAD6D86246DBE76A
:103918006246EBE762467DE7324615E7A100D646E8
:103928006208073121F00701ADEB010DEA46ADEB66
:10393800010D6946ADEB0E0D0AEB8200EC46ADEBCE
:103948000E0D01EB8202F861E946CCE900A0C9E955
:10395800001290E6709B04240280FFFF00000030F4
:103968000082FF7F0000003482FF7F00549B042404
:10397800007E00807E0080FF0000003804FF7FBFCB
:1039880004FF7F3F00FEFF46002C00F0C982BBF118
:10399800020FD8F8242000F0FA827969C7F8049059
:1039A80002EB810E5FED0C5A8A00DCF808100EF16C
:1039B80004007A611A46DCF80C303B61331DD7F8F5
:1039C80010903D61FD69C7E902CB8C46834636F904
:1039D8002210D8ED0C7A06EE101A33F9221006EEF2
:1039E800901A3EF92210B8EEC66A07EE101AF8EEE1
:1039F800E66A3BF92210B8EEC77A26EE256A66EE2B
:103A0800A56A27EE257A26EE276A66EEA76A27EECC
:103A1800277A07EE901A51080232F8EEE77A0AEB95
:103A28008100944280ED006A05EB810067EEA57A7B
:103A3800C0ED006A0CEB810009EB810180ED007A92
:103A480098ED0C7A67EE877AC1ED007ABFD8D7F87F
:103A580004903D69D7E902CB60466208BB694946D4
:103A68009847D8F82C307A69D8ED0D6A1A441FEDBA
:103A78003D7A1FED3D6A2B1D904602F1040A5FED69
:103A88003F5A0022A84ED9E900EC51E0F4EEC67A7C
:103A9800F1EE10FAC0F2C78247F6FE7045F8220030
:103AA8000CEB0100D0ED007A66EEA77AF4EEC77A47
:103AB800F1EE10FA4BD9F4EEC67AF1EE10FAC0F234
:103AC800BA8247F6FE70BBF1020F43F822002BD0F2
:103AD800D9F808000844D0ED007A66EEA77AF4EE2B
:103AE800C77AF1EE10FA36D9F4EEC67AF1EE10FA8A
:103AF800C0F2CD8247F6FE7048F82200D9F80C00D3
:103B08000144D1ED007A66EEA77AF4EEC77AF1EEB9
:103B180010FA1ED9F4EEC67AF1EE10FAC0F2AF82AE
:103B280047F6FE714AF82210023294427FF6B1AD90
:103B380051080EEB81008900D0ED007A66EEA77A75
:103B4800F4EEC77AF1EE10FAA0D83046A6E7304670
:103B5800B9E73146E6E73046CEE7002C00F0E081D1
:103B6800BBF1020FD8F8243000F0E1817A69DCF863
:103B7800081003EB820EC7F804909300DFED6B5A30
:103B88000EF1040000227B61DCF80C303B61331D30
:103B9800D7F810903D61FD69C7E902CB8C46834692
:103BA80056F82210D8ED0C7A07EE101A53F82210A6
:103BB800B8EEC76A07EE101A5EF82210F8EEC76A68
:103BC80007EE101A26EE256A5BF82210B8EEC77ABF
:103BD80066EEA56A26EE276A27EE257A66EEA76ABC
:103BE80027EE277A07EE901A51080232F8EEE77AA4
:103BF8000AEB8100944280ED006A05EB810067EED4
:103C0800A57AC0ED006A0CEB810009EB810180ED1B
:103C1800007A98ED0C7A67EE877AC1ED007ABFD802
:103C2800D7F804903D69D7E902CB60466208BB69C2
:103C380049469847D8F82C307A69D8ED0D6A1A4465
:103C48009FED3E7A9FED3E6A131D9246DFF8E4C071
:103C58000022FB612B1D364ED9E9008E4EE0F4EEB2
:103C6800C67AF1EE10FAC0F2FC81304645F822001F
:103C78000EEB0100D0ED007A66EEA77AF4EEC77A73
:103C8800F1EE10FA49D9F4EEC67AF1EE10FAC0F264
:103C9800EF813046BBF1020F43F822002AD0D9F851
:103CA80008000844D0ED007A66EEA77AF4EEC77AE9
:103CB800F1EE10FA35D9F4EEC67AF1EE10FAC0F248
:103CC800C98130464AF82200D9F80C000144D1EDE8
:103CD800007A66EEA77AF4EEC77AF1EE10FA1ED9EA
:103CE800F4EEC67AF1EE10FAC0F2AD813146F86909
:103CF80040F82210023294427FF6CBAC510808EB10
:103D080081008900D0ED007A66EEA77AF4EEC77AD2
:103D1800F1EE10FAA3D86046A8E76046BAE7614614
:103D2800E5E76046CEE700BF0280FFFF00000030F5
:103D38000082FF7F007E00800000003404FF7FBF08
:103D480004FF7F3F002C00F0EB807A690021D8F84F
:103D58002430C7F8109003EB820ED7F81C9093001C
:103D6800FD610EF104021FED0C6A7B61331D1546DF
:103D780056F821204808D8ED0C6ABBF1020F82F4EE
:103D88000002A2F5000207EE902A53F8212082F4DF
:103D98000002B8EEE77AA2F5000227EE067A07EEEF
:103DA800902A0AEB8002F8EEE77A27EE267A67EE89
:103DB800867A82ED007A09EB80024FEA800067EE8E
:103DC800A67AC2ED007A27D05EF8212082F400029C
:103DD800A2F5000207EE902A55F8212082F400028D
:103DE800B8EEE77AA2F5000227EE067A07EE902AE7
:103DF800DCF80820F8EEE77A024427EE267A67EE28
:103E0800867A82ED007A98ED0C7ADCF80C2067EE61
:103E1800877A0244C2ED007A02318C42A8D8D7F8DA
:103E2800109060466208BB694946FD699847D8F812
:103E38002C307A69D8ED0D6A1A441FED407A1FEDCF
:103E4800406A131D9246DFF8C4C20022FB612B1D95
:103E5800AB4ED9E9008E4EE0F4EEC67AF1EE10FAD8
:103E6800C0F2C580304645F822000EEB0100D0EDC7
:103E7800007A66EEA77AF4EEC77AF1EE10FA49D91D
:103E8800F4EEC67AF1EE10FAC0F2BF803046BBF10C
:103E9800020F43F822002AD0D9F808000844D0EDD0
:103EA800007A66EEA77AF4EEC77AF1EE10FA35D901
:103EB800F4EEC67AF1EE10FAC0F2AE8030464AF857
:103EC8002200D9F80C000144D1ED007A66EEA77AF9
:103ED800F4EEC77AF1EE10FA1ED9F4EEC67AF1EED6
:103EE80010FAC0F28B803146F86940F8221002328D
:103EF80094427FF6CEAB510808EB81008900D0EDE3
:103F0800007A66EEA77AF4EEC77AF1EE10FAA3D833
:103F18006046A8E76046BAE76146E5E76046CEE74F
:103F2800224649466046BB699847FFF7B2BBC7F8C7
:103F380010B0002298ED0C6A331DDFED726AD7F8D5
:103F48001CB0786956F8221007EE901A53F8221020
:103F5800B8EEE77A07EE901A51080232F8EEE77ADF
:103F680027EE267A0AEB810E94420BEB810167EE6D
:103F7800A67A27EE067A67EE867A8EED007AC1ED8C
:103F8800007ADFD88300D7F810B07B614DE61A4677
:103F9800C7F810B098ED0C6A331DDFED5B6AD7F8EF
:103FA8001CB0786936F9221007EE101A33F922107E
:103FB80007EE901AB8EEC77A51080232F8EEE77A9F
:103FC80027EE267A0AEB810E94420BEB810167EE0D
:103FD800A67A27EE067A67EE867A8EED007AC1ED2C
:103FE800007ADFD88300D7F810B07B6134E5F0EEB3
:103FF800675AFEEEE45A15EE900A34E7F0EE675A77
:10400800FEEEE45A15EE901A6EE7F0EE675AFEEEF1
:10401800E45A15EE900A3AE7F0EE675AFEEEE45AD3
:1040280015EE900A4BE767EEA57AFDEEE77A17EEF4
:10403800900A00B232E567EEA57AFDEEE77A17EE50
:10404800900A00B23FE5F0EE675AFEEEE05A15EE30
:10405800901A4CE6F0EE675AFEEEE05A15EE900A1A
:1040680030E6F0EE675AFEEEE05A15EE900AFDE5EE
:10407800F0EE675AFEEEE05A15EE900A0AE667EE91
:10408800A57AFDEEE77A17EE901A09B24AE567EECF
:10409800A57AFDEEE77A17EE900A00B22CE5F0EE6D
:1040A800675AFEEEE45A15EE902A1FE467EEA57AE9
:1040B800FDEEE77A17EE902A12B2FFF731BBF0EE69
:1040C800675AFEEEE45A15EE902AFFF7FDBBF0EEB4
:1040D800675AFEEEE05A15EE902AFFF79BBBF0EE0A
:1040E800675AFEEEE05A15EE902AFFF780BB67EE9E
:1040F800A57AFDEEE77A17EE902A12B2FFF724BBF5
:1041080082FF7F0000000030000000387E0080FF42
:1041180030B5184C154685B0046004F1080EEC461D
:104128000FC98EE80F00D4ED047AF5EEC07A8CE85A
:104138000F00F1EE10FA1ADDB7EE006A94ED057A79
:1041480027EE277AC6EE276A84ED0D7AC4ED0C6A4D
:104158006DB1204640F8185F02F0DAF806490369A5
:104168000020064A2162A262E36005B030BD01204A
:1041780005B030BD549B04240020003000000030FE
:1041880000680830704700BF0068183002F020B996
:1041980030B5046883B00D46E3694BB1A3680020CD
:1041A800E26A616A9B00009004F11C0002F0B2F818
:1041B800A3680748A26A9B00216A009004F11800CE
:1041C80002F0A8F80020C4E9005003B030BD00BFD9
:1041D8005D35000810B4074B4FF07E5130240022A3
:1041E800032019619C60D8605DF8044B5961C3E9EC
:1041F80006227047549B0424F6EE007A9FED166A57
:1042080020EE207A0160F7EE006A80ED036A80ED07
:10421800020A27EE277AC6EE877AF4EEE67AF1EEFE
:1042280010FA11DDF0EE667A4FF07E514FF0000C77
:1042380002760022C0ED017AC0F814C0016143760D
:104248008276C0ED070A7047F4EEC67AF1EE10FAEE
:10425800EAD5F0EE467AE7E7000000000268037E40
:10426800128807EE902AFBEEC87A1BB1B7EE007AE7
:1042780077EE677AD0ED056A90ED047A77EEE67A04
:10428800437E67EE877A0BB1F1EE677A90ED030A09
:1042980090ED017A77EEC07AA7EE270A80ED030A3F
:1042A800704700BF30B585B004460025ADF80C1046
:1042B800ADF80820ADF8043003F03AFBBDF80C2047
:1042C8004FF48073206004F118002283BDF80820A1
:1042D8006383E383A283257100F0EEFE04F11C00E2
:1042E80000F0EAFE9FED060A019904F1080000F0CB
:1042F800E7F84FF6FF736562238405B030BD00BF51
:1043080000000000F8B5044603F012FB00262368FD
:104318002671834205D104F10800BDE8F84000F099
:10432800E9B8012794F82050206004F11800BD4036
:10433800277100F09DFF6DB2284394F82150BD40CD
:1043480084F8200004F11C0000F092FF94F820305B
:104358006DB2666203F003032843022BC0B284F8EF
:10436800210009D000F003000228D4D1002BD2D1BB
:104378004FF0FF336362CEE78307CCD16762CAE7A9
:10438800074A118830B481800024064D91884FF483
:10439800807285600460C180C26030BC704700BF15
:1043A800044F01080040003000220A230270037104
:1043B800704700BFDFED167A8C46B4EE670A10B579
:1043C80004468646F1EE10FA2DED028B80ED080AC0
:1043D80048BFB0EE670AC0ED090AB0EE608A80F8FF
:1043E8003420BCE80F00AEE80F009CE80F008EE810
:1043F8000F0010F071FAF0EE407AB0EE480AC4ED02
:104408000A7A10F069FA84ED0B0ABDEC028B10BD34
:1044180095BFD63390F8343010B50446032B4BD8EB
:10442800DFE803F03B2A1502FFF718FF60EE006A89
:10443800D4ED087A94ED097A26EE800A37EE677A89
:10444800E0EE077AC4ED0C7AB0EE670A10BDFFF70C
:1044580005FF94ED0A7AD4ED0B7A77EEC77AA0EED1
:10446800277AB0EE470A10F0C5F9F0EE407A84EDED
:104478000C0AB0EE670A10BDFFF7F0FED4ED087A1B
:1044880094ED097A20EE000A37EE677AE0EE077AB3
:10449800B0EE670AC4ED0C7A10BDFFF7DFFED4ED6D
:1044A800087A94ED097A37EE677AE0EE077AB0EE8B
:1044B800670AC4ED0C7A10BDD0ED0C7AC4E700BFD2
:1044C80070B5044682B0C1F30726CDB2ADF804102A
:1044D80003F02EFA4FF480724FF001232060A01DE4
:1044E800A571A280E671A36002B0BDE8704000F03B
:1044F800E3BD00BF38B5044603F01AFA002223686A
:104508002271834210D00122A57AE37A9540206077
:104518002271A01D6DB243B900F0AAFE40B2284333
:10452800C0B27F28A0720AD038BD00F0A1FEB0FA50
:1045380080F040092843C0B27F28A072F4D103F06C
:10454800F7F907EE900AF8EE677AC4ED037A38BDFA
:1045580000B583B04FF0000E4FF0030C4274ADF875
:104568000410BDF8043080F810E0A0F802C0038001
:1045780003B05DF804FB00BF2DE9F04FDFF81C83A2
:1045880000258DB0C04C037008F140034260074617
:1045980001920E46202229464046C4F86831C4F8E4
:1045A8006481CDE90255CDE90455CDE90655CDE93B
:1045B8000855CDE90A5510F071FB2022294604F56B
:1045C800A170C4F83151C4F83551C4F83951C4F850
:1045D8003D5110F063FB019B84F8485284F8303158
:1045E8007A68002A6AD02B4604F59871454606F188
:1045F800100A9E46F01856F803B0E2180EF1010EA4
:10460800D0F80CC0D0F80490D0F8088044F803B073
:10461800C2F80CC04FF0000CC2F80490C2F8088031
:10462800008A25F802CB10821AF8032001F8012F1E
:10463800002A70D07A684FF001001233724584F86E
:104648004802D7D84FF4802290489DF804300821BA
:104658004FF000084FF00009C4F884310023C4E982
:104668005B020122C4F8743184F88031C4E95E2108
:1046780094F84812C4E96489A9B3C4F898210022BF
:1046880084F8813184F888313B78C4E96722002BAB
:1046980038D0012200200121013B84F8A421C4E97B
:1046A8006C01082B30D8DFE813F0BD00C200C7004A
:1046B800CC00D100D600DB00E100E8009DF8043012
:1046C8000121C4F87421C4F884314FF4802384F89C
:1046D80080216E4AC4E95B2308230022C4E95E13E3
:1046E8000023C4E964230123002284F881310023D4
:1046F80084F888310323C4F898313B78C4E96722E9
:10470800002BC6D184F8A431614804F06DF9034642
:1047180038B1FFBEFEE77A68123372453FF66AAFDA
:1047280090E702A95A48029304F0BCFA824600288E
:1047380076D1042240F2FF710A90CDE9081294F86C
:104748003021002A00F0F3804FF006080AEBCA0374
:104758004FEACA0904EB43035B7C072B07D8DFE861
:1047680003F0595C5653504D4A04072307930FFA38
:104778008AF6D14406EBC60604EB490904EB460762
:104788007500384600F098FC99F81030042B00F3B7
:10479800AA80022B00F3BD8000F0B98004EB0A0365
:1047A800002283F8202114F81630002B78D0022B31
:1047B80000F08A80012B40F0B2807B78012B00F05A
:1047C800B080002B334B18BF002305A93048CDE932
:1047D800053803F035FD002840F0AC800AF1010AE5
:1047E80094F830315FFA8AFA534540F2A0802A4B98
:1047F80053F82A80AAE706230793B8E70523079307
:10480800B5E704230793B2E703230793AFE702232F
:104818000793ACE700230793A9E701230793A6E7CB
:10482800FFBEFEE703224023C4E96A236CE70722A0
:104838006023C4E96A2367E70F228023C4E96A2357
:1048480062E71F22A023C4E96A235DE73F22C02351
:10485800C4E96A2358E77F22E023C4E96A2353E7BF
:10486800FF224FF48073C4E96A234DE740F2FF1238
:104878004FF49073C4E96A2346E740F2FF324FF4DD
:10488800A073C4E96A233FE7909B042400200240F8
:10489800FC9C04240002B025485101080041003066
:1048A8007B78062B37D0072B3DD0022B4AD0032B21
:1048B8004AD0002B4CD0012B48D0042B4AD0052BD2
:1048C800254B18BF002380E77B78042B25D0052BC8
:1048D8002BD08BB3012B31D0022B31D0032B1F4BA4
:1048E80018BF002371E70323043504EB0A0B4FF0CC
:1048F800000925448BF82031284609F1010900F008
:10490800DBFB9BF8203104354B45F5DC4BE70123F5
:10491800EAE70223E8E7124B57E7124B55E7002373
:1049280053E7114B51E7114B4FE7114B4DE70DB0D2
:10493800BDE8F08FFFBEFEE70E4B46E70E4B44E79F
:104948000E4B42E70E4B40E70E4B3EE70E4B3CE763
:104958000E4B3AE70E4B38E70000B84F0020903670
:104968000800900C1000C0102000F0148000501DAA
:10497800000180210004002A0008302E0010603257
:104988000040C03A0080F03E00005247000021433A
:104998000000844B38B5094C40F2FF724FF001110A
:1049A80004F5B675284604F02BF994F83021D4F8AC
:1049B80064112846BDE8384003F096BE909B042455
:1049C800034B0F29D3F8640198BF00EB41007047EF
:1049D800909B0424214B02689A4200D07047204AD9
:1049E80000232048D2F8D81030B51F4C41F02001E0
:1049F80083B0C4F8D001092004F5E875C4E975034B
:104A08004FF48060C2F8D810D2F8D8204FF4006173
:104A1800C4E9773094F8480202F02002C4F8E4119F
:104A28004FF40051984201922846C4F8E811C4E9AD
:104A38007C33019B14BF00234FF48073C4F8EC311E
:104A480004F082FC08B1FFBEFEE704F5B673C4F8B3
:104A5800B851C4F8083203B030BD00BF002002408E
:104A68000044025840000240909B0424014804F08E
:104A7800E3BF00BF609D042402682DE9F84F4B4B4B
:104A88009A4201D0BDE8F88F494D95F84832002B7D
:104A9800F8D095F83031002B77D0002405F10C09B7
:104AA80005F5A17605F59877A04613E003F0010116
:104AB80017F811BCA9F1080000F0E8FBBBF1010FE1
:104AC80025D895F83031013409F112090236A2B21D
:104AD80093422BD917F8012F002AF4D0D5F8643166
:104AE8000021327833F81400D5F8683103EB041349
:104AF80023F81200338801339BB233805FFA83FABC
:104B08003A789A42D2D88A46A6F80080D0E7CAF303
:104B18004001A9F1040000F0B9FBBBF1020FCAF390
:104B28008001CED0484600F0B1FBCAE7002395F8D3
:104B38004802204909229842C5F8D8314FF48060CC
:104B4800C5F8D011C5F8D4214FF400614FF40052D4
:104B5800C5F8DC3108BF4FF48073C5F8E821C5E912
:104B6800780100221448C5E97B32C5F8F42104F025
:104B7800EBFB08B1FFBEFEE795F83021D5F86411CC
:104B88000E48BDE8F84F03F0AFBD0A4909224FF4BB
:104B98008060C5F8D831C5E974124FF400614FF44C
:104BA8000052C5E97730C5E97912DAE700200240FA
:104BB800909B042440000240609D0424FC9C042433
:104BC800704700BF4F4B02689A4200D070474E4B67
:104BD800D3F8E81030B541F000514C4C85B0D4F80A
:104BE8004821C3F8E810D3F8E81001F0005101910A
:104BF8000199D3F8E01041F00101C3F8E010D3F8AF
:104C0800E03003F001030293029B32F002033DD02F
:104C1800013A012A6BD9D4F84C31012B0AD0002271
:104C28003620114604F0B2F8362005B0BDE8304011
:104C380004F0EAB8D4F8483133F0020234D0013B2A
:104C4800012BECD8442240233149324DC4F88C1052
:104C580000212846C4F8B010C4E9242300224FF4E8
:104C68008063C4E926234FF400624FF40053C4E97B
:104C780028234FF480724FF48033C4E92A2304F0C8
:104C880063FB80B9E560C4F8C440C8E74FF48062AC
:104C9800032303A8ADF80C208DF80E3000F00CFAB1
:104CA800D4F84821B4E7FEE71B4BA26343226361B3
:104CB80040231A4DC4E9062300224FF48063284696
:104CC800C4E908234FF400624FF40053C4E90A23EF
:104CD8004FF480724FF48033C4E90C2304F034FBA2
:104CE80020B9D4F84831A560E464A8E7FEE74FF49A
:104CF800A062032303A8ADF80C208DF80E3000F055
:104D0800DBF988E70074004000440258E09D042461
:104D1800280402406C9E042410040240F49D0424DC
:104D2800014804F089BE00BFF49D0424014804F042
:104D380083BE00BF6C9E042410B5054C204604F0C9
:104D48004FF904F58270BDE810400AF053B900BF6E
:104D5800E09D042430B58C463A4C3B4D8DB0046040
:104D680004F5A27EBCE80F00AEE80F00DCF80030C6
:104D780020462560CEF8003004F0D4F80023D4F89B
:104D88004C510393C5B11622012D049217D000226D
:104D9800D4F85411D4F848319142CDE9062218BF0D
:104DA8000222059233F0020235D0013B012B3CD997
:104DB800002528460DB030BD02230493E7E7234AB7
:104DC8000093C4F80C31C4F81431C4F80421C4F8B1
:104DD8001C31CDE9013302F027FFD4F844314BF6FA
:104DE8008032C4F80851002B08BF1346B0FBF3F318
:104DF80004F58270C4F8103109F066FF0028D8D194
:104E080020230290694604F5827000930AF0AAF9FB
:104E18000028BCD0CDE703A90A4804F015F978B9F1
:104E2800D4F84831013B012BC2D8102203A9054808
:104E380004F00AF9051E18BF012528460DB030BD3B
:104E48000125B6E7E09D04240074004000100040EE
:104E58002DE9F0410668D6F84C5105BBD6F850311B
:104E68000C461746002B0CBF4FF008084FF00008FF
:104E780031F0020305D0013C012C14D92846BDE8C5
:104E8800F0811346294642463046013C04F08EF82C
:104E98002946304604F05CF8012CEFD803E00125E0
:104EA8002846BDE8F0813B4642461021304604F0D2
:104EB8007DF81021304604F04BF82846BDE8F08113
:104EC80010B592B0ADF804100180C9B2149C0B293A
:104ED800C460C0E901233FD090F801C0BCF10F0FB6
:104EE8003AD8022A3FD0032A02D0012A00D0002251
:104EF8000E92012B02D0022B18BF0023022C0F9315
:104F08002CD0032C2AD0012C28D000230A29109356
:104F180027D85C4A02EB812202610A2914D8DFE80B
:104F280001F0A39587796B5D4F4133250600564BF9
:104F3800D3F8E01041F48061C3F8E010D3F8E03012
:104F480003F480630C930C9B01230DA9104603FA0C
:104F58000CF30D9305F0C2F812B010BD0A29109495
:104F6800D7D90022D8E711220E92C2E7464BD3F8D0
:104F7800E01041F40071C3F8E010D3F8E03003F416
:104F880000730B930B9BDFE73F4BD3F8E01041F422
:104F98008071C3F8E010D3F8E03003F480730A930B
:104FA8000A9BD1E7384BD3F8E01041F08001C3F8F1
:104FB800E010D3F8E03003F080030993099BC3E7BE
:104FC800314BD3F8E01041F04001C3F8E010D3F8BA
:104FD800E03003F040030893089BB5E72A4BD3F869
:104FE800E01041F02001C3F8E010D3F8E03003F0FE
:104FF80020030793079BA7E7234BD3F8E01041F062
:105008001001C3F8E010D3F8E03003F01003069362
:10501800069B99E71C4BD3F8E01041F00801C3F850
:10502800E010D3F8E03003F008030593059B8BE705
:10503800154BD3F8E01041F00401C3F8E010D3F8A1
:10504800E03003F004030493049B7DE70E4BD3F890
:10505800E01041F00201C3F8E010D3F8E03003F0AB
:1050680002030393039B6FE7074BD3F8E01041F06B
:105078000101C3F8E010D3F8E03003F00103029314
:10508800029B61E7000002580044025808B501215C
:1050980043780069994089B205F028FA003818BFAA
:1050A800012008BD01230A464178006903FA01F18D
:1050B80089B205F021BA00BF8378022B30B50446C7
:1050C8008FB037D0032B33D0012B31D000230A9374
:1050D800E378012B2AD0022B28D000230B9300233E
:1050E80020460C9302F026FF0546204602F02AFFD0
:1050F80023780990082B13D8DFE803F01F324558AE
:105108006B7E91A40500594BD3F8E02042F48072DD
:10511800C3F8E020D3F8E03003F480730893089BC9
:1051280009A9284604F0DAFF0FB030BD0B93D6E783
:105138000A93CDE711230A93CAE74C4B09A92846DD
:10514800D3F8E02042F00102C3F8E020D3F8E030C1
:1051580003F001030093009B04F0C0FF0FB030BDC3
:10516800424B09A92846D3F8E02042F00202C3F8CE
:10517800E020D3F8E03003F002030193019B04F030
:10518800ADFF0FB030BD394B09A92846D3F8E02050
:1051980042F00402C3F8E020D3F8E03003F004033F
:1051A8000293029B04F09AFF0FB030BD2F4B09A960
:1051B8002846D3F8E02042F00802C3F8E020D3F8EC
:1051C800E03003F008030393039B04F087FF0FB05C
:1051D80030BD264B09A92846D3F8E02042F010023A
:1051E800C3F8E020D3F8E03003F010030493049BE5
:1051F80004F074FF0FB030BD1C4B09A92846D3F842
:10520800E02042F02002C3F8E020D3F8E03003F0B9
:1052180020030593059B04F061FF0FB030BD134BCD
:1052280009A92846D3F8E02042F04002C3F8E0205C
:10523800D3F8E03003F040030693069B04F04EFFDA
:105248000FB030BD094B09A92846D3F8E02042F039
:105258008002C3F8E020D3F8E03003F0800307931E
:10526800079B04F03BFF0FB030BD00BF004402585D
:1052780038B5054602F05EFE0446284602F062FE96
:1052880001462046BDE8384005F030B970B50646FD
:105298000D4602F04FFE0446304602F053FE2A1E29
:1052A8000146204618BF0122BDE8704005F024B928
:1052B8000023122270B586B0CDE902230493036857
:1052C800032B01D804230593061D841D304602F0E4
:1052D80031FE0546304602F035FE034601A9284650
:1052E800019304F0FBFE204602F024FE034620460C
:1052F8001C4602F027FE01A903462046019304F04C
:10530800EDFE06B070BD00BF634A0368934210B556
:105318008CB028D0614A934258D0614A934200F039
:105328009480604A934201D00CB010BD5E4C5F4837
:10533800D4F8E03043F00203C4F8E030D4F8E030A9
:1053480003F002030A930A9BFFF7B2FFD4F8F43084
:1053580043F08003C4F8F430D4F8F43003F0800349
:105368000B930B9BE0E7504C5148D4F8E03043F0E6
:105378000203C4F8E030D4F8E03003F002030193EC
:10538800019BFFF795FFD4F8E83000221F2043F473
:1053980000131146C4F8E830D4F8E83003F40013D9
:1053A8000293029BD4F8D83043F00103C4F8D830F4
:1053B800D4F8D83003F001030393039B03F0E6FC11
:1053C8001F200CB0BDE8104003F01EBD364C394814
:1053D800D4F8E03043F08003C4F8E030D4F8E0308B
:1053E80003F080030493049BD4F8E03043F00203F5
:1053F800C4F8E030D4F8E03003F002030593059BCD
:10540800FFF756FFD4F8E8300022212043F4800348
:105418001146C4F8E830D4F8E83003F48003069362
:10542800069BD4F8D83043F00103C4F8D830D4F838
:10543800D83003F001030793079B03F0A7FC212052
:105448000CB0BDE8104003F0DFBC1B48FFF730FF8D
:10545800154B00224820D3F8E840114644F40004D4
:10546800C3F8E840D3F8E84004F400040894089C22
:10547800D3F8D84044F00104C3F8D840D3F8D83062
:1054880003F001030993099B03F080FC48200CB04A
:10549800BDE8104003F0B8BC00540040005800407C
:1054A800005C0040001C005800440258D4A10424A9
:1054B8004C9F042424A00424FCA004242DE9F043D8
:1054C8001A4B87B000254FF010099E46EC46184B42
:1054D800FF22E04667461A700EF118060EF13004F6
:1054E800CDE90055CDE90255ADF80090BCE80F00B4
:1054F800CDE90455AEE80F009CE803000095ADF82F
:1055080000908EE80300B8E80F000FC69CE803007F
:105518000095ADF8009086E803000FCF0FC49CE813
:10552800030084E8030007B0BDE8F0831C000024F2
:10553800489F042410B5EFF3108472B6084B1A780C
:10554800120602D504B962B610BD1B78D8220548E8
:105558005BB202FB0300143004F06EFAF2E700BFFE
:10556800489F04244C9F0424014805F05DBE00BFF9
:10557800D89F0424014805F057BE00BFB0A00424FA
:10558800014805F051BE00BF88A104242DE9F0436D
:105598000F68D8243F4D85B007FB04F4032F05EBB3
:1055A8000403036040DCCB680E46012B3CD84DD089
:1055B8004FF0D808B646DFF8FC9008FB0758BEE85D
:1055C8000F00C446ACE80F00DEF800300DF1100EF5
:1055D800CCF80030D8F808C099E80F000EE90F00A1
:1055E8000EEB8703BCF1010F53F8103CC8F88C3060
:1055F80031D0BCF1020F42D0BCF1000F35D0317C64
:105608008C34D823002201202C4403FB0753490083
:10561800C3E92602C3F894102046C3E92822C3E947
:105628002A2205F0F3FB18B1012005B0BDE8F0838C
:105638000146204605F004FE0028F5D10146204623
:1056480005F028FE003818BF0120EEE70B7C103B60
:10565800672BADD9E8E702F0DFFA0F4B98420CBF91
:105668000E4B0F4BC8F89030C9E702F0D5FA0A4B39
:1056780098420CBF0B4B0C4BC8F89030BFE702F0B8
:10568800CBFA054B98420CBF084B094BC8F8903031
:10569800B5E700BF4C9F0424000E27072D0FB0303C
:1056A8003211D0205F4390608A62E030200BA01056
:1056B8001A0980100C4F01082DE9F041D0F800803C
:1056C80082B00D4617461E4608F18C04204605F0A8
:1056D800B3FD2028FAD1D8F80C3073B96D002046F4
:1056E800089C33463A46A9B2009405F0E5FB003819
:1056F80018BF012002B0BDE8F081089B3246394648
:10570800204605F0ADFCF2E7044B10221A7483F82A
:10571800E82083F8C02183F8982270474C9F04241E
:1057280030B5002395B04FF48071062204460B93E0
:1057380006921393CDE90C13CDE90E33CDE911335D
:1057480002F074FA07282BD004F1100541F28832D0
:1057580006A9284606F0B0FB28B10123184684F8AC
:105768005C3015B030BD0222022306A92846CDE9D7
:10577800002310220123CDE9022300224FF48003E5
:10578800CDE9042305224FF0807306926A460F93F1
:1057980041F2883306F0FCFC0028DED115B030BD9C
:1057A8000323012084F85C3015B030BD00000000F0
:1057B80070B50023A4B04FF080724FF48075044692
:1057C800ADF806300D93CDE910320122CDE90E5324
:1057D800CDE91223CDE91433002943D0F02300F199
:1057E800100508AEADF80630C02341F288323146C4
:1057F8002846089306F060FB28B10123184684F870
:105808005C3024B070BD41F288320DF106012846A3
:1058180006F0BCFB03460028EFD105224FF4807147
:105828001E93284616924FF080721B9321931F9265
:1058380002AA9FED1F7BCDE91C13CDE922338DED24
:10584800027B9FED1D7B41F2883316A98DED047B09
:105858009FED1B7B8DED067B06F09AFC0028CCD1D2
:1058680024B070BD00F1100508AE612341F2883202
:1058780031462846089306F01FFB0028BDD141F2A7
:1058880088320DF10601284606F0FEFB0028B4D147
:10589800BDF80630204623F0780343F04003ADF806
:1058A8000630FFF73DFF00289ED0A6E7AFF3008043
:1058B80000000000010000001000000001000000CE
:1058C80000000000000040002DE9F04F00234FF4D5
:1058D800807501264FF0807804462DED028BABB021
:1058E8008DF8073013932193299314950E96CDF8CC
:1058F8005C80CDE91533CDE91863CDE91A33CDE9DC
:105908002253CDE92433CDE9273306231C9302F033
:105918008DF9072808D004F1100741F288321CA934
:10592800384606F0C9FA40B10123184684F85C30BD
:105938002BB0BDEC028BBDE8F08F4FF0020A4FF0A0
:10594800020B4FF0050941F2883308AA1CA9384612
:10595800CDF89480CDF870909FED2D8BCDE908ABF4
:105968004FF0000A4FF4800B8DED0A8BCDE90CAB9C
:1059780006F00EFC0028D7D141F2883238460EA92D
:1059880006F09AFA0028CFD1402341F288320DF16F
:10599800070138468DF8073006F0F8FA0028C3D119
:1059A80041F288330EA902AA3846CDF83890CDF8CE
:1059B8005C809FED197B8DED048BCDE906AB8DEDF9
:1059C800027B06F0E5FB03460028ADD1CDF87090C8
:1059D8004FF00109CDF894804FF00008219308AAF0
:1059E80029931CA938462295CDE92333CDE92733DD
:1059F80041F288338DED0A8BCDE90CABCDE90889EE
:105A080006F0C6FB002893D0304684F85C608FE728
:105A180010000000010000004000000040000000ED
:105A28002DE9F043624CA3B00D46046002F0FEF885
:105A3800072800F0A980286823466968AA6807C370
:105A48001E46AB8926F8043B3046257B677B06F06B
:105A580015FAE0B9574B012D4FF00108E0612361B9
:105A680014BF4FF480134FF40003C4E9058893FA78
:105A7800A3F3B3FA83F34FF48079013BC4F824907D
:105A8800C4E90B003046236206F08CF938B10122D4
:105A9800134684F85C20184623B0BDE8F0836623DB
:105AA8000B90139041F2883206A90693CDE90C9029
:105AB800CDE90E00CDE91100304606F0FDF90028C9
:105AC800E5D1992341F2883206A93046069306F0BB
