:020000040800F2
:10000000000002206909000865090008416E000827
:10001000650900086509000865090008000000007E
:10002000000000000000000000000000650900085A
:10003000650900080000000065090008C56D00089A
:1000400065090008650900086509000865090008D8
:1000500065090008650900086509000865090008C8
:1000600065090008650900086509000801560008CF
:100070000D5600086540000819560008255600086E
:100080008D6800082D4B0008650900086509000807
:100090006509000865090008650900086509000888
:1000A0006509000865090008650900086509000878
:1000B000A55C0008B15C0008BD5C0008614B00084D
:1000C000650900086D4B000865090008F122010868
:1000D000FD220108C1660008ED66000821670008DE
:1000E00065090008650900080000000065090008AE
:1000F0006509000865090008650900086509000828
:1001000065090008755A0008C95C00080923010840
:100110005567000889670008314300086509000831
:1001200019430008254300082D2301086123010815
:10013000C16800086509000865090008650900082C
:1001400000000000000000000000000000000000AF
:10015000650900086509000865090008BD67000811
:10016000794B000865090008D56D0008F96D000895
:10017000650900081D6E000865090008650900088A
:100180006509000865090008F1670008256800088E
:1001900015230108212301086509000865090008E5
:1001A0006509000865090008650900086509000877
:1001B0002153000865090008650900086509000861
:1001C0006509000865090008650900086509000857
:1001D0006509000865090008650900086509000847
:1001E0006509000865090008650900086509000837
:1001F0006509000865090008650900086509000827
:100200006509000865090008650900086509000816
:100210006509000865090008650900086509000806
:10022000650900086509000865090008000000006C
:10023000650900086509000800000000650900085C
:1002400065090008650900086509000865090008D6
:1002500065090008650900086509000865090008C6
:1002600065090008650900086509000865090008B6
:1002700065090008650900085968000800000000C9
:10028000650900086509000865090008000000000C
:080290000000000065090008F0
:1002980010B5054C237833B9044B13B10448AFF3B8
:1002A80000800123237010BDF0030024000000002B
:1002B800104B010808B5034B1BB103490348AFF3C2
:1002C800008008BD00000000F4030024104B010862
:1002D800034613F8012B002AFBD1181A013870477E
:1002E80081F0004102E000BF83F0004330B54FEADF
:1002F80041044FEA430594EA050F08BF90EA020F4C
:100308001FBF54EA000C55EA020C7FEA645C7FEADE
:10031800655C00F0E2804FEA5454D4EB5555B8BF01
:100328006D420CDD2C4480EA020281EA030382EA72
:10033800000083EA010180EA020281EA0303362D04
:1003480088BF30BD11F0004F4FEA01314FF4801CD7
:100358004CEA113102D0404261EB410113F0004FE9
:100368004FEA03334CEA133302D0524263EB4303A0
:1003780094EA050F00F0A780A4F10104D5F1200E3E
:100388000DDB02FA0EFC22FA05F2801841F1000199
:1003980003FA0EF2801843FA05F359410EE0A5F16D
:1003A80020050EF1200E012A03FA0EFC28BF4CF09E
:1003B800020C43FA05F3C01851EBE37101F0004554
:1003C80007D54FF0000EDCF1000C7EEB00006EEB61
:1003D8000101B1F5801F1BD3B1F5001F0CD34908EB
:1003E8005FEA30004FEA3C0C04F101044FEA445242
:1003F80012F5800F80F09A80BCF1004F08BF5FEAC9
:10040800500C50F1000041EB045141EA050130BDA8
:100418005FEA4C0C404141EB0101013C28BFB1F5BA
:10042800801FE9D291F0000F04BF01460020B1FA05
:1004380081F308BF2033A3F10B03B3F120020CDAD8
:100448000C3208DD02F1140CC2F10C0201FA0CF0B6
:1004580021FA02F10CE002F11402D8BFC2F1200C1B
:1004680001FA02F120FA0CFCDCBF41EA0C019040D1
:10047800E41AA2BF01EB0451294330BD6FEA04041A
:100488001F3C1CDA0C340EDC04F11404C4F1200205
:1004980020FA04F001FA02F340EA030021FA04F317
:1004A80045EA030130BDC4F10C04C4F1200220FA6E
:1004B80002F001FA04F340EA0300294630BD21FAAC
:1004C80004F0294630BD94F0000F83F4801306BF72
:1004D80081F480110134013D4EE77FEA645C18BF66
:1004E8007FEA655C29D094EA050F08BF90EA020FFD
:1004F80005D054EA000C04BF1946104630BD91EAF5
:10050800030F1EBF0021002030BD5FEA545C05D1F7
:100518004000494128BF41F0004130BD14F5800436
:100528003CBF01F5801130BD01F0004545F0FE41AA
:1005380041F470014FF0000030BD7FEA645C1ABFDF
:10054800194610467FEA655C1CBF0B46024650EA16
:10055800013406BF52EA033591EA030F41F4002142
:1005680030BD00BF90F0000F04BF0021704730B5C8
:100578004FF4806404F132044FF000054FF000019D
:1005880050E700BF90F0000F04BF0021704730B55E
:100598004FF4806404F1320410F0004548BF404233
:1005A8004FF000013EE700BF42004FEAE2014FEA88
:1005B80031014FEA02701FBF12F07F4393F07F4F63
:1005C80081F06051704732F07F4208BF704793F066
:1005D8007F4F04BF41F40021704730B54FF4607479
:1005E80001F0004521F000411CE700BF50EA01027C
:1005F80008BF704730B54FF000050AE050EA010225
:1006080008BF704730B511F0004502D5404261EB94
:1006180041014FF4806404F132045FEA915C3FF4D5
:10062800D8AE4FF003025FEADC0C18BF03325FEA72
:10063800DC0C18BF033202EBDC02C2F1200300FA23
:1006480003FC20FA02F001FA03FE40EA0E0021FA48
:1006580002F11444BDE600BF53B94AB9002908BFE6
:1006680000281CBF4FF0FF314FF0FF3000F074B985
:10067800ADF1080C6DE904CE00F006F8DDF804E0F1
:10068800DDE9022304B070472DE9F047089D0446D0
:100698008E46002B4DD18A42944669D9B2FA82F22D
:1006A80052B101FA02F3C2F1200120FA01F10CFA69
:1006B80002FC41EA030E94404FEA1C48210CBEFBA1
:1006C800F8F61FFA8CF708FB16E341EA034306FB2A
:1006D80007F199420AD91CEB030306F1FF3080F0B9
:1006E8001F81994240F21C81023E63445B1AA4B206
:1006F800B3FBF8F008FB103344EA034400FB07F7A8
:10070800A7420AD91CEB040400F1FF3380F00A81E8
:10071800A74240F207816444023840EA0640E41BDD
:1007280000261DB1D4400023C5E900433146BDE889
:10073800F0878B4209D9002D00F0EF800026C5E92B
:10074800000130463146BDE8F087B3FA83F6002E43
:100758004AD18B4202D3824200F2F980841A61EBBB
:10076800030301209E46002DE0D0C5E9004EDDE7D9
:1007780002B9FFDEB2FA82F2002A40F09280A1EBC1
:100788000C014FEA1C471FFA8CFE0126200CB1FB16
:10079800F7F307FB131140EA01410EFB03F088420F
:1007A80008D91CEB010103F1FF3802D2884200F29C
:1007B800CB804346091AA4B2B1FBF7F007FB10112E
:1007C80044EA01440EFB00FEA64508D91CEB0404CC
:1007D80000F1FF3102D2A64500F2BB800846A4EB27
:1007E8000E0440EA03409CE7C6F12007B34022FA12
:1007F80007FC4CEA030C20FA07F401FA06F31C4341
:10080800F9404FEA1C4900FA06F3B1FBF9F8200C4D
:100818001FFA8CFE09FB181140EA014108FB0EF093
:10082800884202FA06F20BD91CEB010108F1FF3AE3
:1008380080F08880884240F28580A8F102086144EF
:10084800091AA4B2B1FBF9F009FB101144EA0141FD
:1008580000FB0EFE8E4508D91CEB010100F1FF34A8
:100868006CD28E456AD90238614440EA0840A0FB40
:100878000294A1EB0E01A142C846A64656D353D016
:100888005DB1B3EB080261EB0E0101FA07F722FA3A
:1008980006F3F1401F43C5E9007100263146BDE863
:1008A800F087C2F12003D8400CFA02FC21FA03F3C6
:1008B800914001434FEA1C471FFA8CFEB3FBF7F047
:1008C80007FB10360B0C43EA064300FB0EF69E426C
:1008D80004FA02F408D91CEB030300F1FF382FD205
:1008E8009E422DD9023863449B1B89B2B3FBF7F6AD
:1008F80007FB163341EA034106FB0EF38B4208D986
:100908001CEB010106F1FF3816D28B4214D9023EC6
:100918006144C91A46EA004638E72E46284605E7E4
:100928000646E3E61846F8E64B45A9D2B9EB0208B5
:1009380064EB0C0E0138A3E74646EAE7204694E745
:100948004046D1E7D0467BE7023B614432E7304678
:1009580009E76444023842E7704700BFFEE7000039
:1009680009480A4A0A49121A13F0ECF809480A4ACF
:100978000021121A13F0F4F806F08AFC13F0AEF80E
:1009880001F0D4F8FEE700BF00000024EC030024C7
:10099800404B0108F003002458CA04241FB5002363
:1009A8008DF80D1003AA01798DF80C304FF47A7385
:1009B8000093022304F078F905B05DF804FB01F018
:1009C80009BD183003F0DEBA10B50446683002F0ED
:1009D8003DFF04F1880002F039FF04F1A80002F09D
:1009E80035FF04F1C800BDE8104002F02FBF4030C9
:1009F80002F080BF30B599B00446102001F0D4FC55
:100A0800ADF808000299022206A804F1180503F0BF
:100A180097F80F2001F0C8FCADF80C0003990222EA
:100A28000DF12A0003F08CF8152001F0BDFCADF89B
:100A38001000049902220FA803F082F8122001F096
:100A4800B3FCADF8140005990DF14E00022203F035
:100A580077F8042306A928461A4603F085F80021EA
:100A6800284603F0A5FA0090204601F0B7FC0023C1
:100A7800DFED1F0A04F168001A460099CDED010A5E
:100A880002F0B2FE0121284603F092FA00902046B7
:100A980001F0A4FC0023DDED010A04F188001A46E8
:100AA800009902F0A1FE0221284603F081FA009085
:100AB800204601F093FCDDED010A00230122009994
:100AC80004F1A80002F090FE0321284603F070FA12
:100AD8000090204601F082FCDDED010A002301228E
:100AE800009904F1C80002F07FFE19B030BD00BFC4
:100AF8006F12033B70B594B0044601AD05AE2846AD
:100B080002F036FF95E80F0004F1E80586E80F00CB
:100B180009AE85E80F0086E80F000123002105468D
:100B280012930E95CDE90F3147F612231393022342
:100B38001193BDF82830D4E93C02ADF83630BDF841
:100B48002A30C4E93F02ADF8343013F009F80DA992
:100B580004F1F80005F066FF04F5867002F01CFF4A
:100B680014B070BD1FB504461B2001F01DFCADF884
:100B780004001A2001F018FCADF808001C2001F050
:100B880013FCADF80C00204601F028FC019904F193
:100B98004000DDE9022304B0BDE8104002F07ABE4F
:100BA80005490123032200F51240C1E9002300236F
:100BB80048300B7204F01ABF0C04002484B038B516
:100BC80005AD044685E80E009DF8283029460371D6
:100BD80003F0D4FF2046AE21FFF7E0FE2046D521E2
:100BE800FFF7DCFE20468021FFF7D8FE2046A8212B
:100BF800FFF7D4FE20461F21FFF7D0FE2046DA215A
:100C0800FFF7CCFE20461221FFF7C8FE2046D3216D
:100C1800FFF7C4FE20460021FFF7C0FE2046402112
:100C2800FFF7BCFE2046A621FFF7B8FE2046A42108
:100C3800FFF7B4FE20468D21FFF7B0FE20461421B1
:100C4800FFF7ACFE2046A121FFF7A8FE2046C821E9
:100C5800FFF7A4FE20468121FFF7A0FE20468F2142
:100C6800FFF79CFE2046D921FFF798FE2046252154
:100C7800FFF794FE2046DB21FFF790FE2046342143
:100C8800FFF78CFE2046AF21FFF788FEBDE838400D
:100C980004B0704770B5002390B0114A064604AD01
:100CA8000AACCDE904320222CDE9062310230893C9
:100CB8003C238DF824300FCD0FC495E8030010AB0A
:100CC80084E8030013E907000AAB8DE8070006F57E
:100CD80012400ECB5430FFF771FF10B070BD00BF4B
:100CE8000108010970B5044686B001F05BFB0121DB
:100CF8002046002501F032FC2046FFF733FF20464E
:100D0800FFF7C8FF2046FFF7F5FE2046FFF772FE03
:100D180020462034FFF744FF0226012301A920467C
:100D280003950296CDE9043503F00CFB2A463146BB
:100D3800204603F085FB06B070BD704770477047CA
:100D480070477047704770B5044600F5F27500F1BA
:100D5800AC06B54204D0183D284612F05FFBF8E710
:100D6800204670BD00F1100300F588704A4203F870
:100D7800012B8342FAD1704710B5054C04F11800D5
:100D880012F04CFB2046BDE8104012F047BB00BFF4
:100D980018040024202070474020704710B50446EE
:100DA8004FF4887112F009FB204610BD00F10803CA
:100DB80073B504460D460360D9B10846FFF788FAB3
:100DC8000F2805EB0006019007D9002201A920464B
:100DD80012F002FB019B2060A3603246294620687E
:100DE80012F035FB019B226800216360D15402B0E8
:100DF80070BD014812F0E6FA403E0108036870B57C
:100E08000E46DB68044615469847B04205D8236865
:100E18002046DB689847013886B223682046A680BA
:100E28009B689847A84205D8236820469B6898473E
:100E3800013885B2E58070BDD0ED017AB6EE000AC2
:100E480090ED007AD0ED026A37EE800AC0ED007AA4
:100E580096EEA77A80ED017A704700002DE9F843F5
:100E680006461746984689462DED088B90ED0D8A63
:100E780090ED0EAAD0ED0CAAD0ED0A9A90ED0BBA1F
:100E880090ED0F9AD0ED108AB8F1000F00F0BE81F6
:100E980033685A1E49BF03F5FF4332607F3333601E
:100EA800D6E90045E30640F0A68106F10800FFF701
:100EB800C3FF06F11800F0EE40BAFFF7BDFF04F1DA
:100EC800950399ED006AD7ED007AC4F30E02C3F3D7
:100ED8000E039FEDD27A76EE277A08F1FF3835F9BE
:100EE800133006EE903AA7EE8B7ADFEDCD7AF8EE66
:100EF800E66A66EEA76AA8EE267AF0EE475AE8EEAA
:100F0800476AFEEEE85A15EE903A03F30F0325F808
:100F1800123004F5B673C3F30E0335F9133007EE38
:100F2800103A04F19703B8EEC77AC3F30E0327EE1D
:100F3800277AE8EE076AF0EE665AA8EE667AFEEEC1
:100F4800E85A15EE902A02F30F0225F8132004F54B
:100F58002B73C3F30E0335F9133006EE903A04F5FC
:100F6800B773F8EEE66AC3F30E0366EEA76AA8EE57
:100F7800267AF0EE475AE8EE476AFEEEE85A15EE92
:100F8800902A02F30F0225F8132004F2BC43C3F39E
:100F98000E0335F9133007EE103A04F2AE23B8EE1B
:100FA800C77AC3F30E0327EE277AE8EE076AF0EE56
:100FB800665AA8EE667ADFED9B6AFEEEE85A15EEF1
:100FC800902ADFED995A02F30F02E0EE265A25F82F
:100FD800132043F6D232FDEEE56A16EE903AB8EEEB
:100FE800E65A234435EEC55A991803F56F5313335F
:100FF800C1F30E01C3F30E0335F9111035F913309F
:1010080006EE901A05EE903AF8EEE66A04F64353B7
:10101800F8EEE55AC3F30E0365EEA75A35F9133017
:10102800E6EEE75A65EE255AE6EEA75AF0EE476A6D
:10103800EAEEA56A76EEC96AAAEE269A06EE903A14
:1010480004F2BE43F8EEE66AC3F30E0366EEA76A3F
:10105800F0EE495AE8EE665AB0EE655AE8EE256AAF
:10106800BEEEE85A15EE101A01F30F0125F8131019
:1010780004F5BE530633C3F30E0335F9133005EEFA
:10108800903A04F64553F8EEE55AC3F30E0365EEBD
:10109800A75AE8EE256AE8EE665AB0EE665ABEEE42
:1010A800E85AF0EE656A15EE101AB0EE005A01F330
:1010B8000F01FEEEE86A25F8131041F2C87316EE28
:1010C800900AF0EE466AE11800F30F00D5EE856A43
:1010D800C1F30E0125F81100A6EEA96ADFED536AE7
:1010E800A9EC016A9FED526AABEEA66AFDEEC66AEC
:1010F80016EE900AF8EEE65A204476EE655A034456
:1011080000F5BE50C3F30E03093035F91330C0F3B0
:101118000E0006EE903A35F9103006EE103AF8EE69
:10112800E66A04F54C53B8EEC66A3A3326EE276AE7
:10113800C3F30E0335F91330A6EEE76A25EE866A87
:10114800A6EEA76AAAEE867A37EE687AEAEE078AEA
:1011580007EE103A04F52553B8EEC77A1E3327EE8A
:10116800277AC3F30E03F0EE686AE8EE076AB0EE7A
:10117800666AA8EE667ABEEEE86A16EE101A01F301
:101188000F0125F8131004F56F531033C3F30E0342
:1011980035F9133006EE903A04F54C531444F8EE42
:1011A800E66A3C33C4F30E04C3F30E0366EEA77A73
:1011B800A8EE677AE8EE077AF0EE476AFEEEE86A8C
:1011C800B0EE677A16EE901A01F30F01BEEEE87AD8
:1011D80025F8131017EE103A97ED007A03F30F0372
:1011E800F0EE476A25F81430D7EE856AA6EEA97A9C
:1011F800A7EC017A48E6F6EE007AD6ED02BA96ED4B
:10120800060A7BEEA7BA30EE270A58E686ED0F9A53
:10121800C6ED108ABDEC088BBDE8F883000000001D
:10122800000000380000484200A8C34500002042E2
:1012380000608B452DE9F0410646904601F108070C
:101248002DED088B90ED0D8A90ED0EAAD0ED0CAA2D
:10125800D0ED0A9A90ED0BBA90ED0F9AD0ED108A66
:10126800B8F1000F00F0DB8133685A1E49BF03F55F
:101278007F5332603F333360D6E90045E30640F0E0
:10128800C38106F10800FFF7D7FD06F11800F0EE5C
:1012980040BAFFF7D1FDB2EE047ADFEDE57A57EDFB
:1012A800025A08F1FF380837ABEEA77AFDEEC77A85
:1012B80017EE903AF8EEE76ADFEDDE7A234477EE30
:1012C800666AC3F30D020133C3F30D0335F9122027
:1012D80035F9133006EE102A07EE103AB8EEC66A52
:1012E80004F16403B8EEC77AC3F30D0327EE277A37
:1012F800A6EE677A26EE877ADFEDCF6AA6EE277A22
:1013080037EE267AB0EE476ABEEECA6A16EE102AA3
:1013180017ED036A02F30F0235EE865A25F81320FB
:1013280004F17003C4F30D0225EE0B5AC3F30D0349
:1013380035F91330A7EE265A06EE903AF8EEE66A2B
:10134800B0EE457A66EEA76AA8EE267AB0EE475A5E
:10135800E8EE476ABEEECA5A15EE103A03F30F03D9
:1013680025F8123004F21313C3F30D0335F91330C3
:1013780007EE103A04F17203B8EEC77AC3F30D030F
:1013880027EE277AE8EE076AB0EE665AA8EE667A84
:10139800BEEECA5A15EE102A02F30F0225F81320E2
:1013A80004F20523C3F30D0335F9133006EE903A22
:1013B80004F21513F8EEE66AC3F30D0366EEA76AA6
:1013C800A8EE267AB0EE475AE8EE476ABEEECA5A49
:1013D80015EE102A02F30F0225F8132004F29533B4
:1013E800C3F30D0335F9133007EE103A04F207235F
:1013F800B8EEC77AC3F30D0327EE277AE8EE076A3B
:10140800B0EE665AA8EE667ADFED8C6ABEEECA5A6E
:1014180015EE102A9FED8A5A02F30F02A0EE265A03
:1014280025F8132042F65252FDEEC56A16EE903AA0
:10143800F8EEE64A234475EE644A991803F53553E5
:101448001333C1F30D01C3F30D0335F9111035F949
:10145800133006EE901A05EE103AF8EEE66A04F636
:101468000B23B8EEC55AC3F30D0325EE275A35F9F9
:101478001330A6EEE75A24EE855AA6EEA75AF0EEE8
:10148800476AEAEE856A76EEC96AAAEE269A06EEF9
:10149800903A04F29733F8EEE66AC3F30D0366EE6A
:1014A800A76AB0EE495AA8EE665AF0EE454AE8EE49
:1014B800056AFEEECA4A14EE901A01F30F0125F8E8
:1014C800131004F590530233C3F30D0335F91330A9
:1014D80005EE103A04F60D23B8EEC55AC3F30D0312
:1014E80025EE275AE8EE056AA8EE665AF0EE664A37
:1014F800FEEECA4AF0EE456A14EE901AF0EE004A83
:1015080001F30F0125F8131004F59053FEEECA6A93
:101518000433C3F30D0316EE901AF0EE656A01F377
:101528000F0125F8131004F5FA53D5EE246A163383
:10153800C3F30D0335F91330E6EEA95A06EE903AD7
:1015480004F51B53F8EEE66A1033C3F30D0366EE99
:10155800A76A47ED045A35F91330AAEEA67A37EE92
:10156800687AEAEE078A07EE103A04F5FA53B8EEFD
:10157800C77A183327EE277AC3F30D03F0EE686AAB
:10158800E8EE076AF0EE665AA8EE667AFEEECA5AE8
:1015980015EE901A01F30F0125F8131004F53553D1
:1015A8001033C3F30D0335F9133006EE903A04F502
:1015B8001B531444F8EEE66A1233C4F30D04C3F364
:1015C8000D0366EEA77AA8EE677AE8EE077AF0EEE2
:1015D800476AFEEECA6AB0EE677A16EE901A01F311
:1015E8000F01BEEECA7A25F8131017EE103AB0EEC6
:1015F800467A03F30F0325F8143097EEA47AA7EE82
:10160800296A07ED036A2BE6B6EE000AD6ED02BAA0
:10161800D6ED067A7BEE80BA37EE800A3BE686ED99
:101628000F9AC6ED108ABDEC088BBDE8F08100BFAB
:101638000000704200008039000000000000C8422D
:101648000040924570B5274D064600F178040FCD4D
:101658000FC40FCD0FC40FCD0FC42B6806F1AC001B
:1016680021492360FFF7A2FB06F1C4001F49FFF7D9
:101678009DFB06F1DC001E49FFF798FB06F1F4001C
:101688001C49FFF793FB06F586701B49FFF78EFB95
:1016980006F592701949FFF789FB06F59E701849FF
:1016A800FFF784FB06F5AA701649FFF77FFB06F5DE
:1016B800B6701549FFF77AFB06F5C2701349FFF7B4
:1016C80075FB06F5CE701249FFF770FB06F5DA7068
:1016D8001049FFF76BFB06F5E6700F49FFF766FB4D
:1016E800304670BDC83D01086A3E01086F3E0108DA
:1016F800733E0108773E01087B3E01087F3E0108E2
:10170800793E0108813E0108753E0108713E0108D5
:101718006C3E0108833E0108863E010810B5234C43
:101728002046FFF751F92046FFF761F9204802F0FB
:1017380069F9204802F066F994F84C3053B194F8EE
:1017480052307F2B06D11C4A1368002BCCBF0023D4
:1017580001231360164B194C1A6B194B20461A605B
:10176800144B1A6B174B1A6002F04CF9164802F02A
:1017780049F994ED0C7ADFED157AB4EEE77AF1EEDB
:1017880010FA0ADD124B1A780AB901221A70B4EE5F
:10179800E77AF1EE10FA04D406E005D50C4B1B7875
:1017A80013B10B4B00221A7010BD00BF5004002467
:1017B8007C9A0224B49A0224309B0424249802249C
:1017C800480400244C0400245C9802240000FA43D6
:1017D800789A02242DE9F347002480460D46924664
:1017E800FFF79CFF544545D0D8F800304FF07E5C99
:1017F800224E4FEA840903EB84032148214F1A68DB
:10180800D8F80430009203EB84031B68326001931C
:1018180073601D4B1D4A19681D4B01631B68C2622A
:10182800836339636946FA6201AABB630123C0F87E
:1018380028C0C7F828C0FFF711FB012231463846F7
:10184800FFF7F8FC134B1B681BB1012B0AD00134BE
:10185800C8E72B6832684B441A606B6872684B445F
:101868001A60F4E72B68009A4B441A606B68019A77
:101878004B44F5E702B0BDE8F08700BFD8970024D5
:10188800EC9A0224E09700244C040024CDCC4C3F71
:1018980048040024309B0424B5EE006AF6EE006A82
:1018A80030EE460AB5EEC00AF1EE10FA18D5B1EEE0
:1018B800400AF3EE007A20EE277AC0ED016AF0EED6
:1018C800005AF7EE007AE0EE657A67EE277AC0ED07
:1018D800027A67EE867AC0ED037AC0ED007A704727
:1018E800B4EEE60AF1EE10FA02DD30EE660AE0E741
:1018F800FBEE007ADFE7F0B5044685B0C71DB025DA
:1019080029462046FFF74AF83E4600212046FFF7C1
:1019180045F812212046FFF741F8402303AA217910
:1019280020468DF80C3016F8013F8DF80D304FF435
:101938007A730093022303F0B7F907F140039E423C
:10194800EBD10135EDB2B42D01D105B0F0BD37466C
:10195800D6E7083008B5FFF7CEFF08BD3F2910B518
:1019680010D81F2A0ED8D40802F0070201EB841100
:101978000124084404FA02F290F9081052B213B193
:101988001143017210BD21EA0201FAE7083008B5D7
:10199800FFF7E4FF08BD2DE9F04F0E4685B0044679
:1019A80004A9A6F120059DF838B001E90C00EBB2B6
:1019B8005E2B04D90026304605B0BDE8F08F0368D9
:1019C8009DF80870DB689DF809A09847A3883B44F8
:1019D8009842EFDB236820469B689847E388534486
:1019E8009842E7DB0AFB05F54FF000096D00CA4590
:1019F8001DD9039B4FF000085B5B01934745A18805
:101A0800E28810D9019B41444A4404F1080003FAD2
:101A180008F308F101081B044CBF5B468BF0010377
:101A2800FFF79CFFEAE709F101090235DFE7A18822
:101A38002046E288394489B2FFF7E0F9BBE7F0B500
:101A480085B006464C1E02AD9DF8287085E80C004E
:101A580014F8011F41B10097304695E80C00FFF7D4
:101A68009AFF21788842F3D0084605B0F0BD0000FF
:101A780070B54FF480728AB00021254812F070F8D2
:101A8800002224481146FFF7B9F9234B06AA18216A
:101A98001B6804924B43214AD118D4584B68E51867
:101AA8001CB915B11E4811F08DFC0F2B039307D9F3
:101AB800002203A904A811F08FFC039B049006934D
:101AC8002A4621460498012611F0BCFC039B049A7F
:101AD80000210593D154049D124C294600960D48C7
:101AE80094E80C00FFF7ABFF18222E210948FFF7F6
:101AF80085F929460096074894E80C00FFF79FFFF0
:101B08000948FFF7F8FE04A811F088FC0AB070BD78
:101B1800AC9600249C960024309B042418040024CE
:101B2800403E010848020024A496002480B563487A
:101B380088B0634DFFF7D6F860486C46FEF741FF62
:101B4800F7EE000A9FED5F0A6F46DFF8C8810FCDF8
:101B58000FC495E80F0005F1100684E80F00002275
:101B68006946594801F01EFFF7EE000A9FED570A33
:101B78000FCE0FC796E80F0005F130066F4684E8D0
:101B88000F0000226946524801F00CFFDFED510AB0
:101B98009FED510A0FCE0FC796E80F0005F15006CA
:101BA8006F4684E80F00002269464C4801F0FAFEAF
:101BB800DFED480A9FED480A0FCE0FC796E80F00E1
:101BC80084E80F00002269464548002401F0EAFE37
:101BD800444E45484FF480320021444F706011F064
:101BE800BFFF30469FED420A40F8084BFFF754FE0E
:101BF8009FED400A06F11800FFF74EFE3B683E488D
:101C08004FF4004273632146C6F838803B4E70603B
:101C180011F0A6FF30469FED3A0A40F8084BFFF74F
:101C28003BFE9FED380A06F11800FFF735FE3B68CA
:101C38006946354873634FF0FF33C6F8388002931E
:101C48008DF80C40CDE9004404F040F82E4804F02B
:101C5800A5F82E4B0022A5F1780003F110015C6075
:101C6800DA60596603F120011B66996603F13001B9
:101C7800DA61D96603F140015C61196703F150012B
:101C8800DA6259675C622249DA635C63DA645C642D
:101C9800DA655C651A609C601A619C611A629C62D4
:101CA8001A639C631A649C641A659C65FEF787FE38
:101CB800FFF734FDFFF7DCFEFAE700BF500400240D
:101CC800B8040024ACC527377C9A02246F12833AE3
:101CD800B49A022400409C4500409CC524980224E4
:101CE8005C980224EC9A0224309B0224040000240D
:101CF8003EC3AE3918B7513924980024E097002420
:101D08006F12033A52499D39D497002494980224BB
:101D1800DD1700083333333F2DE9F043914685B092
:101D28000446984608464B46DDE90C52A3EB090CDD
:101D380013F8011B0029F9D198F8006098F80110F0
:101D480016FB0CF60F4636B226EAE676082A76D84F
:101D5800DFE802F06B05270B35453C536100B5F908
:101D68000020B5F90230228053E02B88A988B5F904
:101D780002200B4462809B1B2380A680E780628838
:101D880021880390FFF73AF89DF8383049460398C0
:101D9800009398E80C00FFF752FE204605B0BDE816
:101DA800F083B5F90430B5F9021003EBD3722B8830
:101DB800618003EB6203A3EB66032380DDE76B8896
:101DC800B5F90020ED882B445B1ACCE76B88EA88CC
:101DD80013445B1A2A88A9880A44921BC3E76B88B4
:101DE800EA8813445B1AB5F9042002EBD2712A88F9
:101DF80002EB6102A2EB6602B5E7B5F90630B5F968
:101E0800001003EBD3726B88218003EB6203A3EB12
:101E180057036380B1E7B5F9063003EBD3726B88DB
:101E280003EB6203A3EB5103D4E7B5F9063003EBE8
:101E3800D3726B8803EB6203A3EB5103D3E7002350
:101E480023806380A380E38099E7000000000000FE
:101E58002DE9F04F2DED068B87B01C4603929DF8B7
:101E68006030DDE916289FEDB64BB8F1000F0493FA
:101E7800BCBF4244C8F1000807EE902A02EB0803F1
:101E8800B8EEE76B07EE103A9FEDAF5B26EE046BFA
:101E9800B8EEC77BCDE9010186EE050B27EE047B82
:101EA800F7EEC08B87EE050BF7EEC09BB0EE680A25
:101EB80011F0EEFA07EE904AB8EE67AA2AEE008A09
:101EC800B0EE680A11F0E8FC60EE4A8AB0EE690AE2
:101ED80011F0DEFA2AEE009AB0EE690A11F0DCFC85
:101EE80020EE4AAA39EE487A049B7AEE687A67EEC1
:101EF800A77AE7EE077AB0EE007AF4EEC77AF1EE49
:101F080010FA08D5B8F1B40F00F3CA8007B0BDECD9
:101F1800068BBDE8F08F002201276542C4F1010459
:101F28000026BB46BA466400B9460492049A002AC1
:101F38006ED107EE906A7242B8F1B40FF8EEE76A14
:101F480007EE905AB8EEE77A07EE902AC5F100023C
:101F580066EE884AF8EEE77A06EE102A27EE285A47
:101F680066EE896AB8EEC66A67EE885A27EE0A7A7C
:101F780066EE283A67EE897A26EE0A6A34EEE34A74
:101F880074EEC54A35EEC55AB5EEC04A75EEE35A49
:101F980040F39180F1EE10FA00F1848036EEC64AE3
:101FA800B5EEC04AF1EE10FACCBF4FF001094FF080
:101FB8000009F5EEC04AF1EE10FA76D476EEC76A5B
:101FC800F5EEC06AF1EE10FACCBF4FF0010A4FF0FF
:101FD800000AB5EEC05AF1EE10FA69D437EEC77AA6
:101FE800B5EEC07AF1EE10FACCBF4FF0010B4FF00E
:101FF800000BF5EEC05AF1EE10FA00F19B8077EE77
:10200800C67AF5EEC07AF1EE10FACCBF01270027A8
:10201800B9F1000F09D0039A02990198B218491B27
:1020280005930830FFF79AFC059BBAF1000F09D019
:10203800039A02990198B218691805930830FFF7B6
:102048008DFC059BBBF1000F09D0039A02990198FA
:10205800921B691805930830FFF780FC059B4FB168
:10206800039A02990198921B491B05930830FFF7C0
:1020780075FC059BA6425FDB013604EB4602EE4287
:1020880002F1010202D1A54202DB0024A54255DA81
:10209800013502EB4502541C002D7FF747AF35E7A9
:1020A800012239E74FF0010983E74FF0010A90E771
:1020B8004FF0010B9DE7F1EE10FA32D536EEC64A25
:1020C800B5EEC04AF1EE10FACCBF4FF001094FF05F
:1020D8000009F5EEC04AF1EE10FA25D576EEC76A8A
:1020E800F5EEC06AF1EE10FACCBF4FF0010A4FF0DE
:1020F800000AB5EEC05AF1EE10FA18D537EEC77AD5
:10210800B5EEC07AF1EE10FACCBF4FF0010B4FF0EC
:10211800000BF5EEC05AF1EE10FA3FF570AF00274C
:1021280076E7DDF81090D4E74FF0000AE1E74FF0CA
:10213800000BEEE701276BE72246A7E71446ABE75B
:102148007A008BFCFA2109400000000000806640FC
:102158002DE9F04F1F4685B014460830DDF838A049
:10216800A7EB01089DF83C300D46AAEB0209B8F12F
:10217800000F0393B8BFC8F10008B9F1000F02902F
:10218800B8BFC9F1000992458CBF01224FF0FF3258
:102198008F428CBF4FF0010B4FF0FF3B3946019245
:1021A8005246FFF7DBFBA8EB0906DDE90203BD4257
:1021B80001D1544516D02946224603930290FFF7D1
:1021C800CDFBC9F100017200B1EB460FBCBFA6EB15
:1021D80009065D449045DDE90203E8DD019A4644BD
:1021E8001444E4E705B0BDE8F08F2DE9F3479DF806
:1021F80030C005460C4616461F46DDF828809DF877
:102208002C90BCF1000F10D0A7422AD3B246D0457B
:1022180009D352464B46214605F108000AF1010A46
:10222800FFF79CFBF3E70134EEE7CDE90029FFF760
:102238008FFF3B46324639462846CDE90089FFF7ED
:1022480087FF2346424639462846CDE90089FFF7ED
:102258007FFF2346424621462846CDE90069FFF71D
:1022680077FF02B0BDE8F08770B5384C0025384ECE
:10227800256004F1E80065612562E56301F078FBFB
:10228800344B354A2046C4F8A03140F20F73C4F8E5
:10229800F850A4F8A43104F5DC73C4F8B451C4F8B8
:1022A800A83140F201132D49C4E96B3504F51043F8
:1022B8002B4CC3F84C223246C3F8545211F078F82C
:1022C80032462849284811F073F8324627492848E9
:1022D80011F06EF800232748012227490360436064
:1022E80043620272324605628562C0E9065511F002
:1022F8005FF82046FFF7A6F932462049204611F03C
:1023080057F832461E491F4811F052F832461C4908
:102318001D4811F04DF81D4C324619491C4811F062
:1023280047F8324616491B4811F042F820461A4928
:10233800FEF73CFD04F118001849FEF737FD324658
:1023480028461749BDE8704011F032B850040024FF
:10235800000000240080707FA03E0108450D0008A1
:1023680094980224470D0008EC9A0224490D0008AD
:10237800E0970024AC9700244B0D00084F0D00088F
:10238800430D00087C9A0224B49A022418040024FD
:10239800249802245C980224893E0108903E010892
:1023A800810D0008704700BF202882B009D8084B6B
:1023B80003EB400213F81030507843EA002002B0D3
:1023C800704701230C2043EA002002B0704700BF89
:1023D800D43E0108143001F0D3B900BF90ED0E0AC5
:1023E800704700BF10B540F203338EB000244FF69B
:1023F8000B7240F20341ADF8083009A80123ADF88B
:102408001020ADF824202246ADF80C100094029953
:1024180007940C94CDE90544CDE90A4402F048F844
:1024280004A8012322460399009402F041F809A860
:1024380002F024F910B901200EB010BD04A802F072
:102448001DF9A0420CBF022020460EB010BD00BFEF
:102458002DE9F04103239AB0012700240646CDE96F
:1024680014373B4BCDE9104340F20453CDE91647EE
:10247800ADF84830FFF7B6FFB842054625D0022828
:1024880045D040F60132334B0DF12C081894ADF8C5
:102498002C200B981997CDF84A3000F0D7F810A9DE
:1024A80006F13C0003F034F9302003224FF07E534C
:1024B80041460D930E93CDE90B02F26B06F1140021
:1024C80001F01EF91AB0BDE8F0811023214A06A9CF
:1024D80006908DF828300DF12C081F4BCDF84A20B6
:1024E80007930294CDE91804CDE9080402A802F084
:1024F80045FB0823029A03A94046ADF80C508DF815
:102508000E40049505930B9400F0E0F8C7E700200F
:102518000121104B0DF12C083A460094CDF84A30B1
:102528004FF60B730C94ADF82C302346CDE9180107
:1025380040F601314046ADF818100699CDE90D4432
:1025480001F0B6FF2146404602F0A4F8A7E700BF15
:1025580004020404040604030704010B2DE9F043F4
:1025680004462DED028B83B0002948D0012140F2AA
:10257800011200230091ADF804208DF80630304A8E
:102588000126304B271D304904F12908626040F2CA
:102598000272A36040F60663E16004F12509268211
:1025A800A4F8252084F82760A4F8293084F82B6043
:1025B80004F024FE6946054648B304F130008DF85E
:1025C800066004F077FD072D34D104F11405204688
:1025D800FFF73EFF284601F0CFF82846B0EE408AC4
:1025E80001F0C6F8D0ED007AF8EE677A88EE277A1F
:1025F80084ED0E7A03B0BDEC028BBDE8F08340F2A7
:10260800011300918DF80610ADF80430B7E704F116
:10261800300004F04FFD3946204602F0F9FC4846E8
:1026280002F042F8404602F03FF804F1120000F0D0
:1026380077F9CAE73946204602F0EAFCC5E700BF49
:102648000508050905070506050A060610B584B03C
:1026580003460124ADF8040003A8ADF80C30ADF82A
:102668000E4002F021F8214603A802F007F920469F
:1026780004F054FC002103A802F000F9204604F0FD
:102688004DFC214603A802F0F9F804B010BD00BFC4
:1026980010B5C2F3002384B00C46017C8DF80D20E0
:1026A80043EA4402FA2402238DF80C2003AA00947A
:1026B80002F0FAFA18B10124204604B010BD04460D
:1026C8000A2004F02BFC204604B010BD034670B568
:1026D80043F8042B044684B007C983E80700A379AC
:1026E80083B91A210B461E22FA2523742046ADF819
:1026F8000C20022303AA009502F0D6FA28B1012083
:1027080004B070BD1B210B46EDE70A2004F006FC5F
:102718004FF4B85200950223ADF80C20204603AAC6
:10272800217C02F0C1FA0028E9D10A2004F0F6FB66
:1027380041F2027200950223ADF80C20204603AA4C
:10274800217C02F0B1FA0028D9D10A2004F0E6FB76
:10275800042200950223ADF80C20204603AA217C10
:1027680002F0A2FA0028CAD10A2004F0D7FB0622F8
:1027780000950223ADF80C20204603AA217C02F024
:1027880093FA0028BBD10A2004F0C8FB41F20822C2
:1027980000950223ADF80C20204603AA217C02F004
:1027A80083FA0028ABD10A20064604F0B7FB00954F
:1027B800022303AA217C2046ADF80C6002F074FACB
:1027C80000289CD1304604F0A9FB009522790C23FF
:1027D8002046002A8DF80C3003AA4FF0020314BFDC
:1027E800622142218DF80D10217C02F05DFA00284B
:1027F80085D1304604F092FB2279D4E902310B43AB
:10280800DBB20AB943F0400362790AB143F020030E
:102818000E22FA258DF80D302046009502238DF8FA
:102828000C2003AA217C02F03FFA00287FF467AF4E
:102838000A2004F073FB102200950223ADF80C2047
:10284800204603AA217C02F02FFA00287FF457AF14
:102858000A2004F063FB122100950223ADF80C1046
:1028680003AA217C204602F01FFA00287FF447AF14
:102878000A2004F053FB012209212046FFF708FF34
:10288800003818BF01203BE7F0B5102387B0234C70
:10289800012200250126002702A920460195CDE93D
:1028A80002234FF48052CDE904670BF0BDFC64208D
:1028B80004F04AFF02A94FF480522046CDE904678C
:1028C80002261027CDE902670BF0AEFC0322102385
:1028D80002A92046CDE9022300230422CDE90423DE
:1028E8004FF480520BF0A0FC40F23223042202A9DC
:1028F800019310232046CDE90223019A0123059272
:102908004FF4805204930BF08FFC40F606012046EA
:102918000BF0AAFC284607B0F0BD00BF3C9B04247E
:102928001C4B00221C494FF0400C30B5054689B0BD
:102938000220596007219A601A620124DA620A2289
:102948004FF4006EDC6006922022CDE900010420DD
:102958000821CDE9020103201021CDE90401082056
:102968006946C3E904024FF4C072181DC3E906C2E0
:102978004FF48052C3E909E20BF02CFC38B9284621
:10298800FFF782FF003818BF012009B030BD20468C
:1029980009B030BD389B042440410052614A0021EF
:1029A800D0B513688EB00A91002B40F0B9805E4B09
:1029B80001214FF683700C2411600221D3F8D42032
:1029C8000026032742F48052C3F8D420D3F8D42039
:1029D80002F480520092009AD3F8E02042F01002EC
:1029E800C3F8E020D3F8E02002F010020192019A27
:1029F800D3F8E02042F04002C3F8E020D3F8E0200A
:102A080002F040020292029AD3F8E02042F0080253
:102A1800C3F8E020D3F8E02002F008020392039AFA
:102A2800D3F8E02042F48072C3F8E020D3F8E02025
:102A380002F480720492049AD3F8E02042F08002F3
:102A4800C3F8E020D3F8E02002F080020592059A4E
:102A5800D3F8E02042F02002C3F8E020D3F8E020C9
:102A680002F020020692069AD3F8E02042F004020F
:102A7800C3F8E020D3F8E0300C9403F00403079384
:102A88000323079A0B93CDE9080108A9274806F004
:102A98000DFE48F23712022308A925480C94CDE907
:102AA8000823CDE90A6706F001FE4CF203720223FF
:102AB80008A920480C94CDE90823CDE90A6706F057
:102AC800F5FD40F2FF62022308A91B480C94CDE9EA
:102AD8000823CDE90A6706F0E9FD4FF60C720223D8
:102AE80008A916480C94CDE90823CDE90A6706F031
:102AF800DDFD4FF63F02022308A911480C94CDE9E9
:102B08000823CDE90A6706F0D1FD2022022308A98F
:102B18000A480C94CDE90A67CDE9082306F0C6FDFA
:102B28000EB0D0BD349B0424004402580010025853
:102B380000180258000C025800200258001C0258C5
:102B4800001402582DE9F04FDFF8108406460D46B0
:102B5800144608F118002DED028B89B000AF02F081
:102B6800CFFED8F8183073B3D8F81C30D8F80490D2
:102B7800002B43690BBF4FF0080A4FF0100A4FF0C3
:102B8800020B4FF0040BB9F1000F2AD0A200EA465D
:102B9800012B02F1070222F00702ADEB020D684695
:102BA800ADEB020D694600F03F81022B00F0D680A4
:102BB800002B6FD02246C847D5462437BD46BDEC0A
:102BC800028BBDE8F08FD8F81C30002BF5D0D8F870
:102BD80004904FF0080A4FF0020B4369B9F1000F57
:102BE800D4D1FB61D8F80030BB61002BE5D0D548C3
:102BF80002F0F8FE6B46BBF1020F786108EE103A5E
:102C0800FB6900F083816A465146A2EBC4029546EF
:102C18006200EA46B2FBFBF2AAEBC40085460AEB67
:102C28008200EE46F861ADEB010DF8690EEB820CFF
:102C3800C7F810C0EC46ADEB010D00EB8201CCF8F3
:102C48000400CCF8081001EB82013869E946CCF899
:102C58000C1000EB8201CCF800A001EB8202C9E95C
:102C680000E0C9E90212012B00F06483022B00F096
:102C78006C82002B00F08081620849466046BB697F
:102C8800984718EE103A24379D46BD46BDEC028B96
:102C9800BDE8F08F002C8DD01A46D8ED0C6A9FED58
:102CA800B27A8446331D36F922E00CF1080C07EE9F
:102CB80090EA33F922E00232F8EEE77A944267EEBE
:102CC800877A67EEA67A4CED027A07EE90EAF8EE7C
:102CD800E77A67EE877A67EEA67A4CED017AE2D852
:102CE800F9612246C847984ED8ED0D6A0020F96967
:102CF8002B1D9FED9E7A9FED9E6ADFED9E5A22E086
:102D0800F4EEC67AF1EE10FAC0F2C88447F6FE7205
:102D1800D1ED017A45F8202066EEA77AF4EEC77A5D
:102D2800F1EE10FA40F2F080F4EEC67AF1EE10FA05
:102D3800C0F2D58447F6FE7243F8202002300831ED
:102D480084427FF639AFD1ED007A66EEA77AF4EEC9
:102D5800C77AF1EE10FAD3D83246D9E7002C3FF4FF
:102D680029AFD8ED0C6A84469FED787A0022331D8E
:102D78008E4656F822100CF1080C07EE901A53F8FC
:102D880022100232F8EEE77A944267EE877A67EE0D
:102D9800A67A4CED027A07EE901AF8EEE77A67EE1B
:102DA800877A67EEA67A4CED017AE2D87146224618
:102DB800C7F81CE0C847664ED8ED0D6A0020F969CF
:102DC8002B1D9FED6A7A9FED6A6ADFF894C120E0B7
:102DD800F4EEC67AF1EE10FAC0F279843246D1EDFB
:102DE800017A45F8202066EEA77AF4EEC77AF1EE6C
:102DF80010FA40F28780F4EEC67AF1EE10FAC0F2CB
:102E08005E84324643F820200230083184427FF63F
:102E1800D3AED1ED007A66EEA77AF4EEC77AF1EE7A
:102E280010FAD5D86246DAE7002C3FF4C3AED8EDE5
:102E38000C6A86469FED477A4FF0000C331D56F812
:102E48002C200EF1080E82F40002A2F5000207EE13
:102E5800902A53F82C200CF1020CF8EEE77A82F451
:102E680000026445A2F5000267EE877A67EEA67A4B
:102E78004EED027A07EE902AF8EEE77A67EE877A47
:102E880067EEA67A4EED017AD9D8F9612246C8478D
:102E9800314ED8ED0D6A0020F9692B1D9FED337A6C
:102EA8009FED336ADFF8BCC01FE0F4EEC67AF1EE9E
:102EB80010FAC0F2FC833246D1ED017A45F82020A1
:102EC80066EEA77AF4EEC77AF1EE10FA18D9F4EEA6
:102ED800C67AF1EE10FAC0F2DA83324643F82020BF
:102EE8000230083184427FF667AED1ED007A66EE93
:102EF800A77AF4EEC77AF1EE10FAD6D86246DBE785
:102F08006246EBE762467DE7324615E7A100D64602
:102F18006208073121F00701ADEB010DEA46ADEB80
:102F2800010D6946ADEB0E0D0AEB8200EC46ADEBE8
:102F38000E0D01EB8202F861E946CCE900A0C9E96F
:102F4800001290E68C9B04240280FFFF00000030F2
:102F58000082FF7F0000003482FF7F00709B042402
:102F6800007E00807E0080FF0000003804FF7FBFE5
:102F780004FF7F3F00FEFF46002C00F0C982BBF132
:102F8800020FD8F8242000F0FA827969C7F8049073
:102F980002EB810E5FED0C5A8A00DCF808100EF186
:102FA80004007A611A46DCF80C303B61331DD7F80F
:102FB80010903D61FD69C7E902CB8C46834636F91E
:102FC8002210D8ED0C7A06EE101A33F9221006EE0C
:102FD800901A3EF92210B8EEC66A07EE101AF8EEFB
:102FE800E66A3BF92210B8EEC77A26EE256A66EE45
:102FF800A56A27EE257A26EE276A66EEA76A27EEE7
:10300800277A07EE901A51080232F8EEE77A0AEBAF
:103018008100944280ED006A05EB810067EEA57A95
:10302800C0ED006A0CEB810009EB810180ED007AAC
:1030380098ED0C7A67EE877AC1ED007ABFD8D7F899
:1030480004903D69D7E902CB60466208BB694946EE
:103058009847D8F82C307A69D8ED0D6A1A441FEDD4
:103068003D7A1FED3D6A2B1D904602F1040A5FED83
:103078003F5A0022A84ED9E900EC51E0F4EEC67A96
:10308800F1EE10FAC0F2C78247F6FE7045F822004A
:103098000CEB0100D0ED007A66EEA77AF4EEC77A61
:1030A800F1EE10FA4BD9F4EEC67AF1EE10FAC0F24E
:1030B800BA8247F6FE70BBF1020F43F822002BD00C
:1030C800D9F808000844D0ED007A66EEA77AF4EE45
:1030D800C77AF1EE10FA36D9F4EEC67AF1EE10FAA4
:1030E800C0F2CD8247F6FE7048F82200D9F80C00ED
:1030F8000144D1ED007A66EEA77AF4EEC77AF1EED4
:1031080010FA1ED9F4EEC67AF1EE10FAC0F2AF82C8
:1031180047F6FE714AF82210023294427FF6B1ADAA
:1031280051080EEB81008900D0ED007A66EEA77A8F
:10313800F4EEC77AF1EE10FAA0D83046A6E730468A
:10314800B9E73146E6E73046CEE7002C00F0E081EB
:10315800BBF1020FD8F8243000F0E1817A69DCF87D
:10316800081003EB820EC7F804909300DFED6B5A4A
:103178000EF1040000227B61DCF80C303B61331D4A
:10318800D7F810903D61FD69C7E902CB8C468346AC
:1031980056F82210D8ED0C7A07EE101A53F82210C0
:1031A800B8EEC76A07EE101A5EF82210F8EEC76A82
:1031B80007EE101A26EE256A5BF82210B8EEC77AD9
:1031C80066EEA56A26EE276A27EE257A66EEA76AD6
:1031D80027EE277A07EE901A51080232F8EEE77ABE
:1031E8000AEB8100944280ED006A05EB810067EEEE
:1031F800A57AC0ED006A0CEB810009EB810180ED36
:10320800007A98ED0C7A67EE877AC1ED007ABFD81C
:10321800D7F804903D69D7E902CB60466208BB69DC
:1032280049469847D8F82C307A69D8ED0D6A1A447F
:103238009FED3E7A9FED3E6A131D9246DFF8E4C08B
:103248000022FB612B1D364ED9E9008E4EE0F4EECC
:10325800C67AF1EE10FAC0F2FC81304645F8220039
:103268000EEB0100D0ED007A66EEA77AF4EEC77A8D
:10327800F1EE10FA49D9F4EEC67AF1EE10FAC0F27E
:10328800EF813046BBF1020F43F822002AD0D9F86B
:1032980008000844D0ED007A66EEA77AF4EEC77A03
:1032A800F1EE10FA35D9F4EEC67AF1EE10FAC0F262
:1032B800C98130464AF82200D9F80C000144D1ED02
:1032C800007A66EEA77AF4EEC77AF1EE10FA1ED904
:1032D800F4EEC67AF1EE10FAC0F2AD813146F86923
:1032E80040F82210023294427FF6CBAC510808EB2A
:1032F80081008900D0ED007A66EEA77AF4EEC77AED
:10330800F1EE10FAA3D86046A8E76046BAE761462E
:10331800E5E76046CEE700BF0280FFFF000000300F
:103328000082FF7F007E00800000003404FF7FBF22
:1033380004FF7F3F002C00F0EB807A690021D8F869
:103348002430C7F8109003EB820ED7F81C90930036
:10335800FD610EF104021FED0C6A7B61331D1546F9
:1033680056F821204808D8ED0C6ABBF1020F82F408
:103378000002A2F5000207EE902A53F8212082F4F9
:103388000002B8EEE77AA2F5000227EE067A07EE09
:10339800902A0AEB8002F8EEE77A27EE267A67EEA3
:1033A800867A82ED007A09EB80024FEA800067EEA8
:1033B800A67AC2ED007A27D05EF8212082F40002B6
:1033C800A2F5000207EE902A55F8212082F40002A7
:1033D800B8EEE77AA2F5000227EE067A07EE902A01
:1033E800DCF80820F8EEE77A024427EE267A67EE42
:1033F800867A82ED007A98ED0C7ADCF80C2067EE7C
:10340800877A0244C2ED007A02318C42A8D8D7F8F4
:10341800109060466208BB694946FD699847D8F82C
:103428002C307A69D8ED0D6A1A441FED407A1FEDE9
:10343800406A131D9246DFF8C4C20022FB612B1DAF
:10344800AB4ED9E9008E4EE0F4EEC67AF1EE10FAF2
:10345800C0F2C580304645F822000EEB0100D0EDE1
:10346800007A66EEA77AF4EEC77AF1EE10FA49D937
:10347800F4EEC67AF1EE10FAC0F2BF803046BBF126
:10348800020F43F822002AD0D9F808000844D0EDEA
:10349800007A66EEA77AF4EEC77AF1EE10FA35D91B
:1034A800F4EEC67AF1EE10FAC0F2AE8030464AF871
:1034B8002200D9F80C000144D1ED007A66EEA77A13
:1034C800F4EEC77AF1EE10FA1ED9F4EEC67AF1EEF0
:1034D80010FAC0F28B803146F86940F822100232A7
:1034E80094427FF6CEAB510808EB81008900D0EDFD
:1034F800007A66EEA77AF4EEC77AF1EE10FAA3D84E
:103508006046A8E76046BAE76146E5E76046CEE769
:10351800224649466046BB699847FFF7B2BBC7F8E1
:1035280010B0002298ED0C6A331DDFED726AD7F8EF
:103538001CB0786956F8221007EE901A53F822103A
:10354800B8EEE77A07EE901A51080232F8EEE77AF9
:1035580027EE267A0AEB810E94420BEB810167EE87
:10356800A67A27EE067A67EE867A8EED007AC1EDA6
:10357800007ADFD88300D7F810B07B614DE61A4691
:10358800C7F810B098ED0C6A331DDFED5B6AD7F809
:103598001CB0786936F9221007EE101A33F9221098
:1035A80007EE901AB8EEC77A51080232F8EEE77AB9
:1035B80027EE267A0AEB810E94420BEB810167EE27
:1035C800A67A27EE067A67EE867A8EED007AC1ED46
:1035D800007ADFD88300D7F810B07B6134E5F0EECD
:1035E800675AFEEEE45A15EE900A34E7F0EE675A91
:1035F800FEEEE45A15EE901A6EE7F0EE675AFEEE0C
:10360800E45A15EE900A3AE7F0EE675AFEEEE45AED
:1036180015EE900A4BE767EEA57AFDEEE77A17EE0E
:10362800900A00B232E567EEA57AFDEEE77A17EE6A
:10363800900A00B23FE5F0EE675AFEEEE05A15EE4A
:10364800901A4CE6F0EE675AFEEEE05A15EE900A34
:1036580030E6F0EE675AFEEEE05A15EE900AFDE508
:10366800F0EE675AFEEEE05A15EE900A0AE667EEAB
:10367800A57AFDEEE77A17EE901A09B24AE567EEE9
:10368800A57AFDEEE77A17EE900A00B22CE5F0EE87
:10369800675AFEEEE45A15EE902A1FE467EEA57A03
:1036A800FDEEE77A17EE902A12B2FFF731BBF0EE83
:1036B800675AFEEEE45A15EE902AFFF7FDBBF0EECE
:1036C800675AFEEEE05A15EE902AFFF79BBBF0EE24
:1036D800675AFEEEE05A15EE902AFFF780BB67EEB8
:1036E800A57AFDEEE77A17EE902A12B2FFF724BB0F
:1036F80082FF7F0000000030000000387E0080FF5D
:1037080030B5184C154685B0046004F1080EEC4637
:103718000FC98EE80F00D4ED047AF5EEC07A8CE874
:103728000F00F1EE10FA1ADDB7EE006A94ED057A93
:1037380027EE277AC6EE276A84ED0D7AC4ED0C6A67
:103748006DB1204640F8185F02F0DAF806490369BF
:103758000020064A2162A262E36005B030BD012064
:1037680005B030BD709B04240020003000000030FC
:1037780000680830704700BF0068183002F020B9B0
:1037880030B5046883B00D46E3694BB1A3680020E7
:10379800E26A616A9B00009004F11C0002F0B2F832
:1037A800A3680748A26A9B00216A009004F11800E8
:1037B80002F0A8F80020C4E9005003B030BD00BFF3
:1037C8004D2B000810B4074B4FF07E5130240022D7
:1037D800032019619C60D8605DF8044B5961C3E906
:1037E80006227047709B0424F6EE007A9FED166A55
:1037F80020EE207A0160F7EE006A80ED036A80ED22
:10380800020A27EE277AC6EE877AF4EEE67AF1EE18
:1038180010FA11DDF0EE667A4FF07E514FF0000C91
:1038280002760022C0ED017AC0F814C00161437627
:103838008276C0ED070A7047F4EEC67AF1EE10FA08
:10384800EAD5F0EE467AE7E7000000000268037E5A
:10385800128807EE902AFBEEC87A1BB1B7EE007A01
:1038680077EE677AD0ED056A90ED047A77EEE67A1E
:10387800437E67EE877A0BB1F1EE677A90ED030A23
:1038880090ED017A77EEC07AA7EE270A80ED030A59
:10389800704700BF30B585B004460025ADF80C1060
:1038A800ADF80820ADF8043003F036FBBDF80C2065
:1038B8004FF48073206004F118002283BDF80820BB
:1038C8006383E383A283257100F0EEFE04F11C00FC
:1038D80000F0EAFE9FED060A019904F1080000F0E5
:1038E800E7F84FF6FF736562238405B030BD00BF6B
:1038F80000000000F8B5044603F00EFB002623681C
:103908002671834205D104F10800BDE8F84000F0B3
:10391800E9B8012794F82050206004F11800BD4050
:10392800277100F09DFF6DB2284394F82150BD40E7
:1039380084F8200004F11C0000F092FF94F8203075
:103948006DB2666203F003032843022BC0B284F809
:10395800210009D000F003000228D4D1002BD2D1D5
:103968004FF0FF336362CEE78307CCD16762CAE7C3
:10397800074A118830B481800024064D91884FF49D
:10398800807285600460C180C26030BC704700BF2F
:10399800FC3D01080040003000220A230270037138
:1039A800704700BFDFED167A8C46B4EE670A10B593
:1039B80004468646F1EE10FA2DED028B80ED080ADA
:1039C80048BFB0EE670AC0ED090AB0EE608A80F819
:1039D8003420BCE80F00AEE80F009CE80F008EE82A
:1039E8000F000FF0F5FEF0EE407AB0EE480AC4ED95
:1039F8000A7A0FF0EDFE84ED0B0ABDEC028B10BDC8
:103A080095BFD63390F8343010B50446032B4BD805
:103A1800DFE803F03B2A1502FFF718FF60EE006AA3
:103A2800D4ED087A94ED097A26EE800A37EE677AA3
:103A3800E0EE077AC4ED0C7AB0EE670A10BDFFF726
:103A480005FF94ED0A7AD4ED0B7A77EEC77AA0EEEB
:103A5800277AB0EE470A0FF049FEF0EE407A84ED7F
:103A68000C0AB0EE670A10BDFFF7F0FED4ED087A35
:103A780094ED097A20EE000A37EE677AE0EE077ACD
:103A8800B0EE670AC4ED0C7A10BDFFF7DFFED4ED87
:103A9800087A94ED097A37EE677AE0EE077AB0EEA5
:103AA800670AC4ED0C7A10BDD0ED0C7AC4E700BFEC
:103AB80070B5044682B0C1F30726CDB2ADF8041044
:103AC80003F02AFA4FF480724FF001232060A01D02
:103AD800A571A280E671A36002B0BDE8704000F055
:103AE800E3BD00BF38B5044603F016FA0022236888
:103AF8002271834210D00122A57AE37A9540206092
:103B08002271A01D6DB243B900F0AAFE40B228434D
:103B1800C0B27F28A0720AD038BD00F0A1FEB0FA6A
:103B280080F040092843C0B27F28A072F4D103F086
:103B3800F3F907EE900AF8EE677AC4ED037A38BD18
:103B480000B583B04FF0000E4FF0030C4274ADF88F
:103B58000410BDF8043080F810E0A0F802C003801B
:103B680003B05DF804FB00BF2DE9F04FDFF81C83BC
:103B780000258DB0C04C037008F140034260074631
:103B880001920E46202229464046C4F86831C4F8FE
:103B98006481CDE90255CDE90455CDE90655CDE955
:103BA8000855CDE90A550FF0DBFF2022294604F518
:103BB800A170C4F83151C4F83551C4F83951C4F86A
:103BC8003D510FF0CDFF019B84F8485284F8303105
:103BD8007A68002A6AD02B4604F59871454606F1A2
:103BE800100A9E46F01856F803B0E2180EF1010EBE
:103BF800D0F80CC0D0F80490D0F8088044F803B08E
:103C0800C2F80CC04FF0000CC2F80490C2F808804B
:103C1800008A25F802CB10821AF8032001F8012F38
:103C2800002A70D07A684FF001001233724584F888
:103C38004802D7D84FF4802290489DF804300821D4
:103C48004FF000084FF00009C4F884310023C4E99C
:103C58005B020122C4F8743184F88031C4E95E2122
:103C680094F84812C4E96489A9B3C4F898210022D9
:103C780084F8813184F888313B78C4E96722002BC5
:103C880038D0012200200121013B84F8A421C4E995
:103C98006C01082B30D8DFE813F0BD00C200C70064
:103CA800CC00D100D600DB00E100E8009DF804302C
:103CB8000121C4F87421C4F884314FF4802384F8B6
:103CC80080216E4AC4E95B2308230022C4E95E13FD
:103CD8000023C4E964230123002284F881310023EE
:103CE80084F888310323C4F898313B78C4E9672203
:103CF800002BC6D184F8A431614804F05DF903466D
:103D080038B1FFBEFEE77A68123372453FF66AAFF4
:103D180090E702A95A48029304F0ACFA82460028B8
:103D280076D1042240F2FF710A90CDE9081294F886
:103D38003021002A00F0F3804FF006080AEBCA038E
:103D48004FEACA0904EB43035B7C072B07D8DFE87B
:103D580003F0595C5653504D4A04072307930FFA52
:103D68008AF6D14406EBC60604EB490904EB46077C
:103D78007500384600F098FC99F81030042B00F3D1
:103D8800AA80022B00F3BD8000F0B98004EB0A037F
:103D9800002283F8202114F81630002B78D0022B4B
:103DA80000F08A80012B40F0B2807B78012B00F074
:103DB800B080002B334B18BF002305A93048CDE94C
:103DC800053803F025FD002840F0AC800AF1010A0F
:103DD80094F830315FFA8AFA534540F2A0802A4BB2
:103DE80053F82A80AAE706230793B8E70523079321
:103DF800B5E704230793B2E703230793AFE702234A
:103E08000793ACE700230793A9E701230793A6E7E5
:103E1800FFBEFEE703224023C4E96A236CE70722BA
:103E28006023C4E96A2367E70F228023C4E96A2371
:103E380062E71F22A023C4E96A235DE73F22C0236B
:103E4800C4E96A2358E77F22E023C4E96A2353E7D9
:103E5800FF224FF48073C4E96A234DE740F2FF1252
:103E68004FF49073C4E96A2346E740F2FF324FF4F7
:103E7800A073C4E96A233FE7A89B042400200240FA
:103E8800149D04240002B025183F010800410030A9
:103E98007B78062B37D0072B3DD0022B4AD0032B3B
:103EA8004AD0002B4CD0012B48D0042B4AD0052BEC
:103EB800254B18BF002380E77B78042B25D0052BE2
:103EC8002BD08BB3012B31D0022B31D0032B1F4BBE
:103ED80018BF002371E70323043504EB0A0B4FF0E6
:103EE800000925448BF82031284609F1010900F022
:103EF800DBFB9BF8203104354B45F5DC4BE7012310
:103F0800EAE70223E8E7124B57E7124B55E700238D
:103F180053E7114B51E7114B4FE7114B4DE70DB0EC
:103F2800BDE8F08FFFBEFEE70E4B46E70E4B44E7B9
:103F38000E4B42E70E4B40E70E4B3EE70E4B3CE77D
:103F48000E4B3AE70E4B38E70000B84F002090368A
:103F58000800900C1000C0102000F0148000501DC4
:103F6800000180210004002A0008302E0010603271
:103F78000040C03A0080F03E000052470000214354
:103F88000000844B38B5094C40F2FF724FF0011124
:103F980004F5B675284604F01BF994F83021D4F8D6
:103FA80064112846BDE8384003F086BEA89B042467
:103FB800034B0F29D3F8640198BF00EB4100704709
:103FC800A89B0424214B02689A4200D07047204ADB
:103FD80000232048D2F8D81030B51F4C41F02001FA
:103FE80083B0C4F8D001092004F5E875C4E9750365
:103FF8004FF48060C2F8D810D2F8D8204FF400618E
:10400800C4E9773094F8480202F02002C4F8E411B9
:104018004FF40051984201922846C4F8E811C4E9C7
:104028007C33019B14BF00234FF48073C4F8EC3138
:1040380004F072FC08B1FFBEFEE704F5B673C4F8DD
:10404800B851C4F8083203B030BD00BF00200240A8
:104058000044025840000240A89B0424014804F090
:10406800D3BF00BF789D042402682DE9F84F4B4B5D
:104078009A4201D0BDE8F88F494D95F84832002B97
:10408800F8D095F83031002B77D0002405F10C09D1
:1040980005F5A17605F59877A04613E003F0010130
:1040A80017F811BCA9F1080000F0E8FBBBF1010FFB
:1040B80025D895F83031013409F112090236A2B237
:1040C80093422BD917F8012F002AF4D0D5F8643180
:1040D8000021327833F81400D5F8683103EB041363
:1040E80023F81200338801339BB233805FFA83FAD6
:1040F8003A789A42D2D88A46A6F80080D0E7CAF31E
:104108004001A9F1040000F0B9FBBBF1020FCAF3AA
:104118008001CED0484600F0B1FBCAE7002395F8ED
:104128004802204909229842C5F8D8314FF48060E6
:10413800C5F8D011C5F8D4214FF400614FF40052EE
:10414800C5F8DC3108BF4FF48073C5F8E821C5E92C
:10415800780100221448C5E97B32C5F8F42104F03F
:10416800DBFB08B1FFBEFEE795F83021D5F86411F6
:104178000E48BDE8F84F03F09FBD0A4909224FF4E5
:104188008060C5F8D831C5E974124FF400614FF466
:104198000052C5E97730C5E97912DAE70020024014
:1041A800A89B042440000240789D0424149D042404
:1041B800704700BF4F4B02689A4200D070474E4B81
:1041C800D3F8E81030B541F000514C4C85B0D4F824
:1041D8004821C3F8E810D3F8E81001F00051019124
:1041E8000199D3F8E01041F00101C3F8E010D3F8C9
:1041F800E03003F001030293029B32F002033DD04A
:10420800013A012A6BD9D4F84C31012B0AD000228B
:104218003620114604F0A2F8362005B0BDE830403B
:1042280004F0DAB8D4F8483133F0020234D0013B54
:10423800012BECD8442240233149324DC4F88C106C
:1042480000212846C4F8B010C4E9242300224FF402
:104258008063C4E926234FF400624FF40053C4E995
:1042680028234FF480724FF48033C4E92A2304F0E2
:1042780053FB80B9E560C4F8C440C8E74FF48062D6
:10428800032303A8ADF80C208DF80E3000F00CFACB
:10429800D4F84821B4E7FEE71B4BA26343226361CD
:1042A80040231A4DC4E9062300224FF480632846B0
:1042B800C4E908234FF400624FF40053C4E90A2309
:1042C8004FF480724FF48033C4E90C2304F024FBCC
:1042D80020B9D4F84831A560E464A8E7FEE74FF4B4
:1042E800A062032303A8ADF80C208DF80E3000F06F
:1042F800DBF988E70074004000440258F89D042464
:1043080028040240849E0424100402400C9E0424C5
:10431800014804F079BE00BF0C9E0424014804F053
:1043280073BE00BF849E042410B5054C204604F0DB
:104338003FF904F58270BDE810400AF043B900BFA8
:10434800F89D042430B58C463A4C3B4D8DB0046042
:1043580004F5A27EBCE80F00AEE80F00DCF80030E0
:1043680020462560CEF8003004F0C4F80023D4F8C5
:104378004C510393C5B11622012D049217D0002287
:10438800D4F85411D4F848319142CDE9062218BF27
:104398000222059233F0020235D0013B012B3CD9B1
:1043A800002528460DB030BD02230493E7E7234AD1
:1043B8000093C4F80C31C4F81431C4F80421C4F8CB
:1043C8001C31CDE9013302F017FFD4F844314BF624
:1043D8008032C4F80851002B08BF1346B0FBF3F332
:1043E80004F58270C4F8103109F056FF0028D8D1BE
:1043F80020230290694604F5827000930AF09AF926
:104408000028BCD0CDE703A90A4804F005F978B91B
:10441800D4F84831013B012BC2D8102203A9054822
:1044280004F0FAF8051E18BF012528460DB030BD66
:104438000125B6E7F89D04240074004000100040F0
:104448002DE9F0410668D6F84C5105BBD6F8503135
:104458000C461746002B0CBF4FF008084FF0000819
:1044680031F0020305D0013C012C14D92846BDE8DF
:10447800F0811346294642463046013C04F07EF856
:104488002946304604F04CF8012CEFD803E001250A
:104498002846BDE8F0813B4642461021304604F0EC
:1044A8006DF81021304604F03BF82846BDE8F0814D
:1044B80010B592B0ADF804100180C9B2149C0B2954
:1044C800C460C0E901233FD090F801C0BCF10F0FD0
:1044D8003AD8022A3FD0032A02D0012A00D000226B
:1044E8000E92012B02D0022B18BF0023022C0F932F
:1044F8002CD0032C2AD0012C28D000230A29109371
:1045080027D85C4A02EB812202610A2914D8DFE825
:1045180001F0A39587796B5D4F4133250600564B13
:10452800D3F8E01041F48061C3F8E010D3F8E0302C
:1045380003F480630C930C9B01230DA9104603FA26
:104548000CF30D9305F0B2F812B010BD0A291094BF
:10455800D7D90022D8E711220E92C2E7464BD3F8EA
:10456800E01041F40071C3F8E010D3F8E03003F430
:1045780000730B930B9BDFE73F4BD3F8E01041F43C
:104588008071C3F8E010D3F8E03003F480730A9325
:104598000A9BD1E7384BD3F8E01041F08001C3F80B
:1045A800E010D3F8E03003F080030993099BC3E7D8
:1045B800314BD3F8E01041F04001C3F8E010D3F8D4
:1045C800E03003F040030893089BB5E72A4BD3F883
:1045D800E01041F02001C3F8E010D3F8E03003F018
:1045E80020030793079BA7E7234BD3F8E01041F07C
:1045F8001001C3F8E010D3F8E03003F0100306937D
:10460800069B99E71C4BD3F8E01041F00801C3F86A
:10461800E010D3F8E03003F008030593059B8BE71F
:10462800154BD3F8E01041F00401C3F8E010D3F8BB
:10463800E03003F004030493049B7DE70E4BD3F8AA
:10464800E01041F00201C3F8E010D3F8E03003F0C5
:1046580002030393039B6FE7074BD3F8E01041F085
:104668000101C3F8E010D3F8E03003F0010302932E
:10467800029B61E7000002580044025808B5012176
:1046880043780069994089B205F018FA003818BFD4
:10469800012008BD01230A464178006903FA01F1A7
:1046A80089B205F011BA00BF8378022B30B50446F1
:1046B8008FB037D0032B33D0012B31D000230A938E
:1046C800E378012B2AD0022B28D000230B93002358
:1046D80020460C9302F016FF0546204602F01AFF0A
:1046E80023780990082B13D8DFE803F01F324558C8
:1046F8006B7E91A40500594BD3F8E02042F48072F8
:10470800C3F8E020D3F8E03003F480730893089BE3
:1047180009A9284604F0CAFF0FB030BD0B93D6E7AD
:104728000A93CDE711230A93CAE74C4B09A92846F7
:10473800D3F8E02042F00102C3F8E020D3F8E030DB
:1047480003F001030093009B04F0B0FF0FB030BDED
:10475800424B09A92846D3F8E02042F00202C3F8E8
:10476800E020D3F8E03003F002030193019B04F04A
:104778009DFF0FB030BD394B09A92846D3F8E0207A
:1047880042F00402C3F8E020D3F8E03003F0040359
:104798000293029B04F08AFF0FB030BD2F4B09A98A
:1047A8002846D3F8E02042F00802C3F8E020D3F806
:1047B800E03003F008030393039B04F077FF0FB086
:1047C80030BD264B09A92846D3F8E02042F0100254
:1047D800C3F8E020D3F8E03003F010030493049BFF
:1047E80004F064FF0FB030BD1C4B09A92846D3F86C
:1047F800E02042F02002C3F8E020D3F8E03003F0D4
:1048080020030593059B04F051FF0FB030BD134BF7
:1048180009A92846D3F8E02042F04002C3F8E02076
:10482800D3F8E03003F040030693069B04F03EFF04
:104838000FB030BD094B09A92846D3F8E02042F053
:104848008002C3F8E020D3F8E03003F08003079338
:10485800079B04F02BFF0FB030BD00BF0044025887
:1048680038B5054602F04EFE0446284602F052FED0
:1048780001462046BDE8384005F020B970B5064627
:104888000D4602F03FFE0446304602F043FE2A1E63
:104898000146204618BF0122BDE8704005F014B952
:1048A8000023122270B586B0CDE902230493036871
:1048B800032B01D804230593061D841D304602F0FE
:1048C80021FE0546304602F025FE034601A928468A
:1048D800019304F0EBFE204602F014FE0346204646
:1048E8001C4602F017FE01A903462046019304F076
:1048F800DDFE06B070BD00BF634A0368934210B581
:104908008CB028D0614A934258D0614A934200F053
:104918009480604A934201D00CB010BD5E4C5F4851
:10492800D4F8E03043F00203C4F8E030D4F8E030C3
:1049380003F002030A930A9BFFF7B2FFD4F8F4309E
:1049480043F08003C4F8F430D4F8F43003F0800363
:104958000B930B9BE0E7504C5148D4F8E03043F000
:104968000203C4F8E030D4F8E03003F00203019306
:10497800019BFFF795FFD4F8E83000221F2043F48D
:1049880000131146C4F8E830D4F8E83003F40013F3
:104998000293029BD4F8D83043F00103C4F8D8300E
:1049A800D4F8D83003F001030393039B03F0D6FC3B
:1049B8001F200CB0BDE8104003F00EBD364C39483E
:1049C800D4F8E03043F08003C4F8E030D4F8E030A5
:1049D80003F080030493049BD4F8E03043F002030F
:1049E800C4F8E030D4F8E03003F002030593059BE7
:1049F800FFF756FFD4F8E8300022212043F4800363
:104A08001146C4F8E830D4F8E83003F4800306937C
:104A1800069BD4F8D83043F00103C4F8D830D4F852
:104A2800D83003F001030793079B03F097FC21207C
:104A38000CB0BDE8104003F0CFBC1B48FFF730FFB7
:104A4800154B00224820D3F8E840114644F40004EE
:104A5800C3F8E840D3F8E84004F400040894089C3C
:104A6800D3F8D84044F00104C3F8D840D3F8D8307C
:104A780003F001030993099B03F070FC48200CB074
:104A8800BDE8104003F0A8BC0054004000580040A6
:104A9800005C0040001C005800440258ECA10424AB
:104AA800649F04243CA0042414A104242DE9F043A9
:104AB8001A4B87B000254FF010099E46EC46184B5C
:104AC800FF22E04667461A700EF118060EF1300410
:104AD800CDE90055CDE90255ADF80090BCE80F00CE
:104AE800CDE90455AEE80F009CE803000095ADF849
:104AF80000908EE80300B8E80F000FC69CE803009A
:104B08000095ADF8009086E803000FCF0FC49CE82D
:104B1800030084E8030007B0BDE8F0830800002420
:104B2800609F042410B5EFF3108472B6084B1A780E
:104B3800120602D504B962B610BD1B78D822054802
:104B48005BB202FB0300143004F05EFAF2E700BF28
:104B5800609F0424649F0424014805F04DBE00BFF3
:104B6800F09F0424014805F047BE00BFC8A00424F4
:104B7800014805F041BE00BFA0A104242DE9F0437F
:104B88000F68D8243F4D85B007FB04F4032F05EBCD
:104B98000403036040DCCB680E46012B3CD84DD0A3
:104BA8004FF0D808B646DFF8FC9008FB0758BEE877
:104BB8000F00C446ACE80F00DEF800300DF1100E0F
:104BC800CCF80030D8F808C099E80F000EE90F00BB
:104BD8000EEB8703BCF1010F53F8103CC8F88C307A
:104BE80031D0BCF1020F42D0BCF1000F35D0317C7E
:104BF8008C34D823002201202C4403FB075349009E
:104C0800C3E92602C3F894102046C3E92822C3E961
:104C18002A2205F0E3FB18B1012005B0BDE8F083B6
:104C28000146204605F0F4FD0028F5D1014620464E
:104C380005F018FE003818BF0120EEE70B7C103B8A
:104C4800672BADD9E8E702F0D5FA0F4B98420CBFB5
:104C58000E4B0F4BC8F89030C9E702F0CBFA0A4B5D
:104C680098420CBF0B4B0C4BC8F89030BFE702F0D2
:104C7800C1FA054B98420CBF084B094BC8F8903055
:104C8800B5E700BF649F0424000E27072D0FB0303E
:104C98003211D0205F4390608A62E030200BA01070
:104CA8001A098010043E01082DE9F041D0F800806F
:104CB80082B00D4617461E4608F18C04204605F0C2
:104CC800A3FD2028FAD1D8F80C3073B96D0020461E
:104CD800089C33463A46A9B2009405F0D5FB003843
:104CE80018BF012002B0BDE8F081089B3246394662
:104CF800204605F09DFCF2E7044B10221A7483F855
:104D0800E82083F8C02183F898227047649F042420
:104D180030B5002395B04FF48071062204460B93FA
:104D280006921393CDE90C13CDE90E33CDE9113377
:104D380002F064FA07282BD004F1100541F28832FA
:104D480006A9284606F0A0FB28B10123184684F8D6
:104D58005C3015B030BD0222022306A92846CDE9F1
:104D6800002310220123CDE9022300224FF48003FF
:104D7800CDE9042305224FF0807306926A460F930B
:104D880041F2883306F0ECFC0028DED115B030BDC6
:104D98000323012084F85C3015B030BD000000000A
:104DA80070B50023A4B04FF080724FF480750446AC
:104DB800ADF806300D93CDE910320122CDE90E533E
:104DC800CDE91223CDE91433002943D0F02300F1B3
:104DD800100508AEADF80630C02341F288323146DE
:104DE8002846089306F050FB28B10123184684F89A
:104DF8005C3024B070BD41F288320DF106012846BE
:104E080006F0ACFB03460028EFD105224FF4807171
:104E18001E93284616924FF080721B9321931F927F
:104E280002AA9FED1F7BCDE91C13CDE922338DED3E
:104E3800027B9FED1D7B41F2883316A98DED047B23
:104E48009FED1B7B8DED067B06F08AFC0028CCD1FC
:104E580024B070BD00F1100508AE612341F288321C
:104E680031462846089306F00FFB0028BDD141F2D1
:104E780088320DF10601284606F0EEFB0028B4D171
:104E8800BDF80630204623F0780343F04003ADF820
:104E98000630FFF73DFF00289ED0A6E7AFF300805D
:104EA80000000000010000001000000001000000E8
:104EB80000000000000040002DE9F04F00234FF4EF
:104EC800807501264FF0807804462DED028BABB03B
:104ED8008DF8073013932193299314950E96CDF8E6
:104EE8005C80CDE91533CDE91863CDE91A33CDE9F6
:104EF8002253CDE92433CDE9273306231C9302F04E
:104F08007DF9072808D004F1100741F288321CA95E
:104F1800384606F0B9FA40B10123184684F85C30E7
:104F28002BB0BDEC028BBDE8F08F4FF0020A4FF0BA
:104F3800020B4FF0050941F2883308AA1CA938462C
:104F4800CDF89480CDF870909FED2D8BCDE908AB0E
:104F58004FF0000A4FF4800B8DED0A8BCDE90CABB6
:104F680006F0FEFB0028D7D141F2883238460EA958
:104F780006F08AFA0028CFD1402341F288320DF199
:104F8800070138468DF8073006F0E8FA0028C3D143
:104F980041F288330EA902AA3846CDF83890CDF8E8
:104FA8005C809FED197B8DED048BCDE906AB8DED13
:104FB800027B06F0D5FB03460028ADD1CDF87090F2
:104FC8004FF00109CDF894804FF00008219308AA0A
:104FD80029931CA938462295CDE92333CDE92733F7
:104FE80041F288338DED0A8BCDE90CABCDE9088908
:104FF80006F0B6FB002893D0304684F85C608FE753
:105008001000000001000000400000004000000007
:105018002DE9F043624CA3B00D46046002F0EEF8AF
:10502800072800F0A980286823466968AA6807C38A
:105038001E46AB8926F8043B3046257B677B06F085
:1050480005FAE0B9574B012D4FF00108E0612361E3
:1050580014BF4FF480134FF40003C4E9058893FA92
:10506800A3F3B3FA83F34FF48079013BC4F8249097
:10507800C4E90B003046236206F07CF938B10122FE
:10508800134684F85C20184623B0BDE8F0836623F5
:105098000B90139041F2883206A90693CDE90C9043
:1050A800CDE90E00CDE91100304606F0EDF90028F3
:1050B800E5D1992341F2883206A93046069306F0D5
:1050C800E3F90028DBD105231C9019906A46149354
:1050D8004FF08073219014A91D9341F288339FEDFE
:1050E8002A7BCDE91A90CDE91F008DED007B9FED5D
:1050F800287B30468DED027B9FED277B8DED047B71
:1051080006F02EFB0028BAD129462046FFF748FEB4
:105118000028B4D12046FFF7CFFE03460028AED1C1
:10512800002FB0D1189330460027002606AA14A9EC
:10513800CDF86890CDE91F33EB2314934FF4406307
:105148001B934FF4005317934FF440431C93A02331
:105158001693062319934FF0805321934FF0407311
:10516800CDE906671D9306F073FB034600288AD035
:10517800434684F85C8086E701230322184684F8B6
:105188005C2023B0BDE8F0830000000001000000AF
:1051980010000000010000000000000000004000B6
:1051A800C4A20424005000522DE9F04F8FB0414BA7
:1051B8000024026800AF9A427C63C7E90944C7E942
:1051C8000B4403D03C37BD46BDE8F08F3A4B40F660
:1051D80009213A48EB46D3F8D42007F11C0607F119
:1051E800220A4FF0020942F480424FF00308C3F844
:1051F800D420D3F8D42002F48042BA60BA68D3F835
:10520800E02042F04002C3F8E020D3F8E02002F0AA
:105218004002FA60FA68D3F8E02042F02002C3F8AE
:10522800E020D3F8E02002F020023A613A69D3F88E
:10523800E02042F01002C3F8E020D3F8E02002F0AA
:1052480010027A617A69D3F8E02042F00202C3F8CA
:10525800E020D3F8E030F86103F002033984BB6141
:10526800174B7B60BB697B6853F8040F7B6002F0C7
:1052780049F97B680546186802F04CF916F8013BB5
:10528800786207F124012846C7F830807B63C7E9B4
:105298000A9404F00BFA5645E5D100225C20114629
:1052A80003F05CF85C2003F097F83C37DD46BD4618
:1052B800BDE8F08F00500052004402580A0A09095C
:1052C80020A30424114B02689A4200D07047104A68
:1052D80070B5D2F8D4300F4C23F4804304F118068B
:1052E800C2F8D43054F8040F02F00CF905462068CF
:1052F80002F010F90146284604F018FBB442F1D137
:105308005C20BDE8704003F075B800BF0050005243
:105318000044025820A30424014806F025BB00BF1E
:10532800D4A20424084B1A1D981D03F1080110B4D7
:105338009C1C9A6603F10A02C3E91834C3E91B01ED
:105348005DF8044B5A677047C4A2042438B5036853
:1053580071B9026A00F1280500F5AC74012A0CBF86
:10536800002140218BBB1D4B5722C0F858310DE05E
:10537800426A00F1C00500F5E874012A0CBF00215B
:105388004021EBB1164B5A22C0F8D03100232046F9
:10539800C4E901214FF480524FF480616362626175
:1053A8004FF48042C4E903314FF48073C4E9062303
:1053B8004FF40033236203F0AFFA58B1FFBEFEE7A3
:1053C800084B5822C0F8D031E0E7074B5922C0F803
:1053D8005831DBE7C5E92044A56338BD1000024019
:1053E8007000024028000240580002402DE9F043B6
:1053F800821D05468BB0031D05F10A010830CDE971
:10540800052305F10C02AB69CDE907010992002BD0
:105418003DD0EB69B3FA83F84FEA5818012302220A
:1054280005AE0AAF4FF006090393CDE9012356F8FC
:10543800044B2B792278934216D02B68F3B1012BB9
:1054480002D1F2B10A230493204602F063F803461E
:105458002046009302F056F8694604F027F9BE4248
:10546800E5D10BB0BDE8F083697963789942E4D15E
:10547800B8F1000FF3D02B68002BE0D1CDF81090D5
:10548800E2E76378022B14BF0A230823DBE74FF017
:105498000108C3E7534A0368934230B505468BB009
:1054A80055D02032934252D04F4A934204D02032F2
:1054B800934201D00BB030BD4C4C4D48D4F8E0308D
:1054C80043F00103C4F8E030D4F8E03003F00103FE
:1054D8000593059BD4F8E03043F00803C4F8E030A6
:1054E800D4F8E03003F008030693069BD4F8E030C4
:1054F80043F04003C4F8E030D4F8E03003F0400350
:105508000793079BD4F8F03043F40003C4F8F03055
:10551800D4F8F03003F400030893089BFFF766FF04
:10552800D4F8D830296843F001032F4A3048C4F82A
:10553800D830891AD4F8D83018BF012103F00103F4
:105548000993099B0BB0BDE83040FFF7FFBE274C1D
:105558002848D4F8E03043F00103C4F8E030D4F828
:10556800E03003F001030093009BD4F8E03043F0EF
:105578001003C4F8E030D4F8E03003F010030193CE
:10558800019BD4F8E03043F04003C4F8E030D4F88D
:10559800E03003F040030293029BD4F8F03043F468
:1055A8008003C4F8F030D4F8F03003F48003039398
:1055B800039BFFF71BFFD4F8D830296843F0010399
:1055C800084A0C48C4F8D830891AD4F8D83018BF1B
:1055D800012103F001030493049B0BB0BDE83040A4
:1055E800FFF7B4BE04580140045C0140004402586F
:1055F80098A504243CA30424014803F005BD00BF7A
:1056080094A40424014803F0FFBC00BF0CA50424A3
:10561800014803F0F9BC00BFF0A60424014803F0D8
:10562800F3BC00BF68A704241A4A0368934210B465
:105638000BD02032934208D0174A934216D020321A
:10564800934213D05DF8044B7047144B0022D3F8F3
:105658005442C3F85822002CF4D0D3F84802D3E9B6
:10566800931223465DF8044B520818470B4B00224F
:10567800D3F8B044C3F8B424002CE3D0D3F8AC2456
:10568800D3F8A814D3F8A404520823465DF8044BB1
:10569800184700BF04580140045C01403CA304249F
:1056A800184A0368934210B40BD02032934208D0B2
:1056B800154A934217D02032934214D05DF8044B18
:1056C8007047124BD3E994245208C3F85822002C8F
:1056D800F4D0D3E99201234601EB820100EB82006A
:1056E8005DF8044B1847094BD3F8AC24D3F8B04401
:1056F8005208C3F8B424002CE0D0D3F8A814D3F887
:10570800A404E8E704580140045C01403CA30424D5
:105718002DE9F04F0C684FF41776754F87B004FBEE
:1057280006F6012C07EB060AC0F800A000F3A080DB
:105738000D468E464FF00008D44669A3D3E90023EE
:1057480069A1D1E90001CDE9022306ABCAF850826C
:1057580003EB8403CDE9040153F810BC53F8083C6B
:10576800CAE992880193BEE80F00ACE80F00BEE8D2
:105778000F00ACE80F00019B9EE80300CAF828B0B0
:10578800CAF8C0308CE803002B69042B0CD8DFE87A
:1057980003F0737D879103004FF41773554A03FB99
:1057A80004739A64C3F8E020AA692B6A002A43D0DC
:1057B800002B4FF4177308BF022203FB047318BFB2
:1057C8000322DA6201221A63EA696B6A002A40D16D
:1057D800191E4FF4177318BF012103FB0473C3E9A3
:1057E80031126B69022B05D8434A12F80380434AE9
:1057F80052F823904FF4177306F1280042464946A1
:1058080003FB04740023384463646363E365C4F8EA
:10581800DC30C4F8CC30C4F8F430C4E90F33C4E940
:105828001533C4E93533C4E93B33022308F03EF9A4
:10583800002849D0FFBEFEE7191E4FF4177318BFA2
:10584800012103FB0473C3E90B12EA696B6A002A9E
:10585800BED0002B4FF4177308BF022203FB04735A
:1058680018BF0322C3F8C4200122C3F8C820B8E730
:10587800012007B0BDE8F08F4FF417734FF4FA52C8
:1058880003FB04739A64C3F8E0208DE74FF41773A1
:105898004FF47A5203FB04739A64C3F8E02083E759
:1058A8004FF417734FF4FA4203FB04739A64C3F876
:1058B800E02079E74FF417734BF6803203FB04734B
:1058C8009A64C3F8E0206FE706F1C000022342465D
:1058D8004946384408F0EAF80028CAD0FFBEFEE777
:1058E80004580140045C014024580140245C0140F4
:1058F8003CA3042400770100583F01085C3F0108DD
:105908000068704770B5046882B015460E46C4F842
:105918005032C4E99212069AC4F85422A269012AA4
:1059280026D0626A012A9AB211D0294604F1C00031
:10593800019208F077F9236A019A012B10D02946C1
:1059480004F1280008F06EF9002002B070BD04F1DF
:10595800C000019208F0F8F9236A019A012BEED1F0
:10596800314604F1280008F0EFF9002002B070BDBC
:10597800226A012A9AB211D0294604F1280001921C
:1059880008F050F9636A019A012B10D0294604F1F6
:10599800C00008F047F9002002B070BD04F12800EB
:1059A800019208F0D1F9636A019A012BEED13146D0
:1059B80004F1C00008F0C8F9002002B070BD00BFB3
:1059C80003681B69042B05D8044A02EB830393ED93
:1059D800000A70479FED020A704700BF683F010840
:1059E80000803B470368D3F858027047002091F8BD
:1059F80008C01C4B1C4A844510B4C3E90020D1E9F7
:105A08000024186118BF4FF48050002C0CBF0021EF
:105A18004FF48041C3E90201042A06D8DFE802F006
:105A2800090F151B030001225A6100205DF8044B81
:105A38007047FA2200205DF8044B5A61704708222B
:105A480000205DF8044B5A617047042200205DF87D
:105A5800044B5A617047022200205DF8044B5A61DA
:105A6800704700BFF4A7042400700052014808F0F2
:105A78008DBA00BFF4A70424714A036811698B42E8
:105A880000B587B04BD0916E8B4200F0B680D2F84B
:105A9800C0108B4200F0B380D2F818118B4200F08E
:105AA800B080B3F1804F1ED0664A93420DD0664A4B
:105AB800934200F0A880654A934200F0B280644A9D
:105AC80093421ED007B05DF804FB624BD3F8E82080
