:020000040800F2
:100000000000022065090008AD09000855840008B9
:10001000AD090008AD090008AD09000800000000A6
:10002000000000000000000000000000AD09000812
:10003000AD09000800000000AD090008D9830008E0
:10004000AD090008AD090008AD090008AD090008B8
:10005000AD090008AD090008AD090008AD090008A8
:10006000AD090008AD090008AD090008116C0008D1
:100070001D6C000879560008296C0008356C0008D2
:10008000A57E000841610008AD090008AD0900081F
:10009000AD090008AD090008AD090008AD09000868
:1000A000AD090008AD090008AD090008AD09000858
:1000B000B5720008C1720008CD72000875610008B1
:1000C000AD09000881610008AD0900080539010883
:1000D00011390108D97C0008057D0008397D000828
:1000E000AD090008AD09000800000000AD090008D6
:1000F000AD090008AD090008AD090008AD09000808
:10010000AD09000885700008D97200081D39010882
:100110006D7D0008A17D000845590008AD09000863
:100120002D5900083959000841390108753901086D
:10013000D97E0008AD090008AD090008AD09000826
:1001400000000000000000000000000000000000AF
:10015000AD090008AD090008AD090008D57D00080B
:100160008D610008AD090008E98300080D840008CE
:10017000AD09000831840008AD090008AD09000888
:10018000AD090008AD090008097E00083D7E0008A1
:100190002939010835390108AD090008AD09000801
:1001A000AD090008AD090008AD090008AD09000857
:1001B00031690008AD090008AD090008AD09000863
:1001C000AD090008AD090008AD090008AD09000837
:1001D000AD090008AD090008AD090008AD09000827
:1001E000AD090008AD090008AD090008AD09000817
:1001F000AD090008AD090008AD090008AD09000807
:10020000AD090008AD090008AD090008AD090008F6
:10021000AD090008AD090008AD090008AD090008E6
:10022000AD090008AD090008AD0900080000000094
:10023000AD090008AD09000800000000AD09000884
:10024000AD090008AD090008AD090008AD090008B6
:10025000AD090008AD090008AD090008AD090008A6
:10026000AD090008AD090008AD090008AD09000896
:10027000AD090008AD090008717E0008000000000B
:10028000AD090008AD090008AD0900080000000034
:0802900000000000AD090008A8
:1002980010B5054C237833B9044B13B10448AFF3B8
:1002A80000800123237010BDF0030024000000002B
:1002B8007867010808B5034B1BB103490348AFF33E
:1002C800008008BD00000000F403002478670108DE
:1002D800034613F8012B002AFBD1181A013870477E
:1002E80081F0004102E000BF83F0004330B54FEADF
:1002F80041044FEA430594EA050F08BF90EA020F4C
:100308001FBF54EA000C55EA020C7FEA645C7FEADE
:10031800655C00F0E2804FEA5454D4EB5555B8BF01
:100328006D420CDD2C4480EA020281EA030382EA72
:10033800000083EA010180EA020281EA0303362D04
:1003480088BF30BD11F0004F4FEA01314FF4801CD7
:100358004CEA113102D0404261EB410113F0004FE9
:100368004FEA03334CEA133302D0524263EB4303A0
:1003780094EA050F00F0A780A4F10104D5F1200E3E
:100388000DDB02FA0EFC22FA05F2801841F1000199
:1003980003FA0EF2801843FA05F359410EE0A5F16D
:1003A80020050EF1200E012A03FA0EFC28BF4CF09E
:1003B800020C43FA05F3C01851EBE37101F0004554
:1003C80007D54FF0000EDCF1000C7EEB00006EEB61
:1003D8000101B1F5801F1BD3B1F5001F0CD34908EB
:1003E8005FEA30004FEA3C0C04F101044FEA445242
:1003F80012F5800F80F09A80BCF1004F08BF5FEAC9
:10040800500C50F1000041EB045141EA050130BDA8
:100418005FEA4C0C404141EB0101013C28BFB1F5BA
:10042800801FE9D291F0000F04BF01460020B1FA05
:1004380081F308BF2033A3F10B03B3F120020CDAD8
:100448000C3208DD02F1140CC2F10C0201FA0CF0B6
:1004580021FA02F10CE002F11402D8BFC2F1200C1B
:1004680001FA02F120FA0CFCDCBF41EA0C019040D1
:10047800E41AA2BF01EB0451294330BD6FEA04041A
:100488001F3C1CDA0C340EDC04F11404C4F1200205
:1004980020FA04F001FA02F340EA030021FA04F317
:1004A80045EA030130BDC4F10C04C4F1200220FA6E
:1004B80002F001FA04F340EA0300294630BD21FAAC
:1004C80004F0294630BD94F0000F83F4801306BF72
:1004D80081F480110134013D4EE77FEA645C18BF66
:1004E8007FEA655C29D094EA050F08BF90EA020FFD
:1004F80005D054EA000C04BF1946104630BD91EAF5
:10050800030F1EBF0021002030BD5FEA545C05D1F7
:100518004000494128BF41F0004130BD14F5800436
:100528003CBF01F5801130BD01F0004545F0FE41AA
:1005380041F470014FF0000030BD7FEA645C1ABFDF
:10054800194610467FEA655C1CBF0B46024650EA16
:10055800013406BF52EA033591EA030F41F4002142
:1005680030BD00BF90F0000F04BF0021704730B5C8
:100578004FF4806404F132044FF000054FF000019D
:1005880050E700BF90F0000F04BF0021704730B55E
:100598004FF4806404F1320410F0004548BF404233
:1005A8004FF000013EE700BF42004FEAE2014FEA88
:1005B80031014FEA02701FBF12F07F4393F07F4F63
:1005C80081F06051704732F07F4208BF704793F066
:1005D8007F4F04BF41F40021704730B54FF4607479
:1005E80001F0004521F000411CE700BF50EA01027C
:1005F80008BF704730B54FF000050AE050EA010225
:1006080008BF704730B511F0004502D5404261EB94
:1006180041014FF4806404F132045FEA915C3FF4D5
:10062800D8AE4FF003025FEADC0C18BF03325FEA72
:10063800DC0C18BF033202EBDC02C2F1200300FA23
:1006480003FC20FA02F001FA03FE40EA0E0021FA48
:1006580002F11444BDE600BF53B94AB9002908BFE6
:1006680000281CBF4FF0FF314FF0FF3000F074B985
:10067800ADF1080C6DE904CE00F006F8DDF804E0F1
:10068800DDE9022304B070472DE9F047089D0446D0
:100698008E46002B4DD18A42944669D9B2FA82F22D
:1006A80052B101FA02F3C2F1200120FA01F10CFA69
:1006B80002FC41EA030E94404FEA1C48210CBEFBA1
:1006C800F8F61FFA8CF708FB16E341EA034306FB2A
:1006D80007F199420AD91CEB030306F1FF3080F0B9
:1006E8001F81994240F21C81023E63445B1AA4B206
:1006F800B3FBF8F008FB103344EA034400FB07F7A8
:10070800A7420AD91CEB040400F1FF3380F00A81E8
:10071800A74240F207816444023840EA0640E41BDD
:1007280000261DB1D4400023C5E900433146BDE889
:10073800F0878B4209D9002D00F0EF800026C5E92B
:10074800000130463146BDE8F087B3FA83F6002E43
:100758004AD18B4202D3824200F2F980841A61EBBB
:10076800030301209E46002DE0D0C5E9004EDDE7D9
:1007780002B9FFDEB2FA82F2002A40F09280A1EBC1
:100788000C014FEA1C471FFA8CFE0126200CB1FB16
:10079800F7F307FB131140EA01410EFB03F088420F
:1007A80008D91CEB010103F1FF3802D2884200F29C
:1007B800CB804346091AA4B2B1FBF7F007FB10112E
:1007C80044EA01440EFB00FEA64508D91CEB0404CC
:1007D80000F1FF3102D2A64500F2BB800846A4EB27
:1007E8000E0440EA03409CE7C6F12007B34022FA12
:1007F80007FC4CEA030C20FA07F401FA06F31C4341
:10080800F9404FEA1C4900FA06F3B1FBF9F8200C4D
:100818001FFA8CFE09FB181140EA014108FB0EF093
:10082800884202FA06F20BD91CEB010108F1FF3AE3
:1008380080F08880884240F28580A8F102086144EF
:10084800091AA4B2B1FBF9F009FB101144EA0141FD
:1008580000FB0EFE8E4508D91CEB010100F1FF34A8
:100868006CD28E456AD90238614440EA0840A0FB40
:100878000294A1EB0E01A142C846A64656D353D016
:100888005DB1B3EB080261EB0E0101FA07F722FA3A
:1008980006F3F1401F43C5E9007100263146BDE863
:1008A800F087C2F12003D8400CFA02FC21FA03F3C6
:1008B800914001434FEA1C471FFA8CFEB3FBF7F047
:1008C80007FB10360B0C43EA064300FB0EF69E426C
:1008D80004FA02F408D91CEB030300F1FF382FD205
:1008E8009E422DD9023863449B1B89B2B3FBF7F6AD
:1008F80007FB163341EA034106FB0EF38B4208D986
:100908001CEB010106F1FF3816D28B4214D9023EC6
:100918006144C91A46EA004638E72E46284605E7E4
:100928000646E3E61846F8E64B45A9D2B9EB0208B5
:1009380064EB0C0E0138A3E74646EAE7204694E745
:100948004046D1E7D0467BE7023B614432E7304678
:1009580009E76444023842E7704700BF0C4D0D4C6C
:1009680003E02B682360043504340B4B9C42F8D118
:100978000A4C02E0002323600434094B9C42F9D15D
:1009880007F090FF14F0DAFD01F026FDFEE700BF46
:10099800A867010800000024F0030024F0030024E5
:1009A80098D40624FEE780B483B000AF78607B68F3
:1009B80010221A747B6818460C37BD465DF8047B14
:1009C800704780B483B000AF78607B6801229A607A
:1009D8007B680022DA607B6801225A617B6847F6EF
:1009E80012229A617B6818460C37BD465DF8047B75
:1009F800704780B582B000AF7860786804F0D6FAA6
:100A080000BF0837BD4680BD84B080B58AB000AF4E
:100A1800786007F1340080E80E0007F108031846F3
:100A2800FFF7CFFF47F612233B6201233B61002308
:100A38007B610223BB610123FB617B6BFB603B8F06
:100A48007B817B8F3B81FA6B7B685A603A6C7B6851
:100A58009A607B6858687B685A687B689B6813440F
:100A680000227A6207F12402194600F063FA7B68D3
:100A780007F108021146184607F0E0FA00BF2837C8
:100A8800BD46BDE8804004B0704780B483B000AF75
:100A980078607B6803221A607B6801225A607B6851
:100AA80000221A7200BF0C37BD465DF8047B704700
:100AB80080B582B000AF78607B681846FFF773FF97
:100AC800786800F005F87B6818460837BD4680BD91
:100AD80080B483B000AF78607B6800221A607B68BE
:100AE80002229A607B680022DA607B68074A1288D3
:100AF8009A807B68064A1288DA807B683C221A75DD
:100B080000BF0C37BD465DF8047B704728580108C4
:100B18002C58010880B582B000AF786039603B6816
:100B28001A7D7B681A717B683A681146184605F089
:100B38002FFB00BF0837BD4680BD80B586B002AF29
:100B480078600B46FB700023BB81FB787B73786869
:100B58007B681B7999B207F10C024FF47A73009302
:100B6800022305F0ABFB00BF1037BD4680BD80B542
:100B780088B000AF78607B68184602F019FF7B6880
:100B88000121184602F0F4FF786800F096F97868B9
:100B980000F04CF9786800F079F9786800F07EF890
:100BA800786800F0B1F90123BB610023FB610023E1
:100BB8007B6102233B617B68203307F10C021146FD
:100BC800184604F0C9FE7B6820330022022118462B
:100BD80004F040FF00BF2037BD4680BD80B582B01D
:100BE80000AF78607B68184602F0FEFEF0EE407AAF
:100BF800B0EE670A0837BD4680BD80B582B000AF49
:100C080078607B68184602F0F3FEF0EE407AB0EEAA
:100C1800670A0837BD4680BD80B582B000AF7860EE
:100C280039607B683968184602F0DAFE00BF083779
:100C3800BD4680BD80B582B000AF78607B68183350
:100C4800184604F0A9FC00BF0837BD4680BD80B532
:100C580084B000AF78600023FB60FB68032B0BD8DF
:100C6800FB685B0168337A681344184604F0F8F8A7
:100C7800FB680133FB60F0E700BF1037BD4680BD5D
:100C880080B582B000AF78607B684033184604F0C6
:100C98003BF900BF0837BD4680BD0000B0B598B02D
:100CA80000AF7860102002F085FE0346A7F85030A8
:100CB80007F108030222396D184604F04BFA0F2099
:100CC80002F078FE0346A7F8543007F10803123300
:100CD8000222796D184604F03DFA152002F06AFEEA
:100CE8000346A7F8583007F1080324330222B96DE8
:100CF800184604F02FFA122002F05CFE0346A7F80B
:100D08005C3007F1080336330222F96D184604F007
:100D180021FA7B6803F1180007F108010423042273
:100D280004F02CFA7B6803F168047B68183300210F
:100D3800184604F047FC05467868FFF75EFFF0EEBA
:100D4800407ADFED2C0A00230022B0EE670A29461C
:100D5800204604F053F87B6803F188047B68183355
:100D68000121184604F02EFC05467868FFF745FF78
:100D7800F0EE407ADFED1F0A00230022B0EE670A8A
:100D88002946204604F03AF87B6803F1A8047B68FA
:100D980018330221184604F015FC05467868FFF759
:100DA8002CFFF0EE407ADFED130A00230122B0EEAB
:100DB800670A2946204604F021F87B6803F1C80435
:100DC8007B6818330321184604F0FCFB0546786855
:100DD800FFF713FFF0EE407ADFED060A0023012249
:100DE800B0EE670A2946204604F008F800BF6037CD
:100DF800BD46B0BD6F12033B80B582B000AF7860CE
:100E08007B681846FFF754FE7B6818460837BD46CE
:100E180080BD80B582B000AF78607B681846FFF768
:100E2800EBFF7B6818460837BD4680BDB0B58CB06F
:100E380004AF786007F108031846FFF7EAFF07F1E7
:100E480008031846FFF744FE7B6849F24C241C440B
:100E58006D4607F1140393E8070085E8070007F1DA
:100E680008030ECB204600F074F800BF2037BD46BB
:100E7800B0BD80B582B000AF78607B68184604F0DA
:100E880081F87B6818460837BD4680BD80B588B0B4
:100E980002AF786007F108031846FFF7EAFF7B689E
:100EA80003F1E8007B69009307F108030ECB00F01B
:100EB80070F800BF1837BD4680BD90B587B000AF49
:100EC80078607B6803F140041B2002F073FD034641
:100ED800BB811A2002F06EFD03463B821C2002F003
:100EE80069FD0346BB827868FFF787FEF0EE407A1B
:100EF800B0EE670A7B693A69F968204603F0D4FFC7
:100F080000BF1C37BD4690BD80B582B000AF786089
:100F18000748FFF7BAFD7A6849F2482313440449A1
:100F2800184606F06BF800BF0837BD4680BD00BF05
:100F38000C04002480B584B000AFF860B9607A6012
:100F48007A68B968F86800F049F800BF1037BD46FC
:100F580080BD84B0B0B586B004AF786007F11C00DE
:100F680080E80E007B6803F108056C4607F128034A
:100F780093E8070084E8070007F11C030ECB284616
:100F880000F03BF800BF0837BD46BDE8B04004B0EC
:100F9800704784B090B585B002AF786007F11C0047
:100FA80080E80E007B681C4607F11C030FCB84E821
:100FB8000F007B6803F110007B68DA6800920ECBA3
:100FC800FFF722FD7B6824331846FFF712FD00BFA8
:100FD8000C37BD46BDE8904004B0704780B584B07A
:100FE80000AFF860B9607A607A68B968F86800F0AC
:100FF8008FF800BF1037BD4680BD84B080B582B081
:1010080000AF786007F1140080E80E007B6807F1F4
:10101800140211461846FFF77DFD7B68AE2118467D
:10102800FFF78BFD7B68D5211846FFF786FD7B68A7
:1010380080211846FFF781FD7B68A8211846FFF735
:101048007CFD7B681F211846FFF777FD7B68DA2156
:101058001846FFF772FD7B6812211846FFF76DFDF1
:1010680000BF7B68D3211846FFF767FD7B68002126
:101078001846FFF762FD7B6840211846FFF75DFDC3
:101088007B68A6211846FFF758FD7B68A4211846FF
:10109800FFF753FD7B688D211846FFF74EFD7B68EF
:1010A80014211846FFF749FD7B68A1211846FFF770
:1010B80044FD7B68C8211846FFF73FFD7B68812106
:1010C8001846FFF73AFD7B688F211846FFF735FD74
:1010D8007B68D9211846FFF730FD7B682521184623
:1010E800FFF72BFD7B68DB211846FFF726FD7B68A1
:1010F80034211846FFF721FD7B68AF211846FFF71A
:101108001CFD00BF0837BD46BDE8804004B07047ED
:1011180080B487B000AFF860B9607A607B681B68FC
:101128007B61FA68BB689A4207D07B69DAB2FB68D0
:101138001A70FB680133FB60F3E700BF1C37BD463C
:101148005DF8047B704780B483B000AF87ED010A77
:10115800D7ED017AF0EEE77AB0EE670A0C37BD46B4
:101168005DF8047B704780B582B000AF87ED010A57
:1011780097ED010A13F0BCFEF0EE407AB0EE670A74
:101188000837BD4680BD80B582B000AF87ED010A43
:1011980097ED010A14F0B0F8F0EE407AB0EE670A65
:1011A8000837BD4680BD80B483B000AF87ED010A23
:1011B800D7ED017AF8FE677AB0EE670A0C37BD46BC
:1011C8005DF8047B704790B587B000AF78603960F0
:1011D8003B68DB0FFB75FB7D002B02D03B685B4255
:1011E80000E03B683B610A21386901F001FAF860C8
:1011F800FA7DFB68D41807F10803184613F032FD8E
:1012080007F108032D222146786813F0BDFD07F188
:101218000803184613F027FDFB7D1946786813F07C
:10122800F0FD03463A69F968184601F021FA00BF53
:1012380078681C37BD4690BD80B483B000AF786035
:101248007B6818460C37BD465DF8047B704780B450
:1012580083B000AF78607B6818460C37BD465DF8F0
:10126800047B704780B483B000AF786039603B6816
:101278001A687B681A6000BF0C37BD465DF8047BAE
:10128800704780B483B000AF786039603B681A68F3
:101298007B685A6000BF0C37BD465DF8047B704719
:1012A80080B483B000AF78607B6800221A607B68E6
:1012B80000225A607B684FF0FF329A607B680022F8
:1012C8001A737B6818460C37BD465DF8047B704777
:1012D80080B483B000AF78607B6800221A607B68B6
:1012E80018460C37BD465DF8047B704780B483B060
:1012F80000AF78607B6818460C37BD465DF8047B04
:10130800704780B483B000AF78607B6818460C37AC
:10131800BD465DF8047B704780B483B000AF786049
:101328007B6818460C37BD465DF8047B704780B46F
:1013380083B000AF78607B6800221A607B6818462B
:101348000C37BD465DF8047B704780B483B000AFAE
:1013580078607B6800221A607B6818460C37BD46A7
:101368005DF8047B704780B483B000AF78607B6819
:1013780000221A607B6818460C37BD465DF8047B6E
:10138800704780B483B000AF78607B6800221A6031
:101398007B6818460C37BD465DF8047B704780B4FF
:1013A80083B000AF78607B6800221A607B681846BB
:1013B8000C37BD465DF8047B704780B483B000AF3E
:1013C80078607B6818460C37BD465DF8047B70472B
:1013D80080B483B000AF78607B6818460C37BD4690
:1013E8005DF8047B704780B483B000AF78607B6899
:1013F80018460C37BD465DF8047B704780B483B04F
:1014080000AF78607B6800221A607B6818460C374A
:10141800BD465DF8047B704780B483B000AF786048
:101428007B68802283F895207B68702283F8962059
:101438007B687F2283F897207B680F2283F89820A7
:101448007B68072283F899207B6818460C37BD46CD
:101458005DF8047B704780B483B000AF78607B6828
:1014680018460C37BD465DF8047B704780B483B0DE
:1014780000AF78607B6818460C37BD465DF8047B82
:10148800704780B483B000AF78607B6818460C372B
:10149800BD465DF8047B704780B582B000AF7860C8
:1014A8007B681846FFF7AAFF7B6818460837BD46D1
:1014B80080BD80B483B000AF78607B6818460C3775
:1014C800BD465DF8047B704780B483B000AF786098
:1014D8007B6818460C37BD465DF8047B704780B4BE
:1014E80083B000AF78607B6818460C37BD465DF85E
:1014F800047B704780B582B000AF78607B680833A2
:101508001846FFF7E1FF7B6818460837BD4680BDDF
:1015180080B582B000AF78607B6808331846FFF763
:10152800DEFF7B6818460837BD4680BD80B483B0AF
:1015380000AF78607B681B79002B02D07B685B6A00
:1015480000E0002318460C37BD465DF8047B704761
:1015580080B483B000AF78607B6818460C37BD460E
:101568005DF8047B704780B483B000AF78607B6817
:1015780018460C37BD465DF8047B704780B582B0CD
:1015880000AF78607B681846FFF7E2FF7B68184673
:101598000837BD4680BD80B582B000AF78607B68F3
:1015A8001846FFF7E0FF7B6818460837BD4680BD40
:1015B80080B483B000AF78607B681B6B07EE903A0D
:1015C800B0EE670A0C37BD465DF8047B704780B4FF
:1015D80083B000AF78607B6818460C37BD465DF86D
:1015E800047B704780B483B000AF78607B6818468E
:1015F8000C37BD465DF8047B704780B483B000AFFC
:1016080078607B6800221A807B6800225A807B6899
:1016180000229A807B680022DA807B6818460C37A3
:10162800BD465DF8047B704780B582B000AF786036
:101638000B467B8013463B807B6800221A807B68C0
:1016480000225A80B7F902301A460021786800F063
:1016580021FA03461A467B689A80B7F900301A4681
:101668000021786800F016FA03461A467B68DA808B
:101678007B6818460837BD4680BD80B584B000AF8A
:10168800F860084611461A4603467B810B463B81A3
:101698001346FB80FB687A891A80FB683A895A806E
:1016A800B7F906301A460021F86800F0F3F9034646
:1016B8001A46FB689A80B7F918301A460021F8686C
:1016C80000F0E8F903461A46FB68DA80FB6818461A
:1016D8001037BD4680BD80B483B000AF78607B68AA
:1016E800B3F9003018460C37BD465DF8047B7047E7
:1016F80080B483B000AF78607B68B3F902301846D5
:101708000C37BD465DF8047B704780B483B000AFEA
:1017180078607B68B3F900309AB27B68B3F904301B
:101728009BB213449BB21BB218460C37BD465DF8FA
:10173800047B704780B483B000AF78607B68B3F9EE
:1017480002309AB27B68B3F906309BB213449BB25D
:101758001BB218460C37BD465DF8047B704780B451
:1017680083B000AF78607B68B3F900309AB27B68C9
:10177800B3F90430002B00DA01335B101BB29BB2C3
:1017880013449BB21BB218460C37BD465DF8047B68
:10179800704780B483B000AF78607B68B3F90230DB
:1017A8009AB27B68B3F90630002B00DA01335B107C
:1017B8001BB29BB213449BB21BB218460C37BD46F2
:1017C8005DF8047B70470000F0B587B002AFF860A1
:1017D800B9607A603B603B68082B00F2538101A234
:1017E80052F823F0271A0008111800086B1800088F
:1017F80035180008AF18000831190008E718000864
:1018080089190008CF1900087B68B3F900107B68B4
:10181800B3F90220BB68B3F90400BB68B3F906301A
:1018280000930346F868FFF728FF2EE17868FFF772
:101838006CFF03469AB2BB68B3F904309BB2D31A63
:101848009BB219B27B68B3F90220BB68B3F90400F4
:10185800BB68B3F9063000930346F868FFF70DFF3D
:1018680013E1BB68B3F900309CB27868FFF777FFE3
:1018780003469DB2B868FFF772FF03469BB2EB1AA6
:101888009BB223449BB219B27B68B3F90220BB68B0
:10189800B3F90400BB68B3F9063000930346F8684F
:1018A800FFF7EBFEF1E07B68B3F900407868FFF7DB
:1018B80041FF03469AB2BB68B3F906309BB2D31A0C
:1018C8009BB21AB2BB68B3F90410BB68B3F906300F
:1018D80000930B462146F868FFF7CFFED5E07868FD
:1018E800FFF713FF03469AB2BB68B3F904309BB203
:1018F800D31A9BB21CB27868FFF71CFF03469AB252
:10190800BB68B3F906309BB2D31A9BB21AB2BB6854
:10191800B3F90410BB68B3F9063000930B462146AF
:10192800F868FFF7AAFEB0E0BB68B3F900309CB2D4
:101938007868FFF714FF03469DB2B868FFF70FFFFA
:1019480003469BB2EB1A9BB223449BB21CB2786845
:10195800FFF7F0FE03469AB2BB68B3F906309BB2B4
:10196800D31A9BB21AB2BB68B3F90410BB68B3F9B7
:10197800063000930B462146F868FFF77EFE84E0A8
:101988007B68B3F90060BB68B3F902309CB2786831
:10199800FFF7FFFE03469DB2B868FFF7FAFE03465D
:1019A8009BB2EB1A9BB223449BB21AB2BB68B3F941
:1019B8000410BB68B3F9063000930B463146F8684B
:1019C800FFF75BFE61E07868FFF79FFE03469AB277
:1019D800BB68B3F904309BB2D31A9BB21EB2BB6882
:1019E800B3F902309CB27868FFF7D3FE03469DB284
:1019F800B868FFF7CEFE03469BB2EB1A9BB22344AE
:101A08009BB21AB2BB68B3F90410BB68B3F90630CD
:101A180000930B463146F868FFF72FFE35E0BB68A8
:101A2800B3F900309CB27868FFF799FE03469DB27F
:101A3800B868FFF794FE03469BB2EB1A9BB22344A7
:101A48009BB21EB2BB68B3F902309CB27868FFF74C
:101A5800A0FE03469DB2B868FFF79BFE03469BB203
:101A6800EB1A9BB223449BB21AB2BB68B3F90410B9
:101A7800BB68B3F9063000930B463146F868FFF7A8
:101A8800FCFD02E0F868FFF7B8FDF8681437BD46BA
:101A9800F0BD00BF80B483B000AF78600B467B8098
:101AA80013463B80B7F90220B7F900309A4202DDAD
:101AB800B7F9023001E0B7F9003018460C37BD46D7
:101AC8005DF8047B7047000080B483B000AF786095
:101AD800044A7B681A607B6818460C37BD465DF877
:101AE800047B70475C5A010880B483B000AF78600B
:101AF800044A7B681A607B6818460C37BD465DF857
:101B0800047B70475C5A010880B582B000AF7860EA
:101B18007868FFF7E9FF0821786813F09EF87B687A
:101B280018460837BD4680BD80B582B000AF7860E2
:101B38000B467B8013463B807B681B680C331B6815
:101B48007868984703461A467B88934209D37B688E
:101B58001B680C331B68786898470346013B9BB2A7
:101B680000E07B887A6893807B681B6808331B6871
:101B78007868984703461A463B88934209D37B689E
:101B88001B6808331B68786898470346013B9BB27B
:101B980000E03B887A68D38000BF0837BD4680BD27
:101BA80080B582B000AF78607B681846FFF7BFFB4E
:101BB8007B6814331846FFF7F2FB7B681833184626
:101BC800FFF706FC7B6820331846FFF7BEFB7B68EF
:101BD80024331846FFF74AFC7B6830331846FFF772
:101BE80090FB7B683C331846FFF7CBFB7B681846B5
:101BF8000837BD4680BD80B582B000AF78607B688D
:101C080030331846FFF788FB7B6824331846FFF704
:101C180038FC7B6818331846FFF7E5FB7B681433FC
:101C28001846FFF7CAFB7B6818460837BD4680BDD3
:101C380080B588B002AFF860B9607A6000237B6134
:101C48007A697B689A4218D200233B8240233B740E
:101C5800BA687B6913441B787B74F868FB681B7946
:101C680099B207F110024FF47A730093022304F03B
:101C780025FB7B6901337B61E2E700BF1837BD466E
:101C880080BDB0B582B000AF78607B681846FFF7BA
:101C980087FF7B6840331846FFF72CFC7B68683366
:101CA80003241D46002C05DB2846FFF751FC203590
:101CB800013CF7E77B68E833184600F03CFD7A689A
:101CC80049F2482313441846FFF781FC7A6849F221
:101CD8004C231344184600F07DFD7B6818460837EE
:101CE800BD46B0BD90B583B000AF78607A6849F260
:101CF8004C231344184600F085FD7A6849F24823BE
:101D080013441846FFF76EFC7B68E833184600F06A
:101D18002EFD7B686833002B0CD07B68683303F199
:101D280080047B6868339C4204D0203C2046FFF73F
:101D38001AFCF6E77B6840331846FFF7E9FB7B6837
:101D48001846FFF758FF7B6818460C37BD4690BD0C
:101D580080B582B000AF78607868FEF778FF786861
:101D6800FEF78EFF00BF0837BD4680BD80B596B030
:101D780002AF0021484800F073FD002200214648C8
:101D8800FFF7D2FE454BD3ED007AFDEEE77A3B1D17
:101D980017EE901A1846FFF716FA3B1D0021184651
:101DA80013F02FF8F8643E4B1B783E4A00930CCA98
:101DB800F96C394800F065FD082200213648FFF724
:101DC800B3FE394B1A6813465B001344DB00374AED
:101DD8001A443B1D1146184612F0E5FF314B01220B
:101DE80000920CCBF96C2C4800F04BFD102200211E
:101DF8002948FFF799FE2E4BD3ED007AFDEEE77ADE
:101E080007F11C0317EE901A1846FFF7DCF907F1E3
:101E18001C023B1D1146184612F0CBFF07F11C03AC
:101E2800184612F0BAFF1F4B012200920CCBF96C36
:101E3800194800F026FD182200211748FFF774FE04
:101E48001C4BD3ED007AFDEEE77A07F1340317EE69
:101E5800901A1846FFF7B7F907F134023B1D1146EF
:101E6800184612F0A6FF07F13403184612F095FF42
:101E78000C4B012200920CCBF96C074800F001FDD5
:101E8800054800F02BFD3B1D184612F086FF00BFE9
:101E98005037BD4680BD00BF64960024ACA306241D
:101EA800B4A306244802002404000024E8A306245E
:101EB80068A50624E4A3062480B582B000AF2E4BA3
:101EC80000221A704FF000037B602C4BD3ED007A90
:101ED800B2EE007A27EE877A294B1B685A1C2849EC
:101EE8000A60DFED286AC6EE877A274A9B0013440A
:101EF800C3ED007A224B1B68032B02D1204B002232
:101F08001A6000233B603B68022B0FDC1E4A3B68CB
:101F18009B001344D3ED007A97ED017A77EE277A88
:101F2800C7ED017A3B6801333B60ECE7D7ED017AF6
:101F3800F0EE086A87EEA67AB0EE470AFFF733F9A3
:101F4800F0EE407A114BC3ED007A104B93ED007A16
:101F58000F4BD3ED007AB4EE677AF1EE10FA06D0A3
:101F68000A4B1B680A4A1360034B01221A7000BF10
:101F78000837BD4680BD00BFB4A30624D4A30624F9
:101F8800C4A3062400606A47B8A30624ACA30624A9
:101F9800B0A3062480B584B000AFA548FFF7D8FEEB
:101FA800A44803F039F8A44803F036F8A34803F02E
:101FB80033F8A34803F030F8A048FFF7F9FAF0EE39
:101FC800407A9FEDA07AF4EEC77AF1EE10FA05DDBB
:101FD8009D4B1B78002B01D1012300E00023002B2F
:101FE80000F09280984B01221A70984B1B680133BD
:101FF800964A1360954B1B68042B02DD934B012214
:102008001A60934B1B7883F00103DBB2002B18D0C6
:102018008F4B01221A708D4B1B68012B11D10023A5
:10202800FB60FB68022B0CDCFB688A4A02FB03F3AB
:10203800894A1344184600F05FFCFB680133FB60D3
:10204800EFE7864805F0C4F90346854A1360844BD8
:102058001A68844B1B68D31A07EE903AB8EE677A71
:10206800DFED816AC7EE267A804BC3ED007A7C4BA0
:102078001B687C4A1360FFF71FFF7D4B1B78002B02
:1020880003D17C4B1B78002B3ED07B4BD3ED007AE1
:102098009FED7A7A27EE877A794B1B68794A9B00FD
:1020A8001344D3ED007A67EE276A774B93ED007AF5
:1020B800C6EE877A754BC3ED007A754B1B68734A79
:1020C800D2ED007AB0EE670A184600F03BFC704B80
:1020D8005B686E4AD2ED007A77EEA77AB0EE670AAF
:1020E800184600F02FFC6A4B9B68684AD2ED007ACC
:1020F800B0EE087A67EE877AB0EE670A184600F005
:1021080021FC5C4B00221A704C48FFF751FAF0EEA4
:10211800407A9FED4C7AF4EEC77AF1EE10FA05D5C5
:10212800494B1B78012B01D1012300E00023002B30
:1021380002D0454B00221A705648FFF7F7F90246BD
:102148004F4B1B6813440F2B0ADC5248FFF7EEF97C
:1021580002464B4B1B681344002B01DB012300E0B4
:102168000023002B0BD04B48FFF7E0F90246444B05
:102178001B681344424A13603E4B01221A702D48D3
:10218800FFF716FA87ED020A434B93ED007AD7ED75
:10219800027A77EE677AB0EE670AFEF7D4FFF0EEC0
:1021A800407A9FED3E7AF4EEC77AF1EE10FACCBF92
:1021B80001230023DBB2002B06D0374ABB6813602B
:1021C80035493748FFF74EF81B48FFF7F1F987ED17
:1021D800010A344B93ED007AD7ED017A77EE677AEE
:1021E800B0EE670AFEF7AFFFF0EE407A9FED2B7A6C
:1021F800F4EEC77AF1EE10FACCBF01230023DBB26C
:10220800002B10D0274A7B681360264BD3ED007A49
:102218009FED257A67EE877AC7ED007A3B46194627
:102228001F48FFF72EF800BF1037BD4680BD00BF1E
:1022380018040024C4A20624FCA2062434A30624FD
:102248006CA306240000FA43C8A30624E0A30624CE
:10225800DCA306240CB80B00000000C0D8A3062499
:10226800D0A30624CCA306240060EA48D4A30624FD
:10227800B4A306246CA50624E4A306240000704237
:1022880004000024D0580108ACA3062468A506243D
:102298007497002458040024A4A306240AD7233CD6
:1022A80080970024A8A3062400401C4680B52DED85
:1022B800028B86B000AFF860B9607A60FFF76AFEFB
:1022C80000237B617A697B689A427CD2414B19680A
:1022D800FB681A687B699B001344D3ED007AB0EE63
:1022E800670A084600F056FB3A4B5968FB681A68BB
:1022F8007B699B001344D3ED007AB0EE670A084669
:1023080000F048FB334B9968FB681A687B699B00AF
:102318001344D3ED007AB0EE670A084600F03AFBA2
:102328002C4B1B68184600F05FFBB0EE408A294B27
:102338005B68184600F058FBF0EE407AB7EE007A7A
:1023480077EE677A28EE278A224B5B68184600F0FA
:102358004BFBF0EE408A1F4B9B68184600F044FB8D
:10236800F0EE407AB7EE007A77EE677A68EEA77AF1
:1023780038EE278A174B9B68184600F035FBB0EEFD
:10238800407AFB681A687B699B001344D3ED007A96
:10239800F7EE006A76EEE77A67EE277ABB681A6886
:1023A8007B699B00134478EE277AC3ED007ABB68FB
:1023B80004331A687B699B0013443A691A607B6985
:1023C80001337B617EE700BF1837BD46BDEC028B49
:1023D80080BD00BF74970024B0B5A8B000AF7148A5
:1023E800FEF7C5FB6F48FEF725FC3B461846FEF78F
:1023F80057FF00233B6000237B603B4619466A4831
:1024080004F06CFF684804F0D1FF6648FEF7E6FB6D
:10241800F0EE407A654BC3ED007A624B07F1100489
:1024280003F168050FCD0FC495E80F0084E80F008D
:1024380007F110030022F7EE000A9FED5D0A194626
:102448005C4802F0B9FD07F110031846FFF78BF856
:10245800544B07F1300403F188050FCD0FC495E8FC
:102468000F0084E80F0007F130030022F7EE000A9E
:102478009FED4F0A1946504802F09EFD07F13003C0
:102488001846FFF770F8474B07F1500403F1A80509
:102498000FCD0FC495E80F0084E80F0007F1500333
:1024A8000022DFED460A9FED460A1946454802F02C
:1024B80083FD07F150031846FFF755F8394B07F12C
:1024C800700403F1C8050FCD0FC495E80F0084E828
:1024D8000F0007F170030022DFED380A9FED380A7C
:1024E8001946394802F068FD07F170031846FFF7EE
:1024F8003AF80023C7F89C30D7F89C30022B1BDC35
:10250800D7F89C30314A02FB03F3314A134418468A
:1025180000F0B2FAD7F89C302C4A02FB03F32C4A9D
:102528001A442C49D7F89C3041F82320D7F89C301E
:102538000133C7F89C30DFE70023C7F89830D7F895
:102548009830022B0DDC244AD7F898309B001344AE
:102558004FF000021A60D7F898300133C7F8983066
:10256800EDE79FED1E0A1E4812F0B2FA1D4BC7F8A0
:10257800903007F1900319461948FEF773FE1A4B7D
:10258800C7F8943007F1940319461548FEF779FE09
:1025980016490448FEF740FBFFF7FCFCFFF7E6FB93
:1025A800FAE700BF18040024D8A30624E4A30624ED
:1025B8006F12833AC4A20624FCA2062400409C455C
:1025C80000409CC534A306246CA306240CB80B0059
:1025D800000000C074970024B8A3062400803B477D
:1025E800809700249A99593F0000FA45B5220008BF
:1025F80080B487B000AF7860396001237B613B68A5
:1026080003FB03F33B613A683B6902FB03F3FB609E
:102618003A68FB6802FB03F3BB603B687A689A423E
:1026280001D27B691DE07A683B699A4202D27B69D4
:10263800013316E07A68FB689A4202D27B6902335A
:102648000FE07A68BB689A4202D27B69033308E0DC
:102658007A68BB68B2FBF3F37B607B6904337B6108
:10266800DBE718461C37BD465DF8047B7047000061
:1026780080B489B000AFF860B9607A60BB68013B8C
:10268800FB617B68632B25D97A68224BA3FB021375
:102698005B09642101FB03F3D31A5B00BB617B6810
:1026A8001C4AA2FB03235B097B60BB695A1CF968BF
:1026B800FB690B4418498A5C1A70FB69013BFA688C
:1026C80013441549BA690A4412781A70FB69023B27
:1026D800FB61D6E77B68092B10D97B685B007B61BF
:1026E8007B695A1CFB6801330B498A5C1A700A4AD9
:1026F8007B6913441A78FB681A7005E07B68DBB2C3
:102708003033DAB2FB681A7000BF2437BD465DF873
:10271800047B70471F85EB511059010880B582B0C2
:1027280000AF78607B68184600F0C2F97B681846ED
:102738000837BD4680BD80B582B000AF78607B6841
:102748001846FEF796FB7B6810331846FEF7A4FE82
:102758007B6824331846FEF75FFE7B68C033184653
:1027680000F095F97B6818460837BD4680BD80B5EE
:1027780082B000AF78607B68C0331846FFF7CEFFA1
:102788007B6824331846FEF766FE7B6810331846CC
:10279800FEF78FFE7B6818460837BD4680BD80B5BA
:1027A80082B000AF78607B681846FEF7DCFD7B6876
:1027B80018460837BD4680BD80B582B000AF786046
:1027C8007B681846FFF7EBFF7B6818460837BD465D
:1027D80080BD000080B582B000AF78607B68184685
:1027E80000F072F9064A7B681A607B68083318465D
:1027F800FFF7E2FF7B6818460837BD4680BD00BF7B
:10280800E459010880B582B000AF7860054A7B685A
:102818001A607B68184600F069F97B681846083723
:10282800BD4680BDE459010880B582B000AF78602C
:102838007868FFF7E7FF4FF48871786812F00DFAAF
:102848007B6818460837BD4680BD80B483B000AFAA
:1028580078607B6818460C37BD465DF8047B704786
:1028680080B582B000AF78600B46FB707B68083398
:10287800FA781146184600F05BF900BF0837BD46E4
:1028880080BD80B586B002AFF860B960394681E88E
:102898000C00BB681B78002B1AD0F868BB68197845
:1028A8003B7E00933B460CCB00F063F903461A4687
:1028B800BB681B789A4214BF01230023DBB2002BAC
:1028C80002D0BB681B7805E0BB680133BB60E0E75A
:1028D800BB681B7818461037BD4680BD80B582B0EE
:1028E80000AF78607B680833184600F0D9F900BF5C
:1028F8000837BD4680BD000080B485B000AF786061
:102908000023FB60FB680E4A93420CD87A68FB6888
:1029180002339B00134404334FF000021A60FB6833
:102928000133FB60EEE77B6800225A607B68012276
:102938009A6000BF1437BD465DF8047B704700BF3E
:10294800FFED020080B485B000AF786087ED000A23
:10295800D7ED007AFDEEE77A17EE903AFB60FB6858
:1029680007EE903AF8EEE77A97ED007A77EE677A15
:102978007B68C3ED007AFB68054A9A4228BF1A466D
:102988007B689A6000BF1437BD465DF8047B7047CA
:10299800FFED020080B483B000AF786087ED000AD5
:1029A8007B685B687A6802339B00134404333A6897
:1029B8001A607B685A68094B1344094AA2FB031240
:1029C800120B084901FB02F29A1A7B685A6000BF91
:1029D8000C37BD465DF8047B704700BFFFED020071
:1029E800F119760500EE020080B485B000AF78607A
:1029F8007B685A687B689B681A441D4BA3FB0213CB
:102A08001B0B1C4901FB03F3D31A7A6802339B00A2
:102A1800134404331B68FB607B685A687B689B68B7
:102A280013445A1C124BA3FB02131B0B114901FB45
:102A380003F3D31A7A6802339B00134404331B68E8
:102A4800BB6097ED027AD7ED037A37EE677A7B6839
:102A5800D3ED007A27EE277AD7ED037A77EE277A37
:102A6800B0EE670A1437BD465DF8047B704700BFB7
:102A7800F119760500EE020080B582B000AF7860EB
:102A88007868FFF739FF00BF0837BD4680BD80B5BD
:102A980082B000AF786078687B68103340F201122A
:102AA800194600F02EF97B6818460837BD4680BDE8
:102AB80080B483B000AF78607B6818460C37BD4699
:102AC8005DF8047B7047000080B582B000AF786085
:102AD8007B681846FEF7F8FF034A7B681A607B6834
:102AE80018460837BD4680BD205A010880B582B017
:102AF80000AF7860054A7B681A607B681846FEF765
:102B0800F3FF7B6818460837BD4680BD205A010888
:102B180080B582B000AF78607868FFF7E7FF0821DA
:102B2800786812F09AF87B6818460837BD4680BD69
:102B380080B485B000AF78600B46FB700023FB6063
:102B4800FB68FF2B0FD8FB78002B01D0FF2100E09A
:102B580000217A68FB68134408330A461A70FB6838
:102B68000133FB60ECE700BF1437BD465DF8047B1A
:102B7800704780B588B000AFF8600846394681E8EC
:102B88000C000346FB72FB7A1F2B02D9FB7A7E2BC3
:102B980001D9002380E0FA68FB681B680C331B68C6
:102BA8001046984703461A46FB689B8819463B78A7
:102BB8000B449A420FDBFA68FB681B6808331B68F2
:102BC8001046984703461A46FB68DB8819467B7807
:102BD8000B449A4201DA012300E00023002B01D0C4
:102BE800002359E00023FB617B781A46FB69934276
:102BF80045D27A68FB7A203B797801FB03F31946C2
:102C0800FB690B445B0013441B887B610023BB6199
:102C18003B781A46BB6993422DD27A69BB6902FA9E
:102C280003F303F40043002B0FD0FB689B881A467C
:102C3800BB69D118FB68DB881A46FB691A4497F808
:102C48002830F86800F076F811E0FB689B881A468F
:102C5800BB69D118FB68DB881A46FB691A4497F8E8
:102C6800283083F00103DBB2F86800F063F8BB6931
:102C78000133BB61CCE7FB690133FB61B4E7F8685A
:102C8800FB689A883B789BB2134499B2FB68DB884F
:102C98001A46FEF749FFFB7A18462037BD4680BD25
:102CA80080B584B000AF78601223BB7300BF0023E7
:102CB800FB73FB7B032B20D87A68FB7B503BDBB292
:102CC80019461046FDF739FF7B6800211846FDF7C5
:102CD80034FF7B68BA7B11461846FDF72EFF7868EB
:102CE800FB7B9B0108337A68134440221946FEF7A0
:102CF8009FFFFB7B0133FB73DBE700BF1037BD464B
:102D080080BD80B485B000AFF860B9607A60FB68B8
:102D1800BA681A60FB687A685A60FB6800229A6091
:102D2800FB680022DA60FB6818461437BD465DF878
:102D3800047B704780B584B000AFF860B9607A60F2
:102D4800FB70FB6803F10800FB787A68B96800F04B
:102D580004F800BF1037BD4680BD80B485B000AF11
:102D6800F860B9607A60FB70BB683F2B3DD87B6820
:102D78001F2B3AD8FB78002B1AD07B68DB08990107
:102D8800BA680A44F9680A44127A51B27A6802F0B9
:102D98000702012000FA02F252B20A4351B29A0124
:102DA800BB681344C9B2FA6813440A461A721DE094
:102DB8007B68DB089901BA680A44F9680A44127A00
:102DC80051B27A6802F00702012000FA02F252B208
:102DD800D24352B20A4051B29A01BB681344C9B2F5
:102DE800FA6813440A461A7200E000BF1437BD4659
:102DF8005DF8047B7047000090B583B000AF786041
:102E0800064C074B9C4206D0064B23441C462046E2
:102E180000F067FDF5E70C37BD4690BD242823C0B8
:102E2800000000C0F447F4FF90B583B000AF7860AD
:102E3800054C064B9C4204D0183C204611F0ADFFCF
:102E4800F7E70C37BD4690BD68A50624E8A306241D
:102E5800B0B592B000AF786039607B68012B40F064
:102E680079813B684FF6FF72934240F07381BB480B
:102E7800FEF707FFBA4ABB49B84811F0E9FEBA4B5A
:102E880002241D46002C07DB2846FFF7DEFCB74B63
:102E98002B441D46013CF5E7B14AB549002011F025
:102EA800D7FEB448FEF7C8F9AD4AB349B14811F0A6
:102EB800CFFEB248FEF762FBA94AB149AF4811F00C
:102EC800C7FEB048FEF75AFBA54AAD49AD4811F018
:102ED800BFFEAD48FEF752FBA14AA949AA4811F026
:102EE800B7FEAA48FEF74AFB9D4AA549A74811F034
:102EF800AFFEA74B1B68A74A1360A748FEF7E8F97F
:102F0800974AA649A44811F0A3FEA54C07F1080367
:102F1800184611F0A7FE07F108031A46A1492046F2
:102F280011F09CFF07F10803184611F09CFE1834B5
:102F380007F10C03184611F095FE07F10C031A4629
:102F48009949204611F08AFF07F10C03184611F041
:102F58008AFE183407F11003184611F083FE07F1B2
:102F680010031A469149204611F078FF07F1100323
:102F7800184611F078FE183407F11403184611F0BA
:102F880071FE07F114031A468949204611F066FFBD
:102F980007F11403184611F066FE183407F11803F8
:102FA800184611F05FFE07F118031A4681492046BA
:102FB80011F054FF07F11803184611F054FE1834A5
:102FC80007F11C03184611F04DFE07F11C031A46C1
:102FD8007949204611F042FF07F11C03184611F009
:102FE80042FE183407F12003184611F03BFE07F1A2
:102FF80020031A467149204611F030FF07F12003DB
:10300800184611F030FE183407F12403184611F061
:1030180029FE07F124031A466949204611F01EFFCC
:1030280007F12403184611F01EFE183407F128038F
:10303800184611F017FE07F128031A466149204681
:1030480011F00CFF07F12803184611F00CFE183494
:1030580007F12C03184611F005FE07F12C031A4658
:103068005949204611F0FAFE07F12C03184611F0D1
:10307800FAFD183407F13003184611F0F3FD07F193
:1030880030031A465149204611F0E8FE07F1300393
:10309800184611F0E8FD183407F13403184611F00A
:1030A800E1FD07F134031A464949204611F0D6FEDE
:1030B80007F13403184611F0D6FD183407F1380328
:1030C800184611F0CFFD07F138031A46414920464A
:1030D80011F0C4FE07F13803184611F0C4FD183486
:1030E80007F13C03184611F0BDFD07F13C031A46F1
:1030F8003949204611F0B2FE07F13C03184611F099
:10310800B2FD183407F14003184611F0ABFD07F182
:1031180040031A463149204611F0A0FE07F140034A
:10312800184611F0A0FD183407F14403184611F0B1
:1031380099FD07F144031A462949204611F08EFEED
:1031480007F14403184611F08EFD054A2549002071
:1031580011F07EFD00BF4837BD46B0BD18040024FD
:1031680000000024ED1C0008000000C00CB80B0093
:10317800012E00088097002457120008C4A20624D4
:103188009F150008FCA2062434A306246CA3062479
:10319800ACA30624B0A30624D8A30624F51200087D
:1031A800E8A3062430580108385801084058010897
:1031B8004858010850580108585801086058010833
:1031C800685801086C5801087058010874580108BB
:1031D800785801087C58010880580108845801086B
:1031E80088580108312E000880B582B000AF786099
:1031F8007B680833184600F07FFB03469BB21846ED
:103208000837BD4680BD80B582B000AF78607B6866
:103218000833184600F07BFB03469BB21846083774
:10322800BD4680BD80B58AB000AFF860B9607A60ED
:103238003B603A68BB68D31A002BB8BF5B423B625D
:103248003A6B7B68D31A002BB8BF5B42FB61BA6844
:103258003B689A4201D2012301E04FF0FF33BB6182
:103268007A683B6B9A4201D2012301E04FF0FF33A9
:103278007B613A6AFB69D31A7B6297F834303A6B00
:103288003968F868FFF756FDBA683B689A4203D177
:103298007A683B6B9A4223D097F834307A68B968D9
:1032A800F868FFF747FD7B6A5B003B61FB695B429F
:1032B8003A699A4207DD7A6AFB69D31A7B62BB696D
:1032C800BA681344BB603A693B6A9A42DCDA7A6AA4
:1032D8003B6A13447B627B697A6813447B60D3E75B
:1032E80000BF2837BD4680BD80B588B002AFF86002
:1032F800B9607A603B6097F82830002B1AD0BB6819
:103308007B617A693B689A4240D87B683B613A693D
:103318003B6A9A420AD897F824303A697969F8687A
:10332800FFF708FD3B6901333B61F0E77B69013337
:103338007B61E6E7F86897F8243001937B6800938F
:103348003B687A68B968FFF76DFFF86897F824302A
:1033580001933B6A00933B687A683968FFF762FF1C
:10336800F86897F8243001933B6A0093BB683A6A7F
:103378003968FFF757FFF86897F8243001937B689E
:103388000093BB683A6AB968FFF74CFF00BF18376B
:10339800BD4680BD0000000080B598B000AFF86061
:1033A800B9607A603B60012387F84C3097F84C305D
:1033B80087F84D3097F84D3087F84E3097F84E30F3
:1033C80087F84F30002387F84B30FB6E002B06DA66
:1033D800BA6EFB6E1344BB66FB6E5B42FB66BB6E4C
:1033E80007EE903AB8EEE77B9FEDDB6B27EE066BB6
:1033F8009FEDDB5B86EE057BF7EEC77BC7ED117AA9
:10340800BA6EFB6E134407EE903AB8EEE77B9FED79
:10341800D26B27EE066B9FEDD25B86EE057BF7EE4F
:10342800C77BC7ED107A97ED110AFDF79CFEB0EE49
:10343800407A3B6807EE903AF8EE677A67EE277AAB
:10344800C7ED0F7A97ED110AFDF79DFEF0EE407A71
:10345800B1EE677A3B6807EE903AF8EE677A67EE66
:10346800277AC7ED0E7A97ED100AFDF77CFEB0EECD
:10347800407A3B6807EE903AF8EE677A67EE277A6B
:10348800C7ED0D7A97ED100AFDF77DFEF0EE407A54
:10349800B1EE677A3B6807EE903AF8EE677A67EE26
:1034A800277AC7ED0C7A97ED0D7AD7ED0F7A37EEBC
:1034B800677AD7ED0D6AD7ED0F7A76EEE77A27EEC1
:1034C800277AD7ED0C6AD7ED0E7A76EEE76A97ED94
:1034D8000C6AD7ED0E7A76EE677A66EEA77A77EE03
:1034E800277AB0EE007AF4EEC77AF1EE10FA06D534
:1034F800FB6EB42B40F3BD81012387F84B303B684A
:103508005B42FB650023BB653B68C3F101035B00BD
:103518007B6597F84B3083F00103DBB2002B00F09A
:103528004181BB6D07EE903AF8EEE77A97ED0F7A96
:1035380067EE277AC7ED0B7AFB6D07EE903AF8EE47
:10354800E77A97ED0E7A67EE277AC7ED0A7ABB6DB0
:103558005B4207EE903AF8EEE77A97ED0F7A67EE5E
:10356800277AC7ED097AFB6D5B4207EE903AF8EED1
:10357800E77A97ED0E7A67EE277AC7ED087ABB6D82
:1035880007EE903AF8EEE77A97ED0D7A67EE277A2C
:10359800C7ED077AFB6D07EE903AF8EEE77A97EDFC
:1035A8000C7A67EE277AC7ED067ABB6D5B4207EEA9
:1035B800903AF8EEE77A97ED0D7A67EE277AC7ED3D
:1035C800057AFB6D5B4207EE903AF8EEE77A97EDE5
:1035D8000C7A67EE277AC7ED047AFB6EB42B6CDDA4
:1035E80097ED0B7AD7ED087A77EE677AF5EEC07A21
:1035F800F1EE10FA0AD497ED077AD7ED047A77EE50
:10360800677AF5EEC07AF1EE10FA01DD012300E0E9
:10361800002387F84F3097ED0B7AD7ED0A7A77EECB
:10362800677AF5EEC07AF1EE10FA0AD497ED077AC8
:10363800D7ED067A77EE677AF5EEC07AF1EE10FAF2
:1036480001DD012300E0002387F84E3097ED097A69
:10365800D7ED0A7A77EE677AF5EEC07AF1EE10FACE
:103668000AD497ED057AD7ED067A77EE677AF5EE04
:10367800C07AF1EE10FA01DD012300E0002387F89B
:103688004D3097ED097AD7ED087A77EE677AF5EE3F
:10369800C07AF1EE10FA0AD497ED057AD7ED047ADC
:1036A80077EE677AF5EEC07AF1EE10FA01DD0123C4
:1036B80000E0002387F84C3074E097ED0B7AD7EDE3
:1036C800087A77EE677AF5EEC07AF1EE10FA0CD543
:1036D80097ED077AD7ED047A77EE677AF5EEC07A38
:1036E800F1EE10FA01DD012300E0002387F84F30E6
:1036F80097ED0B7AD7ED0A7A77EE677AF5EEC07A0E
:10370800F1EE10FA0CD597ED077AD7ED067A77EE39
:10371800677AF5EEC07AF1EE10FA01DD012300E0D8
:10372800002387F84E3097ED097AD7ED0A7A77EEBD
:10373800677AF5EEC07AF1EE10FA15D597ED057AAD
:10374800D7ED067A77EE677AF5EEC07AF1EE10FAE1
:103758000ADD012309E000BF7A008BFCFA21094049
:103768000000000000806640002387F84D3097ED88
:10377800097AD7ED087A77EE677AF5EEC07AF1EE36
:1037880010FA0CD597ED057AD7ED047A77EE677ABB
:10379800F5EEC07AF1EE10FA01DD012300E0002316
:1037A80087F84C3097F84F30002B0AD0FB6DBA6879
:1037B800D11ABA6D7B681A4497F87030F868FFF729
:1037C800B9FA97F84E30002B0AD0FA6DBB68D118B9
:1037D800BA6D7B681A4497F87030F868FFF7AAFA50
:1037E80097F84D30002B0AD0FA6DBB68D118BB6D25
:1037F8007A68D21A97F87030F868FFF79BFA97F84A
:103808004C30002B0AD0FB6DBA68D11ABB6D7A68B0
:10381800D21A97F87030F868FFF78CFA7B6D3B6521
:103828003A6DBB6D9A4213DCBB6D0133BB65BB6D52
:103838005B0001337A6D13447B65FB6D5B42BA6DA7
:103848009A4205D13A6DFB6D9A4201DC00233B6533
:103858003A6DFB6D9A4208DDFB6D0133FB65FB6D2C
:103868005B0001337A6D13447B65FB6D002B01DC33
:103878004FE600BF6037BD4680BD00BFB0B588B019
:1038880002AFF860B9607A603B6007F110003B68EE
:103898007A68B96800F046F8F86807F11001FB6A21
:1038A800BA6AFDF791FFBC68F868FDF714FF034694
:1038B8009DB2F868FDF71CFF03469BB21A462946DD
:1038C8002046FEF731F9B8683B6897F83020009237
:1038D8000CCB7968FEF7D5FF00BFF8681837BD46EE
:1038E800B0BD80B483B000AF78607B6818460C37F1
:1038F800BD465DF8047B704780B483B000AF786044
:10390800202318460C37BD465DF8047B704780B409
:1039180083B000AF7860402318460C37BD465DF889
:10392800047B704780B586B000AFF860B9607A60F4
:103938003B607968B86800F015F878613B681B78D7
:103948009AB27B699BB212FB03F39BB219B23B6834
:103958005B781BB21A46F868FDF766FEF8681837F8
:10396800BD4680BD80B485B000AF78603960002363
:10397800FB603B685A1C3A601B78002B14BF01237C
:103988000023DBB2002B03D0FB680133FB60F0E7B8
:10399800FB6818461437BD465DF8047B704780B550
:1039A80000AF4FF6FF710120FFF752FA80BD00000B
:1039B800704700BF202882B009D8084B03EB4002AB
:1039C80013F81030507843EA002002B07047012302
:1039D8000C2043EA002002B0704700BF905A01084B
:1039E800143001F0D7B900BF143001F0CFB900BFCF
:1039F80090ED0E0A704700BF10B540F203338EB049
:103A080000244FF60B7240F20341ADF8083009A8C4
:103A18000123ADF81020ADF824202246ADF80C1093
:103A28000094029907940C94CDE90544CDE90A4421
:103A380002F048F804A8012322460399009402F0F2
:103A480041F809A802F024F910B901200EB010BD00
:103A580004A802F01DF9A0420CBF022020460EB0B7
:103A680010BD00BF2DE9F04103239AB001270024BF
:103A78000646CDE914373B4BCDE9104340F20453D9
:103A8800CDE91647ADF84830FFF7B6FFB84205460E
:103A980025D0022845D040F60132334B0DF12C08D1
:103AA8001894ADF82C200B981997CDF84A3000F0EF
:103AB800D7F810A906F13C0003F032F930200322B0
:103AC8004FF07E5341460D930E93CDE90B02F26BF6
:103AD80006F1140001F01EF91AB0BDE8F0811023B8
:103AE800214A06A906908DF828300DF12C081F4BA5
:103AF800CDF84A2007930294CDE91804CDE90804CB
:103B080002A802F045FB0823029A03A94046ADF833
:103B18000C508DF80E40049505930B9400F0E0F8D6
:103B2800C7E700200121104B0DF12C083A460094FC
:103B3800CDF84A304FF60B730C94ADF82C30234671
:103B4800CDE9180140F601314046ADF81810069944
:103B5800CDE90D4401F0B6FF2146404602F0A4F835
:103B6800A7E700BF04020404040604030704010BCA
:103B78002DE9F04304462DED028B83B0002948D08F
:103B8800012140F2011200230091ADF804208DF8C4
:103B98000630304A0126304B271D304904F12908E8
:103BA800626040F20272A36040F60663E16004F1CD
:103BB80025092682A4F8252084F82760A4F829304E
:103BC80084F82B6004F024FE6946054648B304F1E6
:103BD80030008DF8066004F077FD072D34D104F12C
:103BE80014052046FFF73EFF284601F0CFF8284687
:103BF800B0EE408A01F0C6F8D0ED007AF8EE677AA8
:103C080088EE277A84ED0E7A03B0BDEC028BBDE80E
:103C1800F08340F2011300918DF80610ADF80430DE
:103C2800B7E704F1300004F04FFD3946204602F0B2
:103C3800F7FC484602F042F8404602F03FF804F12B
:103C4800120000F077F9CAE73946204602F0E8FC8E
:103C5800C5E700BF0508050905070506050A0606A4
:103C680010B584B003460124ADF8040003A8ADF8EC
:103C78000C30ADF80E4002F021F8214603A802F0FE
:103C880007F9204604F054FC002103A802F000F9CB
:103C9800204604F04DFC214603A802F0F9F804B0D0
:103CA80010BD00BF10B5C2F3002384B00C46017CE0
:103CB8008DF80D2043EA4402FA2402238DF80C20E3
:103CC80003AA009402F0FAFA18B10124204604B0BD
:103CD80010BD04460A2004F02BFC204604B010BD99
:103CE800034670B543F8042B044684B007C983E83B
:103CF8000700A37983B91A210B461E22FA252374DB
:103D08002046ADF80C20022303AA009502F0D6FA4B
:103D180028B1012004B070BD1B210B46EDE70A2035
:103D280004F006FC4FF4B85200950223ADF80C20BD
:103D3800204603AA217C02F0C1FA0028E9D10A2012
:103D480004F0F6FB41F2027200950223ADF80C2054
:103D5800204603AA217C02F0B1FA0028D9D10A2012
:103D680004F0E6FB042200950223ADF80C2020465F
:103D780003AA217C02F0A2FA0028CAD10A2004F082
:103D8800D7FB062200950223ADF80C20204603AA93
:103D9800217C02F093FA0028BBD10A2004F0C8FB6A
:103DA80041F2082200950223ADF80C20204603AA10
:103DB800217C02F083FA0028ABD10A20064604F0E1
:103DC800B7FB0095022303AA217C2046ADF80C60BE
:103DD80002F074FA00289CD1304604F0A9FB009543
:103DE80022790C232046002A8DF80C3003AA4FF0C4
:103DF800020314BF622142218DF80D10217C02F0CC
:103E08005DFA002885D1304604F092FB2279D4E986
:103E180002310B43DBB20AB943F0400362790AB1BD
:103E280043F020030E22FA258DF80D302046009528
:103E380002238DF80C2003AA217C02F03FFA002807
:103E48007FF467AF0A2004F073FB10220095022369
:103E5800ADF80C20204603AA217C02F02FFA002896
:103E68007FF457AF0A2004F063FB12210095022368
:103E7800ADF80C1003AA217C204602F01FFA002896
:103E88007FF447AF0A2004F053FB012209212046A2
:103E9800FFF708FF003818BF01203BE7F0B51023F3
:103EA80087B0234C012200250126002702A92046BD
:103EB8000195CDE902234FF48052CDE904670BF058
:103EC800BDFC642004F04AFF02A94FF4805220464A
:103ED800CDE9046702261027CDE902670BF0AEFC96
:103EE8000322102302A92046CDE90223002304223D
:103EF800CDE904234FF480520BF0A0FC40F23223AA
:103F0800042202A9019310232046CDE90223019A35
:103F1800012305924FF4805204930BF08FFC40F676
:103F2800060120460BF0AAFC284607B0F0BD00BFEA
:103F380078A506241C4B00221C494FF0400C30B5D4
:103F4800054689B00220596007219A601A62012447
:103F5800DA620A224FF4006EDC6006922022CDE974
:103F6800000104200821CDE9020103201021CDE938
:103F7800040108206946C3E904024FF4C072181D01
:103F8800C3E906C24FF48052C3E909E20BF02CFCE6
:103F980038B92846FFF782FF003818BF012009B05A
:103FA80030BD204609B030BD74A5062440410052FA
:103FB800614A0021D0B513688EB00A91002B40F0F9
:103FC800B9805E4B01214FF683700C2411600221E9
:103FD800D3F8D4200026032742F48052C3F8D42013
:103FE800D3F8D42002F480520092009AD3F8E0204B
:103FF80042F01002C3F8E020D3F8E02002F01002EB
:104008000192019AD3F8E02042F04002C3F8E02080
:10401800D3F8E02002F040020292029AD3F8E0209E
:1040280042F00802C3F8E020D3F8E02002F00802CA
:104038000392039AD3F8E02042F48072C3F8E02098
:10404800D3F8E02002F480720492049AD3F8E020B6
:1040580042F08002C3F8E020D3F8E02002F08002AA
:104068000592059AD3F8E02042F02002C3F8E02038
:10407800D3F8E02002F020020692069AD3F8E02056
:1040880042F00402C3F8E020D3F8E0300C9403F0C7
:10409800040307930323079A0B93CDE9080108A9A2
:1040A800274806F00DFE48F23712022308A92548D2
:1040B8000C94CDE90823CDE90A6706F001FE4CF21D
:1040C8000372022308A920480C94CDE90823CDE9FE
:1040D8000A6706F0F5FD40F2FF62022308A91B48B3
:1040E8000C94CDE90823CDE90A6706F0E9FD4FF6FF
:1040F8000C72022308A916480C94CDE90823CDE9CF
:104108000A6706F0DDFD4FF63F02022308A91148B1
:104118000C94CDE90823CDE90A6706F0D1FD2022E9
:10412800022308A90A480C94CDE90A67CDE90823B7
:1041380006F0C6FD0EB0D0BD70A506240044025896
:104148000010025800180258000C025800200258AB
:10415800001C0258001402582DE9F04FDFF81084B3
:1041680006460D46144608F118002DED028B89B05D
:1041780000AF02F0CDFED8F8183073B3D8F81C3071
:10418800D8F80490002B43690BBF4FF0080A4FF092
:10419800100A4FF0020B4FF0040BB9F1000F2AD0B0
:1041A800A200EA46012B02F1070222F00702ADEB5A
:1041B800020D6846ADEB020D694600F03F81022B07
:1041C80000F0D680002B6FD02246C847D54624374A
:1041D800BD46BDEC028BBDE8F08FD8F81C30002B33
:1041E800F5D0D8F804904FF0080A4FF0020B436955
:1041F800B9F1000FD4D1FB61D8F80030BB61002BB6
:10420800E5D0D54802F0F6FE6B46BBF1020F7861A7
:1042180008EE103AFB6900F083816A465146A2EB2A
:10422800C40295466200EA46B2FBFBF2AAEBC40060
:1042380085460AEB8200EE46F861ADEB010DF869A0
:104248000EEB820CC7F810C0EC46ADEB010D00EB8D
:104258008201CCF80400CCF8081001EB820138691F
:10426800E946CCF80C1000EB8201CCF800A001EB79
:104278008202C9E900E0C9E90212012B00F0648357
:10428800022B00F06C82002B00F080816208494606
:104298006046BB69984718EE103A24379D46BD46DC
:1042A800BDEC028BBDE8F08F002C8DD01A46D8EDFE
:1042B8000C6A9FEDB27A8446331D36F922E00CF180
:1042C800080C07EE90EA33F922E00232F8EEE77ABA
:1042D800944267EE877A67EEA67A4CED027A07EE8B
:1042E80090EAF8EEE77A67EE877A67EEA67A4CED01
:1042F800017AE2D8F9612246C847984ED8ED0D6A8E
:104308000020F9692B1D9FED9E7A9FED9E6ADFEDD7
:104318009E5A22E0F4EEC67AF1EE10FAC0F2C88492
:1043280047F6FE72D1ED017A45F8202066EEA77AAD
:10433800F4EEC77AF1EE10FA40F2F080F4EEC67AA5
:10434800F1EE10FAC0F2D58447F6FE7243F8202049
:104358000230083184427FF639AFD1ED007A66EE3B
:10436800A77AF4EEC77AF1EE10FAD3D83246D9E735
:10437800002C3FF429AFD8ED0C6A84469FED787A7B
:104388000022331D8E4656F822100CF1080C07EE59
:10439800901A53F822100232F8EEE77A944267EE48
:1043A800877A67EEA67A4CED027A07EE901AF8EE55
:1043B800E77A67EE877A67EEA67A4CED017AE2D85B
:1043C80071462246C7F81CE0C847664ED8ED0D6A0C
:1043D8000020F9692B1D9FED6A7A9FED6A6ADFF864
:1043E80094C120E0F4EEC67AF1EE10FAC0F27984B6
:1043F8003246D1ED017A45F8202066EEA77AF4EE30
:10440800C77AF1EE10FA40F28780F4EEC67AF1EE40
:1044180010FAC0F25E84324643F820200230083198
:1044280084427FF6D3AED1ED007A66EEA77AF4EE39
:10443800C77AF1EE10FAD5D86246DAE7002C3FF4D5
:10444800C3AED8ED0C6A86469FED477A4FF0000C54
:10445800331D56F82C200EF1080E82F40002A2F546
:10446800000207EE902A53F82C200CF1020CF8EE0B
:10447800E77A82F400026445A2F5000267EE877AC3
:1044880067EEA67A4EED027A07EE902AF8EEE77A02
:1044980067EE877A67EEA67A4EED017AD9D8F96188
:1044A8002246C847314ED8ED0D6A0020F9692B1D08
:1044B8009FED337A9FED336ADFF8BCC01FE0F4EE5E
:1044C800C67AF1EE10FAC0F2FC833246D1ED017AD9
:1044D80045F8202066EEA77AF4EEC77AF1EE10FAD6
:1044E80018D9F4EEC67AF1EE10FAC0F2DA83324641
:1044F80043F820200230083184427FF667AED1EDC0
:10450800007A66EEA77AF4EEC77AF1EE10FAD6D8FA
:104518006246DBE76246EBE762467DE7324615E72F
:10452800A100D6466208073121F00701ADEB010D65
:10453800EA46ADEB010D6946ADEB0E0D0AEB8200C4
:10454800EC46ADEB0E0D01EB8202F861E946CCE9D1
:1045580000A0C9E9001290E6C8A506240280FFFF62
:10456800000000300082FF7F0000003482FF7F00DF
:10457800ACA50624007E00807E0080FF0000003885
:1045880004FF7FBF04FF7F3F00FEFF46002C00F0C2
:10459800C982BBF1020FD8F8242000F0FA827969A9
:1045A800C7F8049002EB810E5FED0C5A8A00DCF824
:1045B80008100EF104007A611A46DCF80C303B61F1
:1045C800331DD7F810903D61FD69C7E902CB8C46D1
:1045D800834636F92210D8ED0C7A06EE101A33F914
:1045E800221006EE901A3EF92210B8EEC66A07EEBF
:1045F800101AF8EEE66A3BF92210B8EEC77A26EEF2
:10460800256A66EEA56A27EE257A26EE276A66EE03
:10461800A76A27EE277A07EE901A51080232F8EEB9
:10462800E77A0AEB8100944280ED006A05EB81008D
:1046380067EEA57AC0ED006A0CEB810009EB8101F9
:1046480080ED007A98ED0C7A67EE877AC1ED007AF2
:10465800BFD8D7F804903D69D7E902CB6046620815
:10466800BB6949469847D8F82C307A69D8ED0D6A65
:104678001A441FED3D7A1FED3D6A2B1D904602F14D
:10468800040A5FED3F5A0022A84ED9E900EC51E038
:10469800F4EEC67AF1EE10FAC0F2C78247F6FE7061
:1046A80045F822000CEB0100D0ED007A66EEA77AFF
:1046B800F4EEC77AF1EE10FA4BD9F4EEC67AF1EEC1
:1046C80010FAC0F2BA8247F6FE70BBF1020F43F847
:1046D80022002BD0D9F808000844D0ED007A66EE05
:1046E800A77AF4EEC77AF1EE10FA36D9F4EEC67A64
:1046F800F1EE10FAC0F2CD8247F6FE7048F82200BB
:10470800D9F80C000144D1ED007A66EEA77AF4EEF0
:10471800C77AF1EE10FA1ED9F4EEC67AF1EE10FA65
:10472800C0F2AF8247F6FE714AF822100232944274
:104738007FF6B1AD51080EEB81008900D0ED007A0B
:1047480066EEA77AF4EEC77AF1EE10FAA0D83046F2
:10475800A6E73046B9E73146E6E73046CEE7002C13
:1047680000F0E081BBF1020FD8F8243000F0E181BD
:104778007A69DCF8081003EB820EC7F804909300FE
:10478800DFED6B5A0EF1040000227B61DCF80C307F
:104798003B61331DD7F810903D61FD69C7E902CB35
:1047A8008C46834656F82210D8ED0C7A07EE101A7C
:1047B80053F82210B8EEC76A07EE101A5EF82210F6
:1047C800F8EEC76A07EE101A26EE256A5BF8221083
:1047D800B8EEC77A66EEA56A26EE276A27EE257A2E
:1047E80066EEA76A27EE277A07EE901A510802327A
:1047F800F8EEE77A0AEB8100944280ED006A05EB57
:10480800810067EEA57AC0ED006A0CEB810009EB28
:10481800810180ED007A98ED0C7A67EE877AC1ED18
:10482800007ABFD8D7F804903D69D7E902CB604633
:104838006208BB6949469847D8F82C307A69D8EDA0
:104848000D6A1A449FED3E7A9FED3E6A131D92460B
:10485800DFF8E4C00022FB612B1D364ED9E9008E3B
:104868004EE0F4EEC67AF1EE10FAC0F2FC81304662
:1048780045F822000EEB0100D0ED007A66EEA77A2B
:10488800F4EEC77AF1EE10FA49D9F4EEC67AF1EEF1
:1048980010FAC0F2EF813046BBF1020F43F8220054
:1048A8002AD0D9F808000844D0ED007A66EEA77A35
:1048B800F4EEC77AF1EE10FA35D9F4EEC67AF1EED5
:1048C80010FAC0F2C98130464AF82200D9F80C0023
:1048D8000144D1ED007A66EEA77AF4EEC77AF1EEDC
:1048E80010FA1ED9F4EEC67AF1EE10FAC0F2AD81D4
:1048F8003146F86940F82210023294427FF6CBAC78
:10490800510808EB81008900D0ED007A66EEA77A9D
:10491800F4EEC77AF1EE10FAA3D86046A8E760462D
:10492800BAE76146E5E76046CEE700BF0280FFFFD1
:10493800000000300082FF7F007E0080000000340D
:1049480004FF7FBF04FF7F3F002C00F0EB807A69F3
:104958000021D8F82430C7F8109003EB820ED7F85E
:104968001C909300FD610EF104021FED0C6A7B613F
:10497800331D154656F821204808D8ED0C6ABBF1BE
:10498800020F82F40002A2F5000207EE902A53F803
:10499800212082F40002B8EEE77AA2F5000227EEA1
:1049A800067A07EE902A0AEB8002F8EEE77A27EEFD
:1049B800267A67EE867A82ED007A09EB80024FEA62
:1049C800800067EEA67AC2ED007A27D05EF8212033
:1049D80082F40002A2F5000207EE902A55F8212081
:1049E80082F40002B8EEE77AA2F5000227EE067A12
:1049F80007EE902ADCF80820F8EEE77A024427EE62
:104A0800267A67EE867A82ED007A98ED0C7ADCF8E1
:104A18000C2067EE877A0244C2ED007A02318C429C
:104A2800A8D8D7F8109060466208BB694946FD6966
:104A38009847D8F82C307A69D8ED0D6A1A441FEDDA
:104A4800407A1FED406A131D9246DFF8C4C2002267
:104A5800FB612B1DAB4ED9E9008E4EE0F4EEC67A11
:104A6800F1EE10FAC0F2C580304645F822000EEB90
:104A78000100D0ED007A66EEA77AF4EEC77AF1EE7F
:104A880010FA49D9F4EEC67AF1EE10FAC0F2BF80F6
:104A98003046BBF1020F43F822002AD0D9F80800AB
:104AA8000844D0ED007A66EEA77AF4EEC77AF1EE04
:104AB80010FA35D9F4EEC67AF1EE10FAC0F2AE80EB
:104AC80030464AF82200D9F80C000144D1ED007AAA
:104AD80066EEA77AF4EEC77AF1EE10FA1ED9F4EE74
:104AE800C67AF1EE10FAC0F28B803146F86940F8C8
:104AF8002210023294427FF6CEAB510808EB8100B7
:104B08008900D0ED007A66EEA77AF4EEC77AF1EE66
:104B180010FAA3D86046A8E76046BAE76146E5E719
:104B28006046CEE7224649466046BB699847FFF78C
:104B3800B2BBC7F810B0002298ED0C6A331DDFED48
:104B4800726AD7F81CB0786956F8221007EE901AE6
:104B580053F82210B8EEE77A07EE901A510802329D
:104B6800F8EEE77A27EE267A0AEB810E94420BEBF1
:104B7800810167EEA67A27EE067A67EE867A8EEDD1
:104B8800007AC1ED007ADFD88300D7F810B07B61D6
:104B98004DE61A46C7F810B098ED0C6A331DDFEDE4
:104BA8005B6AD7F81CB0786936F9221007EE101A3C
:104BB80033F9221007EE901AB8EEC77A510802327C
:104BC800F8EEE77A27EE267A0AEB810E94420BEB91
:104BD800810167EEA67A27EE067A67EE867A8EED71
:104BE800007AC1ED007ADFD88300D7F810B07B6176
:104BF80034E5F0EE675AFEEEE45A15EE900A34E713
:104C0800F0EE675AFEEEE45A15EE901A6EE7F0EEF3
:104C1800675AFEEEE45A15EE900A3AE7F0EE675A44
:104C2800FEEEE45A15EE900A4BE767EEA57AFDEE24
:104C3800E77A17EE900A00B232E567EEA57AFDEE44
:104C4800E77A17EE900A00B23FE5F0EE675AFEEEFB
:104C5800E05A15EE901A4CE6F0EE675AFEEEE05A6E
:104C680015EE900A30E6F0EE675AFEEEE05A15EEC1
:104C7800900AFDE5F0EE675AFEEEE05A15EE900A4E
:104C88000AE667EEA57AFDEEE77A17EE901A09B202
:104C98004AE567EEA57AFDEEE77A17EE900A00B2CC
:104CA8002CE5F0EE675AFEEEE45A15EE902A1FE462
:104CB80067EEA57AFDEEE77A17EE902A12B2FFF7B3
:104CC80031BBF0EE675AFEEEE45A15EE902AFFF774
:104CD800FDBBF0EE675AFEEEE05A15EE902AFFF79C
:104CE8009BBBF0EE675AFEEEE05A15EE902AFFF7EE
:104CF80080BB67EEA57AFDEEE77A17EE902A12B22E
:104D0800FFF724BB82FF7F0000000030000000385E
:104D18007E0080FF30B5184C154685B0046004F15C
:104D2800080EEC460FC98EE80F00D4ED047AF5EEB4
:104D3800C07A8CE80F00F1EE10FA1ADDB7EE006ABF
:104D480094ED057A27EE277AC6EE276A84ED0D7A68
:104D5800C4ED0C6A6DB1204640F8185F02F0D8F82F
:104D6800064903690020064A2162A262E36005B091
:104D780030BD012005B030BDACA5062400200030B0
:104D88000000003000680830704700BF0068183025
:104D980002F01EB930B5046883B00D46E3694BB123
:104DA800A3680020E26A616A9B00009004F11C007D
:104DB80002F0B0F8A3680748A26A9B00216A009035
:104DC80004F1180002F0A6F80020C4E9005003B06E
:104DD80030BD00BF6141000810B4074B4FF07E5151
:104DE80030240022032019619C60D8605DF8044BD0
:104DF8005961C3E906227047ACA50624F6EE007A8D
:104E08009FED166A20EE207A0160F7EE006A80EDC9
:104E1800036A80ED020A27EE277AC6EE877AF4EE57
:104E2800E67AF1EE10FA11DDF0EE667A4FF07E5177
:104E38004FF0000C02760022C0ED017AC0F814C0D1
:104E4800016143768276C0ED070A7047F4EEC67AB0
:104E5800F1EE10FAEAD5F0EE467AE7E70000000036
:104E68000268037E128807EE902AFBEEC87A1BB10F
:104E7800B7EE007A77EE677AD0ED056A90ED047A9E
:104E880077EEE67A437E67EE877A0BB1F1EE677AC2
:104E980090ED030A90ED017A77EEC07AA7EE270A23
:104EA80080ED030A704700BF30B585B00446002581
:104EB800ADF80C10ADF80820ADF8043003F036FB5F
:104EC800BDF80C204FF48073206004F11800228391
:104ED800BDF808206383E383A283257100F0EEFE0A
:104EE80004F11C0000F0EAFE9FED060A019904F1A6
:104EF800080000F0E7F84FF6FF736562238405B0F9
:104F080030BD00BF00000000F8B5044603F00EFBFA
:104F1800002623682671834205D104F10800BDE804
:104F2800F84000F0E9B8012794F82050206004F117
:104F38001800BD40277100F09DFF6DB2284394F81A
:104F48002150BD4084F8200004F11C0000F092FFBD
:104F580094F820306DB2666203F003032843022BF5
:104F6800C0B284F8210009D000F003000228D4D18F
:104F7800002BD2D14FF0FF336362CEE78307CCD149
:104F88006762CAE7074A118830B481800024064D59
:104F980091884FF4807285600460C180C26030BC23
:104FA800704700BF8C5801080040003000220A23D7
:104FB80002700371704700BFDFED167A8C46B4EEBD
:104FC800670A10B504468646F1EE10FA2DED028BFD
:104FD80080ED080A48BFB0EE670AC0ED090AB0EED6
:104FE800608A80F83420BCE80F00AEE80F009CE827
:104FF8000F008EE80F0010F01BF9F0EE407AB0EECB
:10500800480AC4ED0A7A10F013F984ED0B0ABDECD6
:10501800028B10BD95BFD63390F8343010B50446D6
:10502800032B4BD8DFE803F03B2A1502FFF718FFE4
:1050380060EE006AD4ED087A94ED097A26EE800ACB
:1050480037EE677AE0EE077AC4ED0C7AB0EE670ABD
:1050580010BDFFF705FF94ED0A7AD4ED0B7A77EED1
:10506800C77AA0EE277AB0EE470A10F06FF8F0EE94
:10507800407A84ED0C0AB0EE670A10BDFFF7F0FE27
:10508800D4ED087A94ED097A20EE000A37EE677AB3
:10509800E0EE077AB0EE670AC4ED0C7A10BDFFF7B0
:1050A800DFFED4ED087A94ED097A37EE677AE0EE00
:1050B800077AB0EE670AC4ED0C7A10BDD0ED0C7A11
:1050C800C4E700BF70B5044682B0C1F30726CDB26D
:1050D800ADF8041003F02AFA4FF480724FF0012360
:1050E8002060A01DA571A280E671A36002B0BDE892
:1050F800704000F0E3BD00BF38B5044603F016FA6F
:10510800002223682271834210D00122A57AE37A13
:10511800954020602271A01D6DB243B900F0AAFE2F
:1051280040B22843C0B27F28A0720AD038BD00F030
:10513800A1FEB0FA80F040092843C0B27F28A072CF
:10514800F4D103F0F3F907EE900AF8EE677AC4EDAC
:10515800037A38BD00B583B04FF0000E4FF0030C52
:105168004274ADF80410BDF8043080F810E0A0F8DF
:1051780002C0038003B05DF804FB00BF2DE9F04FC7
:10518800DFF81C8300258DB0C04C037008F1400384
:105198004260074601920E46202229464046C4F83E
:1051A8006831C4F86481CDE90255CDE90455CDE9EB
:1051B8000655CDE90855CDE90A5510F001FA202227
:1051C800294604F5A170C4F83151C4F83551C4F822
:1051D8003951C4F83D5110F0F3F9019B84F8485255
:1051E80084F830317A68002A6AD02B4604F5987121
:1051F800454606F1100A9E46F01856F803B0E21824
:105208000EF1010ED0F80CC0D0F80490D0F8088048
:1052180044F803B0C2F80CC04FF0000CC2F8049078
:10522800C2F80880008A25F802CB10821AF80320F9
:1052380001F8012F002A70D07A684FF0010012336C
:10524800724584F84802D7D84FF4802290489DF8D8
:10525800043008214FF000084FF00009C4F88431E9
:105268000023C4E95B020122C4F8743184F8803158
:10527800C4E95E2194F84812C4E96489A9B3C4F862
:105288009821002284F8813184F888313B78C4E978
:105298006722002B38D0012200200121013B84F82D
:1052A800A421C4E96C01082B30D8DFE813F0BD0055
:1052B800C200C700CC00D100D600DB00E100E80046
:1052C8009DF804300121C4F87421C4F884314FF4E6
:1052D800802384F880216E4AC4E95B2308230022D6
:1052E800C4E95E130023C4E964230123002284F87F
:1052F8008131002384F888310323C4F898313B783E
:10530800C4E96722002BC6D184F8A431614804F0AF
:105318005DF9034638B1FFBEFEE77A68123372457D
:105328003FF66AAF90E702A95A48029304F0ACFA34
:105338008246002876D1042240F2FF710A90CDE916
:10534800081294F83021002A00F0F3804FF0060884
:105358000AEBCA034FEACA0904EB43035B7C072B39
:1053680007D8DFE803F0595C5653504D4A04072329
:1053780007930FFA8AF6D14406EBC60604EB4909EF
:1053880004EB46077500384600F098FC99F8103091
:10539800042B00F3AA80022B00F3BD8000F0B98033
:1053A80004EB0A03002283F8202114F81630002B9E
:1053B80078D0022B00F08A80012B40F0B2807B78F5
:1053C800012B00F0B080002B334B18BF002305A938
:1053D8003048CDE9053803F025FD002840F0AC80C1
:1053E8000AF1010A94F830315FFA8AFA534540F21B
:1053F800A0802A4B53F82A80AAE706230793B8E728
:1054080005230793B5E704230793B2E7032307931C
:10541800AFE702230793ACE700230793A9E701232B
:105428000793A6E7FFBEFEE703224023C4E96A23E9
:105438006CE707226023C4E96A2367E70F22802309
:10544800C4E96A2362E71F22A023C4E96A235DE74F
:105458003F22C023C4E96A2358E77F22E023C4E936
:105468006A2353E7FF224FF48073C4E96A234DE7A8
:1054780040F2FF124FF49073C4E96A2346E740F202
:10548800FF324FF4A073C4E96A233FE7E8A5062476
:105498000020024054A706240002B025D45A01086F
:1054A800004100307B78062B37D0072B3DD0022BEC
:1054B8004AD0032B4AD0002B4CD0012B48D0042BC8
:1054C8004AD0052B254B18BF002380E77B78042B97
:1054D80025D0052B2BD08BB3012B31D0022B31D00B
:1054E800032B1F4B18BF002371E70323043504EB7C
:1054F8000A0B4FF0000925448BF82031284609F1A2
:10550800010900F0DBFB9BF8203104354B45F5DC45
:105518004BE70123EAE70223E8E7124B57E7124B70
:1055280055E7002353E7114B51E7114B4FE7114B58
:105538004DE70DB0BDE8F08FFFBEFEE70E4B46E726
:105548000E4B44E70E4B42E70E4B40E70E4B3EE74F
:105558000E4B3CE70E4B3AE70E4B38E70000B84FCE
:10556800002090360800900C1000C0102000F014A5
:105578008000501D000180210004002A0008302E00
:10558800001060320040C03A0080F03E00005247F0
:10559800000021430000844B38B5094C40F2FF72EB
:1055A8004FF0011104F5B675284604F01BF994F87C
:1055B8003021D4F864112846BDE8384003F086BE8F
:1055C800E8A50624034B0F29D3F8640198BF00EB24
:1055D80041007047E8A50624214B02689A4200D092
:1055E8007047204A00232048D2F8D81030B51F4C05
:1055F80041F0200183B0C4F8D001092004F5E87512
:10560800C4E975034FF48060C2F8D810D2F8D820E6
:105618004FF40061C4E9773094F8480202F02002A0
:10562800C4F8E4114FF40051984201922846C4F896
:10563800E811C4E97C33019B14BF00234FF4807345
:10564800C4F8EC3104F072FC08B1FFBEFEE704F5C3
:10565800B673C4F8B851C4F8083203B030BD00BFFF
:10566800002002400044025840000240E8A50624F9
:10567800014804F0D3BF00BFB8A7062402682DE98B
:10568800F84F4B4B9A4201D0BDE8F88F494D95F839
:105698004832002BF8D095F83031002B77D0002411
:1056A80005F10C0905F5A17605F59877A04613E0F4
:1056B80003F0010117F811BCA9F1080000F0E8FB9C
:1056C800BBF1010F25D895F83031013409F11209E1
:1056D8000236A2B293422BD917F8012F002AF4D030
:1056E800D5F864310021327833F81400D5F86831E0
:1056F80003EB041323F81200338801339BB2338081
:105708005FFA83FA3A789A42D2D88A46A6F8008095
:10571800D0E7CAF34001A9F1040000F0B9FBBBF1DE
:10572800020FCAF38001CED0484600F0B1FBCAE7A9
:10573800002395F84802204909229842C5F8D83133
:105748004FF48060C5F8D011C5F8D4214FF400613A
:105758004FF40052C5F8DC3108BF4FF48073C5F828
:10576800E821C5E9780100221448C5E97B32C5F86B
:10577800F42104F0DBFB08B1FFBEFEE795F8302109
:10578800D5F864110E48BDE8F84F03F09FBD0A49EB
:1057980009224FF48060C5F8D831C5E974124FF476
:1057A80000614FF40052C5E97730C5E97912DAE7AC
:1057B80000200240E8A5062440000240B8A70624BD
:1057C80054A70624704700BF4F4B02689A4200D086
:1057D80070474E4BD3F8E81030B541F000514C4CAF
:1057E80085B0D4F84821C3F8E810D3F8E81001F0E0
:1057F800005101910199D3F8E01041F00101C3F87B
:10580800E010D3F8E03003F001030293029B32F07A
:1058180002033DD0013A012A6BD9D4F84C31012B4F
:105828000AD000223620114604F0A2F8362005B02E
:10583800BDE8304004F0DAB8D4F8483133F0020259
:1058480034D0013B012BECD8442240233149324D5E
:10585800C4F88C1000212846C4F8B010C4E92423E9
:1058680000224FF48063C4E926234FF400624FF40A
:105878000053C4E928234FF480724FF48033C4E9FD
:105888002A2304F053FB80B9E560C4F8C440C8E794
:105898004FF48062032303A8ADF80C208DF80E3076
:1058A80000F00CFAD4F84821B4E7FEE71B4BA263DA
:1058B8004322636140231A4DC4E9062300224FF4B2
:1058C80080632846C4E908234FF400624FF400536C
:1058D800C4E90A234FF480724FF48033C4E90C23DF
:1058E80004F024FB20B9D4F84831A560E464A8E7A3
:1058F800FEE74FF4A062032303A8ADF80C208DF84F
:105908000E3000F0DBF988E70074004000440258CC
:1059180038A8062428040240C4A80624100402401B
:105928004CA80624014804F079BE00BF4CA8062400
:10593800014804F073BE00BFC4A8062410B5054C86
:10594800204604F03FF904F58270BDE810400AF0E3
:1059580043B900BF38A8062430B58C463A4C3B4DB5
:105968008DB0046004F5A27EBCE80F00AEE80F001D
:10597800DCF8003020462560CEF8003004F0C4F88A
:105988000023D4F84C510393C5B11622012D04927B
:1059980017D00022D4F85411D4F848319142CDE9F7
:1059A800062218BF0222059233F0020235D0013BCD
:1059B800012B3CD9002528460DB030BD02230493A5
:1059C800E7E7234A0093C4F80C31C4F81431C4F84B
:1059D8000421C4F81C31CDE9013302F017FFD4F8D3
:1059E80044314BF68032C4F80851002B08BF1346E7
:1059F800B0FBF3F304F58270C4F8103109F056FFD8
:105A08000028D8D120230290694604F582700093BB
:105A18000AF09AF90028BCD0CDE703A90A4804F097
:105A280005F978B9D4F84831013B012BC2D81022C6
:105A380003A9054804F0FAF8051E18BF01252846F1
:105A48000DB030BD0125B6E738A806240074004023
:105A5800001000402DE9F0410668D6F84C5105BB0E
:105A6800D6F850310C461746002B0CBF4FF00808EB
:105A78004FF0000831F0020305D0013C012C14D985
:105A88002846BDE8F0811346294642463046013C87
:105A980004F07EF82946304604F04CF8012CEFD883
:105AA80003E001252846BDE8F0813B464246102127
:105AB800304604F06DF81021304604F03BF82846D3
:105AC800BDE8F08110B592B0ADF804100180C9B2FC
